{
  "abi": [
    {
      "inputs": [],
      "stateMutability": "nonpayable",
      "type": "constructor"
    },
    {
      "anonymous": false,
      "inputs": [
        {
          "indexed": false,
          "internalType": "uint256",
          "name": "index",
          "type": "uint256"
        }
      ],
      "name": "BidIndex",
      "type": "event"
    },
    {
      "anonymous": false,
      "inputs": [
        {
          "indexed": false,
          "internalType": "string",
          "name": "str",
          "type": "string"
        }
      ],
      "name": "Message",
      "type": "event"
    },
    {
      "anonymous": false,
      "inputs": [
        {
          "indexed": false,
          "internalType": "int256",
          "name": "index",
          "type": "int256"
        }
      ],
      "name": "PostIndex",
      "type": "event"
    },
    {
      "inputs": [
        {
          "internalType": "address",
          "name": "addr",
          "type": "address"
        }
      ],
      "name": "addAmbulance",
      "outputs": [],
      "stateMutability": "nonpayable",
      "type": "function"
    },
    {
      "inputs": [
        {
          "internalType": "address",
          "name": "addr",
          "type": "address"
        }
      ],
      "name": "addHospital",
      "outputs": [],
      "stateMutability": "nonpayable",
      "type": "function"
    },
    {
      "inputs": [
        {
          "internalType": "address",
          "name": "addr",
          "type": "address"
        }
      ],
      "name": "addPolice",
      "outputs": [],
      "stateMutability": "nonpayable",
      "type": "function"
    },
    {
      "inputs": [],
      "name": "admin",
      "outputs": [
        {
          "internalType": "address",
          "name": "",
          "type": "address"
        }
      ],
      "stateMutability": "view",
      "type": "function"
    },
    {
      "inputs": [],
      "name": "getAllTenders",
      "outputs": [
        {
          "components": [
            {
              "internalType": "address payable",
              "name": "tenderPoster",
              "type": "address"
            },
            {
              "internalType": "address payable",
              "name": "tenderAccepter",
              "type": "address"
            },
            {
              "internalType": "enum AmbulanceBounties.TenderStatus",
              "name": "status",
              "type": "uint8"
            },
            {
              "internalType": "uint256",
              "name": "postDate",
              "type": "uint256"
            },
            {
              "internalType": "uint256",
              "name": "dueDate",
              "type": "uint256"
            },
            {
              "internalType": "string",
              "name": "location",
              "type": "string"
            },
            {
              "internalType": "address[]",
              "name": "allowedHospitals",
              "type": "address[]"
            },
            {
              "internalType": "uint256",
              "name": "maxBid",
              "type": "uint256"
            },
            {
              "internalType": "uint256",
              "name": "penalty",
              "type": "uint256"
            },
            {
              "internalType": "address[]",
              "name": "bidders",
              "type": "address[]"
            },
            {
              "internalType": "uint256[]",
              "name": "bidHashArray",
              "type": "uint256[]"
            },
            {
              "internalType": "uint256",
              "name": "finalBid",
              "type": "uint256"
            },
            {
              "internalType": "string",
              "name": "severity",
              "type": "string"
            },
            {
              "internalType": "uint256",
              "name": "tenderId",
              "type": "uint256"
            }
          ],
          "internalType": "struct AmbulanceBounties.Tender[]",
          "name": "",
          "type": "tuple[]"
        }
      ],
      "stateMutability": "view",
      "type": "function"
    },
    {
      "inputs": [
        {
          "internalType": "int256",
          "name": "tenderId",
          "type": "int256"
        }
      ],
      "name": "getWinner",
      "outputs": [
        {
          "internalType": "address",
          "name": "tenderWinner",
          "type": "address"
        }
      ],
      "stateMutability": "view",
      "type": "function"
    },
    {
      "inputs": [
        {
          "internalType": "uint256",
          "name": "bidValue",
          "type": "uint256"
        },
        {
          "internalType": "uint256",
          "name": "salt",
          "type": "uint256"
        }
      ],
      "name": "hashVal",
      "outputs": [
        {
          "internalType": "uint256",
          "name": "",
          "type": "uint256"
        }
      ],
      "stateMutability": "pure",
      "type": "function"
    },
    {
      "inputs": [
        {
          "internalType": "address",
          "name": "adminAddress",
          "type": "address"
        }
      ],
      "name": "isAdmin",
      "outputs": [
        {
          "internalType": "bool",
          "name": "",
          "type": "bool"
        }
      ],
      "stateMutability": "view",
      "type": "function"
    },
    {
      "inputs": [
        {
          "internalType": "address",
          "name": "ambAddress",
          "type": "address"
        }
      ],
      "name": "isAmbulance",
      "outputs": [
        {
          "internalType": "bool",
          "name": "",
          "type": "bool"
        }
      ],
      "stateMutability": "view",
      "type": "function"
    },
    {
      "inputs": [
        {
          "internalType": "address",
          "name": "hosAddress",
          "type": "address"
        }
      ],
      "name": "isHospital",
      "outputs": [
        {
          "internalType": "bool",
          "name": "",
          "type": "bool"
        }
      ],
      "stateMutability": "view",
      "type": "function"
    },
    {
      "inputs": [
        {
          "internalType": "address",
          "name": "polAddress",
          "type": "address"
        }
      ],
      "name": "isPolice",
      "outputs": [
        {
          "internalType": "bool",
          "name": "",
          "type": "bool"
        }
      ],
      "stateMutability": "view",
      "type": "function"
    },
    {
      "inputs": [
        {
          "internalType": "uint256",
          "name": "timeLimit",
          "type": "uint256"
        },
        {
          "internalType": "string",
          "name": "location",
          "type": "string"
        },
        {
          "internalType": "address[]",
          "name": "allowedHospitals",
          "type": "address[]"
        },
        {
          "internalType": "uint256",
          "name": "penalty",
          "type": "uint256"
        },
        {
          "internalType": "string",
          "name": "severity",
          "type": "string"
        }
      ],
      "name": "postTender",
      "outputs": [
        {
          "internalType": "int256",
          "name": "",
          "type": "int256"
        }
      ],
      "stateMutability": "payable",
      "type": "function"
    },
    {
      "inputs": [
        {
          "internalType": "int256",
          "name": "tenderId",
          "type": "int256"
        }
      ],
      "name": "reclaimTender",
      "outputs": [],
      "stateMutability": "nonpayable",
      "type": "function"
    },
    {
      "inputs": [
        {
          "internalType": "address",
          "name": "ambulance",
          "type": "address"
        }
      ],
      "name": "removeAmbulance",
      "outputs": [],
      "stateMutability": "nonpayable",
      "type": "function"
    },
    {
      "inputs": [
        {
          "internalType": "address",
          "name": "hospital",
          "type": "address"
        }
      ],
      "name": "removeHospital",
      "outputs": [],
      "stateMutability": "nonpayable",
      "type": "function"
    },
    {
      "inputs": [
        {
          "internalType": "address",
          "name": "police",
          "type": "address"
        }
      ],
      "name": "removePolice",
      "outputs": [],
      "stateMutability": "nonpayable",
      "type": "function"
    },
    {
      "inputs": [
        {
          "internalType": "int256",
          "name": "tenderId",
          "type": "int256"
        }
      ],
      "name": "retractTender",
      "outputs": [],
      "stateMutability": "nonpayable",
      "type": "function"
    },
    {
      "inputs": [
        {
          "internalType": "int256",
          "name": "tenderId",
          "type": "int256"
        },
        {
          "internalType": "uint256",
          "name": "bidValue",
          "type": "uint256"
        },
        {
          "internalType": "uint256",
          "name": "salt",
          "type": "uint256"
        },
        {
          "internalType": "uint256",
          "name": "index",
          "type": "uint256"
        }
      ],
      "name": "revealBid",
      "outputs": [],
      "stateMutability": "payable",
      "type": "function"
    },
    {
      "inputs": [
        {
          "internalType": "int256",
          "name": "tenderId",
          "type": "int256"
        },
        {
          "internalType": "uint256",
          "name": "bidHashedAmount",
          "type": "uint256"
        }
      ],
      "name": "secretBid",
      "outputs": [
        {
          "internalType": "uint256",
          "name": "index",
          "type": "uint256"
        }
      ],
      "stateMutability": "payable",
      "type": "function"
    },
    {
      "inputs": [
        {
          "internalType": "uint256",
          "name": "",
          "type": "uint256"
        }
      ],
      "name": "tenderIds",
      "outputs": [
        {
          "internalType": "int256",
          "name": "",
          "type": "int256"
        }
      ],
      "stateMutability": "view",
      "type": "function"
    },
    {
      "inputs": [
        {
          "internalType": "int256",
          "name": "",
          "type": "int256"
        }
      ],
      "name": "tenderMapping",
      "outputs": [
        {
          "internalType": "address payable",
          "name": "tenderPoster",
          "type": "address"
        },
        {
          "internalType": "address payable",
          "name": "tenderAccepter",
          "type": "address"
        },
        {
          "internalType": "enum AmbulanceBounties.TenderStatus",
          "name": "status",
          "type": "uint8"
        },
        {
          "internalType": "uint256",
          "name": "postDate",
          "type": "uint256"
        },
        {
          "internalType": "uint256",
          "name": "dueDate",
          "type": "uint256"
        },
        {
          "internalType": "string",
          "name": "location",
          "type": "string"
        },
        {
          "internalType": "uint256",
          "name": "maxBid",
          "type": "uint256"
        },
        {
          "internalType": "uint256",
          "name": "penalty",
          "type": "uint256"
        },
        {
          "internalType": "uint256",
          "name": "finalBid",
          "type": "uint256"
        },
        {
          "internalType": "string",
          "name": "severity",
          "type": "string"
        },
        {
          "internalType": "uint256",
          "name": "tenderId",
          "type": "uint256"
        }
      ],
      "stateMutability": "view",
      "type": "function"
    },
    {
      "inputs": [
        {
          "internalType": "uint256",
          "name": "",
          "type": "uint256"
        }
      ],
      "name": "tenders",
      "outputs": [
        {
          "internalType": "address payable",
          "name": "tenderPoster",
          "type": "address"
        },
        {
          "internalType": "address payable",
          "name": "tenderAccepter",
          "type": "address"
        },
        {
          "internalType": "enum AmbulanceBounties.TenderStatus",
          "name": "status",
          "type": "uint8"
        },
        {
          "internalType": "uint256",
          "name": "postDate",
          "type": "uint256"
        },
        {
          "internalType": "uint256",
          "name": "dueDate",
          "type": "uint256"
        },
        {
          "internalType": "string",
          "name": "location",
          "type": "string"
        },
        {
          "internalType": "uint256",
          "name": "maxBid",
          "type": "uint256"
        },
        {
          "internalType": "uint256",
          "name": "penalty",
          "type": "uint256"
        },
        {
          "internalType": "uint256",
          "name": "finalBid",
          "type": "uint256"
        },
        {
          "internalType": "string",
          "name": "severity",
          "type": "string"
        },
        {
          "internalType": "uint256",
          "name": "tenderId",
          "type": "uint256"
        }
      ],
      "stateMutability": "view",
      "type": "function"
    },
    {
      "inputs": [
        {
          "internalType": "int256",
          "name": "tenderId",
          "type": "int256"
        }
      ],
      "name": "verifyDelivery",
      "outputs": [],
      "stateMutability": "nonpayable",
      "type": "function"
    }
  ],
  "bytecode": {
    "object": "0x6080604052600060075534801561001557600080fd5b50600080546001600160a01b031916331790556132af806100376000396000f3fe6080604052600436106101405760003560e01c80634e8c61b2116100b6578063dea6e0fe1161006f578063dea6e0fe14610394578063e4da6e4d146103b4578063e6c525d2146103d4578063f2c9eb01146103f4578063f851a44014610414578063ff8491de1461043457600080fd5b80634e8c61b2146102d65780635272bfc91461030e57806365ce329614610321578063a969890614610334578063bdf6c67314610354578063c2b296071461037457600080fd5b80632a84b3e4116101085780632a84b3e4146102155780632ddd8f9d1461023557806331e5ecaa1461025557806339c776b614610275578063465e1def146102a357806349050143146102c357600080fd5b80630b9713381461014557806313ca476f1461017a5780631b470bc7146101b15780632358c046146101d357806324d7806c146101f5575b600080fd5b34801561015157600080fd5b50610165610160366004612a51565b610454565b60405190151581526020015b60405180910390f35b34801561018657600080fd5b5061019a610195366004612a6c565b61048f565b6040516101719b9a99989796959493929190612b0a565b3480156101bd57600080fd5b506101d16101cc366004612a51565b610604565b005b3480156101df57600080fd5b506101e86107f9565b6040516101719190612c04565b34801561020157600080fd5b50610165610210366004612a51565b610b2a565b34801561022157600080fd5b506101d1610230366004612a51565b610b49565b34801561024157600080fd5b506101d1610250366004612a6c565b610c22565b34801561026157600080fd5b506101d1610270366004612a51565b61104a565b34801561028157600080fd5b50610295610290366004612a6c565b6110ab565b604051908152602001610171565b3480156102af57600080fd5b5061019a6102be366004612a6c565b6110cc565b6102956102d1366004612e18565b61112d565b3480156102e257600080fd5b506102f66102f1366004612a6c565b61163f565b6040516001600160a01b039091168152602001610171565b6101d161031c366004612f21565b6116cf565b61029561032f366004612f53565b611a07565b34801561034057600080fd5b506101d161034f366004612a51565b611bd5565b34801561036057600080fd5b5061016561036f366004612a51565b611c36565b34801561038057600080fd5b506101d161038f366004612a51565b611c63565b3480156103a057600080fd5b506102956103af366004612f53565b611cc4565b3480156103c057600080fd5b506101d16103cf366004612a6c565b611d01565b3480156103e057600080fd5b506101656103ef366004612a51565b611e08565b34801561040057600080fd5b506101d161040f366004612a6c565b611e35565b34801561042057600080fd5b506000546102f6906001600160a01b031681565b34801561044057600080fd5b506101d161044f366004612a51565b611edc565b6001600160a01b038116600090815260016020819052604082205460ff161515900361048257506001919050565b506000919050565b919050565b600560205260009081526040902080546001820154600283015460038401546004850180546001600160a01b039586169695851695600160a01b90950460ff169491906104db90612f75565b80601f016020809104026020016040519081016040528092919081815260200182805461050790612f75565b80156105545780601f1061052957610100808354040283529160200191610554565b820191906000526020600020905b81548152906001019060200180831161053757829003601f168201915b50505050509080600601549080600701549080600a01549080600b01805461057b90612f75565b80601f01602080910402602001604051908101604052809291908181526020018280546105a790612f75565b80156105f45780601f106105c9576101008083540402835291602001916105f4565b820191906000526020600020905b8154815290600101906020018083116105d757829003601f168201915b50505050509080600c015490508b565b6001600160a01b03811660009081526001602081905260409091205460ff161515900361066f5760405162461bcd60e51b8152602060048201526014602482015273616c726561647920616e20616d62756c616e636560601b60448201526064015b60405180910390fd5b6001600160a01b03811660009081526003602052604090205460ff1615156001036106d15760405162461bcd60e51b8152602060048201526012602482015271185b1c9958591e4818481a1bdcdc1a5d185b60721b6044820152606401610666565b6001600160a01b03811660009081526002602052604090205460ff1615156001036107315760405162461bcd60e51b815260206004820152601060248201526f616c7265616479206120706f6c69636560801b6044820152606401610666565b6000546001600160a01b03908116908216036107825760405162461bcd60e51b815260206004820152601060248201526f30b63932b0b23c9030b71030b236b4b760811b6044820152606401610666565b6000546001600160a01b031633146107d55760405162461bcd60e51b815260206004820152601660248201527539b2b73232b91034b9903737ba1030b71030b236b4b760511b6044820152606401610666565b6001600160a01b03166000908152600360205260409020805460ff19166001179055565b60606006805480602002602001604051908101604052809291908181526020016000905b82821015610b21576000848152602090819020604080516101c081018252600d860290920180546001600160a01b039081168452600182015490811694840194909452919290830190600160a01b900460ff16600281111561088157610881612a85565b600281111561089257610892612a85565b815260200160028201548152602001600382015481526020016004820180546108ba90612f75565b80601f01602080910402602001604051908101604052809291908181526020018280546108e690612f75565b80156109335780601f1061090857610100808354040283529160200191610933565b820191906000526020600020905b81548152906001019060200180831161091657829003601f168201915b505050505081526020016005820180548060200260200160405190810160405280929190818152602001828054801561099557602002820191906000526020600020905b81546001600160a01b03168152600190910190602001808311610977575b50505050508152602001600682015481526020016007820154815260200160088201805480602002602001604051908101604052809291908181526020018280548015610a0b57602002820191906000526020600020905b81546001600160a01b031681526001909101906020018083116109ed575b5050505050815260200160098201805480602002602001604051908101604052809291908181526020018280548015610a6357602002820191906000526020600020905b815481526020019060010190808311610a4f575b50505050508152602001600a8201548152602001600b82018054610a8690612f75565b80601f0160208091040260200160405190810160405280929190818152602001828054610ab290612f75565b8015610aff5780601f10610ad457610100808354040283529160200191610aff565b820191906000526020600020905b815481529060010190602001808311610ae257829003601f168201915b50505050508152602001600c820154815250508152602001906001019061081d565b50505050905090565b600080546001600160a01b039081169083160361048257506001919050565b6001600160a01b03811660009081526001602081905260409091205460ff1615159003610b7557600080fd5b6001600160a01b03811660009081526003602052604090205460ff161515600103610b9f57600080fd5b6001600160a01b03811660009081526002602052604090205460ff161515600103610bc957600080fd5b6000546001600160a01b0390811690821603610be457600080fd5b6000546001600160a01b03163314610bfb57600080fd5b6001600160a01b03166000908152600160208190526040909120805460ff19169091179055565b3360009081526003602052604090205460ff16610c795760405162461bcd60e51b815260206004820152601560248201527414d95b99195c881b9bdd08185d5d1a1bdc9a5e9959605a1b6044820152606401610666565b6001600082815260056020526040902060010154600160a01b900460ff166002811115610ca857610ca8612a85565b14610cee5760405162461bcd60e51b815260206004820152601660248201527554656e646572206e6f7420696e2070726f677265737360501b6044820152606401610666565b60008181526005602052604090206002015461012c90610d0f908290612fc5565b610d199190612fc5565b4210610d755760405162461bcd60e51b815260206004820152602560248201527f54656e646572206973206e6f7420726561647920746f20626520636c61696d6560448201526419081e595d60da1b6064820152608401610666565b6000818152600560205260409020600301544210610dca5760405162461bcd60e51b815260206004820152601260248201527115195b99195c881a185cc8195e1c1a5c995960721b6044820152606401610666565b6000818152600560208181526040928390209091018054835181840281018401909452808452610e399392830182828015610e2e57602002820191906000526020600020905b81546001600160a01b03168152600190910190602001808311610e10575b505050505033611fb2565b610e4257600080fd5b600081815260056020526040902060018101546007820154600a909201546001600160a01b03909116916108fc91610e7a9190612fc5565b6040518115909202916000818181858888f19350505050158015610ea2573d6000803e3d6000fd5b506000818152600560205260408120600a810154600690910154610ec69190612fdd565b1115610f2b5760008181526005602052604090208054600a8201546006909201546001600160a01b03909116916108fc91610f019190612fdd565b6040518115909202916000818181858888f19350505050158015610f29573d6000803e3d6000fd5b505b600081815260056020526040902060018101805482546001600160a01b031981166001600160a01b039182161784556001600160a81b031982169116178082558291829160ff600160a01b80830491909116929190836002811115610f9257610f92612a85565b0217905550600282015481600201556003820154816003015560048201816004019081610fbf9190613042565b5060058281018054610fd49284019190612882565b5060068201548160060155600782015481600701556008820181600801908054610fff929190612882565b50600982810180546110149284019190612882565b50600a82015481600a0155600b820181600b0190816110339190613042565b50600c9182015491015561104682612017565b5050565b6000546001600160a01b0316331461106157600080fd5b6001600160a01b03811660009081526002602052604081205460ff161515900361108a57600080fd5b6001600160a01b03166000908152600260205260409020805460ff19169055565b600481815481106110bb57600080fd5b600091825260209091200154905081565b600681815481106110dc57600080fd5b60009182526020909120600d9091020180546001820154600283015460038401546004850180546001600160a01b03958616975094841695600160a01b90940460ff1694929391926104db90612f75565b3360009081526002602052604081205460ff1661117d5760405162461bcd60e51b815260206004820152600e60248201526d1b9bdd08185d5d1a1bdc9a5e995960921b6044820152606401610666565b600034116111cd5760405162461bcd60e51b815260206004820152601d60248201527f6d617876616c206d7573742062652067726561746572207468616e20300000006044820152606401610666565b60005b845181101561127457600360008683815181106111ef576111ef613123565b6020908102919091018101516001600160a01b031682528101919091526040016000205460ff166112625760405162461bcd60e51b815260206004820152601760248201527f686f73706974616c206e6f7420617574686f72697a65640000000000000000006044820152606401610666565b8061126c81613139565b9150506111d0565b5061127d6128d2565b338152600260408201524260608201819052879061012c906112a0908290612fc5565b6112aa9190612fc5565b6112b49190612fc5565b608082015260a0810186905260c081018590523460e0820152610100810184905260001961016082015261018081018390526007546101a082018190526004805460018181019092557f8a35acfbc15ff81a39ae7d344fd709f28e8600b4aa8c65c6b64bfe7fe36bd19b01919091556006805491820181556000528151600d9091027ff652222313e28459528d920b65115c16c04f3efc82aaedc97be59f3f377c0d3f810180546001600160a01b039384166001600160a01b031991821617825560208501517ff652222313e28459528d920b65115c16c04f3efc82aaedc97be59f3f377c0d40909301805493909416908316811784556040850151859492939092916001600160a81b031990911617600160a01b8360028111156113db576113db612a85565b0217905550606082015160028201556080820151600382015560a082015160048201906114089082613152565b5060c08201518051611424916005840191602090910190612941565b5060e0820151600682015561010082015160078201556101208201518051611456916008840191602090910190612941565b506101408201518051611473916009840191602090910190612996565b50610160820151600a820155610180820151600b8201906114949082613152565b506101a09190910151600c90910155600754600090815260056020908152604091829020835181546001600160a01b039182166001600160a01b0319918216178355928501516001830180549190921693811684178255938501518594929390926001600160a81b03191617600160a01b83600281111561151757611517612a85565b0217905550606082015160028201556080820151600382015560a082015160048201906115449082613152565b5060c08201518051611560916005840191602090910190612941565b5060e0820151600682015561010082015160078201556101208201518051611592916008840191602090910190612941565b5061014082015180516115af916009840191602090910190612996565b50610160820151600a820155610180820151600b8201906115d09082613152565b506101a09190910151600c90910155600780547f6af15fd1366aa0a09a133f2f1f687737f8d9e4d524a5370296708b4375ca0c4d9160006116108361320c565b9091555060405190815260200160405180910390a160016007546116349190613224565b979650505050505050565b60006001600083815260056020526040902060010154600160a01b900460ff16600281111561167057611670612a85565b1461167a57600080fd5b60008281526005602052604090206002015461012c9061169b908290612fc5565b6116a59190612fc5565b42106116b057600080fd5b506000908152600560205260409020600101546001600160a01b031690565b3360009081526001602052604090205460ff166116eb57600080fd5b60008481526005602052604090206002015461012c9061170c908290612fc5565b6117169190612fc5565b421061172157600080fd5b60008481526005602052604081206002015461173c91612fc5565b42101561174857600080fd5b6002600085815260056020526040902060010154600160a01b900460ff16600281111561177757611777612a85565b1461178157600080fd5b6000848152600560205260409020600a0154831061179e57600080fd5b60008481526005602052604090206006015483106117bb57600080fd5b60008481526005602052604090206008018054829081106117de576117de613123565b6000918252602090912001546001600160a01b031633146117fe57600080fd5b600084815260056020526040902060070154341461181b57600080fd5b6118258383611cc4565b600085815260056020526040902060090180548390811061184857611848613123565b90600052602060002001541461185d57600080fd5b600084815260056020526040902060018101546001600160a01b0316156118ca5760018101546000868152600560205260408082206007015490516001600160a01b039093169281156108fc0292818181858888f193505050501580156118c8573d6000803e3d6000fd5b505b60018181018054600160a01b336001600160a81b03199283161781178355600a85018890556000898152600560205260409020855481546001600160a01b039182166001600160a01b03199182161783558554968301805497909216908716811782559454879692959084900460ff1694919392909116179083600281111561195557611955612a85565b02179055506002820154816002015560038201548160030155600482018160040190816119829190613042565b50600582810180546119979284019190612882565b50600682015481600601556007820154816007015560088201816008019080546119c2929190612882565b50600982810180546119d79284019190612882565b50600a82015481600a0155600b820181600b0190816119f69190613042565b50600c918201549101555050505050565b3360009081526001602052604081205460ff16611a2357600080fd5b6002600084815260056020526040902060010154600160a01b900460ff166002811115611a5257611a52612a85565b14611a5c57600080fd5b600083815260056020526040902060020154611a7b9061012c90612fc5565b4210611a8657600080fd5b6000838152600560209081526040918290206008018054835181840281018401909452808452611af39392830182828015610e2e576020028201919060005260206000209081546001600160a01b03168152600190910190602001808311610e1057505050505033611fb2565b15611afd57600080fd5b6000838152600560205260409020600701543414611b1a57600080fd5b600083815260056020908152604082206008018054600181810183558285529284200180546001600160a01b031916331790559185905290547f3bd46391458f5d10531acc811134848d588c0a58b92dc31b6c8a3cf9da67fd6391611b7e91612fdd565b60405190815260200160405180910390a1600083815260056020908152604082206009810180546001818101835591855292842090920185905591859052600890910154611bcc9190612fdd565b90505b92915050565b6000546001600160a01b03163314611bec57600080fd5b6001600160a01b03811660009081526003602052604081205460ff1615159003611c1557600080fd5b6001600160a01b03166000908152600360205260409020805460ff19169055565b6001600160a01b03811660009081526003602052604081205460ff16151560010361048257506001919050565b6000546001600160a01b03163314611c7a57600080fd5b6001600160a01b03811660009081526001602052604081205460ff1615159003611ca357600080fd5b6001600160a01b03166000908152600160205260409020805460ff19169055565b6000611cd08284612fc5565b604051602001611ce291815260200190565b60408051601f1981840301815291905280516020909101209392505050565b6000818152600560205260409020546001600160a01b03163314611d2457600080fd5b6001600082815260056020526040902060010154600160a01b900460ff166002811115611d5357611d53612a85565b14611d5d57600080fd5b6000818152600560205260409020600101546001600160a01b0316611d8157600080fd5b6000818152600560205260409020600301544210611d9e57600080fd5b6000818152600560205260409020805460078201546006909201546001600160a01b03909116916108fc91611dd39190612fc5565b6040518115909202916000818181858888f19350505050158015611dfb573d6000803e3d6000fd5b50611e0581612017565b50565b6001600160a01b03811660009081526002602052604081205460ff16151560010361048257506001919050565b6000818152600560205260409020546001600160a01b03163314611e5857600080fd5b6002600082815260056020526040902060010154600160a01b900460ff166002811115611e8757611e87612a85565b14611e9157600080fd5b600081815260056020526040808220805460069091015491516001600160a01b039091169282156108fc02929190818181858888f19350505050158015611dfb573d6000803e3d6000fd5b6001600160a01b03811660009081526001602081905260409091205460ff1615159003611f0857600080fd5b6001600160a01b03811660009081526003602052604090205460ff161515600103611f3257600080fd5b6001600160a01b03811660009081526002602052604090205460ff161515600103611f5c57600080fd5b6000546001600160a01b0390811690821603611f7757600080fd5b6000546001600160a01b03163314611f8e57600080fd5b6001600160a01b03166000908152600260205260409020805460ff19166001179055565b6000805b835181101561200d57826001600160a01b0316848281518110611fdb57611fdb613123565b60200260200101516001600160a01b031603611ffb576001915050611bcf565b8061200581613139565b915050611fb6565b5060009392505050565b61201f6128d2565b60005b60065481101561257b57826004828154811061204057612040613123565b9060005260206000200154036125695760008381526005602090815260409182902082516101c08101845281546001600160a01b03908116825260018301549081169382019390935292909190830190600160a01b900460ff1660028111156120ab576120ab612a85565b60028111156120bc576120bc612a85565b815260200160028201548152602001600382015481526020016004820180546120e490612f75565b80601f016020809104026020016040519081016040528092919081815260200182805461211090612f75565b801561215d5780601f106121325761010080835404028352916020019161215d565b820191906000526020600020905b81548152906001019060200180831161214057829003601f168201915b50505050508152602001600582018054806020026020016040519081016040528092919081815260200182805480156121bf57602002820191906000526020600020905b81546001600160a01b031681526001909101906020018083116121a1575b5050505050815260200160068201548152602001600782015481526020016008820180548060200260200160405190810160405280929190818152602001828054801561223557602002820191906000526020600020905b81546001600160a01b03168152600190910190602001808311612217575b505050505081526020016009820180548060200260200160405190810160405280929190818152602001828054801561228d57602002820191906000526020600020905b815481526020019060010190808311612279575b50505050508152602001600a8201548152602001600b820180546122b090612f75565b80601f01602080910402602001604051908101604052809291908181526020018280546122dc90612f75565b80156123295780601f106122fe57610100808354040283529160200191612329565b820191906000526020600020905b81548152906001019060200180831161230c57829003601f168201915b50505050508152602001600c820154815250509150600660016006805490506123529190612fdd565b8154811061236257612362613123565b90600052602060002090600d02016006828154811061238357612383613123565b600091825260209091208254600d9092020180546001600160a01b03199081166001600160a01b0393841617825560018085018054918401805493841692909516918217855554929360ff600160a01b94859004169390926001600160a81b031916909117908360028111156123fb576123fb612a85565b02179055506002820154816002015560038201548160030155600482018160040190816124289190613042565b506005828101805461243d9284019190612882565b5060068201548160060155600782015481600701556008820181600801908054612468929190612882565b506009828101805461247d9284019190612882565b50600a82015481600a0155600b820181600b01908161249c9190613042565b50600c9182015491015560068054806124b7576124b7613263565b600082815260208120600d6000199093019283020180546001600160a01b03191681556001810180546001600160a81b031916905560028101829055600381018290559061250860048301826129d1565b612516600583016000612a0b565b600682016000905560078201600090556008820160006125369190612a0b565b612544600983016000612a0b565b600a820160009055600b8201600061255c91906129d1565b600c820160009055505090555b8061257381613139565b915050612022565b5060005b60065481101561287d5781600001516001600160a01b0316600682815481106125aa576125aa613123565b60009182526020909120600d90910201546001600160a01b031614801561260c575081602001516001600160a01b0316600682815481106125ed576125ed613123565b600091825260209091206001600d9092020101546001600160a01b0316145b801561263f575081606001516006828154811061262b5761262b613123565b90600052602060002090600d020160020154145b1561286b576006805461265490600190612fdd565b8154811061266457612664613123565b90600052602060002090600d02016006828154811061268557612685613123565b600091825260209091208254600d9092020180546001600160a01b03199081166001600160a01b0393841617825560018085018054918401805493841692909516918217855554929360ff600160a01b94859004169390926001600160a81b031916909117908360028111156126fd576126fd612a85565b021790555060028201548160020155600382015481600301556004820181600401908161272a9190613042565b506005828101805461273f9284019190612882565b506006820154816006015560078201548160070155600882018160080190805461276a929190612882565b506009828101805461277f9284019190612882565b50600a82015481600a0155600b820181600b01908161279e9190613042565b50600c9182015491015560068054806127b9576127b9613263565b600082815260208120600d6000199093019283020180546001600160a01b03191681556001810180546001600160a81b031916905560028101829055600381018290559061280a60048301826129d1565b612818600583016000612a0b565b600682016000905560078201600090556008820160006128389190612a0b565b612846600983016000612a0b565b600a820160009055600b8201600061285e91906129d1565b600c820160009055505090555b8061287581613139565b91505061257f565b505050565b8280548282559060005260206000209081019282156128c25760005260206000209182015b828111156128c25782548255916001019190600101906128a7565b506128ce929150612a25565b5090565b604080516101c0810182526000808252602082018190529091820190815260200160008152602001600081526020016060815260200160608152602001600081526020016000815260200160608152602001606081526020016000815260200160608152602001600081525090565b8280548282559060005260206000209081019282156128c2579160200282015b828111156128c257825182546001600160a01b0319166001600160a01b03909116178255602090920191600190910190612961565b8280548282559060005260206000209081019282156128c2579160200282015b828111156128c25782518255916020019190600101906129b6565b5080546129dd90612f75565b6000825580601f106129ed575050565b601f016020900490600052602060002090810190611e059190612a25565b5080546000825590600052602060002090810190611e0591905b5b808211156128ce5760008155600101612a26565b80356001600160a01b038116811461048a57600080fd5b600060208284031215612a6357600080fd5b611bcc82612a3a565b600060208284031215612a7e57600080fd5b5035919050565b634e487b7160e01b600052602160045260246000fd5b60038110612ab957634e487b7160e01b600052602160045260246000fd5b9052565b6000815180845260005b81811015612ae357602081850181015186830182015201612ac7565b81811115612af5576000602083870101525b50601f01601f19169290920160200192915050565b6001600160a01b038c811682528b1660208201526000610160612b30604084018d612a9b565b8a60608401528960808401528060a0840152612b4e8184018a612abd565b90508760c08401528660e084015285610100840152828103610120840152612b768186612abd565b915050826101408301529c9b505050505050505050505050565b600081518084526020808501945080840160005b83811015612bc95781516001600160a01b031687529582019590820190600101612ba4565b509495945050505050565b600081518084526020808501945080840160005b83811015612bc957815187529582019590820190600101612be8565b60006020808301818452808551808352604092508286019150828160051b87010184880160005b83811015612d5357888303603f19018552815180516001600160a01b031684526101c0818901516001600160a01b038116868b01525087820151612c7189870182612a9b565b50606082810151908601526080808301519086015260a080830151818701839052612c9e83880182612abd565b9250505060c08083015186830382880152612cb98382612b90565b9250505060e08083015181870152506101008083015181870152506101208083015186830382880152612cec8382612b90565b925050506101408083015186830382880152612d088382612bd4565b925050506101608083015181870152506101808083015186830382880152612d308382612abd565b6101a0948501519790940196909652505094870194925090860190600101612c2b565b509098975050505050505050565b634e487b7160e01b600052604160045260246000fd5b604051601f8201601f1916810167ffffffffffffffff81118282101715612da057612da0612d61565b604052919050565b600082601f830112612db957600080fd5b813567ffffffffffffffff811115612dd357612dd3612d61565b612de6601f8201601f1916602001612d77565b818152846020838601011115612dfb57600080fd5b816020850160208301376000918101602001919091529392505050565b600080600080600060a08688031215612e3057600080fd5b8535945060208087013567ffffffffffffffff80821115612e5057600080fd5b612e5c8a838b01612da8565b96506040890135915080821115612e7257600080fd5b818901915089601f830112612e8657600080fd5b813581811115612e9857612e98612d61565b8060051b612ea7858201612d77565b918252838101850191858101908d841115612ec157600080fd5b948601945b83861015612ee657612ed786612a3a565b82529486019490860190612ec6565b9850505050606089013594506080890135925080831115612f0657600080fd5b5050612f1488828901612da8565b9150509295509295909350565b60008060008060808587031215612f3757600080fd5b5050823594602084013594506040840135936060013592509050565b60008060408385031215612f6657600080fd5b50508035926020909101359150565b600181811c90821680612f8957607f821691505b602082108103612fa957634e487b7160e01b600052602260045260246000fd5b50919050565b634e487b7160e01b600052601160045260246000fd5b60008219821115612fd857612fd8612faf565b500190565b600082821015612fef57612fef612faf565b500390565b601f82111561287d57600081815260208120601f850160051c8101602086101561301b5750805b601f850160051c820191505b8181101561303a57828155600101613027565b505050505050565b81810361304d575050565b6130578254612f75565b67ffffffffffffffff81111561306f5761306f612d61565b6130838161307d8454612f75565b84612ff4565b6000601f8211600181146130b7576000831561309f5750848201545b600019600385901b1c1916600184901b17845561311c565b600085815260209020601f19841690600086815260209020845b838110156130f157828601548255600195860195909101906020016130d1565b508583101561310f5781850154600019600388901b60f8161c191681555b50505060018360011b0184555b5050505050565b634e487b7160e01b600052603260045260246000fd5b60006001820161314b5761314b612faf565b5060010190565b815167ffffffffffffffff81111561316c5761316c612d61565b61317a8161307d8454612f75565b602080601f8311600181146131af57600084156131975750858301515b600019600386901b1c1916600185901b17855561303a565b600085815260208120601f198616915b828110156131de578886015182559484019460019091019084016131bf565b50858210156131fc5787850151600019600388901b60f8161c191681555b5050505050600190811b01905550565b60006001600160ff1b01820161314b5761314b612faf565b60008083128015600160ff1b85018412161561324257613242612faf565b6001600160ff1b038401831381161561325d5761325d612faf565b50500390565b634e487b7160e01b600052603160045260246000fdfea26469706673582212201314dbcc562291cf70662c0d85631956b499baa88ff47686cf6a33cf4c7c695864736f6c634300080f0033",
    "linkReferences": {}
  },
  "methodIdentifiers": {
    "addAmbulance(address)": "2a84b3e4",
    "addHospital(address)": "1b470bc7",
    "addPolice(address)": "ff8491de",
    "admin()": "f851a440",
    "getAllTenders()": "2358c046",
    "getWinner(int256)": "4e8c61b2",
    "hashVal(uint256,uint256)": "dea6e0fe",
    "isAdmin(address)": "24d7806c",
    "isAmbulance(address)": "0b971338",
    "isHospital(address)": "bdf6c673",
    "isPolice(address)": "e6c525d2",
    "postTender(uint256,string,address[],uint256,string)": "49050143",
    "reclaimTender(int256)": "e4da6e4d",
    "removeAmbulance(address)": "c2b29607",
    "removeHospital(address)": "a9698906",
    "removePolice(address)": "31e5ecaa",
    "retractTender(int256)": "f2c9eb01",
    "revealBid(int256,uint256,uint256,uint256)": "5272bfc9",
    "secretBid(int256,uint256)": "65ce3296",
    "tenderIds(uint256)": "39c776b6",
    "tenderMapping(int256)": "13ca476f",
    "tenders(uint256)": "465e1def",
    "verifyDelivery(int256)": "2ddd8f9d"
  },
  "id": 6
}