{
  "abi": [
    {
      "inputs": [
        {
          "internalType": "address",
          "name": "contractAddress",
          "type": "address"
        }
      ],
      "stateMutability": "nonpayable",
      "type": "constructor"
    },
    {
      "inputs": [],
      "name": "getAllTenders",
      "outputs": [
        {
          "components": [
            {
              "components": [
                {
                  "internalType": "address payable",
                  "name": "tenderPoster",
                  "type": "address"
                },
                {
                  "internalType": "address payable",
                  "name": "tenderAccepter",
                  "type": "address"
                },
                {
                  "internalType": "uint256",
                  "name": "postDate",
                  "type": "uint256"
                },
                {
                  "internalType": "uint256",
                  "name": "auctionDate",
                  "type": "uint256"
                },
                {
                  "internalType": "uint256",
                  "name": "revealDate",
                  "type": "uint256"
                },
                {
                  "internalType": "uint256",
                  "name": "dueDate",
                  "type": "uint256"
                },
                {
                  "internalType": "string",
                  "name": "addr",
                  "type": "string"
                },
                {
                  "internalType": "string",
                  "name": "city",
                  "type": "string"
                },
                {
                  "internalType": "string",
                  "name": "state",
                  "type": "string"
                },
                {
                  "internalType": "address[]",
                  "name": "allowedHospitals",
                  "type": "address[]"
                },
                {
                  "internalType": "uint256",
                  "name": "maxBid",
                  "type": "uint256"
                },
                {
                  "internalType": "uint256",
                  "name": "penalty",
                  "type": "uint256"
                },
                {
                  "internalType": "address[]",
                  "name": "bidders",
                  "type": "address[]"
                },
                {
                  "internalType": "uint256[]",
                  "name": "bidHashArray",
                  "type": "uint256[]"
                },
                {
                  "internalType": "uint256",
                  "name": "finalBid",
                  "type": "uint256"
                },
                {
                  "internalType": "string",
                  "name": "severity",
                  "type": "string"
                }
              ],
              "internalType": "struct Auctions.TenderDetails",
              "name": "details",
              "type": "tuple"
            },
            {
              "internalType": "enum Auctions.TenderStatus",
              "name": "status",
              "type": "uint8"
            },
            {
              "internalType": "uint256",
              "name": "tenderId",
              "type": "uint256"
            }
          ],
          "internalType": "struct Auctions.Tender[]",
          "name": "",
          "type": "tuple[]"
        }
      ],
      "stateMutability": "view",
      "type": "function"
    },
    {
      "inputs": [
        {
          "internalType": "uint256",
          "name": "tenderId",
          "type": "uint256"
        }
      ],
      "name": "getAuctionWinner",
      "outputs": [
        {
          "internalType": "address",
          "name": "tenderWinner",
          "type": "address"
        }
      ],
      "stateMutability": "view",
      "type": "function"
    },
    {
      "inputs": [
        {
          "internalType": "uint256",
          "name": "bidValue",
          "type": "uint256"
        },
        {
          "internalType": "uint256",
          "name": "salt",
          "type": "uint256"
        }
      ],
      "name": "hashVal",
      "outputs": [
        {
          "internalType": "uint256",
          "name": "",
          "type": "uint256"
        }
      ],
      "stateMutability": "pure",
      "type": "function"
    },
    {
      "inputs": [
        {
          "internalType": "uint256",
          "name": "timeLimit",
          "type": "uint256"
        },
        {
          "internalType": "uint256",
          "name": "deliveryTime",
          "type": "uint256"
        },
        {
          "internalType": "string",
          "name": "addr",
          "type": "string"
        },
        {
          "internalType": "string",
          "name": "city",
          "type": "string"
        },
        {
          "internalType": "string",
          "name": "state",
          "type": "string"
        },
        {
          "internalType": "uint256",
          "name": "penalty",
          "type": "uint256"
        },
        {
          "internalType": "string",
          "name": "severity",
          "type": "string"
        },
        {
          "internalType": "address[]",
          "name": "allowedHospitals",
          "type": "address[]"
        }
      ],
      "name": "postTender",
      "outputs": [
        {
          "internalType": "uint256",
          "name": "",
          "type": "uint256"
        }
      ],
      "stateMutability": "payable",
      "type": "function"
    },
    {
      "inputs": [
        {
          "internalType": "uint256",
          "name": "tenderId",
          "type": "uint256"
        }
      ],
      "name": "reclaimTender",
      "outputs": [],
      "stateMutability": "nonpayable",
      "type": "function"
    },
    {
      "inputs": [
        {
          "internalType": "uint256",
          "name": "tenderId",
          "type": "uint256"
        }
      ],
      "name": "retractTender",
      "outputs": [],
      "stateMutability": "nonpayable",
      "type": "function"
    },
    {
      "inputs": [
        {
          "internalType": "uint256",
          "name": "tenderId",
          "type": "uint256"
        },
        {
          "internalType": "uint256",
          "name": "bidVal",
          "type": "uint256"
        },
        {
          "internalType": "uint256",
          "name": "salt",
          "type": "uint256"
        },
        {
          "internalType": "uint256",
          "name": "index",
          "type": "uint256"
        }
      ],
      "name": "revealBid",
      "outputs": [],
      "stateMutability": "payable",
      "type": "function"
    },
    {
      "inputs": [
        {
          "internalType": "uint256",
          "name": "tenderId",
          "type": "uint256"
        },
        {
          "internalType": "uint256",
          "name": "bidHashedAmount",
          "type": "uint256"
        }
      ],
      "name": "secretBid",
      "outputs": [
        {
          "internalType": "uint256",
          "name": "index",
          "type": "uint256"
        }
      ],
      "stateMutability": "payable",
      "type": "function"
    },
    {
      "inputs": [
        {
          "internalType": "uint256",
          "name": "",
          "type": "uint256"
        }
      ],
      "name": "tenderIds",
      "outputs": [
        {
          "internalType": "uint256",
          "name": "",
          "type": "uint256"
        }
      ],
      "stateMutability": "view",
      "type": "function"
    },
    {
      "inputs": [
        {
          "internalType": "uint256",
          "name": "",
          "type": "uint256"
        }
      ],
      "name": "tenderMapping",
      "outputs": [
        {
          "components": [
            {
              "internalType": "address payable",
              "name": "tenderPoster",
              "type": "address"
            },
            {
              "internalType": "address payable",
              "name": "tenderAccepter",
              "type": "address"
            },
            {
              "internalType": "uint256",
              "name": "postDate",
              "type": "uint256"
            },
            {
              "internalType": "uint256",
              "name": "auctionDate",
              "type": "uint256"
            },
            {
              "internalType": "uint256",
              "name": "revealDate",
              "type": "uint256"
            },
            {
              "internalType": "uint256",
              "name": "dueDate",
              "type": "uint256"
            },
            {
              "internalType": "string",
              "name": "addr",
              "type": "string"
            },
            {
              "internalType": "string",
              "name": "city",
              "type": "string"
            },
            {
              "internalType": "string",
              "name": "state",
              "type": "string"
            },
            {
              "internalType": "address[]",
              "name": "allowedHospitals",
              "type": "address[]"
            },
            {
              "internalType": "uint256",
              "name": "maxBid",
              "type": "uint256"
            },
            {
              "internalType": "uint256",
              "name": "penalty",
              "type": "uint256"
            },
            {
              "internalType": "address[]",
              "name": "bidders",
              "type": "address[]"
            },
            {
              "internalType": "uint256[]",
              "name": "bidHashArray",
              "type": "uint256[]"
            },
            {
              "internalType": "uint256",
              "name": "finalBid",
              "type": "uint256"
            },
            {
              "internalType": "string",
              "name": "severity",
              "type": "string"
            }
          ],
          "internalType": "struct Auctions.TenderDetails",
          "name": "details",
          "type": "tuple"
        },
        {
          "internalType": "enum Auctions.TenderStatus",
          "name": "status",
          "type": "uint8"
        },
        {
          "internalType": "uint256",
          "name": "tenderId",
          "type": "uint256"
        }
      ],
      "stateMutability": "view",
      "type": "function"
    },
    {
      "inputs": [
        {
          "internalType": "uint256",
          "name": "",
          "type": "uint256"
        }
      ],
      "name": "tenders",
      "outputs": [
        {
          "components": [
            {
              "internalType": "address payable",
              "name": "tenderPoster",
              "type": "address"
            },
            {
              "internalType": "address payable",
              "name": "tenderAccepter",
              "type": "address"
            },
            {
              "internalType": "uint256",
              "name": "postDate",
              "type": "uint256"
            },
            {
              "internalType": "uint256",
              "name": "auctionDate",
              "type": "uint256"
            },
            {
              "internalType": "uint256",
              "name": "revealDate",
              "type": "uint256"
            },
            {
              "internalType": "uint256",
              "name": "dueDate",
              "type": "uint256"
            },
            {
              "internalType": "string",
              "name": "addr",
              "type": "string"
            },
            {
              "internalType": "string",
              "name": "city",
              "type": "string"
            },
            {
              "internalType": "string",
              "name": "state",
              "type": "string"
            },
            {
              "internalType": "address[]",
              "name": "allowedHospitals",
              "type": "address[]"
            },
            {
              "internalType": "uint256",
              "name": "maxBid",
              "type": "uint256"
            },
            {
              "internalType": "uint256",
              "name": "penalty",
              "type": "uint256"
            },
            {
              "internalType": "address[]",
              "name": "bidders",
              "type": "address[]"
            },
            {
              "internalType": "uint256[]",
              "name": "bidHashArray",
              "type": "uint256[]"
            },
            {
              "internalType": "uint256",
              "name": "finalBid",
              "type": "uint256"
            },
            {
              "internalType": "string",
              "name": "severity",
              "type": "string"
            }
          ],
          "internalType": "struct Auctions.TenderDetails",
          "name": "details",
          "type": "tuple"
        },
        {
          "internalType": "enum Auctions.TenderStatus",
          "name": "status",
          "type": "uint8"
        },
        {
          "internalType": "uint256",
          "name": "tenderId",
          "type": "uint256"
        }
      ],
      "stateMutability": "view",
      "type": "function"
    },
    {
      "inputs": [
        {
          "internalType": "uint256",
          "name": "tenderId",
          "type": "uint256"
        }
      ],
      "name": "verifyDelivery",
      "outputs": [],
      "stateMutability": "nonpayable",
      "type": "function"
    }
  ],
  "bytecode": {
    "object": "0x608060405260006004553480156200001657600080fd5b50604051620032db380380620032db83398101604081905262000039916200005f565b600080546001600160a01b0319166001600160a01b039290921691909117905562000091565b6000602082840312156200007257600080fd5b81516001600160a01b03811681146200008a57600080fd5b9392505050565b61323a80620000a16000396000f3fe6080604052600436106100a75760003560e01c806355079c3f1161006457806355079c3f1461019d5780636a31879b146101bd578063a1983613146101d0578063dea6e0fe146101f0578063e05917e914610210578063e16a2df71461023057600080fd5b8063083d353b146100ac5780632358c046146100e957806323675c471461010b57806339c776b61461012d578063465e1def1461015b5780634f2c37161461018a575b600080fd5b3480156100b857600080fd5b506100cc6100c73660046129a8565b610243565b6040516001600160a01b0390911681526020015b60405180910390f35b3480156100f557600080fd5b506100fe610348565b6040516100e09190612bf9565b34801561011757600080fd5b5061012b6101263660046129a8565b6107c0565b005b34801561013957600080fd5b5061014d6101483660046129a8565b610c7d565b6040519081526020016100e0565b34801561016757600080fd5b5061017b6101763660046129a8565b610c9e565b6040516100e093929190612c83565b61014d610198366004612e00565b6110b1565b3480156101a957600080fd5b5061012b6101b83660046129a8565b61178b565b61014d6101cb366004612eef565b6119ba565b3480156101dc57600080fd5b5061017b6101eb3660046129a8565b612077565b3480156101fc57600080fd5b5061014d61020b366004612eef565b6120f0565b34801561021c57600080fd5b5061012b61022b3660046129a8565b61212d565b61012b61023e366004612f11565b61226c565b6000600260008381526002602052604090206010015460ff16600481111561026d5761026d612bc1565b036102bf5760405162461bcd60e51b815260206004820152601960248201527f6e6f2077696e6e657220666f72206f70656e2074656e6465720000000000000060448201526064015b60405180910390fd5b60008281526002602052604090206004015442106103295760405162461bcd60e51b815260206004820152602160248201527f74656e646572206d75737420626520706173742072657665616c20706572696f6044820152601960fa1b60648201526084016102b6565b506000908152600260205260409020600101546001600160a01b031690565b60606003805480602002602001604051908101604052809291908181526020016000905b828210156107b7576000848152602090206040805161026081019091526012840290910180546001600160a01b039081166060840190815260018301549091166080840152600282015460a0840152600382015460c0840152600482015460e084015260058201546101008401526006820180548492918491610120850191906103f590612f43565b80601f016020809104026020016040519081016040528092919081815260200182805461042190612f43565b801561046e5780601f106104435761010080835404028352916020019161046e565b820191906000526020600020905b81548152906001019060200180831161045157829003601f168201915b5050505050815260200160078201805461048790612f43565b80601f01602080910402602001604051908101604052809291908181526020018280546104b390612f43565b80156105005780601f106104d557610100808354040283529160200191610500565b820191906000526020600020905b8154815290600101906020018083116104e357829003601f168201915b5050505050815260200160088201805461051990612f43565b80601f016020809104026020016040519081016040528092919081815260200182805461054590612f43565b80156105925780601f1061056757610100808354040283529160200191610592565b820191906000526020600020905b81548152906001019060200180831161057557829003601f168201915b50505050508152602001600982018054806020026020016040519081016040528092919081815260200182805480156105f457602002820191906000526020600020905b81546001600160a01b031681526001909101906020018083116105d6575b50505050508152602001600a8201548152602001600b8201548152602001600c820180548060200260200160405190810160405280929190818152602001828054801561066a57602002820191906000526020600020905b81546001600160a01b0316815260019091019060200180831161064c575b50505050508152602001600d82018054806020026020016040519081016040528092919081815260200182805480156106c257602002820191906000526020600020905b8154815260200190600101908083116106ae575b50505050508152602001600e8201548152602001600f820180546106e590612f43565b80601f016020809104026020016040519081016040528092919081815260200182805461071190612f43565b801561075e5780601f106107335761010080835404028352916020019161075e565b820191906000526020600020905b81548152906001019060200180831161074157829003601f168201915b505050919092525050508152601082015460209091019060ff16600481111561078957610789612bc1565b600481111561079a5761079a612bc1565b81526020016011820154815250508152602001906001019061036c565b50505050905090565b60005460405163bdf6c67360e01b81523360048201526001600160a01b039091169063bdf6c67390602401602060405180830381865afa158015610808573d6000803e3d6000fd5b505050506040513d601f19601f8201168201806040525081019061082c9190612f7d565b6108785760405162461bcd60e51b815260206004820152601960248201527f53656e646572206d757374206265206120686f73706974616c0000000000000060448201526064016102b6565b600160008281526002602052604090206010015460ff1660048111156108a0576108a0612bc1565b146108e65760405162461bcd60e51b815260206004820152601660248201527554656e646572206e6f7420696e2070726f677265737360501b60448201526064016102b6565b60008181526002602052604090206005015442106109545760405162461bcd60e51b815260206004820152602560248201527f54656e646572206973206e6f7420726561647920746f20626520636c61696d6560448201526419081e595d60da1b60648201526084016102b6565b60008181526002602052604090206005015442106109a95760405162461bcd60e51b815260206004820152601260248201527115195b99195c881a185cc8195e1c1a5c995960721b60448201526064016102b6565b6000818152600260209081526040918290206009018054835181840281018401909452808452610a189392830182828015610a0d57602002820191906000526020600020905b81546001600160a01b031681526001909101906020018083116109ef575b50505050503361279d565b610a645760405162461bcd60e51b815260206004820152601f60248201527f73656e646572206e6f7420616e20616c6c6f77656420686f73706974616c730060448201526064016102b6565b60008181526002602052604090206001810154600b820154600e909201546001600160a01b03909116916108fc91610a9c9190612fbc565b6040518115909202916000818181858888f19350505050158015610ac4573d6000803e3d6000fd5b506000818152600260205260408120600e810154600a90910154610ae89190612fd4565b1115610b4d5760008181526002602052604090208054600e820154600a909201546001600160a01b03909116916108fc91610b239190612fd4565b6040518115909202916000818181858888f19350505050158015610b4b573d6000803e3d6000fd5b505b600081815260026020526040902060108101805460ff1916905580546001600160a01b03198082166001600160a01b03928316178355600183018054918216919092161790558080808060068101610ba5818061303a565b50600781810190610bb89084018261303a565b50600881810190610bcb9084018261303a565b5060098281018054610be09284019190612802565b50600a82015481600a0155600b82015481600b0155600c820181600c01908054610c0b929190612802565b50600d8281018054610c209284019190612802565b50600e82015481600e0155600f820181600f019081610c3f919061303a565b505050601082810154908201805460ff9092169160ff19166001836004811115610c6b57610c6b612bc1565b02179055506011918201549101555050565b60018181548110610c8d57600080fd5b600091825260209091200154905081565b60038181548110610cae57600080fd5b60009182526020918290206040805161020081018252601290930290910180546001600160a01b039081168452600182015416938301939093526002830154908201526003820154606082015260048201546080820152600582015460a08201526006820180549293509091839160c0840191610d2a90612f43565b80601f0160208091040260200160405190810160405280929190818152602001828054610d5690612f43565b8015610da35780601f10610d7857610100808354040283529160200191610da3565b820191906000526020600020905b815481529060010190602001808311610d8657829003601f168201915b50505050508152602001600782018054610dbc90612f43565b80601f0160208091040260200160405190810160405280929190818152602001828054610de890612f43565b8015610e355780601f10610e0a57610100808354040283529160200191610e35565b820191906000526020600020905b815481529060010190602001808311610e1857829003601f168201915b50505050508152602001600882018054610e4e90612f43565b80601f0160208091040260200160405190810160405280929190818152602001828054610e7a90612f43565b8015610ec75780601f10610e9c57610100808354040283529160200191610ec7565b820191906000526020600020905b815481529060010190602001808311610eaa57829003601f168201915b5050505050815260200160098201805480602002602001604051908101604052809291908181526020018280548015610f2957602002820191906000526020600020905b81546001600160a01b03168152600190910190602001808311610f0b575b50505050508152602001600a8201548152602001600b8201548152602001600c8201805480602002602001604051908101604052809291908181526020018280548015610f9f57602002820191906000526020600020905b81546001600160a01b03168152600190910190602001808311610f81575b50505050508152602001600d8201805480602002602001604051908101604052809291908181526020018280548015610ff757602002820191906000526020600020905b815481526020019060010190808311610fe3575b50505050508152602001600e8201548152602001600f8201805461101a90612f43565b80601f016020809104026020016040519081016040528092919081815260200182805461104690612f43565b80156110935780601f1061106857610100808354040283529160200191611093565b820191906000526020600020905b81548152906001019060200180831161107657829003601f168201915b505050919092525050506010820154601190920154909160ff169083565b6000805460405163e5b0c5a760e01b81523360048201526001600160a01b039091169063e5b0c5a790602401602060405180830381865afa1580156110fa573d6000803e3d6000fd5b505050506040513d601f19601f8201168201806040525081019061111e9190612f7d565b61116a5760405162461bcd60e51b815260206004820152601f60248201527f73656e646572206d7573742062652074656e64657220696e69746961746f720060448201526064016102b6565b600034116111ba5760405162461bcd60e51b815260206004820152601d60248201527f6d617876616c206d7573742062652067726561746572207468616e203000000060448201526064016102b6565b60005b82518110156112c15760005483516001600160a01b039091169063bdf6c673908590849081106111ef576111ef61311b565b60200260200101516040518263ffffffff1660e01b815260040161122291906001600160a01b0391909116815260200190565b602060405180830381865afa15801561123f573d6000803e3d6000fd5b505050506040513d601f19601f820116820180604052508101906112639190612f7d565b6112af5760405162461bcd60e51b815260206004820152601b60248201527f676976656e20686f73706974616c206c69737420696e76616c6964000000000060448201526064016102b6565b806112b981613131565b9150506111bd565b506112ca612852565b60045460408281019190915281513390526002602083015281514291018190526112f5908b90612fbc565b8151606001526113886113088b42612fbc565b6113129190612fbc565b815160800152886113886113268c42612fbc565b6113309190612fbc565b61133a9190612fbc565b815160a09081019190915281516000196101c09091015281513461014090910152815161016001869052815161012001849052815160c09081018a9052825160e00189905282516101000188905282516101e001869052600380546001810182556000919091528351805160129092027fc2575a0e9e593c00f959f8c92f12db2869c3395a3b0502d05e2516446f71f85b810180546001600160a01b039485166001600160a01b031991821617825560208401517fc2575a0e9e593c00f959f8c92f12db2869c3395a3b0502d05e2516446f71f85c840180549190961691161790935560408201517fc2575a0e9e593c00f959f8c92f12db2869c3395a3b0502d05e2516446f71f85d82015560608201517fc2575a0e9e593c00f959f8c92f12db2869c3395a3b0502d05e2516446f71f85e82015560808201517fc2575a0e9e593c00f959f8c92f12db2869c3395a3b0502d05e2516446f71f85f820155938101517fc2575a0e9e593c00f959f8c92f12db2869c3395a3b0502d05e2516446f71f86085015591820151849391929183917fc2575a0e9e593c00f959f8c92f12db2869c3395a3b0502d05e2516446f71f861909101906114fa908261314a565b5060e0820151600782019061150f908261314a565b506101008201516008820190611525908261314a565b506101208201518051611542916009840191602090910190612903565b50610140820151600a820155610160820151600b820155610180820151805161157591600c840191602090910190612903565b506101a0820151805161159291600d840191602090910190612958565b506101c0820151600e8201556101e0820151600f8201906115b3908261314a565b505050602082015160108201805460ff191660018360048111156115d9576115d9612bc1565b02179055506040918201516011919091015560048054600090815260026020818152918490208551805182546001600160a01b03199081166001600160a01b039283161784559482015160018401805490961691161790935593820151908401556060810151600384015560808101519183019190915560a0810151600583015560c08101518392919082906006820190611674908261314a565b5060e08201516007820190611689908261314a565b50610100820151600882019061169f908261314a565b5061012082015180516116bc916009840191602090910190612903565b50610140820151600a820155610160820151600b82015561018082015180516116ef91600c840191602090910190612903565b506101a0820151805161170c91600d840191602090910190612958565b506101c0820151600e8201556101e0820151600f82019061172d908261314a565b505050602082015160108201805460ff1916600183600481111561175357611753612bc1565b0217905550604091909101516011909101556004805490600061177583613131565b9091555050604001519998505050505050505050565b6000818152600260205260409020546001600160a01b031633146117f15760405162461bcd60e51b815260206004820152601f60248201527f73656e646572206973206e6f74207468652074656e64657220706f737465720060448201526064016102b6565b600160008281526002602052604090206010015460ff16600481111561181957611819612bc1565b146118665760405162461bcd60e51b815260206004820152601960248201527f74656e646572206973206e6f7420696e2070726f67726573730000000000000060448201526064016102b6565b6000818152600260205260409020600101546001600160a01b03166118dc5760405162461bcd60e51b815260206004820152602660248201527f74656e646572206163636570746572206973206e6f74207468652061646472656044820152651cdcc81cd95d60d21b60648201526084016102b6565b60008181526002602052604090206005015442106119355760405162461bcd60e51b815260206004820152601660248201527530bab1ba34b7b7103832b934b7b21034b99037bb32b960511b60448201526064016102b6565b60008181526002602052604090208054600b820154600a909201546001600160a01b03909116916108fc9161196a9190612fbc565b6040518115909202916000818181858888f19350505050158015611992573d6000803e3d6000fd5b50600081815260026020526040902060100180546004919060ff19166001835b021790555050565b60008281526002602081905260408083208151610260810190925280546001600160a01b0390811660608401908152600183015490911660808401529281015460a0830152600381015460c0830152600481015460e083015260058101546101008301526006810180548594849290918491610120850191611a3b90612f43565b80601f0160208091040260200160405190810160405280929190818152602001828054611a6790612f43565b8015611ab45780601f10611a8957610100808354040283529160200191611ab4565b820191906000526020600020905b815481529060010190602001808311611a9757829003601f168201915b50505050508152602001600782018054611acd90612f43565b80601f0160208091040260200160405190810160405280929190818152602001828054611af990612f43565b8015611b465780601f10611b1b57610100808354040283529160200191611b46565b820191906000526020600020905b815481529060010190602001808311611b2957829003601f168201915b50505050508152602001600882018054611b5f90612f43565b80601f0160208091040260200160405190810160405280929190818152602001828054611b8b90612f43565b8015611bd85780601f10611bad57610100808354040283529160200191611bd8565b820191906000526020600020905b815481529060010190602001808311611bbb57829003601f168201915b5050505050815260200160098201805480602002602001604051908101604052809291908181526020018280548015611c3a57602002820191906000526020600020905b81546001600160a01b03168152600190910190602001808311611c1c575b50505050508152602001600a8201548152602001600b8201548152602001600c8201805480602002602001604051908101604052809291908181526020018280548015611cb057602002820191906000526020600020905b81546001600160a01b03168152600190910190602001808311611c92575b50505050508152602001600d8201805480602002602001604051908101604052809291908181526020018280548015611d0857602002820191906000526020600020905b815481526020019060010190808311611cf4575b50505050508152602001600e8201548152602001600f82018054611d2b90612f43565b80601f0160208091040260200160405190810160405280929190818152602001828054611d5790612f43565b8015611da45780601f10611d7957610100808354040283529160200191611da4565b820191906000526020600020905b815481529060010190602001808311611d8757829003601f168201915b505050919092525050508152601082015460209091019060ff166004811115611dcf57611dcf612bc1565b6004811115611de057611de0612bc1565b815260119190910154602090910152600054604051630172e26760e31b81523360048201529192506001600160a01b031690630b97133890602401602060405180830381865afa158015611e38573d6000803e3d6000fd5b505050506040513d601f19601f82011682018060405250810190611e5c9190612f7d565b611ea85760405162461bcd60e51b815260206004820152601b60248201527f73656e646572206d75737420626520616e20616d62756c616e6365000000000060448201526064016102b6565b600281602001516004811115611ec057611ec0612bc1565b14611f035760405162461bcd60e51b81526020600482015260136024820152723a32b73232b91036bab9ba1031329037b832b760691b60448201526064016102b6565b805160a001514210611f575760405162461bcd60e51b815260206004820152601960248201527f61756374696f6e20706572696f6420686173207061737365640000000000000060448201526064016102b6565b805161016001513414611fbe5760405162461bcd60e51b815260206004820152602960248201527f73656e742070656e616c747920616d6f756e7420646f6573206e6f74206d617460448201526831b4103a32b73232b960b91b60648201526084016102b6565b80516101800151611fcf903361279d565b156120105760405162461bcd60e51b815260206004820152601160248201527063616e206f6e6c7920626964206f6e636560781b60448201526064016102b6565b60008481526002602090815260408220600c810180546001818101835582865284862090910180546001600160a01b03191633179055600d90920180548084018255908552928420909201869055918690525461206d9190612fd4565b9150505b92915050565b60026020818152600092835260409283902083516102008101855281546001600160a01b0390811682526001830154169281019290925291820154928101929092526003810154606083015260048101546080830152600581015460a0830152600681018054919291839160c0840191610d2a90612f43565b60006120fc8284612fbc565b60405160200161210e91815260200190565b60408051601f1981840301815291905280516020909101209392505050565b6000818152600260205260409020546001600160a01b031633146121935760405162461bcd60e51b815260206004820152601f60248201527f73656e646572206973206e6f74207468652074656e64657220706f737465720060448201526064016102b6565b600260008281526002602052604090206010015460ff1660048111156121bb576121bb612bc1565b146121fd5760405162461bcd60e51b81526020600482015260126024820152713a32b73232b91034b9903737ba1037b832b760711b60448201526064016102b6565b6000818152600260205260408082208054600a9091015491516001600160a01b039091169282156108fc02929190818181858888f19350505050158015612248573d6000803e3d6000fd5b50600081815260026020526040902060100180546003919060ff19166001836119b2565b60008481526002602052604080822091549051630172e26760e31b81523360048201526001600160a01b0390911690630b97133890602401602060405180830381865afa1580156122c1573d6000803e3d6000fd5b505050506040513d601f19601f820116820180604052508101906122e59190612f7d565b6123315760405162461bcd60e51b815260206004820152601860248201527f73656e646572206d75737420626520616d62756c616e6365000000000000000060448201526064016102b6565b600481015442106123845760405162461bcd60e51b815260206004820152601c60248201527f74656e64657220697320706173742072657665616c20706572696f640000000060448201526064016102b6565b6002601082015460ff16600481111561239f5761239f612bc1565b146123e15760405162461bcd60e51b81526020600482015260126024820152713a32b73232b91034b9903737ba1037b832b760711b60448201526064016102b6565b600e810154841061242d5760405162461bcd60e51b8152602060048201526016602482015275189a59081dd85cc81b9bdd081d1a19481b1bddd95cdd60521b60448201526064016102b6565b600a81015484106124795760405162461bcd60e51b8152602060048201526016602482015275189a59081dd85cc81b9bdd081d1a19481b1bddd95cdd60521b60448201526064016102b6565b600c810180548390811061248f5761248f61311b565b6000918252602090912001546001600160a01b031633146124e15760405162461bcd60e51b815260206004820152600c60248201526b1ddc9bdb99c8189a5908125160a21b60448201526064016102b6565b600b81015434146125405760405162461bcd60e51b815260206004820152602360248201527f646964206e6f742073656e6420636f72726563742070656e616c747920616d6f6044820152621d5b9d60ea1b60648201526084016102b6565b61254a84846120f0565b600d82018054849081106125605761256061311b565b9060005260206000200154146125c65760405162461bcd60e51b815260206004820152602560248201527f6269642076616c756520646f6573206e6f74206d61746368206861736865642060448201526476616c756560d81b60648201526084016102b6565b60018101546001600160a01b03161561261b576001810154600b8201546040516001600160a01b039092169181156108fc0291906000818181858888f19350505050158015612619573d6000803e3d6000fd5b505b601081018054600160ff19909116811790915580820180546001600160a01b031990811633178255600e840187905560008881526002602081905260409091208554815484166001600160a01b0391821617825593549481018054909316949093169390931790558183015491810191909155600380830154908201556004808301549082015560058083015490820155819081816006808201906126c29084018261303a565b506007818101906126d59084018261303a565b506008818101906126e89084018261303a565b50600982810180546126fd9284019190612802565b50600a82015481600a0155600b82015481600b0155600c820181600c01908054612728929190612802565b50600d828101805461273d9284019190612802565b50600e82015481600e0155600f820181600f01908161275c919061303a565b505050601082810154908201805460ff9092169160ff1916600183600481111561278857612788612bc1565b02179055506011918201549101555050505050565b6000805b83518110156127f857826001600160a01b03168482815181106127c6576127c661311b565b60200260200101516001600160a01b0316036127e6576001915050612071565b806127f081613131565b9150506127a1565b5060009392505050565b8280548282559060005260206000209081019282156128425760005260206000209182015b82811115612842578254825591600101919060010190612827565b5061284e929150612993565b5090565b60405180606001604052806128ef60405180610200016040528060006001600160a01b0316815260200160006001600160a01b0316815260200160008152602001600081526020016000815260200160008152602001606081526020016060815260200160608152602001606081526020016000815260200160008152602001606081526020016060815260200160008152602001606081525090565b815260200160008152602001600081525090565b828054828255906000526020600020908101928215612842579160200282015b8281111561284257825182546001600160a01b0319166001600160a01b03909116178255602090920191600190910190612923565b828054828255906000526020600020908101928215612842579160200282015b82811115612842578251825591602001919060010190612978565b5b8082111561284e5760008155600101612994565b6000602082840312156129ba57600080fd5b5035919050565b6000815180845260005b818110156129e7576020818501810151868301820152016129cb565b818111156129f9576000602083870101525b50601f01601f19169290920160200192915050565b600081518084526020808501945080840160005b83811015612a475781516001600160a01b031687529582019590820190600101612a22565b509495945050505050565b600081518084526020808501945080840160005b83811015612a4757815187529582019590820190600101612a66565b80516001600160a01b0316825260006102006020830151612aae60208601826001600160a01b03169052565b5060408301516040850152606083015160608501526080830151608085015260a083015160a085015260c08301518160c0860152612aee828601826129c1565b91505060e083015184820360e0860152612b0882826129c1565b9150506101008084015185830382870152612b2383826129c1565b925050506101208084015185830382870152612b3f8382612a0e565b925050506101408084015181860152506101608084015181860152506101808084015185830382870152612b738382612a0e565b925050506101a08084015185830382870152612b8f8382612a52565b925050506101c08084015181860152506101e08084015185830382870152612bb783826129c1565b9695505050505050565b634e487b7160e01b600052602160045260246000fd5b60058110612bf557634e487b7160e01b600052602160045260246000fd5b9052565b60006020808301818452808551808352604092508286019150828160051b87010184880160005b83811015612c7557603f19898403018552815160608151818652612c4682870182612a82565b91505088820151612c598a870182612bd7565b5090870151938701939093529386019390860190600101612c20565b509098975050505050505050565b606081526000612c966060830186612a82565b9050612ca56020830185612bd7565b826040830152949350505050565b634e487b7160e01b600052604160045260246000fd5b604051601f8201601f1916810167ffffffffffffffff81118282101715612cf257612cf2612cb3565b604052919050565b600082601f830112612d0b57600080fd5b813567ffffffffffffffff811115612d2557612d25612cb3565b612d38601f8201601f1916602001612cc9565b818152846020838601011115612d4d57600080fd5b816020850160208301376000918101602001919091529392505050565b600082601f830112612d7b57600080fd5b8135602067ffffffffffffffff821115612d9757612d97612cb3565b8160051b612da6828201612cc9565b9283528481018201928281019087851115612dc057600080fd5b83870192505b84831015612df55782356001600160a01b0381168114612de65760008081fd5b82529183019190830190612dc6565b979650505050505050565b600080600080600080600080610100898b031215612e1d57600080fd5b8835975060208901359650604089013567ffffffffffffffff80821115612e4357600080fd5b612e4f8c838d01612cfa565b975060608b0135915080821115612e6557600080fd5b612e718c838d01612cfa565b965060808b0135915080821115612e8757600080fd5b612e938c838d01612cfa565b955060a08b0135945060c08b0135915080821115612eb057600080fd5b612ebc8c838d01612cfa565b935060e08b0135915080821115612ed257600080fd5b50612edf8b828c01612d6a565b9150509295985092959890939650565b60008060408385031215612f0257600080fd5b50508035926020909101359150565b60008060008060808587031215612f2757600080fd5b5050823594602084013594506040840135936060013592509050565b600181811c90821680612f5757607f821691505b602082108103612f7757634e487b7160e01b600052602260045260246000fd5b50919050565b600060208284031215612f8f57600080fd5b81518015158114612f9f57600080fd5b9392505050565b634e487b7160e01b600052601160045260246000fd5b60008219821115612fcf57612fcf612fa6565b500190565b600082821015612fe657612fe6612fa6565b500390565b601f82111561303557600081815260208120601f850160051c810160208610156130125750805b601f850160051c820191505b818110156130315782815560010161301e565b5050505b505050565b818103613045575050565b61304f8254612f43565b67ffffffffffffffff81111561306757613067612cb3565b61307b816130758454612f43565b84612feb565b6000601f8211600181146130af57600083156130975750848201545b600019600385901b1c1916600184901b178455613114565b600085815260209020601f19841690600086815260209020845b838110156130e957828601548255600195860195909101906020016130c9565b50858310156131075781850154600019600388901b60f8161c191681555b50505060018360011b0184555b5050505050565b634e487b7160e01b600052603260045260246000fd5b60006001820161314357613143612fa6565b5060010190565b815167ffffffffffffffff81111561316457613164612cb3565b613172816130758454612f43565b602080601f8311600181146131a7576000841561318f5750858301515b600019600386901b1c1916600185901b178555613031565b600085815260208120601f198616915b828110156131d6578886015182559484019460019091019084016131b7565b50858210156131f45787850151600019600388901b60f8161c191681555b5050505050600190811b0190555056fea26469706673582212203c2e1e843dbc28b57600618207eea4a8eb85d8a7d0316126541fd8ad734cff5b64736f6c634300080f0033",
    "linkReferences": {}
  },
  "methodIdentifiers": {
    "getAllTenders()": "2358c046",
    "getAuctionWinner(uint256)": "083d353b",
    "hashVal(uint256,uint256)": "dea6e0fe",
    "postTender(uint256,uint256,string,string,string,uint256,string,address[])": "4f2c3716",
    "reclaimTender(uint256)": "55079c3f",
    "retractTender(uint256)": "e05917e9",
    "revealBid(uint256,uint256,uint256,uint256)": "e16a2df7",
    "secretBid(uint256,uint256)": "6a31879b",
    "tenderIds(uint256)": "39c776b6",
    "tenderMapping(uint256)": "a1983613",
    "tenders(uint256)": "465e1def",
    "verifyDelivery(uint256)": "23675c47"
  },
  "id": 6
}