{
  "abi": [
    {
      "inputs": [
        {
          "internalType": "address",
          "name": "contractAddress",
          "type": "address"
        }
      ],
      "stateMutability": "nonpayable",
      "type": "constructor"
    },
    {
      "inputs": [],
      "name": "getAllTenders",
      "outputs": [
        {
          "components": [
            {
              "components": [
                {
                  "internalType": "address payable",
                  "name": "tenderPoster",
                  "type": "address"
                },
                {
                  "internalType": "address payable",
                  "name": "tenderAccepter",
                  "type": "address"
                },
                {
                  "internalType": "uint256",
                  "name": "postDate",
                  "type": "uint256"
                },
                {
                  "internalType": "uint256",
                  "name": "auctionDate",
                  "type": "uint256"
                },
                {
                  "internalType": "uint256",
                  "name": "revealDate",
                  "type": "uint256"
                },
                {
                  "internalType": "uint256",
                  "name": "dueDate",
                  "type": "uint256"
                },
                {
                  "internalType": "string",
                  "name": "addr",
                  "type": "string"
                },
                {
                  "internalType": "string",
                  "name": "city",
                  "type": "string"
                },
                {
                  "internalType": "string",
                  "name": "state",
                  "type": "string"
                },
                {
                  "internalType": "address[]",
                  "name": "allowedHospitals",
                  "type": "address[]"
                },
                {
                  "internalType": "uint256",
                  "name": "maxBid",
                  "type": "uint256"
                },
                {
                  "internalType": "uint256",
                  "name": "penalty",
                  "type": "uint256"
                },
                {
                  "internalType": "address[]",
                  "name": "bidders",
                  "type": "address[]"
                },
                {
                  "internalType": "uint256[]",
                  "name": "bidHashArray",
                  "type": "uint256[]"
                },
                {
                  "internalType": "uint256",
                  "name": "finalBid",
                  "type": "uint256"
                },
                {
                  "internalType": "string",
                  "name": "severity",
                  "type": "string"
                }
              ],
              "internalType": "struct Auctions.TenderDetails",
              "name": "details",
              "type": "tuple"
            },
            {
              "internalType": "enum Auctions.TenderStatus",
              "name": "status",
              "type": "uint8"
            },
            {
              "internalType": "uint256",
              "name": "tenderId",
              "type": "uint256"
            }
          ],
          "internalType": "struct Auctions.Tender[]",
          "name": "",
          "type": "tuple[]"
        }
      ],
      "stateMutability": "view",
      "type": "function"
    },
    {
      "inputs": [
        {
          "internalType": "uint256",
          "name": "tenderId",
          "type": "uint256"
        }
      ],
      "name": "getAuctionWinner",
      "outputs": [
        {
          "internalType": "address",
          "name": "tenderWinner",
          "type": "address"
        }
      ],
      "stateMutability": "view",
      "type": "function"
    },
    {
      "inputs": [
        {
          "internalType": "uint256",
          "name": "bidValue",
          "type": "uint256"
        },
        {
          "internalType": "uint256",
          "name": "salt",
          "type": "uint256"
        }
      ],
      "name": "hashVal",
      "outputs": [
        {
          "internalType": "uint256",
          "name": "",
          "type": "uint256"
        }
      ],
      "stateMutability": "pure",
      "type": "function"
    },
    {
      "inputs": [
        {
          "internalType": "uint256",
          "name": "timeLimit",
          "type": "uint256"
        },
        {
          "internalType": "uint256",
          "name": "deliveryTime",
          "type": "uint256"
        },
        {
          "internalType": "string",
          "name": "addr",
          "type": "string"
        },
        {
          "internalType": "string",
          "name": "city",
          "type": "string"
        },
        {
          "internalType": "string",
          "name": "state",
          "type": "string"
        },
        {
          "internalType": "uint256",
          "name": "penalty",
          "type": "uint256"
        },
        {
          "internalType": "string",
          "name": "severity",
          "type": "string"
        },
        {
          "internalType": "address[]",
          "name": "allowedHospitals",
          "type": "address[]"
        }
      ],
      "name": "postTender",
      "outputs": [
        {
          "internalType": "uint256",
          "name": "",
          "type": "uint256"
        }
      ],
      "stateMutability": "payable",
      "type": "function"
    },
    {
      "inputs": [
        {
          "internalType": "uint256",
          "name": "tenderId",
          "type": "uint256"
        }
      ],
      "name": "reclaimTender",
      "outputs": [],
      "stateMutability": "nonpayable",
      "type": "function"
    },
    {
      "inputs": [
        {
          "internalType": "uint256",
          "name": "tenderId",
          "type": "uint256"
        }
      ],
      "name": "retractTender",
      "outputs": [],
      "stateMutability": "nonpayable",
      "type": "function"
    },
    {
      "inputs": [
        {
          "internalType": "uint256",
          "name": "tenderId",
          "type": "uint256"
        },
        {
          "internalType": "uint256",
          "name": "bidVal",
          "type": "uint256"
        },
        {
          "internalType": "uint256",
          "name": "salt",
          "type": "uint256"
        },
        {
          "internalType": "uint256",
          "name": "index",
          "type": "uint256"
        }
      ],
      "name": "revealBid",
      "outputs": [],
      "stateMutability": "payable",
      "type": "function"
    },
    {
      "inputs": [
        {
          "internalType": "uint256",
          "name": "tenderId",
          "type": "uint256"
        },
        {
          "internalType": "uint256",
          "name": "bidHashedAmount",
          "type": "uint256"
        }
      ],
      "name": "secretBid",
      "outputs": [
        {
          "internalType": "uint256",
          "name": "index",
          "type": "uint256"
        }
      ],
      "stateMutability": "payable",
      "type": "function"
    },
    {
      "inputs": [
        {
          "internalType": "uint256",
          "name": "",
          "type": "uint256"
        }
      ],
      "name": "tenderIds",
      "outputs": [
        {
          "internalType": "uint256",
          "name": "",
          "type": "uint256"
        }
      ],
      "stateMutability": "view",
      "type": "function"
    },
    {
      "inputs": [
        {
          "internalType": "uint256",
          "name": "",
          "type": "uint256"
        }
      ],
      "name": "tenderMapping",
      "outputs": [
        {
          "components": [
            {
              "internalType": "address payable",
              "name": "tenderPoster",
              "type": "address"
            },
            {
              "internalType": "address payable",
              "name": "tenderAccepter",
              "type": "address"
            },
            {
              "internalType": "uint256",
              "name": "postDate",
              "type": "uint256"
            },
            {
              "internalType": "uint256",
              "name": "auctionDate",
              "type": "uint256"
            },
            {
              "internalType": "uint256",
              "name": "revealDate",
              "type": "uint256"
            },
            {
              "internalType": "uint256",
              "name": "dueDate",
              "type": "uint256"
            },
            {
              "internalType": "string",
              "name": "addr",
              "type": "string"
            },
            {
              "internalType": "string",
              "name": "city",
              "type": "string"
            },
            {
              "internalType": "string",
              "name": "state",
              "type": "string"
            },
            {
              "internalType": "address[]",
              "name": "allowedHospitals",
              "type": "address[]"
            },
            {
              "internalType": "uint256",
              "name": "maxBid",
              "type": "uint256"
            },
            {
              "internalType": "uint256",
              "name": "penalty",
              "type": "uint256"
            },
            {
              "internalType": "address[]",
              "name": "bidders",
              "type": "address[]"
            },
            {
              "internalType": "uint256[]",
              "name": "bidHashArray",
              "type": "uint256[]"
            },
            {
              "internalType": "uint256",
              "name": "finalBid",
              "type": "uint256"
            },
            {
              "internalType": "string",
              "name": "severity",
              "type": "string"
            }
          ],
          "internalType": "struct Auctions.TenderDetails",
          "name": "details",
          "type": "tuple"
        },
        {
          "internalType": "enum Auctions.TenderStatus",
          "name": "status",
          "type": "uint8"
        },
        {
          "internalType": "uint256",
          "name": "tenderId",
          "type": "uint256"
        }
      ],
      "stateMutability": "view",
      "type": "function"
    },
    {
      "inputs": [
        {
          "internalType": "uint256",
          "name": "",
          "type": "uint256"
        }
      ],
      "name": "tenders",
      "outputs": [
        {
          "components": [
            {
              "internalType": "address payable",
              "name": "tenderPoster",
              "type": "address"
            },
            {
              "internalType": "address payable",
              "name": "tenderAccepter",
              "type": "address"
            },
            {
              "internalType": "uint256",
              "name": "postDate",
              "type": "uint256"
            },
            {
              "internalType": "uint256",
              "name": "auctionDate",
              "type": "uint256"
            },
            {
              "internalType": "uint256",
              "name": "revealDate",
              "type": "uint256"
            },
            {
              "internalType": "uint256",
              "name": "dueDate",
              "type": "uint256"
            },
            {
              "internalType": "string",
              "name": "addr",
              "type": "string"
            },
            {
              "internalType": "string",
              "name": "city",
              "type": "string"
            },
            {
              "internalType": "string",
              "name": "state",
              "type": "string"
            },
            {
              "internalType": "address[]",
              "name": "allowedHospitals",
              "type": "address[]"
            },
            {
              "internalType": "uint256",
              "name": "maxBid",
              "type": "uint256"
            },
            {
              "internalType": "uint256",
              "name": "penalty",
              "type": "uint256"
            },
            {
              "internalType": "address[]",
              "name": "bidders",
              "type": "address[]"
            },
            {
              "internalType": "uint256[]",
              "name": "bidHashArray",
              "type": "uint256[]"
            },
            {
              "internalType": "uint256",
              "name": "finalBid",
              "type": "uint256"
            },
            {
              "internalType": "string",
              "name": "severity",
              "type": "string"
            }
          ],
          "internalType": "struct Auctions.TenderDetails",
          "name": "details",
          "type": "tuple"
        },
        {
          "internalType": "enum Auctions.TenderStatus",
          "name": "status",
          "type": "uint8"
        },
        {
          "internalType": "uint256",
          "name": "tenderId",
          "type": "uint256"
        }
      ],
      "stateMutability": "view",
      "type": "function"
    },
    {
      "inputs": [
        {
          "internalType": "uint256",
          "name": "tenderId",
          "type": "uint256"
        }
      ],
      "name": "verifyDelivery",
      "outputs": [],
      "stateMutability": "nonpayable",
      "type": "function"
    }
  ],
  "bytecode": {
    "object": "0x608060405260006004553480156200001657600080fd5b5060405162003d4c38038062003d4c83398101604081905262000039916200005f565b600080546001600160a01b0319166001600160a01b039290921691909117905562000091565b6000602082840312156200007257600080fd5b81516001600160a01b03811681146200008a57600080fd5b9392505050565b613cab80620000a16000396000f3fe6080604052600436106100a75760003560e01c806355079c3f1161006457806355079c3f1461019d5780636a31879b146101bd578063a1983613146101d0578063dea6e0fe146101f0578063e05917e914610210578063e16a2df71461023057600080fd5b8063083d353b146100ac5780632358c046146100e957806323675c471461010b57806339c776b61461012d578063465e1def1461015b5780634f2c37161461018a575b600080fd5b3480156100b857600080fd5b506100cc6100c7366004613404565b610243565b6040516001600160a01b0390911681526020015b60405180910390f35b3480156100f557600080fd5b506100fe610348565b6040516100e09190613655565b34801561011757600080fd5b5061012b610126366004613404565b6107c0565b005b34801561013957600080fd5b5061014d610148366004613404565b610c43565b6040519081526020016100e0565b34801561016757600080fd5b5061017b610176366004613404565b610c64565b6040516100e0939291906136df565b61014d61019836600461385c565b611077565b3480156101a957600080fd5b5061012b6101b8366004613404565b611748565b61014d6101cb36600461394b565b61195c565b3480156101dc57600080fd5b5061017b6101eb366004613404565b612019565b3480156101fc57600080fd5b5061014d61020b36600461394b565b612092565b34801561021c57600080fd5b5061012b61022b366004613404565b6120cf565b61012b61023e36600461396d565b6121ea565b6000600260008381526002602052604090206010015460ff16600481111561026d5761026d61361d565b036102bf5760405162461bcd60e51b815260206004820152601960248201527f6e6f2077696e6e657220666f72206f70656e2074656e6465720000000000000060448201526064015b60405180910390fd5b60008281526002602052604090206004015442106103295760405162461bcd60e51b815260206004820152602160248201527f74656e646572206d75737420626520706173742072657665616c20706572696f6044820152601960fa1b60648201526084016102b6565b506000908152600260205260409020600101546001600160a01b031690565b60606003805480602002602001604051908101604052809291908181526020016000905b828210156107b7576000848152602090206040805161026081019091526012840290910180546001600160a01b039081166060840190815260018301549091166080840152600282015460a0840152600382015460c0840152600482015460e084015260058201546101008401526006820180548492918491610120850191906103f59061399f565b80601f01602080910402602001604051908101604052809291908181526020018280546104219061399f565b801561046e5780601f106104435761010080835404028352916020019161046e565b820191906000526020600020905b81548152906001019060200180831161045157829003601f168201915b505050505081526020016007820180546104879061399f565b80601f01602080910402602001604051908101604052809291908181526020018280546104b39061399f565b80156105005780601f106104d557610100808354040283529160200191610500565b820191906000526020600020905b8154815290600101906020018083116104e357829003601f168201915b505050505081526020016008820180546105199061399f565b80601f01602080910402602001604051908101604052809291908181526020018280546105459061399f565b80156105925780601f1061056757610100808354040283529160200191610592565b820191906000526020600020905b81548152906001019060200180831161057557829003601f168201915b50505050508152602001600982018054806020026020016040519081016040528092919081815260200182805480156105f457602002820191906000526020600020905b81546001600160a01b031681526001909101906020018083116105d6575b50505050508152602001600a8201548152602001600b8201548152602001600c820180548060200260200160405190810160405280929190818152602001828054801561066a57602002820191906000526020600020905b81546001600160a01b0316815260019091019060200180831161064c575b50505050508152602001600d82018054806020026020016040519081016040528092919081815260200182805480156106c257602002820191906000526020600020905b8154815260200190600101908083116106ae575b50505050508152602001600e8201548152602001600f820180546106e59061399f565b80601f01602080910402602001604051908101604052809291908181526020018280546107119061399f565b801561075e5780601f106107335761010080835404028352916020019161075e565b820191906000526020600020905b81548152906001019060200180831161074157829003601f168201915b505050919092525050508152601082015460209091019060ff1660048111156107895761078961361d565b600481111561079a5761079a61361d565b81526020016011820154815250508152602001906001019061036c565b50505050905090565b60005460405163bdf6c67360e01b81523360048201526001600160a01b039091169063bdf6c67390602401602060405180830381865afa158015610808573d6000803e3d6000fd5b505050506040513d601f19601f8201168201806040525081019061082c91906139d9565b6108785760405162461bcd60e51b815260206004820152601960248201527f53656e646572206d757374206265206120686f73706974616c0000000000000060448201526064016102b6565b600160008281526002602052604090206010015460ff1660048111156108a0576108a061361d565b146108e65760405162461bcd60e51b815260206004820152601660248201527554656e646572206e6f7420696e2070726f677265737360501b60448201526064016102b6565b60008181526002602052604090206005015442106109545760405162461bcd60e51b815260206004820152602560248201527f54656e646572206973206e6f7420726561647920746f20626520636c61696d6560448201526419081e595d60da1b60648201526084016102b6565b60008181526002602052604090206005015442106109a95760405162461bcd60e51b815260206004820152601260248201527115195b99195c881a185cc8195e1c1a5c995960721b60448201526064016102b6565b6000818152600260209081526040918290206009018054835181840281018401909452808452610a189392830182828015610a0d57602002820191906000526020600020905b81546001600160a01b031681526001909101906020018083116109ef575b50505050503361271b565b610a2157600080fd5b60008181526002602052604090206001810154600b820154600e909201546001600160a01b03909116916108fc91610a599190613a18565b6040518115909202916000818181858888f19350505050158015610a81573d6000803e3d6000fd5b506000818152600260205260408120600e810154600a90910154610aa59190613a30565b1115610b0a5760008181526002602052604090208054600e820154600a909201546001600160a01b03909116916108fc91610ae09190613a30565b6040518115909202916000818181858888f19350505050158015610b08573d6000803e3d6000fd5b505b600081815260026020526040902060108101805460ff1916905580546001600160a01b03198082166001600160a01b03928316178355600183018054918216919092161790558080808060068101610b628180613a95565b50600781810190610b7590840182613a95565b50600881810190610b8890840182613a95565b5060098281018054610b9d928401919061320a565b50600a82015481600a0155600b82015481600b0155600c820181600c01908054610bc892919061320a565b50600d8281018054610bdd928401919061320a565b50600e82015481600e0155600f820181600f019081610bfc9190613a95565b505050601082810154908201805460ff9092169160ff19166001836004811115610c2857610c2861361d565b0217905550601191820154910155610c3f82612780565b5050565b60018181548110610c5357600080fd5b600091825260209091200154905081565b60038181548110610c7457600080fd5b60009182526020918290206040805161020081018252601290930290910180546001600160a01b039081168452600182015416938301939093526002830154908201526003820154606082015260048201546080820152600582015460a08201526006820180549293509091839160c0840191610cf09061399f565b80601f0160208091040260200160405190810160405280929190818152602001828054610d1c9061399f565b8015610d695780601f10610d3e57610100808354040283529160200191610d69565b820191906000526020600020905b815481529060010190602001808311610d4c57829003601f168201915b50505050508152602001600782018054610d829061399f565b80601f0160208091040260200160405190810160405280929190818152602001828054610dae9061399f565b8015610dfb5780601f10610dd057610100808354040283529160200191610dfb565b820191906000526020600020905b815481529060010190602001808311610dde57829003601f168201915b50505050508152602001600882018054610e149061399f565b80601f0160208091040260200160405190810160405280929190818152602001828054610e409061399f565b8015610e8d5780601f10610e6257610100808354040283529160200191610e8d565b820191906000526020600020905b815481529060010190602001808311610e7057829003601f168201915b5050505050815260200160098201805480602002602001604051908101604052809291908181526020018280548015610eef57602002820191906000526020600020905b81546001600160a01b03168152600190910190602001808311610ed1575b50505050508152602001600a8201548152602001600b8201548152602001600c8201805480602002602001604051908101604052809291908181526020018280548015610f6557602002820191906000526020600020905b81546001600160a01b03168152600190910190602001808311610f47575b50505050508152602001600d8201805480602002602001604051908101604052809291908181526020018280548015610fbd57602002820191906000526020600020905b815481526020019060010190808311610fa9575b50505050508152602001600e8201548152602001600f82018054610fe09061399f565b80601f016020809104026020016040519081016040528092919081815260200182805461100c9061399f565b80156110595780601f1061102e57610100808354040283529160200191611059565b820191906000526020600020905b81548152906001019060200180831161103c57829003601f168201915b505050919092525050506010820154601190920154909160ff169083565b6000805460405163e5b0c5a760e01b81523360048201526001600160a01b039091169063e5b0c5a790602401602060405180830381865afa1580156110c0573d6000803e3d6000fd5b505050506040513d601f19601f820116820180604052508101906110e491906139d9565b6111305760405162461bcd60e51b815260206004820152601f60248201527f73656e646572206d7573742062652074656e64657220696e69746961746f720060448201526064016102b6565b600034116111805760405162461bcd60e51b815260206004820152601d60248201527f6d617876616c206d7573742062652067726561746572207468616e203000000060448201526064016102b6565b60005b82518110156112875760005483516001600160a01b039091169063bdf6c673908590849081106111b5576111b5613b76565b60200260200101516040518263ffffffff1660e01b81526004016111e891906001600160a01b0391909116815260200190565b602060405180830381865afa158015611205573d6000803e3d6000fd5b505050506040513d601f19601f8201168201806040525081019061122991906139d9565b6112755760405162461bcd60e51b815260206004820152601b60248201527f676976656e20686f73706974616c206c69737420696e76616c6964000000000060448201526064016102b6565b8061127f81613b8c565b915050611183565b5061129061325a565b60045460408281019190915281513390526002602083015281514291018190526112bb908b90613a18565b8151606001526113886112ce8b42613a18565b6112d89190613a18565b815160800152886113886112ec8c42613a18565b6112f69190613a18565b6113009190613a18565b815160a09081019190915281516000196101c09091015281513461014090910152815161016001869052815160c09081018a9052825160e00189905282516101000188905282516101e001869052600380546001810182556000919091528351805160129092027fc2575a0e9e593c00f959f8c92f12db2869c3395a3b0502d05e2516446f71f85b810180546001600160a01b039485166001600160a01b031991821617825560208401517fc2575a0e9e593c00f959f8c92f12db2869c3395a3b0502d05e2516446f71f85c840180549190961691161790935560408201517fc2575a0e9e593c00f959f8c92f12db2869c3395a3b0502d05e2516446f71f85d82015560608201517fc2575a0e9e593c00f959f8c92f12db2869c3395a3b0502d05e2516446f71f85e82015560808201517fc2575a0e9e593c00f959f8c92f12db2869c3395a3b0502d05e2516446f71f85f820155938101517fc2575a0e9e593c00f959f8c92f12db2869c3395a3b0502d05e2516446f71f86085015591820151849391929183917fc2575a0e9e593c00f959f8c92f12db2869c3395a3b0502d05e2516446f71f861909101906114b79082613ba5565b5060e082015160078201906114cc9082613ba5565b5061010082015160088201906114e29082613ba5565b5061012082015180516114ff91600984019160209091019061330b565b50610140820151600a820155610160820151600b820155610180820151805161153291600c84019160209091019061330b565b506101a0820151805161154f91600d840191602090910190613360565b506101c0820151600e8201556101e0820151600f8201906115709082613ba5565b505050602082015160108201805460ff191660018360048111156115965761159661361d565b02179055506040918201516011919091015560048054600090815260026020818152918490208551805182546001600160a01b03199081166001600160a01b039283161784559482015160018401805490961691161790935593820151908401556060810151600384015560808101519183019190915560a0810151600583015560c081015183929190829060068201906116319082613ba5565b5060e082015160078201906116469082613ba5565b50610100820151600882019061165c9082613ba5565b50610120820151805161167991600984019160209091019061330b565b50610140820151600a820155610160820151600b82015561018082015180516116ac91600c84019160209091019061330b565b506101a082015180516116c991600d840191602090910190613360565b506101c0820151600e8201556101e0820151600f8201906116ea9082613ba5565b505050602082015160108201805460ff191660018360048111156117105761171061361d565b0217905550604091909101516011909101556004805490600061173283613b8c565b9091555050604001519998505050505050505050565b6000818152600260205260409020546001600160a01b031633146117ae5760405162461bcd60e51b815260206004820152601f60248201527f73656e646572206973206e6f74207468652074656e64657220706f737465720060448201526064016102b6565b600160008281526002602052604090206010015460ff1660048111156117d6576117d661361d565b146118235760405162461bcd60e51b815260206004820152601960248201527f74656e646572206973206e6f7420696e2070726f67726573730000000000000060448201526064016102b6565b6000818152600260205260409020600101546001600160a01b03166118995760405162461bcd60e51b815260206004820152602660248201527f74656e646572206163636570746572206973206e6f74207468652061646472656044820152651cdcc81cd95d60d21b60648201526084016102b6565b60008181526002602052604090206005015442106118f25760405162461bcd60e51b815260206004820152601660248201527530bab1ba34b7b7103832b934b7b21034b99037bb32b960511b60448201526064016102b6565b60008181526002602052604090208054600b820154600a909201546001600160a01b03909116916108fc916119279190613a18565b6040518115909202916000818181858888f1935050505015801561194f573d6000803e3d6000fd5b5061195981612780565b50565b60008281526002602081905260408083208151610260810190925280546001600160a01b0390811660608401908152600183015490911660808401529281015460a0830152600381015460c0830152600481015460e0830152600581015461010083015260068101805485948492909184916101208501916119dd9061399f565b80601f0160208091040260200160405190810160405280929190818152602001828054611a099061399f565b8015611a565780601f10611a2b57610100808354040283529160200191611a56565b820191906000526020600020905b815481529060010190602001808311611a3957829003601f168201915b50505050508152602001600782018054611a6f9061399f565b80601f0160208091040260200160405190810160405280929190818152602001828054611a9b9061399f565b8015611ae85780601f10611abd57610100808354040283529160200191611ae8565b820191906000526020600020905b815481529060010190602001808311611acb57829003601f168201915b50505050508152602001600882018054611b019061399f565b80601f0160208091040260200160405190810160405280929190818152602001828054611b2d9061399f565b8015611b7a5780601f10611b4f57610100808354040283529160200191611b7a565b820191906000526020600020905b815481529060010190602001808311611b5d57829003601f168201915b5050505050815260200160098201805480602002602001604051908101604052809291908181526020018280548015611bdc57602002820191906000526020600020905b81546001600160a01b03168152600190910190602001808311611bbe575b50505050508152602001600a8201548152602001600b8201548152602001600c8201805480602002602001604051908101604052809291908181526020018280548015611c5257602002820191906000526020600020905b81546001600160a01b03168152600190910190602001808311611c34575b50505050508152602001600d8201805480602002602001604051908101604052809291908181526020018280548015611caa57602002820191906000526020600020905b815481526020019060010190808311611c96575b50505050508152602001600e8201548152602001600f82018054611ccd9061399f565b80601f0160208091040260200160405190810160405280929190818152602001828054611cf99061399f565b8015611d465780601f10611d1b57610100808354040283529160200191611d46565b820191906000526020600020905b815481529060010190602001808311611d2957829003601f168201915b505050919092525050508152601082015460209091019060ff166004811115611d7157611d7161361d565b6004811115611d8257611d8261361d565b815260119190910154602090910152600054604051630172e26760e31b81523360048201529192506001600160a01b031690630b97133890602401602060405180830381865afa158015611dda573d6000803e3d6000fd5b505050506040513d601f19601f82011682018060405250810190611dfe91906139d9565b611e4a5760405162461bcd60e51b815260206004820152601b60248201527f73656e646572206d75737420626520616e20616d62756c616e6365000000000060448201526064016102b6565b600281602001516004811115611e6257611e6261361d565b14611ea55760405162461bcd60e51b81526020600482015260136024820152723a32b73232b91036bab9ba1031329037b832b760691b60448201526064016102b6565b805160a001514210611ef95760405162461bcd60e51b815260206004820152601960248201527f61756374696f6e20706572696f6420686173207061737365640000000000000060448201526064016102b6565b805161016001513414611f605760405162461bcd60e51b815260206004820152602960248201527f73656e742070656e616c747920616d6f756e7420646f6573206e6f74206d617460448201526831b4103a32b73232b960b91b60648201526084016102b6565b80516101800151611f71903361271b565b15611fb25760405162461bcd60e51b815260206004820152601160248201527063616e206f6e6c7920626964206f6e636560781b60448201526064016102b6565b60008481526002602090815260408220600c81018054600181810183559185528385200180546001600160a01b03191633179055600d909101805480830182559084529190922001849055815161018001515161200f9190613a30565b9150505b92915050565b60026020818152600092835260409283902083516102008101855281546001600160a01b0390811682526001830154169281019290925291820154928101929092526003810154606083015260048101546080830152600581015460a0830152600681018054919291839160c0840191610cf09061399f565b600061209e8284613a18565b6040516020016120b091815260200190565b60408051601f1981840301815291905280516020909101209392505050565b6000818152600260205260409020546001600160a01b031633146121355760405162461bcd60e51b815260206004820152601f60248201527f73656e646572206973206e6f74207468652074656e64657220706f737465720060448201526064016102b6565b600260008281526002602052604090206010015460ff16600481111561215d5761215d61361d565b1461219f5760405162461bcd60e51b81526020600482015260126024820152713a32b73232b91034b9903737ba1037b832b760711b60448201526064016102b6565b6000818152600260205260408082208054600a9091015491516001600160a01b039091169282156108fc02929190818181858888f1935050505015801561194f573d6000803e3d6000fd5b60008481526002602052604080822091549051630172e26760e31b81523360048201526001600160a01b0390911690630b97133890602401602060405180830381865afa15801561223f573d6000803e3d6000fd5b505050506040513d601f19601f8201168201806040525081019061226391906139d9565b6122af5760405162461bcd60e51b815260206004820152601860248201527f73656e646572206d75737420626520616d62756c616e6365000000000000000060448201526064016102b6565b600581015442116123025760405162461bcd60e51b815260206004820152601a60248201527f74656e646572207374696c6c20756e6465722061756374696f6e00000000000060448201526064016102b6565b6002601082015460ff16600481111561231d5761231d61361d565b1461235f5760405162461bcd60e51b81526020600482015260126024820152713a32b73232b91034b9903737ba1037b832b760711b60448201526064016102b6565b600e81015484106123ab5760405162461bcd60e51b8152602060048201526016602482015275189a59081dd85cc81b9bdd081d1a19481b1bddd95cdd60521b60448201526064016102b6565b600a81015484106123f75760405162461bcd60e51b8152602060048201526016602482015275189a59081dd85cc81b9bdd081d1a19481b1bddd95cdd60521b60448201526064016102b6565b600c810180548390811061240d5761240d613b76565b6000918252602090912001546001600160a01b0316331461245f5760405162461bcd60e51b815260206004820152600c60248201526b1ddc9bdb99c8189a5908125160a21b60448201526064016102b6565b600b81015434146124be5760405162461bcd60e51b815260206004820152602360248201527f646964206e6f742073656e6420636f72726563742070656e616c747920616d6f6044820152621d5b9d60ea1b60648201526084016102b6565b6124c88484612092565b600d82018054849081106124de576124de613b76565b9060005260206000200154146125445760405162461bcd60e51b815260206004820152602560248201527f6269642076616c756520646f6573206e6f74206d61746368206861736865642060448201526476616c756560d81b60648201526084016102b6565b60018101546001600160a01b031615612599576001810154600b8201546040516001600160a01b039092169181156108fc0291906000818181858888f19350505050158015612597573d6000803e3d6000fd5b505b601081018054600160ff19909116811790915580820180546001600160a01b031990811633178255600e840187905560008881526002602081905260409091208554815484166001600160a01b03918216178255935494810180549093169490931693909317905581830154918101919091556003808301549082015560048083015490820155600580830154908201558190818160068082019061264090840182613a95565b5060078181019061265390840182613a95565b5060088181019061266690840182613a95565b506009828101805461267b928401919061320a565b50600a82015481600a0155600b82015481600b0155600c820181600c019080546126a692919061320a565b50600d82810180546126bb928401919061320a565b50600e82015481600e0155600f820181600f0190816126da9190613a95565b505050601082810154908201805460ff9092169160ff191660018360048111156127065761270661361d565b02179055506011918201549101555050505050565b6000805b835181101561277657826001600160a01b031684828151811061274457612744613b76565b60200260200101516001600160a01b031603612764576001915050612013565b8061276e81613b8c565b91505061271f565b5060009392505050565b61278861325a565b60005b600354811015612e925782600182815481106127a9576127a9613b76565b906000526020600020015403612e80576000838152600260208190526040918290208251610260810190935280546001600160a01b0390811660608501908152600183015490911660808501529181015460a0840152600381015460c0840152600481015460e0840152600581015461010084015260068101805491928492909184916101208501919061283c9061399f565b80601f01602080910402602001604051908101604052809291908181526020018280546128689061399f565b80156128b55780601f1061288a576101008083540402835291602001916128b5565b820191906000526020600020905b81548152906001019060200180831161289857829003601f168201915b505050505081526020016007820180546128ce9061399f565b80601f01602080910402602001604051908101604052809291908181526020018280546128fa9061399f565b80156129475780601f1061291c57610100808354040283529160200191612947565b820191906000526020600020905b81548152906001019060200180831161292a57829003601f168201915b505050505081526020016008820180546129609061399f565b80601f016020809104026020016040519081016040528092919081815260200182805461298c9061399f565b80156129d95780601f106129ae576101008083540402835291602001916129d9565b820191906000526020600020905b8154815290600101906020018083116129bc57829003601f168201915b5050505050815260200160098201805480602002602001604051908101604052809291908181526020018280548015612a3b57602002820191906000526020600020905b81546001600160a01b03168152600190910190602001808311612a1d575b50505050508152602001600a8201548152602001600b8201548152602001600c8201805480602002602001604051908101604052809291908181526020018280548015612ab157602002820191906000526020600020905b81546001600160a01b03168152600190910190602001808311612a93575b50505050508152602001600d8201805480602002602001604051908101604052809291908181526020018280548015612b0957602002820191906000526020600020905b815481526020019060010190808311612af5575b50505050508152602001600e8201548152602001600f82018054612b2c9061399f565b80601f0160208091040260200160405190810160405280929190818152602001828054612b589061399f565b8015612ba55780601f10612b7a57610100808354040283529160200191612ba5565b820191906000526020600020905b815481529060010190602001808311612b8857829003601f168201915b505050919092525050508152601082015460209091019060ff166004811115612bd057612bd061361d565b6004811115612be157612be161361d565b8152602001601182015481525050915060036001600380549050612c059190613a30565b81548110612c1557612c15613b76565b906000526020600020906012020160038281548110612c3657612c36613b76565b60009182526020909120825460129092020180546001600160a01b039283166001600160a01b0319918216178255600180850154908301805491909416911617909155600280830154908201556003808301549082015560048083015490820155600580830154908201558181600680820190612cb590840182613a95565b50600781810190612cc890840182613a95565b50600881810190612cdb90840182613a95565b5060098281018054612cf0928401919061320a565b50600a82015481600a0155600b82015481600b0155600c820181600c01908054612d1b92919061320a565b50600d8281018054612d30928401919061320a565b50600e82015481600e0155600f820181600f019081612d4f9190613a95565b505050601082810154908201805460ff9092169160ff19166001836004811115612d7b57612d7b61361d565b02179055506011918201549101556003805480612d9a57612d9a613c5f565b60008281526020812060126000199093019283020180546001600160a01b03199081168255600182018054909116905560028101829055600381018290556004810182905560058101829055908181612df6600683018261339b565b612e0460078301600061339b565b612e1260088301600061339b565b612e206009830160006133d5565b600a820160009055600b820160009055600c82016000612e4091906133d5565b612e4e600d830160006133d5565b600e820160009055600f82016000612e66919061339b565b50505060108101805460ff19169055600060119091015590555b80612e8a81613b8c565b91505061278b565b5060005b600354811015613205578160000151600001516001600160a01b031660038281548110612ec557612ec5613b76565b60009182526020909120601290910201546001600160a01b0316148015612f2b57508160000151602001516001600160a01b031660038281548110612f0c57612f0c613b76565b60009182526020909120600160129092020101546001600160a01b0316145b8015612f6357508151604001516003805483908110612f4c57612f4c613b76565b906000526020600020906012020160000160020154145b156131f35760038054612f7890600190613a30565b81548110612f8857612f88613b76565b906000526020600020906012020160038281548110612fa957612fa9613b76565b60009182526020909120825460129092020180546001600160a01b039283166001600160a01b031991821617825560018085015490830180549190941691161790915560028083015490820155600380830154908201556004808301549082015560058083015490820155818160068082019061302890840182613a95565b5060078181019061303b90840182613a95565b5060088181019061304e90840182613a95565b5060098281018054613063928401919061320a565b50600a82015481600a0155600b82015481600b0155600c820181600c0190805461308e92919061320a565b50600d82810180546130a3928401919061320a565b50600e82015481600e0155600f820181600f0190816130c29190613a95565b505050601082810154908201805460ff9092169160ff191660018360048111156130ee576130ee61361d565b0217905550601191820154910155600380548061310d5761310d613c5f565b60008281526020812060126000199093019283020180546001600160a01b03199081168255600182018054909116905560028101829055600381018290556004810182905560058101829055908181613169600683018261339b565b61317760078301600061339b565b61318560088301600061339b565b6131936009830160006133d5565b600a820160009055600b820160009055600c820160006131b391906133d5565b6131c1600d830160006133d5565b600e820160009055600f820160006131d9919061339b565b50505060108101805460ff19169055600060119091015590555b806131fd81613b8c565b915050612e96565b505050565b82805482825590600052602060002090810192821561324a5760005260206000209182015b8281111561324a57825482559160010191906001019061322f565b506132569291506133ef565b5090565b60405180606001604052806132f760405180610200016040528060006001600160a01b0316815260200160006001600160a01b0316815260200160008152602001600081526020016000815260200160008152602001606081526020016060815260200160608152602001606081526020016000815260200160008152602001606081526020016060815260200160008152602001606081525090565b815260200160008152602001600081525090565b82805482825590600052602060002090810192821561324a579160200282015b8281111561324a57825182546001600160a01b0319166001600160a01b0390911617825560209092019160019091019061332b565b82805482825590600052602060002090810192821561324a579160200282015b8281111561324a578251825591602001919060010190613380565b5080546133a79061399f565b6000825580601f106133b7575050565b601f01602090049060005260206000209081019061195991906133ef565b508054600082559060005260206000209081019061195991905b5b8082111561325657600081556001016133f0565b60006020828403121561341657600080fd5b5035919050565b6000815180845260005b8181101561344357602081850181015186830182015201613427565b81811115613455576000602083870101525b50601f01601f19169290920160200192915050565b600081518084526020808501945080840160005b838110156134a35781516001600160a01b03168752958201959082019060010161347e565b509495945050505050565b600081518084526020808501945080840160005b838110156134a3578151875295820195908201906001016134c2565b80516001600160a01b031682526000610200602083015161350a60208601826001600160a01b03169052565b5060408301516040850152606083015160608501526080830151608085015260a083015160a085015260c08301518160c086015261354a8286018261341d565b91505060e083015184820360e0860152613564828261341d565b915050610100808401518583038287015261357f838261341d565b92505050610120808401518583038287015261359b838261346a565b9250505061014080840151818601525061016080840151818601525061018080840151858303828701526135cf838261346a565b925050506101a080840151858303828701526135eb83826134ae565b925050506101c08084015181860152506101e08084015185830382870152613613838261341d565b9695505050505050565b634e487b7160e01b600052602160045260246000fd5b6005811061365157634e487b7160e01b600052602160045260246000fd5b9052565b60006020808301818452808551808352604092508286019150828160051b87010184880160005b838110156136d157603f198984030185528151606081518186526136a2828701826134de565b915050888201516136b58a870182613633565b509087015193870193909352938601939086019060010161367c565b509098975050505050505050565b6060815260006136f260608301866134de565b90506137016020830185613633565b826040830152949350505050565b634e487b7160e01b600052604160045260246000fd5b604051601f8201601f1916810167ffffffffffffffff8111828210171561374e5761374e61370f565b604052919050565b600082601f83011261376757600080fd5b813567ffffffffffffffff8111156137815761378161370f565b613794601f8201601f1916602001613725565b8181528460208386010111156137a957600080fd5b816020850160208301376000918101602001919091529392505050565b600082601f8301126137d757600080fd5b8135602067ffffffffffffffff8211156137f3576137f361370f565b8160051b613802828201613725565b928352848101820192828101908785111561381c57600080fd5b83870192505b848310156138515782356001600160a01b03811681146138425760008081fd5b82529183019190830190613822565b979650505050505050565b600080600080600080600080610100898b03121561387957600080fd5b8835975060208901359650604089013567ffffffffffffffff8082111561389f57600080fd5b6138ab8c838d01613756565b975060608b01359150808211156138c157600080fd5b6138cd8c838d01613756565b965060808b01359150808211156138e357600080fd5b6138ef8c838d01613756565b955060a08b0135945060c08b013591508082111561390c57600080fd5b6139188c838d01613756565b935060e08b013591508082111561392e57600080fd5b5061393b8b828c016137c6565b9150509295985092959890939650565b6000806040838503121561395e57600080fd5b50508035926020909101359150565b6000806000806080858703121561398357600080fd5b5050823594602084013594506040840135936060013592509050565b600181811c908216806139b357607f821691505b6020821081036139d357634e487b7160e01b600052602260045260246000fd5b50919050565b6000602082840312156139eb57600080fd5b815180151581146139fb57600080fd5b9392505050565b634e487b7160e01b600052601160045260246000fd5b60008219821115613a2b57613a2b613a02565b500190565b600082821015613a4257613a42613a02565b500390565b601f82111561320557600081815260208120601f850160051c81016020861015613a6e5750805b601f850160051c820191505b81811015613a8d57828155600101613a7a565b505050505050565b818103613aa0575050565b613aaa825461399f565b67ffffffffffffffff811115613ac257613ac261370f565b613ad681613ad0845461399f565b84613a47565b6000601f821160018114613b0a5760008315613af25750848201545b600019600385901b1c1916600184901b178455613b6f565b600085815260209020601f19841690600086815260209020845b83811015613b445782860154825560019586019590910190602001613b24565b5085831015613b625781850154600019600388901b60f8161c191681555b50505060018360011b0184555b5050505050565b634e487b7160e01b600052603260045260246000fd5b600060018201613b9e57613b9e613a02565b5060010190565b815167ffffffffffffffff811115613bbf57613bbf61370f565b613bcd81613ad0845461399f565b602080601f831160018114613c025760008415613bea5750858301515b600019600386901b1c1916600185901b178555613a8d565b600085815260208120601f198616915b82811015613c3157888601518255948401946001909101908401613c12565b5085821015613c4f5787850151600019600388901b60f8161c191681555b5050505050600190811b01905550565b634e487b7160e01b600052603160045260246000fdfea26469706673582212207287cbaa223549344043dcde15dfba8b9596a33d3b1f443a973bf2956ae3237d64736f6c634300080f0033",
    "linkReferences": {}
  },
  "methodIdentifiers": {
    "getAllTenders()": "2358c046",
    "getAuctionWinner(uint256)": "083d353b",
    "hashVal(uint256,uint256)": "dea6e0fe",
    "postTender(uint256,uint256,string,string,string,uint256,string,address[])": "4f2c3716",
    "reclaimTender(uint256)": "55079c3f",
    "retractTender(uint256)": "e05917e9",
    "revealBid(uint256,uint256,uint256,uint256)": "e16a2df7",
    "secretBid(uint256,uint256)": "6a31879b",
    "tenderIds(uint256)": "39c776b6",
    "tenderMapping(uint256)": "a1983613",
    "tenders(uint256)": "465e1def",
    "verifyDelivery(uint256)": "23675c47"
  },
  "id": 6
}