{
  "abi": [
    {
      "inputs": [
        {
          "internalType": "address",
          "name": "contractAddress",
          "type": "address"
        }
      ],
      "stateMutability": "nonpayable",
      "type": "constructor"
    },
    {
      "anonymous": false,
      "inputs": [
        {
          "indexed": false,
          "internalType": "uint256",
          "name": "tenderId",
          "type": "uint256"
        },
        {
          "indexed": false,
          "internalType": "uint256",
          "name": "bidId",
          "type": "uint256"
        }
      ],
      "name": "BidPlaced",
      "type": "event"
    },
    {
      "inputs": [],
      "name": "getAllTenders",
      "outputs": [
        {
          "components": [
            {
              "components": [
                {
                  "internalType": "address payable",
                  "name": "tenderPoster",
                  "type": "address"
                },
                {
                  "internalType": "address payable",
                  "name": "tenderAccepter",
                  "type": "address"
                },
                {
                  "internalType": "uint256",
                  "name": "postDate",
                  "type": "uint256"
                },
                {
                  "internalType": "uint256",
                  "name": "auctionDate",
                  "type": "uint256"
                },
                {
                  "internalType": "uint256",
                  "name": "revealDate",
                  "type": "uint256"
                },
                {
                  "internalType": "uint256",
                  "name": "dueDate",
                  "type": "uint256"
                },
                {
                  "internalType": "string",
                  "name": "addr",
                  "type": "string"
                },
                {
                  "internalType": "string",
                  "name": "city",
                  "type": "string"
                },
                {
                  "internalType": "string",
                  "name": "state",
                  "type": "string"
                },
                {
                  "internalType": "string",
                  "name": "zipcode",
                  "type": "string"
                },
                {
                  "internalType": "address[]",
                  "name": "allowedHospitals",
                  "type": "address[]"
                },
                {
                  "internalType": "uint256",
                  "name": "maxBid",
                  "type": "uint256"
                },
                {
                  "internalType": "uint256",
                  "name": "penalty",
                  "type": "uint256"
                },
                {
                  "internalType": "address[]",
                  "name": "bidders",
                  "type": "address[]"
                },
                {
                  "internalType": "uint256[]",
                  "name": "bidHashArray",
                  "type": "uint256[]"
                },
                {
                  "internalType": "uint256",
                  "name": "finalBid",
                  "type": "uint256"
                },
                {
                  "internalType": "string",
                  "name": "severity",
                  "type": "string"
                }
              ],
              "internalType": "struct Auctions.TenderDetails",
              "name": "details",
              "type": "tuple"
            },
            {
              "internalType": "enum Auctions.TenderStatus",
              "name": "status",
              "type": "uint8"
            },
            {
              "internalType": "uint256",
              "name": "tenderId",
              "type": "uint256"
            }
          ],
          "internalType": "struct Auctions.Tender[]",
          "name": "",
          "type": "tuple[]"
        }
      ],
      "stateMutability": "view",
      "type": "function"
    },
    {
      "inputs": [
        {
          "internalType": "uint256",
          "name": "tenderId",
          "type": "uint256"
        }
      ],
      "name": "getAuctionWinner",
      "outputs": [
        {
          "internalType": "address",
          "name": "tenderWinner",
          "type": "address"
        }
      ],
      "stateMutability": "view",
      "type": "function"
    },
    {
      "inputs": [
        {
          "internalType": "uint256",
          "name": "tenderId",
          "type": "uint256"
        }
      ],
      "name": "getTender",
      "outputs": [
        {
          "components": [
            {
              "components": [
                {
                  "internalType": "address payable",
                  "name": "tenderPoster",
                  "type": "address"
                },
                {
                  "internalType": "address payable",
                  "name": "tenderAccepter",
                  "type": "address"
                },
                {
                  "internalType": "uint256",
                  "name": "postDate",
                  "type": "uint256"
                },
                {
                  "internalType": "uint256",
                  "name": "auctionDate",
                  "type": "uint256"
                },
                {
                  "internalType": "uint256",
                  "name": "revealDate",
                  "type": "uint256"
                },
                {
                  "internalType": "uint256",
                  "name": "dueDate",
                  "type": "uint256"
                },
                {
                  "internalType": "string",
                  "name": "addr",
                  "type": "string"
                },
                {
                  "internalType": "string",
                  "name": "city",
                  "type": "string"
                },
                {
                  "internalType": "string",
                  "name": "state",
                  "type": "string"
                },
                {
                  "internalType": "string",
                  "name": "zipcode",
                  "type": "string"
                },
                {
                  "internalType": "address[]",
                  "name": "allowedHospitals",
                  "type": "address[]"
                },
                {
                  "internalType": "uint256",
                  "name": "maxBid",
                  "type": "uint256"
                },
                {
                  "internalType": "uint256",
                  "name": "penalty",
                  "type": "uint256"
                },
                {
                  "internalType": "address[]",
                  "name": "bidders",
                  "type": "address[]"
                },
                {
                  "internalType": "uint256[]",
                  "name": "bidHashArray",
                  "type": "uint256[]"
                },
                {
                  "internalType": "uint256",
                  "name": "finalBid",
                  "type": "uint256"
                },
                {
                  "internalType": "string",
                  "name": "severity",
                  "type": "string"
                }
              ],
              "internalType": "struct Auctions.TenderDetails",
              "name": "details",
              "type": "tuple"
            },
            {
              "internalType": "enum Auctions.TenderStatus",
              "name": "status",
              "type": "uint8"
            },
            {
              "internalType": "uint256",
              "name": "tenderId",
              "type": "uint256"
            }
          ],
          "internalType": "struct Auctions.Tender",
          "name": "",
          "type": "tuple"
        }
      ],
      "stateMutability": "view",
      "type": "function"
    },
    {
      "inputs": [
        {
          "internalType": "uint256",
          "name": "timeLimit",
          "type": "uint256"
        },
        {
          "internalType": "uint256",
          "name": "deliveryTime",
          "type": "uint256"
        },
        {
          "internalType": "string",
          "name": "addr",
          "type": "string"
        },
        {
          "internalType": "string",
          "name": "city",
          "type": "string"
        },
        {
          "internalType": "string",
          "name": "state",
          "type": "string"
        },
        {
          "internalType": "string",
          "name": "zipcode",
          "type": "string"
        },
        {
          "internalType": "uint256",
          "name": "penalty",
          "type": "uint256"
        },
        {
          "internalType": "string",
          "name": "severity",
          "type": "string"
        },
        {
          "internalType": "address[]",
          "name": "allowedHospitals",
          "type": "address[]"
        }
      ],
      "name": "postTender",
      "outputs": [
        {
          "internalType": "uint256",
          "name": "",
          "type": "uint256"
        }
      ],
      "stateMutability": "payable",
      "type": "function"
    },
    {
      "inputs": [
        {
          "internalType": "uint256",
          "name": "tenderId",
          "type": "uint256"
        }
      ],
      "name": "reclaimTender",
      "outputs": [],
      "stateMutability": "nonpayable",
      "type": "function"
    },
    {
      "inputs": [
        {
          "internalType": "uint256",
          "name": "tenderId",
          "type": "uint256"
        }
      ],
      "name": "retractTender",
      "outputs": [],
      "stateMutability": "nonpayable",
      "type": "function"
    },
    {
      "inputs": [
        {
          "internalType": "uint256",
          "name": "tenderId",
          "type": "uint256"
        },
        {
          "internalType": "uint256",
          "name": "bidVal",
          "type": "uint256"
        },
        {
          "internalType": "uint256",
          "name": "salt",
          "type": "uint256"
        },
        {
          "internalType": "uint256",
          "name": "index",
          "type": "uint256"
        }
      ],
      "name": "revealBid",
      "outputs": [],
      "stateMutability": "payable",
      "type": "function"
    },
    {
      "inputs": [
        {
          "internalType": "uint256",
          "name": "tenderId",
          "type": "uint256"
        },
        {
          "internalType": "uint256",
          "name": "bidHashedAmount",
          "type": "uint256"
        }
      ],
      "name": "secretBid",
      "outputs": [
        {
          "internalType": "uint256",
          "name": "index",
          "type": "uint256"
        }
      ],
      "stateMutability": "payable",
      "type": "function"
    },
    {
      "inputs": [
        {
          "internalType": "uint256",
          "name": "",
          "type": "uint256"
        }
      ],
      "name": "tenderIds",
      "outputs": [
        {
          "internalType": "uint256",
          "name": "",
          "type": "uint256"
        }
      ],
      "stateMutability": "view",
      "type": "function"
    },
    {
      "inputs": [
        {
          "internalType": "uint256",
          "name": "",
          "type": "uint256"
        }
      ],
      "name": "tenderMapping",
      "outputs": [
        {
          "components": [
            {
              "internalType": "address payable",
              "name": "tenderPoster",
              "type": "address"
            },
            {
              "internalType": "address payable",
              "name": "tenderAccepter",
              "type": "address"
            },
            {
              "internalType": "uint256",
              "name": "postDate",
              "type": "uint256"
            },
            {
              "internalType": "uint256",
              "name": "auctionDate",
              "type": "uint256"
            },
            {
              "internalType": "uint256",
              "name": "revealDate",
              "type": "uint256"
            },
            {
              "internalType": "uint256",
              "name": "dueDate",
              "type": "uint256"
            },
            {
              "internalType": "string",
              "name": "addr",
              "type": "string"
            },
            {
              "internalType": "string",
              "name": "city",
              "type": "string"
            },
            {
              "internalType": "string",
              "name": "state",
              "type": "string"
            },
            {
              "internalType": "string",
              "name": "zipcode",
              "type": "string"
            },
            {
              "internalType": "address[]",
              "name": "allowedHospitals",
              "type": "address[]"
            },
            {
              "internalType": "uint256",
              "name": "maxBid",
              "type": "uint256"
            },
            {
              "internalType": "uint256",
              "name": "penalty",
              "type": "uint256"
            },
            {
              "internalType": "address[]",
              "name": "bidders",
              "type": "address[]"
            },
            {
              "internalType": "uint256[]",
              "name": "bidHashArray",
              "type": "uint256[]"
            },
            {
              "internalType": "uint256",
              "name": "finalBid",
              "type": "uint256"
            },
            {
              "internalType": "string",
              "name": "severity",
              "type": "string"
            }
          ],
          "internalType": "struct Auctions.TenderDetails",
          "name": "details",
          "type": "tuple"
        },
        {
          "internalType": "enum Auctions.TenderStatus",
          "name": "status",
          "type": "uint8"
        },
        {
          "internalType": "uint256",
          "name": "tenderId",
          "type": "uint256"
        }
      ],
      "stateMutability": "view",
      "type": "function"
    },
    {
      "inputs": [
        {
          "internalType": "uint256",
          "name": "",
          "type": "uint256"
        }
      ],
      "name": "tenders",
      "outputs": [
        {
          "components": [
            {
              "internalType": "address payable",
              "name": "tenderPoster",
              "type": "address"
            },
            {
              "internalType": "address payable",
              "name": "tenderAccepter",
              "type": "address"
            },
            {
              "internalType": "uint256",
              "name": "postDate",
              "type": "uint256"
            },
            {
              "internalType": "uint256",
              "name": "auctionDate",
              "type": "uint256"
            },
            {
              "internalType": "uint256",
              "name": "revealDate",
              "type": "uint256"
            },
            {
              "internalType": "uint256",
              "name": "dueDate",
              "type": "uint256"
            },
            {
              "internalType": "string",
              "name": "addr",
              "type": "string"
            },
            {
              "internalType": "string",
              "name": "city",
              "type": "string"
            },
            {
              "internalType": "string",
              "name": "state",
              "type": "string"
            },
            {
              "internalType": "string",
              "name": "zipcode",
              "type": "string"
            },
            {
              "internalType": "address[]",
              "name": "allowedHospitals",
              "type": "address[]"
            },
            {
              "internalType": "uint256",
              "name": "maxBid",
              "type": "uint256"
            },
            {
              "internalType": "uint256",
              "name": "penalty",
              "type": "uint256"
            },
            {
              "internalType": "address[]",
              "name": "bidders",
              "type": "address[]"
            },
            {
              "internalType": "uint256[]",
              "name": "bidHashArray",
              "type": "uint256[]"
            },
            {
              "internalType": "uint256",
              "name": "finalBid",
              "type": "uint256"
            },
            {
              "internalType": "string",
              "name": "severity",
              "type": "string"
            }
          ],
          "internalType": "struct Auctions.TenderDetails",
          "name": "details",
          "type": "tuple"
        },
        {
          "internalType": "enum Auctions.TenderStatus",
          "name": "status",
          "type": "uint8"
        },
        {
          "internalType": "uint256",
          "name": "tenderId",
          "type": "uint256"
        }
      ],
      "stateMutability": "view",
      "type": "function"
    },
    {
      "inputs": [
        {
          "internalType": "uint256",
          "name": "tenderId",
          "type": "uint256"
        }
      ],
      "name": "verifyDelivery",
      "outputs": [],
      "stateMutability": "nonpayable",
      "type": "function"
    }
  ],
  "bytecode": {
    "object": "0x608060405260006004553480156200001657600080fd5b5060405162003d5138038062003d5183398101604081905262000039916200005f565b600080546001600160a01b0319166001600160a01b039290921691909117905562000091565b6000602082840312156200007257600080fd5b81516001600160a01b03811681146200008a57600080fd5b9392505050565b613cb080620000a16000396000f3fe6080604052600436106100a75760003560e01c806355079c3f1161006457806355079c3f146101bb5780636a31879b146101db578063713794b2146101ee578063a198361314610201578063e05917e914610221578063e16a2df71461024157600080fd5b80630585c25e146100ac578063083d353b146100e25780632358c0461461011a57806323675c471461013c57806339c776b61461015e578063465e1def1461018c575b600080fd5b3480156100b857600080fd5b506100cc6100c736600461338b565b610254565b6040516100d99190613636565b60405180910390f35b3480156100ee57600080fd5b506101026100fd36600461338b565b61072b565b6040516001600160a01b0390911681526020016100d9565b34801561012657600080fd5b5061012f61081f565b6040516100d99190613650565b34801561014857600080fd5b5061015c61015736600461338b565b610d29565b005b34801561016a57600080fd5b5061017e61017936600461338b565b611382565b6040519081526020016100d9565b34801561019857600080fd5b506101ac6101a736600461338b565b6113a3565b6040516100d9939291906136b2565b3480156101c757600080fd5b5061015c6101d636600461338b565b611848565b61017e6101e93660046136e2565b611aaa565b61017e6101fc366004613851565b61220b565b34801561020d57600080fd5b506101ac61021c36600461338b565b61291b565b34801561022d57600080fd5b5061015c61023c36600461338b565b612994565b61015c61024f366004613965565b612abe565b61025c6131de565b6000828152600260208190526040918290208251610280810190935280546001600160a01b0390811660608501908152600183015490911660808501529181015460a0840152600381015460c0840152600481015460e084015260058101546101008401526006810180549192849290918491610120850191906102df90613997565b80601f016020809104026020016040519081016040528092919081815260200182805461030b90613997565b80156103585780601f1061032d57610100808354040283529160200191610358565b820191906000526020600020905b81548152906001019060200180831161033b57829003601f168201915b5050505050815260200160078201805461037190613997565b80601f016020809104026020016040519081016040528092919081815260200182805461039d90613997565b80156103ea5780601f106103bf576101008083540402835291602001916103ea565b820191906000526020600020905b8154815290600101906020018083116103cd57829003601f168201915b5050505050815260200160088201805461040390613997565b80601f016020809104026020016040519081016040528092919081815260200182805461042f90613997565b801561047c5780601f106104515761010080835404028352916020019161047c565b820191906000526020600020905b81548152906001019060200180831161045f57829003601f168201915b5050505050815260200160098201805461049590613997565b80601f01602080910402602001604051908101604052809291908181526020018280546104c190613997565b801561050e5780601f106104e35761010080835404028352916020019161050e565b820191906000526020600020905b8154815290600101906020018083116104f157829003601f168201915b50505050508152602001600a820180548060200260200160405190810160405280929190818152602001828054801561057057602002820191906000526020600020905b81546001600160a01b03168152600190910190602001808311610552575b50505050508152602001600b8201548152602001600c8201548152602001600d82018054806020026020016040519081016040528092919081815260200182805480156105e657602002820191906000526020600020905b81546001600160a01b031681526001909101906020018083116105c8575b50505050508152602001600e820180548060200260200160405190810160405280929190818152602001828054801561063e57602002820191906000526020600020905b81548152602001906001019080831161062a575b50505050508152602001600f820154815260200160108201805461066190613997565b80601f016020809104026020016040519081016040528092919081815260200182805461068d90613997565b80156106da5780601f106106af576101008083540402835291602001916106da565b820191906000526020600020905b8154815290600101906020018083116106bd57829003601f168201915b505050919092525050508152601182015460209091019060ff166004811115610705576107056135c0565b6004811115610716576107166135c0565b81526020016012820154815250509050919050565b600081815260026020526040812060040154421161079a5760405162461bcd60e51b815260206004820152602160248201527f74656e646572206d75737420626520706173742072657665616c20706572696f6044820152601960fa1b60648201526084015b60405180910390fd5b600260008381526002602052604090206011015460ff1660048111156107c2576107c26135c0565b036108005760405162461bcd60e51b815260206004820152600e60248201526d2a32b73232b91034b99037b832b760911b6044820152606401610791565b506000908152600260205260409020600101546001600160a01b031690565b60606003805480602002602001604051908101604052809291908181526020016000905b82821015610d20576000848152602090206040805161028081019091526013840290910180546001600160a01b039081166060840190815260018301549091166080840152600282015460a0840152600382015460c0840152600482015460e084015260058201546101008401526006820180548492918491610120850191906108cc90613997565b80601f01602080910402602001604051908101604052809291908181526020018280546108f890613997565b80156109455780601f1061091a57610100808354040283529160200191610945565b820191906000526020600020905b81548152906001019060200180831161092857829003601f168201915b5050505050815260200160078201805461095e90613997565b80601f016020809104026020016040519081016040528092919081815260200182805461098a90613997565b80156109d75780601f106109ac576101008083540402835291602001916109d7565b820191906000526020600020905b8154815290600101906020018083116109ba57829003601f168201915b505050505081526020016008820180546109f090613997565b80601f0160208091040260200160405190810160405280929190818152602001828054610a1c90613997565b8015610a695780601f10610a3e57610100808354040283529160200191610a69565b820191906000526020600020905b815481529060010190602001808311610a4c57829003601f168201915b50505050508152602001600982018054610a8290613997565b80601f0160208091040260200160405190810160405280929190818152602001828054610aae90613997565b8015610afb5780601f10610ad057610100808354040283529160200191610afb565b820191906000526020600020905b815481529060010190602001808311610ade57829003601f168201915b50505050508152602001600a8201805480602002602001604051908101604052809291908181526020018280548015610b5d57602002820191906000526020600020905b81546001600160a01b03168152600190910190602001808311610b3f575b50505050508152602001600b8201548152602001600c8201548152602001600d8201805480602002602001604051908101604052809291908181526020018280548015610bd357602002820191906000526020600020905b81546001600160a01b03168152600190910190602001808311610bb5575b50505050508152602001600e8201805480602002602001604051908101604052809291908181526020018280548015610c2b57602002820191906000526020600020905b815481526020019060010190808311610c17575b50505050508152602001600f8201548152602001601082018054610c4e90613997565b80601f0160208091040260200160405190810160405280929190818152602001828054610c7a90613997565b8015610cc75780601f10610c9c57610100808354040283529160200191610cc7565b820191906000526020600020905b815481529060010190602001808311610caa57829003601f168201915b505050919092525050508152601182015460209091019060ff166004811115610cf257610cf26135c0565b6004811115610d0357610d036135c0565b815260200160128201548152505081526020019060010190610843565b50505050905090565b60005460405163bdf6c67360e01b81523360048201526001600160a01b039091169063bdf6c67390602401602060405180830381865afa158015610d71573d6000803e3d6000fd5b505050506040513d601f19601f82011682018060405250810190610d9591906139d1565b610de15760405162461bcd60e51b815260206004820152601960248201527f53656e646572206d757374206265206120686f73706974616c000000000000006044820152606401610791565b600160008281526002602052604090206011015460ff166004811115610e0957610e096135c0565b14610e4f5760405162461bcd60e51b815260206004820152601660248201527554656e646572206e6f7420696e2070726f677265737360501b6044820152606401610791565b6000818152600260205260409020600401544211610eaf5760405162461bcd60e51b815260206004820152601e60248201527f54656e646572206973206e6f7420706173742072657665616c206461746500006044820152606401610791565b600081815260026020908152604091829020600a018054835181840281018401909452808452610f1e9392830182828015610f1357602002820191906000526020600020905b81546001600160a01b03168152600190910190602001808311610ef5575b505050505033613179565b610f6a5760405162461bcd60e51b815260206004820152601e60248201527f53656e646572206e6f7420616e20616c6c6f77656420686f73706974616c00006044820152606401610791565b600081815260026020526040902060050154421015610fd7576000818152600260205260408082206001810154600f9091015491516001600160a01b039091169282156108fc02929190818181858888f19350505050158015610fd1573d6000803e3d6000fd5b50611039565b60008181526002602052604090206001810154600c820154600f909201546001600160a01b03909116916108fc9161100f9190613a09565b6040518115909202916000818181858888f19350505050158015611037573d6000803e3d6000fd5b505b6000818152600260205260408120600f810154600b9091015461105c9190613a21565b11156110c15760008181526002602052604090208054600f820154600b909201546001600160a01b03909116916108fc916110979190613a21565b6040518115909202916000818181858888f193505050501580156110bf573d6000803e3d6000fd5b505b600081815260026020526040902060118101805460ff1916905580546001600160a01b03198082166001600160a01b039283161783556001830180549182169190921617905580808080600681016111198180613a87565b5060078181019061112c90840182613a87565b5060088181019061113f90840182613a87565b5060098181019061115290840182613a87565b50600a82810180546111679284019190613296565b50600b82015481600b0155600c82015481600c0155600d820181600d01908054611192929190613296565b50600e82810180546111a79284019190613296565b50600f82015481600f0155601082018160100190816111c69190613a87565b505050601182810154908201805460ff9092169160ff191660018360048111156111f2576111f26135c0565b021790555060128201548160120155905050806003838154811061121857611218613b68565b60009182526020909120825460139092020180546001600160a01b039283166001600160a01b031991821617825560018085015490830180549190941691161790915560028083015490820155600380830154908201556004808301549082015560058083015490820155818160068082019061129790840182613a87565b506007818101906112aa90840182613a87565b506008818101906112bd90840182613a87565b506009818101906112d090840182613a87565b50600a82810180546112e59284019190613296565b50600b82015481600b0155600c82015481600c0155600d820181600d01908054611310929190613296565b50600e82810180546113259284019190613296565b50600f82015481600f0155601082018160100190816113449190613a87565b505050601182810154908201805460ff9092169160ff19166001836004811115611370576113706135c0565b02179055506012918201549101555050565b6001818154811061139257600080fd5b600091825260209091200154905081565b600381815481106113b357600080fd5b60009182526020918290206040805161022081018252601390930290910180546001600160a01b039081168452600182015416938301939093526002830154908201526003820154606082015260048201546080820152600582015460a08201526006820180549293509091839160c084019161142f90613997565b80601f016020809104026020016040519081016040528092919081815260200182805461145b90613997565b80156114a85780601f1061147d576101008083540402835291602001916114a8565b820191906000526020600020905b81548152906001019060200180831161148b57829003601f168201915b505050505081526020016007820180546114c190613997565b80601f01602080910402602001604051908101604052809291908181526020018280546114ed90613997565b801561153a5780601f1061150f5761010080835404028352916020019161153a565b820191906000526020600020905b81548152906001019060200180831161151d57829003601f168201915b5050505050815260200160088201805461155390613997565b80601f016020809104026020016040519081016040528092919081815260200182805461157f90613997565b80156115cc5780601f106115a1576101008083540402835291602001916115cc565b820191906000526020600020905b8154815290600101906020018083116115af57829003601f168201915b505050505081526020016009820180546115e590613997565b80601f016020809104026020016040519081016040528092919081815260200182805461161190613997565b801561165e5780601f106116335761010080835404028352916020019161165e565b820191906000526020600020905b81548152906001019060200180831161164157829003601f168201915b50505050508152602001600a82018054806020026020016040519081016040528092919081815260200182805480156116c057602002820191906000526020600020905b81546001600160a01b031681526001909101906020018083116116a2575b50505050508152602001600b8201548152602001600c8201548152602001600d820180548060200260200160405190810160405280929190818152602001828054801561173657602002820191906000526020600020905b81546001600160a01b03168152600190910190602001808311611718575b50505050508152602001600e820180548060200260200160405190810160405280929190818152602001828054801561178e57602002820191906000526020600020905b81548152602001906001019080831161177a575b50505050508152602001600f82015481526020016010820180546117b190613997565b80601f01602080910402602001604051908101604052809291908181526020018280546117dd90613997565b801561182a5780601f106117ff5761010080835404028352916020019161182a565b820191906000526020600020905b81548152906001019060200180831161180d57829003601f168201915b505050919092525050506011820154601290920154909160ff169083565b6000818152600260205260409020546001600160a01b031633146118ae5760405162461bcd60e51b815260206004820152601f60248201527f53656e646572206973206e6f74207468652074656e64657220706f73746572006044820152606401610791565b600160008281526002602052604090206011015460ff1660048111156118d6576118d66135c0565b1461191c5760405162461bcd60e51b815260206004820152601660248201527554656e646572206e6f7420696e2070726f677265737360501b6044820152606401610791565b6000818152600260205260409020600101546001600160a01b03166119925760405162461bcd60e51b815260206004820152602660248201527f54656e646572206163636570746572206973206e6f74207468652061646472656044820152651cdcc81cd95d60d21b6064820152608401610791565b60008181526002602052604090206005015442106119e45760405162461bcd60e51b815260206004820152600f60248201526e20bab1ba34b7b71034b99037bb32b960891b6044820152606401610791565b60008181526002602052604090208054600c820154600b909201546001600160a01b03909116916108fc91611a199190613a09565b6040518115909202916000818181858888f19350505050158015611a41573d6000803e3d6000fd5b506000818152600260205260409020601101805460ff191660049081179091556003805483908110611a7557611a75613b68565b60009182526020909120601160139092020101805460ff19166001836004811115611aa257611aa26135c0565b021790555050565b60008281526002602081905260408083208151610280810190925280546001600160a01b0390811660608401908152600183015490911660808401529281015460a0830152600381015460c0830152600481015460e083015260058101546101008301526006810180548594849290918491610120850191611b2b90613997565b80601f0160208091040260200160405190810160405280929190818152602001828054611b5790613997565b8015611ba45780601f10611b7957610100808354040283529160200191611ba4565b820191906000526020600020905b815481529060010190602001808311611b8757829003601f168201915b50505050508152602001600782018054611bbd90613997565b80601f0160208091040260200160405190810160405280929190818152602001828054611be990613997565b8015611c365780601f10611c0b57610100808354040283529160200191611c36565b820191906000526020600020905b815481529060010190602001808311611c1957829003601f168201915b50505050508152602001600882018054611c4f90613997565b80601f0160208091040260200160405190810160405280929190818152602001828054611c7b90613997565b8015611cc85780601f10611c9d57610100808354040283529160200191611cc8565b820191906000526020600020905b815481529060010190602001808311611cab57829003601f168201915b50505050508152602001600982018054611ce190613997565b80601f0160208091040260200160405190810160405280929190818152602001828054611d0d90613997565b8015611d5a5780601f10611d2f57610100808354040283529160200191611d5a565b820191906000526020600020905b815481529060010190602001808311611d3d57829003601f168201915b50505050508152602001600a8201805480602002602001604051908101604052809291908181526020018280548015611dbc57602002820191906000526020600020905b81546001600160a01b03168152600190910190602001808311611d9e575b50505050508152602001600b8201548152602001600c8201548152602001600d8201805480602002602001604051908101604052809291908181526020018280548015611e3257602002820191906000526020600020905b81546001600160a01b03168152600190910190602001808311611e14575b50505050508152602001600e8201805480602002602001604051908101604052809291908181526020018280548015611e8a57602002820191906000526020600020905b815481526020019060010190808311611e76575b50505050508152602001600f8201548152602001601082018054611ead90613997565b80601f0160208091040260200160405190810160405280929190818152602001828054611ed990613997565b8015611f265780601f10611efb57610100808354040283529160200191611f26565b820191906000526020600020905b815481529060010190602001808311611f0957829003601f168201915b505050919092525050508152601182015460209091019060ff166004811115611f5157611f516135c0565b6004811115611f6257611f626135c0565b815260129190910154602090910152600054604051630172e26760e31b81523360048201529192506001600160a01b031690630b97133890602401602060405180830381865afa158015611fba573d6000803e3d6000fd5b505050506040513d601f19601f82011682018060405250810190611fde91906139d1565b61202a5760405162461bcd60e51b815260206004820152601b60248201527f53656e646572206d75737420626520616e20616d62756c616e636500000000006044820152606401610791565b600281602001516004811115612042576120426135c0565b1461205f5760405162461bcd60e51b815260040161079190613b7e565b80516060015142106120a85760405162461bcd60e51b8152602060048201526012602482015271105d58dd1a5bdb881a185cc81c185cdcd95960721b6044820152606401610791565b8051610180015134146120f85760405162461bcd60e51b8152602060048201526018602482015277125b98dbdc9c9958dd081c195b985b1d1e48185b5bdd5b9d60421b6044820152606401610791565b80516101a001516121099033613179565b1561214a5760405162461bcd60e51b815260206004820152601160248201527043616e206f6e6c7920626964206f6e636560781b6044820152606401610791565b60008481526002602090815260408220600d810180546001818101835582865284862090910180546001600160a01b03191633179055600e9092018054808401825590855292842090920186905591869052547f0fc69407039e8ba8cdd517e2a4cae9dd19697b0a500ff37a2425c59ebc649b319186916121cb9190613a21565b6040805192835260208301919091520160405180910390a16000848152600260205260409020600d015461220190600190613a21565b9150505b92915050565b6000805460405163e5b0c5a760e01b81523360048201526001600160a01b039091169063e5b0c5a790602401602060405180830381865afa158015612254573d6000803e3d6000fd5b505050506040513d601f19601f8201168201806040525081019061227891906139d1565b6122c45760405162461bcd60e51b815260206004820152601760248201527f53656e646572206973206e6f7420696e69746961746f720000000000000000006044820152606401610791565b600034116123145760405162461bcd60e51b815260206004820152601c60248201527f4d61782076616c7565206e6f742067726561746572207468616e2030000000006044820152606401610791565b60005b825181101561241b5760005483516001600160a01b039091169063bdf6c6739085908490811061234957612349613b68565b60200260200101516040518263ffffffff1660e01b815260040161237c91906001600160a01b0391909116815260200190565b602060405180830381865afa158015612399573d6000803e3d6000fd5b505050506040513d601f19601f820116820180604052508101906123bd91906139d1565b6124095760405162461bcd60e51b815260206004820152601b60248201527f476976656e20686f73706974616c206c69737420696e76616c696400000000006044820152606401610791565b8061241381613ba7565b915050612317565b506124246131de565b600454604082810191909152815133905260026020830152815142910181905261244f908c90613a09565b81516060015261012c6124628c42613a09565b61246c9190613a09565b8151608001528961012c6124808d42613a09565b61248a9190613a09565b6124949190613a09565b815160a09081019190915281516000196101e09091015281513461016090910152815161018001869052815161014001849052815160c09081018b9052825160e0018a9052825161010001899052825161012001889052825161020001869052600380546001810182556000919091528351805160139092027fc2575a0e9e593c00f959f8c92f12db2869c3395a3b0502d05e2516446f71f85b810180546001600160a01b039485166001600160a01b031991821617825560208401517fc2575a0e9e593c00f959f8c92f12db2869c3395a3b0502d05e2516446f71f85c840180549190961691161790935560408201517fc2575a0e9e593c00f959f8c92f12db2869c3395a3b0502d05e2516446f71f85d82015560608201517fc2575a0e9e593c00f959f8c92f12db2869c3395a3b0502d05e2516446f71f85e82015560808201517fc2575a0e9e593c00f959f8c92f12db2869c3395a3b0502d05e2516446f71f85f820155938101517fc2575a0e9e593c00f959f8c92f12db2869c3395a3b0502d05e2516446f71f86085015591820151849391929183917fc2575a0e9e593c00f959f8c92f12db2869c3395a3b0502d05e2516446f71f8619091019061265d9082613bc0565b5060e082015160078201906126729082613bc0565b5061010082015160088201906126889082613bc0565b50610120820151600982019061269e9082613bc0565b5061014082015180516126bb91600a8401916020909101906132e6565b50610160820151600b820155610180820151600c8201556101a082015180516126ee91600d8401916020909101906132e6565b506101c0820151805161270b91600e84019160209091019061333b565b506101e0820151600f820155610200820151601082019061272c9082613bc0565b505050602082015160118201805460ff19166001836004811115612752576127526135c0565b02179055506040918201516012919091015560048054600090815260026020818152918490208551805182546001600160a01b03199081166001600160a01b039283161784559482015160018401805490961691161790935593820151908401556060810151600384015560808101519183019190915560a0810151600583015560c081015183929190829060068201906127ed9082613bc0565b5060e082015160078201906128029082613bc0565b5061010082015160088201906128189082613bc0565b50610120820151600982019061282e9082613bc0565b50610140820151805161284b91600a8401916020909101906132e6565b50610160820151600b820155610180820151600c8201556101a0820151805161287e91600d8401916020909101906132e6565b506101c0820151805161289b91600e84019160209091019061333b565b506101e0820151600f82015561020082015160108201906128bc9082613bc0565b505050602082015160118201805460ff191660018360048111156128e2576128e26135c0565b0217905550604091909101516012909101556004805490600061290483613ba7565b9091555050604001519a9950505050505050505050565b60026020818152600092835260409283902083516102208101855281546001600160a01b0390811682526001830154169281019290925291820154928101929092526003810154606083015260048101546080830152600581015460a0830152600681018054919291839160c084019161142f90613997565b6000818152600260205260409020546001600160a01b031633146129fa5760405162461bcd60e51b815260206004820152601f60248201527f53656e646572206973206e6f74207468652074656e64657220706f73746572006044820152606401610791565b600260008281526002602052604090206011015460ff166004811115612a2257612a226135c0565b14612a3f5760405162461bcd60e51b815260040161079190613b7e565b6000818152600260205260408082208054600b9091015491516001600160a01b039091169282156108fc02929190818181858888f19350505050158015612a8a573d6000803e3d6000fd5b506000818152600260205260409020601101805460ff191660039081179091558054819083908110611a7557611a75613b68565b60008481526002602052604080822091549051630172e26760e31b81523360048201526001600160a01b0390911690630b97133890602401602060405180830381865afa158015612b13573d6000803e3d6000fd5b505050506040513d601f19601f82011682018060405250810190612b3791906139d1565b612b835760405162461bcd60e51b815260206004820152601860248201527f53656e646572206d75737420626520616d62756c616e636500000000000000006044820152606401610791565b60038101544211612bcd5760405162461bcd60e51b81526020600482015260146024820152732a32b73232b9103ab73232b91030bab1ba34b7b760611b6044820152606401610791565b60048101544210612c205760405162461bcd60e51b815260206004820152601960248201527f54656e64657220706173742072657665616c20706572696f64000000000000006044820152606401610791565b6002601182015460ff166004811115612c3b57612c3b6135c0565b14612c585760405162461bcd60e51b815260040161079190613b7e565b600b8101548410612cab5760405162461bcd60e51b815260206004820181905260248201527f42696420776173206e6f742062656c6f77206d61782062696420616d6f756e746044820152606401610791565b600d8101805483908110612cc157612cc1613b68565b6000918252602090912001546001600160a01b03163314612d135760405162461bcd60e51b815260206004820152600c60248201526b15dc9bdb99c8189a5908125160a21b6044820152606401610791565b600c8101543414612d615760405162461bcd60e51b8152602060048201526018602482015277125b98dbdc9c9958dd081c195b985b1d1e48185b5bdd5b9d60421b6044820152606401610791565b612d6b8385613a09565b604051602001612d7d91815260200190565b60408051601f198184030181529190528051602090910120600e8201805484908110612dab57612dab613b68565b906000526020600020015414612e115760405162461bcd60e51b815260206004820152602560248201527f4269642076616c756520646f6573206e6f74206d61746368206861736865642060448201526476616c756560d81b6064820152608401610791565b60018101546001600160a01b031615612e66576001810154600c8201546040516001600160a01b039092169181156108fc0291906000818181858888f19350505050158015612e64573d6000803e3d6000fd5b505b601181018054600160ff19909116811790915580820180546001600160a01b031990811633178255600f840187905560008881526002602081905260409091208554815484166001600160a01b039182161782559354948101805490931694909316939093179055818301549181019190915560038083015490820155600480830154908201556005808301549082015581908181600680820190612f0d90840182613a87565b50600781810190612f2090840182613a87565b50600881810190612f3390840182613a87565b50600981810190612f4690840182613a87565b50600a8281018054612f5b9284019190613296565b50600b82015481600b0155600c82015481600c0155600d820181600d01908054612f86929190613296565b50600e8281018054612f9b9284019190613296565b50600f82015481600f015560108201816010019081612fba9190613a87565b505050601182810154908201805460ff9092169160ff19166001836004811115612fe657612fe66135c0565b021790555060128201548160120155905050806003868154811061300c5761300c613b68565b60009182526020909120825460139092020180546001600160a01b039283166001600160a01b031991821617825560018085015490830180549190941691161790915560028083015490820155600380830154908201556004808301549082015560058083015490820155818160068082019061308b90840182613a87565b5060078181019061309e90840182613a87565b506008818101906130b190840182613a87565b506009818101906130c490840182613a87565b50600a82810180546130d99284019190613296565b50600b82015481600b0155600c82015481600c0155600d820181600d01908054613104929190613296565b50600e82810180546131199284019190613296565b50600f82015481600f0155601082018160100190816131389190613a87565b505050601182810154908201805460ff9092169160ff19166001836004811115613164576131646135c0565b02179055506012918201549101555050505050565b6000805b83518110156131d457826001600160a01b03168482815181106131a2576131a2613b68565b60200260200101516001600160a01b0316036131c2576001915050612205565b806131cc81613ba7565b91505061317d565b5060009392505050565b604051806060016040528061328260405180610220016040528060006001600160a01b0316815260200160006001600160a01b031681526020016000815260200160008152602001600081526020016000815260200160608152602001606081526020016060815260200160608152602001606081526020016000815260200160008152602001606081526020016060815260200160008152602001606081525090565b815260200160008152602001600081525090565b8280548282559060005260206000209081019282156132d65760005260206000209182015b828111156132d65782548255916001019190600101906132bb565b506132e2929150613376565b5090565b8280548282559060005260206000209081019282156132d6579160200282015b828111156132d657825182546001600160a01b0319166001600160a01b03909116178255602090920191600190910190613306565b8280548282559060005260206000209081019282156132d6579160200282015b828111156132d657825182559160200191906001019061335b565b5b808211156132e25760008155600101613377565b60006020828403121561339d57600080fd5b5035919050565b6000815180845260005b818110156133ca576020818501810151868301820152016133ae565b818111156133dc576000602083870101525b50601f01601f19169290920160200192915050565b600081518084526020808501945080840160005b8381101561342a5781516001600160a01b031687529582019590820190600101613405565b509495945050505050565b600081518084526020808501945080840160005b8381101561342a57815187529582019590820190600101613449565b80516001600160a01b031682526000610220602083015161349160208601826001600160a01b03169052565b5060408301516040850152606083015160608501526080830151608085015260a083015160a085015260c08301518160c08601526134d1828601826133a4565b91505060e083015184820360e08601526134eb82826133a4565b915050610100808401518583038287015261350683826133a4565b92505050610120808401518583038287015261352283826133a4565b92505050610140808401518583038287015261353e83826133f1565b925050506101608084015181860152506101808084015181860152506101a0808401518583038287015261357283826133f1565b925050506101c0808401518583038287015261358e8382613435565b925050506101e080840151818601525061020080840151858303828701526135b683826133a4565b9695505050505050565b634e487b7160e01b600052602160045260246000fd5b600581106135f457634e487b7160e01b600052602160045260246000fd5b9052565b600081516060845261360d6060850182613465565b9050602083015161362160208601826135d6565b50604083015160408501528091505092915050565b60208152600061364960208301846135f8565b9392505050565b6000602080830181845280855180835260408601915060408160051b870101925083870160005b828110156136a557603f198886030184526136938583516135f8565b94509285019290850190600101613677565b5092979650505050505050565b6060815260006136c56060830186613465565b90506136d460208301856135d6565b826040830152949350505050565b600080604083850312156136f557600080fd5b50508035926020909101359150565b634e487b7160e01b600052604160045260246000fd5b604051601f8201601f1916810167ffffffffffffffff8111828210171561374357613743613704565b604052919050565b600082601f83011261375c57600080fd5b813567ffffffffffffffff81111561377657613776613704565b613789601f8201601f191660200161371a565b81815284602083860101111561379e57600080fd5b816020850160208301376000918101602001919091529392505050565b600082601f8301126137cc57600080fd5b8135602067ffffffffffffffff8211156137e8576137e8613704565b8160051b6137f782820161371a565b928352848101820192828101908785111561381157600080fd5b83870192505b848310156138465782356001600160a01b03811681146138375760008081fd5b82529183019190830190613817565b979650505050505050565b60008060008060008060008060006101208a8c03121561387057600080fd5b8935985060208a0135975060408a013567ffffffffffffffff8082111561389657600080fd5b6138a28d838e0161374b565b985060608c01359150808211156138b857600080fd5b6138c48d838e0161374b565b975060808c01359150808211156138da57600080fd5b6138e68d838e0161374b565b965060a08c01359150808211156138fc57600080fd5b6139088d838e0161374b565b955060c08c0135945060e08c013591508082111561392557600080fd5b6139318d838e0161374b565b93506101008c013591508082111561394857600080fd5b506139558c828d016137bb565b9150509295985092959850929598565b6000806000806080858703121561397b57600080fd5b5050823594602084013594506040840135936060013592509050565b600181811c908216806139ab57607f821691505b6020821081036139cb57634e487b7160e01b600052602260045260246000fd5b50919050565b6000602082840312156139e357600080fd5b8151801515811461364957600080fd5b634e487b7160e01b600052601160045260246000fd5b60008219821115613a1c57613a1c6139f3565b500190565b600082821015613a3357613a336139f3565b500390565b601f821115613a8257600081815260208120601f850160051c81016020861015613a5f5750805b601f850160051c820191505b81811015613a7e57828155600101613a6b565b5050505b505050565b818103613a92575050565b613a9c8254613997565b67ffffffffffffffff811115613ab457613ab4613704565b613ac881613ac28454613997565b84613a38565b6000601f821160018114613afc5760008315613ae45750848201545b600019600385901b1c1916600184901b178455613b61565b600085815260209020601f19841690600086815260209020845b83811015613b365782860154825560019586019590910190602001613b16565b5085831015613b545781850154600019600388901b60f8161c191681555b50505060018360011b0184555b5050505050565b634e487b7160e01b600052603260045260246000fd5b6020808252600f908201526e2a32b73232b9103737ba1037b832b760891b604082015260600190565b600060018201613bb957613bb96139f3565b5060010190565b815167ffffffffffffffff811115613bda57613bda613704565b613be881613ac28454613997565b602080601f831160018114613c1d5760008415613c055750858301515b600019600386901b1c1916600185901b178555613a7e565b600085815260208120601f198616915b82811015613c4c57888601518255948401946001909101908401613c2d565b5085821015613c6a5787850151600019600388901b60f8161c191681555b5050505050600190811b0190555056fea26469706673582212207e003d7b19406b78ae1419bde3e58646924f213ad381c89e9392b5ed20b4859f64736f6c634300080f0033",
    "linkReferences": {}
  },
  "methodIdentifiers": {
    "getAllTenders()": "2358c046",
    "getAuctionWinner(uint256)": "083d353b",
    "getTender(uint256)": "0585c25e",
    "postTender(uint256,uint256,string,string,string,string,uint256,string,address[])": "713794b2",
    "reclaimTender(uint256)": "55079c3f",
    "retractTender(uint256)": "e05917e9",
    "revealBid(uint256,uint256,uint256,uint256)": "e16a2df7",
    "secretBid(uint256,uint256)": "6a31879b",
    "tenderIds(uint256)": "39c776b6",
    "tenderMapping(uint256)": "a1983613",
    "tenders(uint256)": "465e1def",
    "verifyDelivery(uint256)": "23675c47"
  },
  "id": 6
}