{
  "abi": [
    {
      "inputs": [
        {
          "internalType": "address",
          "name": "contractAddress",
          "type": "address"
        }
      ],
      "stateMutability": "nonpayable",
      "type": "constructor"
    },
    {
      "anonymous": false,
      "inputs": [
        {
          "indexed": false,
          "internalType": "uint256",
          "name": "tenderId",
          "type": "uint256"
        },
        {
          "indexed": false,
          "internalType": "uint256",
          "name": "bidId",
          "type": "uint256"
        }
      ],
      "name": "BidPlaced",
      "type": "event"
    },
    {
      "inputs": [],
      "name": "getAllTenders",
      "outputs": [
        {
          "components": [
            {
              "components": [
                {
                  "internalType": "address payable",
                  "name": "tenderPoster",
                  "type": "address"
                },
                {
                  "internalType": "address payable",
                  "name": "tenderAccepter",
                  "type": "address"
                },
                {
                  "internalType": "uint256",
                  "name": "postDate",
                  "type": "uint256"
                },
                {
                  "internalType": "uint256",
                  "name": "auctionDate",
                  "type": "uint256"
                },
                {
                  "internalType": "uint256",
                  "name": "revealDate",
                  "type": "uint256"
                },
                {
                  "internalType": "uint256",
                  "name": "dueDate",
                  "type": "uint256"
                },
                {
                  "internalType": "string",
                  "name": "addr",
                  "type": "string"
                },
                {
                  "internalType": "string",
                  "name": "city",
                  "type": "string"
                },
                {
                  "internalType": "string",
                  "name": "state",
                  "type": "string"
                },
                {
                  "internalType": "string",
                  "name": "zipcode",
                  "type": "string"
                },
                {
                  "internalType": "address[]",
                  "name": "allowedHospitals",
                  "type": "address[]"
                },
                {
                  "internalType": "uint256",
                  "name": "maxBid",
                  "type": "uint256"
                },
                {
                  "internalType": "uint256",
                  "name": "penalty",
                  "type": "uint256"
                },
                {
                  "internalType": "address[]",
                  "name": "bidders",
                  "type": "address[]"
                },
                {
                  "internalType": "uint256[]",
                  "name": "bidHashArray",
                  "type": "uint256[]"
                },
                {
                  "internalType": "uint256",
                  "name": "finalBid",
                  "type": "uint256"
                },
                {
                  "internalType": "string",
                  "name": "severity",
                  "type": "string"
                }
              ],
              "internalType": "struct Auctions.TenderDetails",
              "name": "details",
              "type": "tuple"
            },
            {
              "internalType": "enum Auctions.TenderStatus",
              "name": "status",
              "type": "uint8"
            },
            {
              "internalType": "uint256",
              "name": "tenderId",
              "type": "uint256"
            }
          ],
          "internalType": "struct Auctions.Tender[]",
          "name": "",
          "type": "tuple[]"
        }
      ],
      "stateMutability": "view",
      "type": "function"
    },
    {
      "inputs": [
        {
          "internalType": "uint256",
          "name": "tenderId",
          "type": "uint256"
        }
      ],
      "name": "getAuctionWinner",
      "outputs": [
        {
          "internalType": "address",
          "name": "tenderWinner",
          "type": "address"
        }
      ],
      "stateMutability": "view",
      "type": "function"
    },
    {
      "inputs": [
        {
          "internalType": "uint256",
          "name": "timeLimit",
          "type": "uint256"
        },
        {
          "internalType": "uint256",
          "name": "deliveryTime",
          "type": "uint256"
        },
        {
          "internalType": "string",
          "name": "addr",
          "type": "string"
        },
        {
          "internalType": "string",
          "name": "city",
          "type": "string"
        },
        {
          "internalType": "string",
          "name": "state",
          "type": "string"
        },
        {
          "internalType": "string",
          "name": "zipcode",
          "type": "string"
        },
        {
          "internalType": "uint256",
          "name": "penalty",
          "type": "uint256"
        },
        {
          "internalType": "string",
          "name": "severity",
          "type": "string"
        },
        {
          "internalType": "address[]",
          "name": "allowedHospitals",
          "type": "address[]"
        }
      ],
      "name": "postTender",
      "outputs": [
        {
          "internalType": "uint256",
          "name": "",
          "type": "uint256"
        }
      ],
      "stateMutability": "payable",
      "type": "function"
    },
    {
      "inputs": [
        {
          "internalType": "uint256",
          "name": "tenderId",
          "type": "uint256"
        }
      ],
      "name": "reclaimTender",
      "outputs": [],
      "stateMutability": "nonpayable",
      "type": "function"
    },
    {
      "inputs": [
        {
          "internalType": "uint256",
          "name": "tenderId",
          "type": "uint256"
        }
      ],
      "name": "retractTender",
      "outputs": [],
      "stateMutability": "nonpayable",
      "type": "function"
    },
    {
      "inputs": [
        {
          "internalType": "uint256",
          "name": "tenderId",
          "type": "uint256"
        },
        {
          "internalType": "uint256",
          "name": "bidVal",
          "type": "uint256"
        },
        {
          "internalType": "uint256",
          "name": "salt",
          "type": "uint256"
        },
        {
          "internalType": "uint256",
          "name": "index",
          "type": "uint256"
        }
      ],
      "name": "revealBid",
      "outputs": [],
      "stateMutability": "payable",
      "type": "function"
    },
    {
      "inputs": [
        {
          "internalType": "uint256",
          "name": "tenderId",
          "type": "uint256"
        },
        {
          "internalType": "uint256",
          "name": "bidHashedAmount",
          "type": "uint256"
        }
      ],
      "name": "secretBid",
      "outputs": [
        {
          "internalType": "uint256",
          "name": "index",
          "type": "uint256"
        }
      ],
      "stateMutability": "payable",
      "type": "function"
    },
    {
      "inputs": [
        {
          "internalType": "uint256",
          "name": "",
          "type": "uint256"
        }
      ],
      "name": "tenderIds",
      "outputs": [
        {
          "internalType": "uint256",
          "name": "",
          "type": "uint256"
        }
      ],
      "stateMutability": "view",
      "type": "function"
    },
    {
      "inputs": [
        {
          "internalType": "uint256",
          "name": "",
          "type": "uint256"
        }
      ],
      "name": "tenderMapping",
      "outputs": [
        {
          "components": [
            {
              "internalType": "address payable",
              "name": "tenderPoster",
              "type": "address"
            },
            {
              "internalType": "address payable",
              "name": "tenderAccepter",
              "type": "address"
            },
            {
              "internalType": "uint256",
              "name": "postDate",
              "type": "uint256"
            },
            {
              "internalType": "uint256",
              "name": "auctionDate",
              "type": "uint256"
            },
            {
              "internalType": "uint256",
              "name": "revealDate",
              "type": "uint256"
            },
            {
              "internalType": "uint256",
              "name": "dueDate",
              "type": "uint256"
            },
            {
              "internalType": "string",
              "name": "addr",
              "type": "string"
            },
            {
              "internalType": "string",
              "name": "city",
              "type": "string"
            },
            {
              "internalType": "string",
              "name": "state",
              "type": "string"
            },
            {
              "internalType": "string",
              "name": "zipcode",
              "type": "string"
            },
            {
              "internalType": "address[]",
              "name": "allowedHospitals",
              "type": "address[]"
            },
            {
              "internalType": "uint256",
              "name": "maxBid",
              "type": "uint256"
            },
            {
              "internalType": "uint256",
              "name": "penalty",
              "type": "uint256"
            },
            {
              "internalType": "address[]",
              "name": "bidders",
              "type": "address[]"
            },
            {
              "internalType": "uint256[]",
              "name": "bidHashArray",
              "type": "uint256[]"
            },
            {
              "internalType": "uint256",
              "name": "finalBid",
              "type": "uint256"
            },
            {
              "internalType": "string",
              "name": "severity",
              "type": "string"
            }
          ],
          "internalType": "struct Auctions.TenderDetails",
          "name": "details",
          "type": "tuple"
        },
        {
          "internalType": "enum Auctions.TenderStatus",
          "name": "status",
          "type": "uint8"
        },
        {
          "internalType": "uint256",
          "name": "tenderId",
          "type": "uint256"
        }
      ],
      "stateMutability": "view",
      "type": "function"
    },
    {
      "inputs": [
        {
          "internalType": "uint256",
          "name": "",
          "type": "uint256"
        }
      ],
      "name": "tenders",
      "outputs": [
        {
          "components": [
            {
              "internalType": "address payable",
              "name": "tenderPoster",
              "type": "address"
            },
            {
              "internalType": "address payable",
              "name": "tenderAccepter",
              "type": "address"
            },
            {
              "internalType": "uint256",
              "name": "postDate",
              "type": "uint256"
            },
            {
              "internalType": "uint256",
              "name": "auctionDate",
              "type": "uint256"
            },
            {
              "internalType": "uint256",
              "name": "revealDate",
              "type": "uint256"
            },
            {
              "internalType": "uint256",
              "name": "dueDate",
              "type": "uint256"
            },
            {
              "internalType": "string",
              "name": "addr",
              "type": "string"
            },
            {
              "internalType": "string",
              "name": "city",
              "type": "string"
            },
            {
              "internalType": "string",
              "name": "state",
              "type": "string"
            },
            {
              "internalType": "string",
              "name": "zipcode",
              "type": "string"
            },
            {
              "internalType": "address[]",
              "name": "allowedHospitals",
              "type": "address[]"
            },
            {
              "internalType": "uint256",
              "name": "maxBid",
              "type": "uint256"
            },
            {
              "internalType": "uint256",
              "name": "penalty",
              "type": "uint256"
            },
            {
              "internalType": "address[]",
              "name": "bidders",
              "type": "address[]"
            },
            {
              "internalType": "uint256[]",
              "name": "bidHashArray",
              "type": "uint256[]"
            },
            {
              "internalType": "uint256",
              "name": "finalBid",
              "type": "uint256"
            },
            {
              "internalType": "string",
              "name": "severity",
              "type": "string"
            }
          ],
          "internalType": "struct Auctions.TenderDetails",
          "name": "details",
          "type": "tuple"
        },
        {
          "internalType": "enum Auctions.TenderStatus",
          "name": "status",
          "type": "uint8"
        },
        {
          "internalType": "uint256",
          "name": "tenderId",
          "type": "uint256"
        }
      ],
      "stateMutability": "view",
      "type": "function"
    },
    {
      "inputs": [
        {
          "internalType": "uint256",
          "name": "tenderId",
          "type": "uint256"
        }
      ],
      "name": "verifyDelivery",
      "outputs": [],
      "stateMutability": "nonpayable",
      "type": "function"
    }
  ],
  "bytecode": {
    "object": "0x608060405260006004553480156200001657600080fd5b50604051620038153803806200381583398101604081905262000039916200005f565b600080546001600160a01b0319166001600160a01b039290921691909117905562000091565b6000602082840312156200007257600080fd5b81516001600160a01b03811681146200008a57600080fd5b9392505050565b61377480620000a16000396000f3fe60806040526004361061009c5760003560e01c806355079c3f1161006457806355079c3f1461017f5780636a31879b1461019f578063713794b2146101b2578063a1983613146101c5578063e05917e9146101e5578063e16a2df71461020557600080fd5b8063083d353b146100a15780632358c046146100de57806323675c471461010057806339c776b614610122578063465e1def14610150575b600080fd5b3480156100ad57600080fd5b506100c16100bc366004612e78565b610218565b6040516001600160a01b0390911681526020015b60405180910390f35b3480156100ea57600080fd5b506100f361030c565b6040516100d591906130e5565b34801561010c57600080fd5b5061012061011b366004612e78565b610816565b005b34801561012e57600080fd5b5061014261013d366004612e78565b610e6f565b6040519081526020016100d5565b34801561015c57600080fd5b5061017061016b366004612e78565b610e90565b6040516100d59392919061316f565b34801561018b57600080fd5b5061012061019a366004612e78565b611335565b6101426101ad36600461319f565b611597565b6101426101c036600461330e565b611cf8565b3480156101d157600080fd5b506101706101e0366004612e78565b612408565b3480156101f157600080fd5b50610120610200366004612e78565b612481565b610120610213366004613422565b6125ab565b60008181526002602052604081206004015442116102875760405162461bcd60e51b815260206004820152602160248201527f74656e646572206d75737420626520706173742072657665616c20706572696f6044820152601960fa1b60648201526084015b60405180910390fd5b600260008381526002602052604090206011015460ff1660048111156102af576102af6130ad565b036102ed5760405162461bcd60e51b815260206004820152600e60248201526d2a32b73232b91034b99037b832b760911b604482015260640161027e565b506000908152600260205260409020600101546001600160a01b031690565b60606003805480602002602001604051908101604052809291908181526020016000905b8282101561080d576000848152602090206040805161028081019091526013840290910180546001600160a01b039081166060840190815260018301549091166080840152600282015460a0840152600382015460c0840152600482015460e084015260058201546101008401526006820180548492918491610120850191906103b990613454565b80601f01602080910402602001604051908101604052809291908181526020018280546103e590613454565b80156104325780601f1061040757610100808354040283529160200191610432565b820191906000526020600020905b81548152906001019060200180831161041557829003601f168201915b5050505050815260200160078201805461044b90613454565b80601f016020809104026020016040519081016040528092919081815260200182805461047790613454565b80156104c45780601f10610499576101008083540402835291602001916104c4565b820191906000526020600020905b8154815290600101906020018083116104a757829003601f168201915b505050505081526020016008820180546104dd90613454565b80601f016020809104026020016040519081016040528092919081815260200182805461050990613454565b80156105565780601f1061052b57610100808354040283529160200191610556565b820191906000526020600020905b81548152906001019060200180831161053957829003601f168201915b5050505050815260200160098201805461056f90613454565b80601f016020809104026020016040519081016040528092919081815260200182805461059b90613454565b80156105e85780601f106105bd576101008083540402835291602001916105e8565b820191906000526020600020905b8154815290600101906020018083116105cb57829003601f168201915b50505050508152602001600a820180548060200260200160405190810160405280929190818152602001828054801561064a57602002820191906000526020600020905b81546001600160a01b0316815260019091019060200180831161062c575b50505050508152602001600b8201548152602001600c8201548152602001600d82018054806020026020016040519081016040528092919081815260200182805480156106c057602002820191906000526020600020905b81546001600160a01b031681526001909101906020018083116106a2575b50505050508152602001600e820180548060200260200160405190810160405280929190818152602001828054801561071857602002820191906000526020600020905b815481526020019060010190808311610704575b50505050508152602001600f820154815260200160108201805461073b90613454565b80601f016020809104026020016040519081016040528092919081815260200182805461076790613454565b80156107b45780601f10610789576101008083540402835291602001916107b4565b820191906000526020600020905b81548152906001019060200180831161079757829003601f168201915b505050919092525050508152601182015460209091019060ff1660048111156107df576107df6130ad565b60048111156107f0576107f06130ad565b815260200160128201548152505081526020019060010190610330565b50505050905090565b60005460405163bdf6c67360e01b81523360048201526001600160a01b039091169063bdf6c67390602401602060405180830381865afa15801561085e573d6000803e3d6000fd5b505050506040513d601f19601f82011682018060405250810190610882919061348e565b6108ce5760405162461bcd60e51b815260206004820152601960248201527f53656e646572206d757374206265206120686f73706974616c00000000000000604482015260640161027e565b600160008281526002602052604090206011015460ff1660048111156108f6576108f66130ad565b1461093c5760405162461bcd60e51b815260206004820152601660248201527554656e646572206e6f7420696e2070726f677265737360501b604482015260640161027e565b600081815260026020526040902060040154421161099c5760405162461bcd60e51b815260206004820152601e60248201527f54656e646572206973206e6f7420706173742072657665616c20646174650000604482015260640161027e565b600081815260026020908152604091829020600a018054835181840281018401909452808452610a0b9392830182828015610a0057602002820191906000526020600020905b81546001600160a01b031681526001909101906020018083116109e2575b505050505033612c66565b610a575760405162461bcd60e51b815260206004820152601e60248201527f53656e646572206e6f7420616e20616c6c6f77656420686f73706974616c0000604482015260640161027e565b600081815260026020526040902060050154421015610ac4576000818152600260205260408082206001810154600f9091015491516001600160a01b039091169282156108fc02929190818181858888f19350505050158015610abe573d6000803e3d6000fd5b50610b26565b60008181526002602052604090206001810154600c820154600f909201546001600160a01b03909116916108fc91610afc91906134cd565b6040518115909202916000818181858888f19350505050158015610b24573d6000803e3d6000fd5b505b6000818152600260205260408120600f810154600b90910154610b4991906134e5565b1115610bae5760008181526002602052604090208054600f820154600b909201546001600160a01b03909116916108fc91610b8491906134e5565b6040518115909202916000818181858888f19350505050158015610bac573d6000803e3d6000fd5b505b600081815260026020526040902060118101805460ff1916905580546001600160a01b03198082166001600160a01b03928316178355600183018054918216919092161790558080808060068101610c06818061354b565b50600781810190610c199084018261354b565b50600881810190610c2c9084018261354b565b50600981810190610c3f9084018261354b565b50600a8281018054610c549284019190612ccb565b50600b82015481600b0155600c82015481600c0155600d820181600d01908054610c7f929190612ccb565b50600e8281018054610c949284019190612ccb565b50600f82015481600f015560108201816010019081610cb3919061354b565b505050601182810154908201805460ff9092169160ff19166001836004811115610cdf57610cdf6130ad565b0217905550601282015481601201559050508060038381548110610d0557610d0561362c565b60009182526020909120825460139092020180546001600160a01b039283166001600160a01b0319918216178255600180850154908301805491909416911617909155600280830154908201556003808301549082015560048083015490820155600580830154908201558181600680820190610d849084018261354b565b50600781810190610d979084018261354b565b50600881810190610daa9084018261354b565b50600981810190610dbd9084018261354b565b50600a8281018054610dd29284019190612ccb565b50600b82015481600b0155600c82015481600c0155600d820181600d01908054610dfd929190612ccb565b50600e8281018054610e129284019190612ccb565b50600f82015481600f015560108201816010019081610e31919061354b565b505050601182810154908201805460ff9092169160ff19166001836004811115610e5d57610e5d6130ad565b02179055506012918201549101555050565b60018181548110610e7f57600080fd5b600091825260209091200154905081565b60038181548110610ea057600080fd5b60009182526020918290206040805161022081018252601390930290910180546001600160a01b039081168452600182015416938301939093526002830154908201526003820154606082015260048201546080820152600582015460a08201526006820180549293509091839160c0840191610f1c90613454565b80601f0160208091040260200160405190810160405280929190818152602001828054610f4890613454565b8015610f955780601f10610f6a57610100808354040283529160200191610f95565b820191906000526020600020905b815481529060010190602001808311610f7857829003601f168201915b50505050508152602001600782018054610fae90613454565b80601f0160208091040260200160405190810160405280929190818152602001828054610fda90613454565b80156110275780601f10610ffc57610100808354040283529160200191611027565b820191906000526020600020905b81548152906001019060200180831161100a57829003601f168201915b5050505050815260200160088201805461104090613454565b80601f016020809104026020016040519081016040528092919081815260200182805461106c90613454565b80156110b95780601f1061108e576101008083540402835291602001916110b9565b820191906000526020600020905b81548152906001019060200180831161109c57829003601f168201915b505050505081526020016009820180546110d290613454565b80601f01602080910402602001604051908101604052809291908181526020018280546110fe90613454565b801561114b5780601f106111205761010080835404028352916020019161114b565b820191906000526020600020905b81548152906001019060200180831161112e57829003601f168201915b50505050508152602001600a82018054806020026020016040519081016040528092919081815260200182805480156111ad57602002820191906000526020600020905b81546001600160a01b0316815260019091019060200180831161118f575b50505050508152602001600b8201548152602001600c8201548152602001600d820180548060200260200160405190810160405280929190818152602001828054801561122357602002820191906000526020600020905b81546001600160a01b03168152600190910190602001808311611205575b50505050508152602001600e820180548060200260200160405190810160405280929190818152602001828054801561127b57602002820191906000526020600020905b815481526020019060010190808311611267575b50505050508152602001600f820154815260200160108201805461129e90613454565b80601f01602080910402602001604051908101604052809291908181526020018280546112ca90613454565b80156113175780601f106112ec57610100808354040283529160200191611317565b820191906000526020600020905b8154815290600101906020018083116112fa57829003601f168201915b505050919092525050506011820154601290920154909160ff169083565b6000818152600260205260409020546001600160a01b0316331461139b5760405162461bcd60e51b815260206004820152601f60248201527f53656e646572206973206e6f74207468652074656e64657220706f7374657200604482015260640161027e565b600160008281526002602052604090206011015460ff1660048111156113c3576113c36130ad565b146114095760405162461bcd60e51b815260206004820152601660248201527554656e646572206e6f7420696e2070726f677265737360501b604482015260640161027e565b6000818152600260205260409020600101546001600160a01b031661147f5760405162461bcd60e51b815260206004820152602660248201527f54656e646572206163636570746572206973206e6f74207468652061646472656044820152651cdcc81cd95d60d21b606482015260840161027e565b60008181526002602052604090206005015442106114d15760405162461bcd60e51b815260206004820152600f60248201526e20bab1ba34b7b71034b99037bb32b960891b604482015260640161027e565b60008181526002602052604090208054600c820154600b909201546001600160a01b03909116916108fc9161150691906134cd565b6040518115909202916000818181858888f1935050505015801561152e573d6000803e3d6000fd5b506000818152600260205260409020601101805460ff1916600490811790915560038054839081106115625761156261362c565b60009182526020909120601160139092020101805460ff1916600183600481111561158f5761158f6130ad565b021790555050565b60008281526002602081905260408083208151610280810190925280546001600160a01b0390811660608401908152600183015490911660808401529281015460a0830152600381015460c0830152600481015460e08301526005810154610100830152600681018054859484929091849161012085019161161890613454565b80601f016020809104026020016040519081016040528092919081815260200182805461164490613454565b80156116915780601f1061166657610100808354040283529160200191611691565b820191906000526020600020905b81548152906001019060200180831161167457829003601f168201915b505050505081526020016007820180546116aa90613454565b80601f01602080910402602001604051908101604052809291908181526020018280546116d690613454565b80156117235780601f106116f857610100808354040283529160200191611723565b820191906000526020600020905b81548152906001019060200180831161170657829003601f168201915b5050505050815260200160088201805461173c90613454565b80601f016020809104026020016040519081016040528092919081815260200182805461176890613454565b80156117b55780601f1061178a576101008083540402835291602001916117b5565b820191906000526020600020905b81548152906001019060200180831161179857829003601f168201915b505050505081526020016009820180546117ce90613454565b80601f01602080910402602001604051908101604052809291908181526020018280546117fa90613454565b80156118475780601f1061181c57610100808354040283529160200191611847565b820191906000526020600020905b81548152906001019060200180831161182a57829003601f168201915b50505050508152602001600a82018054806020026020016040519081016040528092919081815260200182805480156118a957602002820191906000526020600020905b81546001600160a01b0316815260019091019060200180831161188b575b50505050508152602001600b8201548152602001600c8201548152602001600d820180548060200260200160405190810160405280929190818152602001828054801561191f57602002820191906000526020600020905b81546001600160a01b03168152600190910190602001808311611901575b50505050508152602001600e820180548060200260200160405190810160405280929190818152602001828054801561197757602002820191906000526020600020905b815481526020019060010190808311611963575b50505050508152602001600f820154815260200160108201805461199a90613454565b80601f01602080910402602001604051908101604052809291908181526020018280546119c690613454565b8015611a135780601f106119e857610100808354040283529160200191611a13565b820191906000526020600020905b8154815290600101906020018083116119f657829003601f168201915b505050919092525050508152601182015460209091019060ff166004811115611a3e57611a3e6130ad565b6004811115611a4f57611a4f6130ad565b815260129190910154602090910152600054604051630172e26760e31b81523360048201529192506001600160a01b031690630b97133890602401602060405180830381865afa158015611aa7573d6000803e3d6000fd5b505050506040513d601f19601f82011682018060405250810190611acb919061348e565b611b175760405162461bcd60e51b815260206004820152601b60248201527f53656e646572206d75737420626520616e20616d62756c616e63650000000000604482015260640161027e565b600281602001516004811115611b2f57611b2f6130ad565b14611b4c5760405162461bcd60e51b815260040161027e90613642565b8051606001514210611b955760405162461bcd60e51b8152602060048201526012602482015271105d58dd1a5bdb881a185cc81c185cdcd95960721b604482015260640161027e565b805161018001513414611be55760405162461bcd60e51b8152602060048201526018602482015277125b98dbdc9c9958dd081c195b985b1d1e48185b5bdd5b9d60421b604482015260640161027e565b80516101a00151611bf69033612c66565b15611c375760405162461bcd60e51b815260206004820152601160248201527043616e206f6e6c7920626964206f6e636560781b604482015260640161027e565b60008481526002602090815260408220600d810180546001818101835582865284862090910180546001600160a01b03191633179055600e9092018054808401825590855292842090920186905591869052547f0fc69407039e8ba8cdd517e2a4cae9dd19697b0a500ff37a2425c59ebc649b31918691611cb891906134e5565b6040805192835260208301919091520160405180910390a16000848152600260205260409020600d0154611cee906001906134e5565b9150505b92915050565b6000805460405163e5b0c5a760e01b81523360048201526001600160a01b039091169063e5b0c5a790602401602060405180830381865afa158015611d41573d6000803e3d6000fd5b505050506040513d601f19601f82011682018060405250810190611d65919061348e565b611db15760405162461bcd60e51b815260206004820152601760248201527f53656e646572206973206e6f7420696e69746961746f72000000000000000000604482015260640161027e565b60003411611e015760405162461bcd60e51b815260206004820152601c60248201527f4d61782076616c7565206e6f742067726561746572207468616e203000000000604482015260640161027e565b60005b8251811015611f085760005483516001600160a01b039091169063bdf6c67390859084908110611e3657611e3661362c565b60200260200101516040518263ffffffff1660e01b8152600401611e6991906001600160a01b0391909116815260200190565b602060405180830381865afa158015611e86573d6000803e3d6000fd5b505050506040513d601f19601f82011682018060405250810190611eaa919061348e565b611ef65760405162461bcd60e51b815260206004820152601b60248201527f476976656e20686f73706974616c206c69737420696e76616c69640000000000604482015260640161027e565b80611f008161366b565b915050611e04565b50611f11612d1b565b6004546040828101919091528151339052600260208301528151429101819052611f3c908c906134cd565b81516060015261012c611f4f8c426134cd565b611f5991906134cd565b8151608001528961012c611f6d8d426134cd565b611f7791906134cd565b611f8191906134cd565b815160a09081019190915281516000196101e09091015281513461016090910152815161018001869052815161014001849052815160c09081018b9052825160e0018a9052825161010001899052825161012001889052825161020001869052600380546001810182556000919091528351805160139092027fc2575a0e9e593c00f959f8c92f12db2869c3395a3b0502d05e2516446f71f85b810180546001600160a01b039485166001600160a01b031991821617825560208401517fc2575a0e9e593c00f959f8c92f12db2869c3395a3b0502d05e2516446f71f85c840180549190961691161790935560408201517fc2575a0e9e593c00f959f8c92f12db2869c3395a3b0502d05e2516446f71f85d82015560608201517fc2575a0e9e593c00f959f8c92f12db2869c3395a3b0502d05e2516446f71f85e82015560808201517fc2575a0e9e593c00f959f8c92f12db2869c3395a3b0502d05e2516446f71f85f820155938101517fc2575a0e9e593c00f959f8c92f12db2869c3395a3b0502d05e2516446f71f86085015591820151849391929183917fc2575a0e9e593c00f959f8c92f12db2869c3395a3b0502d05e2516446f71f8619091019061214a9082613684565b5060e0820151600782019061215f9082613684565b5061010082015160088201906121759082613684565b50610120820151600982019061218b9082613684565b5061014082015180516121a891600a840191602090910190612dd3565b50610160820151600b820155610180820151600c8201556101a082015180516121db91600d840191602090910190612dd3565b506101c082015180516121f891600e840191602090910190612e28565b506101e0820151600f82015561020082015160108201906122199082613684565b505050602082015160118201805460ff1916600183600481111561223f5761223f6130ad565b02179055506040918201516012919091015560048054600090815260026020818152918490208551805182546001600160a01b03199081166001600160a01b039283161784559482015160018401805490961691161790935593820151908401556060810151600384015560808101519183019190915560a0810151600583015560c081015183929190829060068201906122da9082613684565b5060e082015160078201906122ef9082613684565b5061010082015160088201906123059082613684565b50610120820151600982019061231b9082613684565b50610140820151805161233891600a840191602090910190612dd3565b50610160820151600b820155610180820151600c8201556101a0820151805161236b91600d840191602090910190612dd3565b506101c0820151805161238891600e840191602090910190612e28565b506101e0820151600f82015561020082015160108201906123a99082613684565b505050602082015160118201805460ff191660018360048111156123cf576123cf6130ad565b021790555060409190910151601290910155600480549060006123f18361366b565b9091555050604001519a9950505050505050505050565b60026020818152600092835260409283902083516102208101855281546001600160a01b0390811682526001830154169281019290925291820154928101929092526003810154606083015260048101546080830152600581015460a0830152600681018054919291839160c0840191610f1c90613454565b6000818152600260205260409020546001600160a01b031633146124e75760405162461bcd60e51b815260206004820152601f60248201527f53656e646572206973206e6f74207468652074656e64657220706f7374657200604482015260640161027e565b600260008281526002602052604090206011015460ff16600481111561250f5761250f6130ad565b1461252c5760405162461bcd60e51b815260040161027e90613642565b6000818152600260205260408082208054600b9091015491516001600160a01b039091169282156108fc02929190818181858888f19350505050158015612577573d6000803e3d6000fd5b506000818152600260205260409020601101805460ff1916600390811790915580548190839081106115625761156261362c565b60008481526002602052604080822091549051630172e26760e31b81523360048201526001600160a01b0390911690630b97133890602401602060405180830381865afa158015612600573d6000803e3d6000fd5b505050506040513d601f19601f82011682018060405250810190612624919061348e565b6126705760405162461bcd60e51b815260206004820152601860248201527f53656e646572206d75737420626520616d62756c616e63650000000000000000604482015260640161027e565b600381015442116126ba5760405162461bcd60e51b81526020600482015260146024820152732a32b73232b9103ab73232b91030bab1ba34b7b760611b604482015260640161027e565b6004810154421061270d5760405162461bcd60e51b815260206004820152601960248201527f54656e64657220706173742072657665616c20706572696f6400000000000000604482015260640161027e565b6002601182015460ff166004811115612728576127286130ad565b146127455760405162461bcd60e51b815260040161027e90613642565b600b81015484106127985760405162461bcd60e51b815260206004820181905260248201527f42696420776173206e6f742062656c6f77206d61782062696420616d6f756e74604482015260640161027e565b600d81018054839081106127ae576127ae61362c565b6000918252602090912001546001600160a01b031633146128005760405162461bcd60e51b815260206004820152600c60248201526b15dc9bdb99c8189a5908125160a21b604482015260640161027e565b600c810154341461284e5760405162461bcd60e51b8152602060048201526018602482015277125b98dbdc9c9958dd081c195b985b1d1e48185b5bdd5b9d60421b604482015260640161027e565b61285883856134cd565b60405160200161286a91815260200190565b60408051601f198184030181529190528051602090910120600e82018054849081106128985761289861362c565b9060005260206000200154146128fe5760405162461bcd60e51b815260206004820152602560248201527f4269642076616c756520646f6573206e6f74206d61746368206861736865642060448201526476616c756560d81b606482015260840161027e565b60018101546001600160a01b031615612953576001810154600c8201546040516001600160a01b039092169181156108fc0291906000818181858888f19350505050158015612951573d6000803e3d6000fd5b505b601181018054600160ff19909116811790915580820180546001600160a01b031990811633178255600f840187905560008881526002602081905260409091208554815484166001600160a01b0391821617825593549481018054909316949093169390931790558183015491810191909155600380830154908201556004808301549082015560058083015490820155819081816006808201906129fa9084018261354b565b50600781810190612a0d9084018261354b565b50600881810190612a209084018261354b565b50600981810190612a339084018261354b565b50600a8281018054612a489284019190612ccb565b50600b82015481600b0155600c82015481600c0155600d820181600d01908054612a73929190612ccb565b50600e8281018054612a889284019190612ccb565b50600f82015481600f015560108201816010019081612aa7919061354b565b505050601182810154908201805460ff9092169160ff19166001836004811115612ad357612ad36130ad565b0217905550601282015481601201559050508060038681548110612af957612af961362c565b60009182526020909120825460139092020180546001600160a01b039283166001600160a01b0319918216178255600180850154908301805491909416911617909155600280830154908201556003808301549082015560048083015490820155600580830154908201558181600680820190612b789084018261354b565b50600781810190612b8b9084018261354b565b50600881810190612b9e9084018261354b565b50600981810190612bb19084018261354b565b50600a8281018054612bc69284019190612ccb565b50600b82015481600b0155600c82015481600c0155600d820181600d01908054612bf1929190612ccb565b50600e8281018054612c069284019190612ccb565b50600f82015481600f015560108201816010019081612c25919061354b565b505050601182810154908201805460ff9092169160ff19166001836004811115612c5157612c516130ad565b02179055506012918201549101555050505050565b6000805b8351811015612cc157826001600160a01b0316848281518110612c8f57612c8f61362c565b60200260200101516001600160a01b031603612caf576001915050611cf2565b80612cb98161366b565b915050612c6a565b5060009392505050565b828054828255906000526020600020908101928215612d0b5760005260206000209182015b82811115612d0b578254825591600101919060010190612cf0565b50612d17929150612e63565b5090565b6040518060600160405280612dbf60405180610220016040528060006001600160a01b0316815260200160006001600160a01b031681526020016000815260200160008152602001600081526020016000815260200160608152602001606081526020016060815260200160608152602001606081526020016000815260200160008152602001606081526020016060815260200160008152602001606081525090565b815260200160008152602001600081525090565b828054828255906000526020600020908101928215612d0b579160200282015b82811115612d0b57825182546001600160a01b0319166001600160a01b03909116178255602090920191600190910190612df3565b828054828255906000526020600020908101928215612d0b579160200282015b82811115612d0b578251825591602001919060010190612e48565b5b80821115612d175760008155600101612e64565b600060208284031215612e8a57600080fd5b5035919050565b6000815180845260005b81811015612eb757602081850181015186830182015201612e9b565b81811115612ec9576000602083870101525b50601f01601f19169290920160200192915050565b600081518084526020808501945080840160005b83811015612f175781516001600160a01b031687529582019590820190600101612ef2565b509495945050505050565b600081518084526020808501945080840160005b83811015612f1757815187529582019590820190600101612f36565b80516001600160a01b0316825260006102206020830151612f7e60208601826001600160a01b03169052565b5060408301516040850152606083015160608501526080830151608085015260a083015160a085015260c08301518160c0860152612fbe82860182612e91565b91505060e083015184820360e0860152612fd88282612e91565b9150506101008084015185830382870152612ff38382612e91565b92505050610120808401518583038287015261300f8382612e91565b92505050610140808401518583038287015261302b8382612ede565b925050506101608084015181860152506101808084015181860152506101a0808401518583038287015261305f8382612ede565b925050506101c0808401518583038287015261307b8382612f22565b925050506101e080840151818601525061020080840151858303828701526130a38382612e91565b9695505050505050565b634e487b7160e01b600052602160045260246000fd5b600581106130e157634e487b7160e01b600052602160045260246000fd5b9052565b60006020808301818452808551808352604092508286019150828160051b87010184880160005b8381101561316157603f1989840301855281516060815181865261313282870182612f52565b915050888201516131458a8701826130c3565b509087015193870193909352938601939086019060010161310c565b509098975050505050505050565b6060815260006131826060830186612f52565b905061319160208301856130c3565b826040830152949350505050565b600080604083850312156131b257600080fd5b50508035926020909101359150565b634e487b7160e01b600052604160045260246000fd5b604051601f8201601f1916810167ffffffffffffffff81118282101715613200576132006131c1565b604052919050565b600082601f83011261321957600080fd5b813567ffffffffffffffff811115613233576132336131c1565b613246601f8201601f19166020016131d7565b81815284602083860101111561325b57600080fd5b816020850160208301376000918101602001919091529392505050565b600082601f83011261328957600080fd5b8135602067ffffffffffffffff8211156132a5576132a56131c1565b8160051b6132b48282016131d7565b92835284810182019282810190878511156132ce57600080fd5b83870192505b848310156133035782356001600160a01b03811681146132f45760008081fd5b825291830191908301906132d4565b979650505050505050565b60008060008060008060008060006101208a8c03121561332d57600080fd5b8935985060208a0135975060408a013567ffffffffffffffff8082111561335357600080fd5b61335f8d838e01613208565b985060608c013591508082111561337557600080fd5b6133818d838e01613208565b975060808c013591508082111561339757600080fd5b6133a38d838e01613208565b965060a08c01359150808211156133b957600080fd5b6133c58d838e01613208565b955060c08c0135945060e08c01359150808211156133e257600080fd5b6133ee8d838e01613208565b93506101008c013591508082111561340557600080fd5b506134128c828d01613278565b9150509295985092959850929598565b6000806000806080858703121561343857600080fd5b5050823594602084013594506040840135936060013592509050565b600181811c9082168061346857607f821691505b60208210810361348857634e487b7160e01b600052602260045260246000fd5b50919050565b6000602082840312156134a057600080fd5b815180151581146134b057600080fd5b9392505050565b634e487b7160e01b600052601160045260246000fd5b600082198211156134e0576134e06134b7565b500190565b6000828210156134f7576134f76134b7565b500390565b601f82111561354657600081815260208120601f850160051c810160208610156135235750805b601f850160051c820191505b818110156135425782815560010161352f565b5050505b505050565b818103613556575050565b6135608254613454565b67ffffffffffffffff811115613578576135786131c1565b61358c816135868454613454565b846134fc565b6000601f8211600181146135c057600083156135a85750848201545b600019600385901b1c1916600184901b178455613625565b600085815260209020601f19841690600086815260209020845b838110156135fa57828601548255600195860195909101906020016135da565b50858310156136185781850154600019600388901b60f8161c191681555b50505060018360011b0184555b5050505050565b634e487b7160e01b600052603260045260246000fd5b6020808252600f908201526e2a32b73232b9103737ba1037b832b760891b604082015260600190565b60006001820161367d5761367d6134b7565b5060010190565b815167ffffffffffffffff81111561369e5761369e6131c1565b6136ac816135868454613454565b602080601f8311600181146136e157600084156136c95750858301515b600019600386901b1c1916600185901b178555613542565b600085815260208120601f198616915b82811015613710578886015182559484019460019091019084016136f1565b508582101561372e5787850151600019600388901b60f8161c191681555b5050505050600190811b0190555056fea26469706673582212202156df4922c60a0715a2ddbb229b8a8e7d53097791b79afad6f2781e2aa5e26b64736f6c634300080f0033",
    "linkReferences": {}
  },
  "methodIdentifiers": {
    "getAllTenders()": "2358c046",
    "getAuctionWinner(uint256)": "083d353b",
    "postTender(uint256,uint256,string,string,string,string,uint256,string,address[])": "713794b2",
    "reclaimTender(uint256)": "55079c3f",
    "retractTender(uint256)": "e05917e9",
    "revealBid(uint256,uint256,uint256,uint256)": "e16a2df7",
    "secretBid(uint256,uint256)": "6a31879b",
    "tenderIds(uint256)": "39c776b6",
    "tenderMapping(uint256)": "a1983613",
    "tenders(uint256)": "465e1def",
    "verifyDelivery(uint256)": "23675c47"
  },
  "id": 6
}