{
  "abi": [
    {
      "inputs": [
        {
          "internalType": "address",
          "name": "contractAddress",
          "type": "address"
        }
      ],
      "stateMutability": "nonpayable",
      "type": "constructor"
    },
    {
      "inputs": [],
      "name": "getAllTenders",
      "outputs": [
        {
          "components": [
            {
              "components": [
                {
                  "internalType": "address payable",
                  "name": "tenderPoster",
                  "type": "address"
                },
                {
                  "internalType": "address payable",
                  "name": "tenderAccepter",
                  "type": "address"
                },
                {
                  "internalType": "uint256",
                  "name": "postDate",
                  "type": "uint256"
                },
                {
                  "internalType": "uint256",
                  "name": "auctionDate",
                  "type": "uint256"
                },
                {
                  "internalType": "uint256",
                  "name": "revealDate",
                  "type": "uint256"
                },
                {
                  "internalType": "uint256",
                  "name": "dueDate",
                  "type": "uint256"
                },
                {
                  "internalType": "string",
                  "name": "addr",
                  "type": "string"
                },
                {
                  "internalType": "string",
                  "name": "city",
                  "type": "string"
                },
                {
                  "internalType": "string",
                  "name": "state",
                  "type": "string"
                },
                {
                  "internalType": "address[]",
                  "name": "allowedHospitals",
                  "type": "address[]"
                },
                {
                  "internalType": "uint256",
                  "name": "maxBid",
                  "type": "uint256"
                },
                {
                  "internalType": "uint256",
                  "name": "penalty",
                  "type": "uint256"
                },
                {
                  "internalType": "address[]",
                  "name": "bidders",
                  "type": "address[]"
                },
                {
                  "internalType": "uint256[]",
                  "name": "bidHashArray",
                  "type": "uint256[]"
                },
                {
                  "internalType": "uint256",
                  "name": "finalBid",
                  "type": "uint256"
                },
                {
                  "internalType": "string",
                  "name": "severity",
                  "type": "string"
                }
              ],
              "internalType": "struct Auctions.TenderDetails",
              "name": "details",
              "type": "tuple"
            },
            {
              "internalType": "enum Auctions.TenderStatus",
              "name": "status",
              "type": "uint8"
            },
            {
              "internalType": "uint256",
              "name": "tenderId",
              "type": "uint256"
            }
          ],
          "internalType": "struct Auctions.Tender[]",
          "name": "",
          "type": "tuple[]"
        }
      ],
      "stateMutability": "view",
      "type": "function"
    },
    {
      "inputs": [
        {
          "internalType": "uint256",
          "name": "tenderId",
          "type": "uint256"
        }
      ],
      "name": "getAuctionWinner",
      "outputs": [
        {
          "internalType": "address",
          "name": "tenderWinner",
          "type": "address"
        }
      ],
      "stateMutability": "view",
      "type": "function"
    },
    {
      "inputs": [
        {
          "internalType": "uint256",
          "name": "tenderId",
          "type": "uint256"
        }
      ],
      "name": "getTender",
      "outputs": [
        {
          "components": [
            {
              "components": [
                {
                  "internalType": "address payable",
                  "name": "tenderPoster",
                  "type": "address"
                },
                {
                  "internalType": "address payable",
                  "name": "tenderAccepter",
                  "type": "address"
                },
                {
                  "internalType": "uint256",
                  "name": "postDate",
                  "type": "uint256"
                },
                {
                  "internalType": "uint256",
                  "name": "auctionDate",
                  "type": "uint256"
                },
                {
                  "internalType": "uint256",
                  "name": "revealDate",
                  "type": "uint256"
                },
                {
                  "internalType": "uint256",
                  "name": "dueDate",
                  "type": "uint256"
                },
                {
                  "internalType": "string",
                  "name": "addr",
                  "type": "string"
                },
                {
                  "internalType": "string",
                  "name": "city",
                  "type": "string"
                },
                {
                  "internalType": "string",
                  "name": "state",
                  "type": "string"
                },
                {
                  "internalType": "address[]",
                  "name": "allowedHospitals",
                  "type": "address[]"
                },
                {
                  "internalType": "uint256",
                  "name": "maxBid",
                  "type": "uint256"
                },
                {
                  "internalType": "uint256",
                  "name": "penalty",
                  "type": "uint256"
                },
                {
                  "internalType": "address[]",
                  "name": "bidders",
                  "type": "address[]"
                },
                {
                  "internalType": "uint256[]",
                  "name": "bidHashArray",
                  "type": "uint256[]"
                },
                {
                  "internalType": "uint256",
                  "name": "finalBid",
                  "type": "uint256"
                },
                {
                  "internalType": "string",
                  "name": "severity",
                  "type": "string"
                }
              ],
              "internalType": "struct Auctions.TenderDetails",
              "name": "details",
              "type": "tuple"
            },
            {
              "internalType": "enum Auctions.TenderStatus",
              "name": "status",
              "type": "uint8"
            },
            {
              "internalType": "uint256",
              "name": "tenderId",
              "type": "uint256"
            }
          ],
          "internalType": "struct Auctions.Tender",
          "name": "",
          "type": "tuple"
        }
      ],
      "stateMutability": "view",
      "type": "function"
    },
    {
      "inputs": [
        {
          "internalType": "uint256",
          "name": "bidValue",
          "type": "uint256"
        },
        {
          "internalType": "uint256",
          "name": "salt",
          "type": "uint256"
        }
      ],
      "name": "hashVal",
      "outputs": [
        {
          "internalType": "uint256",
          "name": "",
          "type": "uint256"
        }
      ],
      "stateMutability": "pure",
      "type": "function"
    },
    {
      "inputs": [
        {
          "internalType": "uint256",
          "name": "timeLimit",
          "type": "uint256"
        },
        {
          "internalType": "uint256",
          "name": "deliveryTime",
          "type": "uint256"
        },
        {
          "internalType": "string",
          "name": "addr",
          "type": "string"
        },
        {
          "internalType": "string",
          "name": "city",
          "type": "string"
        },
        {
          "internalType": "string",
          "name": "state",
          "type": "string"
        },
        {
          "internalType": "uint256",
          "name": "penalty",
          "type": "uint256"
        },
        {
          "internalType": "string",
          "name": "severity",
          "type": "string"
        },
        {
          "internalType": "address[]",
          "name": "allowedHospitals",
          "type": "address[]"
        }
      ],
      "name": "postTender",
      "outputs": [
        {
          "internalType": "uint256",
          "name": "",
          "type": "uint256"
        }
      ],
      "stateMutability": "payable",
      "type": "function"
    },
    {
      "inputs": [
        {
          "internalType": "uint256",
          "name": "tenderId",
          "type": "uint256"
        }
      ],
      "name": "reclaimTender",
      "outputs": [],
      "stateMutability": "nonpayable",
      "type": "function"
    },
    {
      "inputs": [
        {
          "internalType": "uint256",
          "name": "tenderId",
          "type": "uint256"
        }
      ],
      "name": "retractTender",
      "outputs": [],
      "stateMutability": "nonpayable",
      "type": "function"
    },
    {
      "inputs": [
        {
          "internalType": "uint256",
          "name": "tenderId",
          "type": "uint256"
        },
        {
          "internalType": "uint256",
          "name": "bidVal",
          "type": "uint256"
        },
        {
          "internalType": "uint256",
          "name": "salt",
          "type": "uint256"
        },
        {
          "internalType": "uint256",
          "name": "index",
          "type": "uint256"
        }
      ],
      "name": "revealBid",
      "outputs": [],
      "stateMutability": "payable",
      "type": "function"
    },
    {
      "inputs": [
        {
          "internalType": "uint256",
          "name": "tenderId",
          "type": "uint256"
        },
        {
          "internalType": "uint256",
          "name": "bidHashedAmount",
          "type": "uint256"
        }
      ],
      "name": "secretBid",
      "outputs": [
        {
          "internalType": "uint256",
          "name": "index",
          "type": "uint256"
        }
      ],
      "stateMutability": "payable",
      "type": "function"
    },
    {
      "inputs": [
        {
          "internalType": "uint256",
          "name": "",
          "type": "uint256"
        }
      ],
      "name": "tenderIds",
      "outputs": [
        {
          "internalType": "uint256",
          "name": "",
          "type": "uint256"
        }
      ],
      "stateMutability": "view",
      "type": "function"
    },
    {
      "inputs": [
        {
          "internalType": "uint256",
          "name": "",
          "type": "uint256"
        }
      ],
      "name": "tenderMapping",
      "outputs": [
        {
          "components": [
            {
              "internalType": "address payable",
              "name": "tenderPoster",
              "type": "address"
            },
            {
              "internalType": "address payable",
              "name": "tenderAccepter",
              "type": "address"
            },
            {
              "internalType": "uint256",
              "name": "postDate",
              "type": "uint256"
            },
            {
              "internalType": "uint256",
              "name": "auctionDate",
              "type": "uint256"
            },
            {
              "internalType": "uint256",
              "name": "revealDate",
              "type": "uint256"
            },
            {
              "internalType": "uint256",
              "name": "dueDate",
              "type": "uint256"
            },
            {
              "internalType": "string",
              "name": "addr",
              "type": "string"
            },
            {
              "internalType": "string",
              "name": "city",
              "type": "string"
            },
            {
              "internalType": "string",
              "name": "state",
              "type": "string"
            },
            {
              "internalType": "address[]",
              "name": "allowedHospitals",
              "type": "address[]"
            },
            {
              "internalType": "uint256",
              "name": "maxBid",
              "type": "uint256"
            },
            {
              "internalType": "uint256",
              "name": "penalty",
              "type": "uint256"
            },
            {
              "internalType": "address[]",
              "name": "bidders",
              "type": "address[]"
            },
            {
              "internalType": "uint256[]",
              "name": "bidHashArray",
              "type": "uint256[]"
            },
            {
              "internalType": "uint256",
              "name": "finalBid",
              "type": "uint256"
            },
            {
              "internalType": "string",
              "name": "severity",
              "type": "string"
            }
          ],
          "internalType": "struct Auctions.TenderDetails",
          "name": "details",
          "type": "tuple"
        },
        {
          "internalType": "enum Auctions.TenderStatus",
          "name": "status",
          "type": "uint8"
        },
        {
          "internalType": "uint256",
          "name": "tenderId",
          "type": "uint256"
        }
      ],
      "stateMutability": "view",
      "type": "function"
    },
    {
      "inputs": [
        {
          "internalType": "uint256",
          "name": "",
          "type": "uint256"
        }
      ],
      "name": "tenders",
      "outputs": [
        {
          "components": [
            {
              "internalType": "address payable",
              "name": "tenderPoster",
              "type": "address"
            },
            {
              "internalType": "address payable",
              "name": "tenderAccepter",
              "type": "address"
            },
            {
              "internalType": "uint256",
              "name": "postDate",
              "type": "uint256"
            },
            {
              "internalType": "uint256",
              "name": "auctionDate",
              "type": "uint256"
            },
            {
              "internalType": "uint256",
              "name": "revealDate",
              "type": "uint256"
            },
            {
              "internalType": "uint256",
              "name": "dueDate",
              "type": "uint256"
            },
            {
              "internalType": "string",
              "name": "addr",
              "type": "string"
            },
            {
              "internalType": "string",
              "name": "city",
              "type": "string"
            },
            {
              "internalType": "string",
              "name": "state",
              "type": "string"
            },
            {
              "internalType": "address[]",
              "name": "allowedHospitals",
              "type": "address[]"
            },
            {
              "internalType": "uint256",
              "name": "maxBid",
              "type": "uint256"
            },
            {
              "internalType": "uint256",
              "name": "penalty",
              "type": "uint256"
            },
            {
              "internalType": "address[]",
              "name": "bidders",
              "type": "address[]"
            },
            {
              "internalType": "uint256[]",
              "name": "bidHashArray",
              "type": "uint256[]"
            },
            {
              "internalType": "uint256",
              "name": "finalBid",
              "type": "uint256"
            },
            {
              "internalType": "string",
              "name": "severity",
              "type": "string"
            }
          ],
          "internalType": "struct Auctions.TenderDetails",
          "name": "details",
          "type": "tuple"
        },
        {
          "internalType": "enum Auctions.TenderStatus",
          "name": "status",
          "type": "uint8"
        },
        {
          "internalType": "uint256",
          "name": "tenderId",
          "type": "uint256"
        }
      ],
      "stateMutability": "view",
      "type": "function"
    },
    {
      "inputs": [
        {
          "internalType": "uint256",
          "name": "tenderId",
          "type": "uint256"
        }
      ],
      "name": "verifyDelivery",
      "outputs": [],
      "stateMutability": "nonpayable",
      "type": "function"
    }
  ],
  "bytecode": {
    "object": "0x608060405260006004553480156200001657600080fd5b50604051620037273803806200372783398101604081905262000039916200005f565b600080546001600160a01b0319166001600160a01b039290921691909117905562000091565b6000602082840312156200007257600080fd5b81516001600160a01b03811681146200008a57600080fd5b9392505050565b61368680620000a16000396000f3fe6080604052600436106100c25760003560e01c80634f2c37161161007f578063a198361311610059578063a19836131461021c578063dea6e0fe1461023c578063e05917e91461025c578063e16a2df71461027c57600080fd5b80634f2c3716146101d657806355079c3f146101e95780636a31879b1461020957600080fd5b80630585c25e146100c7578063083d353b146100fd5780632358c0461461013557806323675c471461015757806339c776b614610179578063465e1def146101a7575b600080fd5b3480156100d357600080fd5b506100e76100e2366004612dcb565b61028f565b6040516100f4919061305a565b60405180910390f35b34801561010957600080fd5b5061011d610118366004612dcb565b6106d4565b6040516001600160a01b0390911681526020016100f4565b34801561014157600080fd5b5061014a6107d9565b6040516100f49190613074565b34801561016357600080fd5b50610177610172366004612dcb565b610c51565b005b34801561018557600080fd5b50610199610194366004612dcb565b6110a0565b6040519081526020016100f4565b3480156101b357600080fd5b506101c76101c2366004612dcb565b6110c1565b6040516100f4939291906130d6565b6101996101e4366004613253565b6114d4565b3480156101f557600080fd5b50610177610204366004612dcb565b611bae565b610199610217366004613342565b611ddd565b34801561022857600080fd5b506101c7610237366004612dcb565b61249a565b34801561024857600080fd5b50610199610257366004613342565b612513565b34801561026857600080fd5b50610177610277366004612dcb565b612550565b61017761028a366004613364565b61268f565b610297612c25565b6000828152600260208190526040918290208251610260810190935280546001600160a01b0390811660608501908152600183015490911660808501529181015460a0840152600381015460c0840152600481015460e0840152600581015461010084015260068101805491928492909184916101208501919061031a90613396565b80601f016020809104026020016040519081016040528092919081815260200182805461034690613396565b80156103935780601f1061036857610100808354040283529160200191610393565b820191906000526020600020905b81548152906001019060200180831161037657829003601f168201915b505050505081526020016007820180546103ac90613396565b80601f01602080910402602001604051908101604052809291908181526020018280546103d890613396565b80156104255780601f106103fa57610100808354040283529160200191610425565b820191906000526020600020905b81548152906001019060200180831161040857829003601f168201915b5050505050815260200160088201805461043e90613396565b80601f016020809104026020016040519081016040528092919081815260200182805461046a90613396565b80156104b75780601f1061048c576101008083540402835291602001916104b7565b820191906000526020600020905b81548152906001019060200180831161049a57829003601f168201915b505050505081526020016009820180548060200260200160405190810160405280929190818152602001828054801561051957602002820191906000526020600020905b81546001600160a01b031681526001909101906020018083116104fb575b50505050508152602001600a8201548152602001600b8201548152602001600c820180548060200260200160405190810160405280929190818152602001828054801561058f57602002820191906000526020600020905b81546001600160a01b03168152600190910190602001808311610571575b50505050508152602001600d82018054806020026020016040519081016040528092919081815260200182805480156105e757602002820191906000526020600020905b8154815260200190600101908083116105d3575b50505050508152602001600e8201548152602001600f8201805461060a90613396565b80601f016020809104026020016040519081016040528092919081815260200182805461063690613396565b80156106835780601f1061065857610100808354040283529160200191610683565b820191906000526020600020905b81548152906001019060200180831161066657829003601f168201915b505050919092525050508152601082015460209091019060ff1660048111156106ae576106ae612fe4565b60048111156106bf576106bf612fe4565b81526020016011820154815250509050919050565b6000600260008381526002602052604090206010015460ff1660048111156106fe576106fe612fe4565b036107505760405162461bcd60e51b815260206004820152601960248201527f6e6f2077696e6e657220666f72206f70656e2074656e6465720000000000000060448201526064015b60405180910390fd5b60008281526002602052604090206004015442106107ba5760405162461bcd60e51b815260206004820152602160248201527f74656e646572206d75737420626520706173742072657665616c20706572696f6044820152601960fa1b6064820152608401610747565b506000908152600260205260409020600101546001600160a01b031690565b60606003805480602002602001604051908101604052809291908181526020016000905b82821015610c48576000848152602090206040805161026081019091526012840290910180546001600160a01b039081166060840190815260018301549091166080840152600282015460a0840152600382015460c0840152600482015460e0840152600582015461010084015260068201805484929184916101208501919061088690613396565b80601f01602080910402602001604051908101604052809291908181526020018280546108b290613396565b80156108ff5780601f106108d4576101008083540402835291602001916108ff565b820191906000526020600020905b8154815290600101906020018083116108e257829003601f168201915b5050505050815260200160078201805461091890613396565b80601f016020809104026020016040519081016040528092919081815260200182805461094490613396565b80156109915780601f1061096657610100808354040283529160200191610991565b820191906000526020600020905b81548152906001019060200180831161097457829003601f168201915b505050505081526020016008820180546109aa90613396565b80601f01602080910402602001604051908101604052809291908181526020018280546109d690613396565b8015610a235780601f106109f857610100808354040283529160200191610a23565b820191906000526020600020905b815481529060010190602001808311610a0657829003601f168201915b5050505050815260200160098201805480602002602001604051908101604052809291908181526020018280548015610a8557602002820191906000526020600020905b81546001600160a01b03168152600190910190602001808311610a67575b50505050508152602001600a8201548152602001600b8201548152602001600c8201805480602002602001604051908101604052809291908181526020018280548015610afb57602002820191906000526020600020905b81546001600160a01b03168152600190910190602001808311610add575b50505050508152602001600d8201805480602002602001604051908101604052809291908181526020018280548015610b5357602002820191906000526020600020905b815481526020019060010190808311610b3f575b50505050508152602001600e8201548152602001600f82018054610b7690613396565b80601f0160208091040260200160405190810160405280929190818152602001828054610ba290613396565b8015610bef5780601f10610bc457610100808354040283529160200191610bef565b820191906000526020600020905b815481529060010190602001808311610bd257829003601f168201915b505050919092525050508152601082015460209091019060ff166004811115610c1a57610c1a612fe4565b6004811115610c2b57610c2b612fe4565b8152602001601182015481525050815260200190600101906107fd565b50505050905090565b60005460405163bdf6c67360e01b81523360048201526001600160a01b039091169063bdf6c67390602401602060405180830381865afa158015610c99573d6000803e3d6000fd5b505050506040513d601f19601f82011682018060405250810190610cbd91906133d0565b610d095760405162461bcd60e51b815260206004820152601960248201527f53656e646572206d757374206265206120686f73706974616c000000000000006044820152606401610747565b600160008281526002602052604090206010015460ff166004811115610d3157610d31612fe4565b14610d775760405162461bcd60e51b815260206004820152601660248201527554656e646572206e6f7420696e2070726f677265737360501b6044820152606401610747565b6000818152600260205260409020600501544210610dcc5760405162461bcd60e51b815260206004820152601260248201527115195b99195c881a185cc8195e1c1a5c995960721b6044820152606401610747565b6000818152600260209081526040918290206009018054835181840281018401909452808452610e3b9392830182828015610e3057602002820191906000526020600020905b81546001600160a01b03168152600190910190602001808311610e12575b505050505033612bc0565b610e875760405162461bcd60e51b815260206004820152601f60248201527f73656e646572206e6f7420616e20616c6c6f77656420686f73706974616c73006044820152606401610747565b60008181526002602052604090206001810154600b820154600e909201546001600160a01b03909116916108fc91610ebf9190613408565b6040518115909202916000818181858888f19350505050158015610ee7573d6000803e3d6000fd5b506000818152600260205260408120600e810154600a90910154610f0b9190613420565b1115610f705760008181526002602052604090208054600e820154600a909201546001600160a01b03909116916108fc91610f469190613420565b6040518115909202916000818181858888f19350505050158015610f6e573d6000803e3d6000fd5b505b600081815260026020526040902060108101805460ff1916905580546001600160a01b03198082166001600160a01b03928316178355600183018054918216919092161790558080808060068101610fc88180613486565b50600781810190610fdb90840182613486565b50600881810190610fee90840182613486565b50600982810180546110039284019190612cd6565b50600a82015481600a0155600b82015481600b0155600c820181600c0190805461102e929190612cd6565b50600d82810180546110439284019190612cd6565b50600e82015481600e0155600f820181600f0190816110629190613486565b505050601082810154908201805460ff9092169160ff1916600183600481111561108e5761108e612fe4565b02179055506011918201549101555050565b600181815481106110b057600080fd5b600091825260209091200154905081565b600381815481106110d157600080fd5b60009182526020918290206040805161020081018252601290930290910180546001600160a01b039081168452600182015416938301939093526002830154908201526003820154606082015260048201546080820152600582015460a08201526006820180549293509091839160c084019161114d90613396565b80601f016020809104026020016040519081016040528092919081815260200182805461117990613396565b80156111c65780601f1061119b576101008083540402835291602001916111c6565b820191906000526020600020905b8154815290600101906020018083116111a957829003601f168201915b505050505081526020016007820180546111df90613396565b80601f016020809104026020016040519081016040528092919081815260200182805461120b90613396565b80156112585780601f1061122d57610100808354040283529160200191611258565b820191906000526020600020905b81548152906001019060200180831161123b57829003601f168201915b5050505050815260200160088201805461127190613396565b80601f016020809104026020016040519081016040528092919081815260200182805461129d90613396565b80156112ea5780601f106112bf576101008083540402835291602001916112ea565b820191906000526020600020905b8154815290600101906020018083116112cd57829003601f168201915b505050505081526020016009820180548060200260200160405190810160405280929190818152602001828054801561134c57602002820191906000526020600020905b81546001600160a01b0316815260019091019060200180831161132e575b50505050508152602001600a8201548152602001600b8201548152602001600c82018054806020026020016040519081016040528092919081815260200182805480156113c257602002820191906000526020600020905b81546001600160a01b031681526001909101906020018083116113a4575b50505050508152602001600d820180548060200260200160405190810160405280929190818152602001828054801561141a57602002820191906000526020600020905b815481526020019060010190808311611406575b50505050508152602001600e8201548152602001600f8201805461143d90613396565b80601f016020809104026020016040519081016040528092919081815260200182805461146990613396565b80156114b65780601f1061148b576101008083540402835291602001916114b6565b820191906000526020600020905b81548152906001019060200180831161149957829003601f168201915b505050919092525050506010820154601190920154909160ff169083565b6000805460405163e5b0c5a760e01b81523360048201526001600160a01b039091169063e5b0c5a790602401602060405180830381865afa15801561151d573d6000803e3d6000fd5b505050506040513d601f19601f8201168201806040525081019061154191906133d0565b61158d5760405162461bcd60e51b815260206004820152601f60248201527f73656e646572206d7573742062652074656e64657220696e69746961746f72006044820152606401610747565b600034116115dd5760405162461bcd60e51b815260206004820152601d60248201527f6d617876616c206d7573742062652067726561746572207468616e20300000006044820152606401610747565b60005b82518110156116e45760005483516001600160a01b039091169063bdf6c6739085908490811061161257611612613567565b60200260200101516040518263ffffffff1660e01b815260040161164591906001600160a01b0391909116815260200190565b602060405180830381865afa158015611662573d6000803e3d6000fd5b505050506040513d601f19601f8201168201806040525081019061168691906133d0565b6116d25760405162461bcd60e51b815260206004820152601b60248201527f676976656e20686f73706974616c206c69737420696e76616c696400000000006044820152606401610747565b806116dc8161357d565b9150506115e0565b506116ed612c25565b6004546040828101919091528151339052600260208301528151429101819052611718908b90613408565b81516060015261138861172b8b42613408565b6117359190613408565b815160800152886113886117498c42613408565b6117539190613408565b61175d9190613408565b815160a09081019190915281516000196101c09091015281513461014090910152815161016001869052815161012001849052815160c09081018a9052825160e00189905282516101000188905282516101e001869052600380546001810182556000919091528351805160129092027fc2575a0e9e593c00f959f8c92f12db2869c3395a3b0502d05e2516446f71f85b810180546001600160a01b039485166001600160a01b031991821617825560208401517fc2575a0e9e593c00f959f8c92f12db2869c3395a3b0502d05e2516446f71f85c840180549190961691161790935560408201517fc2575a0e9e593c00f959f8c92f12db2869c3395a3b0502d05e2516446f71f85d82015560608201517fc2575a0e9e593c00f959f8c92f12db2869c3395a3b0502d05e2516446f71f85e82015560808201517fc2575a0e9e593c00f959f8c92f12db2869c3395a3b0502d05e2516446f71f85f820155938101517fc2575a0e9e593c00f959f8c92f12db2869c3395a3b0502d05e2516446f71f86085015591820151849391929183917fc2575a0e9e593c00f959f8c92f12db2869c3395a3b0502d05e2516446f71f8619091019061191d9082613596565b5060e082015160078201906119329082613596565b5061010082015160088201906119489082613596565b506101208201518051611965916009840191602090910190612d26565b50610140820151600a820155610160820151600b820155610180820151805161199891600c840191602090910190612d26565b506101a082015180516119b591600d840191602090910190612d7b565b506101c0820151600e8201556101e0820151600f8201906119d69082613596565b505050602082015160108201805460ff191660018360048111156119fc576119fc612fe4565b02179055506040918201516011919091015560048054600090815260026020818152918490208551805182546001600160a01b03199081166001600160a01b039283161784559482015160018401805490961691161790935593820151908401556060810151600384015560808101519183019190915560a0810151600583015560c08101518392919082906006820190611a979082613596565b5060e08201516007820190611aac9082613596565b506101008201516008820190611ac29082613596565b506101208201518051611adf916009840191602090910190612d26565b50610140820151600a820155610160820151600b8201556101808201518051611b1291600c840191602090910190612d26565b506101a08201518051611b2f91600d840191602090910190612d7b565b506101c0820151600e8201556101e0820151600f820190611b509082613596565b505050602082015160108201805460ff19166001836004811115611b7657611b76612fe4565b02179055506040919091015160119091015560048054906000611b988361357d565b9091555050604001519998505050505050505050565b6000818152600260205260409020546001600160a01b03163314611c145760405162461bcd60e51b815260206004820152601f60248201527f73656e646572206973206e6f74207468652074656e64657220706f73746572006044820152606401610747565b600160008281526002602052604090206010015460ff166004811115611c3c57611c3c612fe4565b14611c895760405162461bcd60e51b815260206004820152601960248201527f74656e646572206973206e6f7420696e2070726f6772657373000000000000006044820152606401610747565b6000818152600260205260409020600101546001600160a01b0316611cff5760405162461bcd60e51b815260206004820152602660248201527f74656e646572206163636570746572206973206e6f74207468652061646472656044820152651cdcc81cd95d60d21b6064820152608401610747565b6000818152600260205260409020600501544210611d585760405162461bcd60e51b815260206004820152601660248201527530bab1ba34b7b7103832b934b7b21034b99037bb32b960511b6044820152606401610747565b60008181526002602052604090208054600b820154600a909201546001600160a01b03909116916108fc91611d8d9190613408565b6040518115909202916000818181858888f19350505050158015611db5573d6000803e3d6000fd5b50600081815260026020526040902060100180546004919060ff19166001835b021790555050565b60008281526002602081905260408083208151610260810190925280546001600160a01b0390811660608401908152600183015490911660808401529281015460a0830152600381015460c0830152600481015460e083015260058101546101008301526006810180548594849290918491610120850191611e5e90613396565b80601f0160208091040260200160405190810160405280929190818152602001828054611e8a90613396565b8015611ed75780601f10611eac57610100808354040283529160200191611ed7565b820191906000526020600020905b815481529060010190602001808311611eba57829003601f168201915b50505050508152602001600782018054611ef090613396565b80601f0160208091040260200160405190810160405280929190818152602001828054611f1c90613396565b8015611f695780601f10611f3e57610100808354040283529160200191611f69565b820191906000526020600020905b815481529060010190602001808311611f4c57829003601f168201915b50505050508152602001600882018054611f8290613396565b80601f0160208091040260200160405190810160405280929190818152602001828054611fae90613396565b8015611ffb5780601f10611fd057610100808354040283529160200191611ffb565b820191906000526020600020905b815481529060010190602001808311611fde57829003601f168201915b505050505081526020016009820180548060200260200160405190810160405280929190818152602001828054801561205d57602002820191906000526020600020905b81546001600160a01b0316815260019091019060200180831161203f575b50505050508152602001600a8201548152602001600b8201548152602001600c82018054806020026020016040519081016040528092919081815260200182805480156120d357602002820191906000526020600020905b81546001600160a01b031681526001909101906020018083116120b5575b50505050508152602001600d820180548060200260200160405190810160405280929190818152602001828054801561212b57602002820191906000526020600020905b815481526020019060010190808311612117575b50505050508152602001600e8201548152602001600f8201805461214e90613396565b80601f016020809104026020016040519081016040528092919081815260200182805461217a90613396565b80156121c75780601f1061219c576101008083540402835291602001916121c7565b820191906000526020600020905b8154815290600101906020018083116121aa57829003601f168201915b505050919092525050508152601082015460209091019060ff1660048111156121f2576121f2612fe4565b600481111561220357612203612fe4565b815260119190910154602090910152600054604051630172e26760e31b81523360048201529192506001600160a01b031690630b97133890602401602060405180830381865afa15801561225b573d6000803e3d6000fd5b505050506040513d601f19601f8201168201806040525081019061227f91906133d0565b6122cb5760405162461bcd60e51b815260206004820152601b60248201527f73656e646572206d75737420626520616e20616d62756c616e636500000000006044820152606401610747565b6002816020015160048111156122e3576122e3612fe4565b146123265760405162461bcd60e51b81526020600482015260136024820152723a32b73232b91036bab9ba1031329037b832b760691b6044820152606401610747565b805160a00151421061237a5760405162461bcd60e51b815260206004820152601960248201527f61756374696f6e20706572696f642068617320706173736564000000000000006044820152606401610747565b8051610160015134146123e15760405162461bcd60e51b815260206004820152602960248201527f73656e742070656e616c747920616d6f756e7420646f6573206e6f74206d617460448201526831b4103a32b73232b960b91b6064820152608401610747565b805161018001516123f29033612bc0565b156124335760405162461bcd60e51b815260206004820152601160248201527063616e206f6e6c7920626964206f6e636560781b6044820152606401610747565b60008481526002602090815260408220600c810180546001818101835582865284862090910180546001600160a01b03191633179055600d9092018054808401825590855292842090920186905591869052546124909190613420565b9150505b92915050565b60026020818152600092835260409283902083516102008101855281546001600160a01b0390811682526001830154169281019290925291820154928101929092526003810154606083015260048101546080830152600581015460a0830152600681018054919291839160c084019161114d90613396565b600061251f8284613408565b60405160200161253191815260200190565b60408051601f1981840301815291905280516020909101209392505050565b6000818152600260205260409020546001600160a01b031633146125b65760405162461bcd60e51b815260206004820152601f60248201527f73656e646572206973206e6f74207468652074656e64657220706f73746572006044820152606401610747565b600260008281526002602052604090206010015460ff1660048111156125de576125de612fe4565b146126205760405162461bcd60e51b81526020600482015260126024820152713a32b73232b91034b9903737ba1037b832b760711b6044820152606401610747565b6000818152600260205260408082208054600a9091015491516001600160a01b039091169282156108fc02929190818181858888f1935050505015801561266b573d6000803e3d6000fd5b50600081815260026020526040902060100180546003919060ff1916600183611dd5565b60008481526002602052604080822091549051630172e26760e31b81523360048201526001600160a01b0390911690630b97133890602401602060405180830381865afa1580156126e4573d6000803e3d6000fd5b505050506040513d601f19601f8201168201806040525081019061270891906133d0565b6127545760405162461bcd60e51b815260206004820152601860248201527f73656e646572206d75737420626520616d62756c616e636500000000000000006044820152606401610747565b600481015442106127a75760405162461bcd60e51b815260206004820152601c60248201527f74656e64657220697320706173742072657665616c20706572696f64000000006044820152606401610747565b6002601082015460ff1660048111156127c2576127c2612fe4565b146128045760405162461bcd60e51b81526020600482015260126024820152713a32b73232b91034b9903737ba1037b832b760711b6044820152606401610747565b600e81015484106128505760405162461bcd60e51b8152602060048201526016602482015275189a59081dd85cc81b9bdd081d1a19481b1bddd95cdd60521b6044820152606401610747565b600a810154841061289c5760405162461bcd60e51b8152602060048201526016602482015275189a59081dd85cc81b9bdd081d1a19481b1bddd95cdd60521b6044820152606401610747565b600c81018054839081106128b2576128b2613567565b6000918252602090912001546001600160a01b031633146129045760405162461bcd60e51b815260206004820152600c60248201526b1ddc9bdb99c8189a5908125160a21b6044820152606401610747565b600b81015434146129635760405162461bcd60e51b815260206004820152602360248201527f646964206e6f742073656e6420636f72726563742070656e616c747920616d6f6044820152621d5b9d60ea1b6064820152608401610747565b61296d8484612513565b600d820180548490811061298357612983613567565b9060005260206000200154146129e95760405162461bcd60e51b815260206004820152602560248201527f6269642076616c756520646f6573206e6f74206d61746368206861736865642060448201526476616c756560d81b6064820152608401610747565b60018101546001600160a01b031615612a3e576001810154600b8201546040516001600160a01b039092169181156108fc0291906000818181858888f19350505050158015612a3c573d6000803e3d6000fd5b505b601081018054600160ff19909116811790915580820180546001600160a01b031990811633178255600e840187905560008881526002602081905260409091208554815484166001600160a01b039182161782559354948101805490931694909316939093179055818301549181019190915560038083015490820155600480830154908201556005808301549082015581908181600680820190612ae590840182613486565b50600781810190612af890840182613486565b50600881810190612b0b90840182613486565b5060098281018054612b209284019190612cd6565b50600a82015481600a0155600b82015481600b0155600c820181600c01908054612b4b929190612cd6565b50600d8281018054612b609284019190612cd6565b50600e82015481600e0155600f820181600f019081612b7f9190613486565b505050601082810154908201805460ff9092169160ff19166001836004811115612bab57612bab612fe4565b02179055506011918201549101555050505050565b6000805b8351811015612c1b57826001600160a01b0316848281518110612be957612be9613567565b60200260200101516001600160a01b031603612c09576001915050612494565b80612c138161357d565b915050612bc4565b5060009392505050565b6040518060600160405280612cc260405180610200016040528060006001600160a01b0316815260200160006001600160a01b0316815260200160008152602001600081526020016000815260200160008152602001606081526020016060815260200160608152602001606081526020016000815260200160008152602001606081526020016060815260200160008152602001606081525090565b815260200160008152602001600081525090565b828054828255906000526020600020908101928215612d165760005260206000209182015b82811115612d16578254825591600101919060010190612cfb565b50612d22929150612db6565b5090565b828054828255906000526020600020908101928215612d16579160200282015b82811115612d1657825182546001600160a01b0319166001600160a01b03909116178255602090920191600190910190612d46565b828054828255906000526020600020908101928215612d16579160200282015b82811115612d16578251825591602001919060010190612d9b565b5b80821115612d225760008155600101612db7565b600060208284031215612ddd57600080fd5b5035919050565b6000815180845260005b81811015612e0a57602081850181015186830182015201612dee565b81811115612e1c576000602083870101525b50601f01601f19169290920160200192915050565b600081518084526020808501945080840160005b83811015612e6a5781516001600160a01b031687529582019590820190600101612e45565b509495945050505050565b600081518084526020808501945080840160005b83811015612e6a57815187529582019590820190600101612e89565b80516001600160a01b0316825260006102006020830151612ed160208601826001600160a01b03169052565b5060408301516040850152606083015160608501526080830151608085015260a083015160a085015260c08301518160c0860152612f1182860182612de4565b91505060e083015184820360e0860152612f2b8282612de4565b9150506101008084015185830382870152612f468382612de4565b925050506101208084015185830382870152612f628382612e31565b925050506101408084015181860152506101608084015181860152506101808084015185830382870152612f968382612e31565b925050506101a08084015185830382870152612fb28382612e75565b925050506101c08084015181860152506101e08084015185830382870152612fda8382612de4565b9695505050505050565b634e487b7160e01b600052602160045260246000fd5b6005811061301857634e487b7160e01b600052602160045260246000fd5b9052565b60008151606084526130316060850182612ea5565b905060208301516130456020860182612ffa565b50604083015160408501528091505092915050565b60208152600061306d602083018461301c565b9392505050565b6000602080830181845280855180835260408601915060408160051b870101925083870160005b828110156130c957603f198886030184526130b785835161301c565b9450928501929085019060010161309b565b5092979650505050505050565b6060815260006130e96060830186612ea5565b90506130f86020830185612ffa565b826040830152949350505050565b634e487b7160e01b600052604160045260246000fd5b604051601f8201601f1916810167ffffffffffffffff8111828210171561314557613145613106565b604052919050565b600082601f83011261315e57600080fd5b813567ffffffffffffffff81111561317857613178613106565b61318b601f8201601f191660200161311c565b8181528460208386010111156131a057600080fd5b816020850160208301376000918101602001919091529392505050565b600082601f8301126131ce57600080fd5b8135602067ffffffffffffffff8211156131ea576131ea613106565b8160051b6131f982820161311c565b928352848101820192828101908785111561321357600080fd5b83870192505b848310156132485782356001600160a01b03811681146132395760008081fd5b82529183019190830190613219565b979650505050505050565b600080600080600080600080610100898b03121561327057600080fd5b8835975060208901359650604089013567ffffffffffffffff8082111561329657600080fd5b6132a28c838d0161314d565b975060608b01359150808211156132b857600080fd5b6132c48c838d0161314d565b965060808b01359150808211156132da57600080fd5b6132e68c838d0161314d565b955060a08b0135945060c08b013591508082111561330357600080fd5b61330f8c838d0161314d565b935060e08b013591508082111561332557600080fd5b506133328b828c016131bd565b9150509295985092959890939650565b6000806040838503121561335557600080fd5b50508035926020909101359150565b6000806000806080858703121561337a57600080fd5b5050823594602084013594506040840135936060013592509050565b600181811c908216806133aa57607f821691505b6020821081036133ca57634e487b7160e01b600052602260045260246000fd5b50919050565b6000602082840312156133e257600080fd5b8151801515811461306d57600080fd5b634e487b7160e01b600052601160045260246000fd5b6000821982111561341b5761341b6133f2565b500190565b600082821015613432576134326133f2565b500390565b601f82111561348157600081815260208120601f850160051c8101602086101561345e5750805b601f850160051c820191505b8181101561347d5782815560010161346a565b5050505b505050565b818103613491575050565b61349b8254613396565b67ffffffffffffffff8111156134b3576134b3613106565b6134c7816134c18454613396565b84613437565b6000601f8211600181146134fb57600083156134e35750848201545b600019600385901b1c1916600184901b178455613560565b600085815260209020601f19841690600086815260209020845b838110156135355782860154825560019586019590910190602001613515565b50858310156135535781850154600019600388901b60f8161c191681555b50505060018360011b0184555b5050505050565b634e487b7160e01b600052603260045260246000fd5b60006001820161358f5761358f6133f2565b5060010190565b815167ffffffffffffffff8111156135b0576135b0613106565b6135be816134c18454613396565b602080601f8311600181146135f357600084156135db5750858301515b600019600386901b1c1916600185901b17855561347d565b600085815260208120601f198616915b8281101561362257888601518255948401946001909101908401613603565b50858210156136405787850151600019600388901b60f8161c191681555b5050505050600190811b0190555056fea264697066735822122015d523d99f74293fa13d427c38f05d1ffa9a52a78c0ee5c5181d84335296c6f264736f6c634300080f0033",
    "linkReferences": {}
  },
  "methodIdentifiers": {
    "getAllTenders()": "2358c046",
    "getAuctionWinner(uint256)": "083d353b",
    "getTender(uint256)": "0585c25e",
    "hashVal(uint256,uint256)": "dea6e0fe",
    "postTender(uint256,uint256,string,string,string,uint256,string,address[])": "4f2c3716",
    "reclaimTender(uint256)": "55079c3f",
    "retractTender(uint256)": "e05917e9",
    "revealBid(uint256,uint256,uint256,uint256)": "e16a2df7",
    "secretBid(uint256,uint256)": "6a31879b",
    "tenderIds(uint256)": "39c776b6",
    "tenderMapping(uint256)": "a1983613",
    "tenders(uint256)": "465e1def",
    "verifyDelivery(uint256)": "23675c47"
  },
  "id": 6
}