{
  "contractName": "Accounts",
  "abi": [
    {
      "inputs": [],
      "stateMutability": "nonpayable",
      "type": "constructor"
    },
    {
      "inputs": [],
      "name": "superAdmin",
      "outputs": [
        {
          "internalType": "address",
          "name": "",
          "type": "address"
        }
      ],
      "stateMutability": "view",
      "type": "function",
      "constant": true
    },
    {
      "inputs": [
        {
          "internalType": "address",
          "name": "addr",
          "type": "address"
        }
      ],
      "name": "isAmbulance",
      "outputs": [
        {
          "internalType": "bool",
          "name": "",
          "type": "bool"
        }
      ],
      "stateMutability": "view",
      "type": "function",
      "constant": true
    },
    {
      "inputs": [
        {
          "internalType": "address",
          "name": "addr",
          "type": "address"
        }
      ],
      "name": "addAmbulance",
      "outputs": [],
      "stateMutability": "nonpayable",
      "type": "function"
    },
    {
      "inputs": [
        {
          "internalType": "address",
          "name": "addr",
          "type": "address"
        }
      ],
      "name": "removeAmbulance",
      "outputs": [],
      "stateMutability": "nonpayable",
      "type": "function"
    },
    {
      "inputs": [
        {
          "internalType": "address",
          "name": "addr",
          "type": "address"
        }
      ],
      "name": "isInitiator",
      "outputs": [
        {
          "internalType": "bool",
          "name": "",
          "type": "bool"
        }
      ],
      "stateMutability": "view",
      "type": "function",
      "constant": true
    },
    {
      "inputs": [
        {
          "internalType": "address",
          "name": "addr",
          "type": "address"
        }
      ],
      "name": "addInitiator",
      "outputs": [],
      "stateMutability": "nonpayable",
      "type": "function"
    },
    {
      "inputs": [
        {
          "internalType": "address",
          "name": "addr",
          "type": "address"
        }
      ],
      "name": "removeInitiator",
      "outputs": [],
      "stateMutability": "nonpayable",
      "type": "function"
    },
    {
      "inputs": [
        {
          "internalType": "address",
          "name": "addr",
          "type": "address"
        }
      ],
      "name": "isHospital",
      "outputs": [
        {
          "internalType": "bool",
          "name": "",
          "type": "bool"
        }
      ],
      "stateMutability": "view",
      "type": "function",
      "constant": true
    },
    {
      "inputs": [
        {
          "internalType": "address",
          "name": "addr",
          "type": "address"
        }
      ],
      "name": "addHospital",
      "outputs": [],
      "stateMutability": "nonpayable",
      "type": "function"
    },
    {
      "inputs": [
        {
          "internalType": "address",
          "name": "addr",
          "type": "address"
        }
      ],
      "name": "removeHospital",
      "outputs": [],
      "stateMutability": "nonpayable",
      "type": "function"
    },
    {
      "inputs": [
        {
          "internalType": "address",
          "name": "addr",
          "type": "address"
        }
      ],
      "name": "isAdmin",
      "outputs": [
        {
          "internalType": "bool",
          "name": "",
          "type": "bool"
        }
      ],
      "stateMutability": "view",
      "type": "function",
      "constant": true
    },
    {
      "inputs": [
        {
          "internalType": "address",
          "name": "addr",
          "type": "address"
        }
      ],
      "name": "addAdmin",
      "outputs": [],
      "stateMutability": "nonpayable",
      "type": "function"
    },
    {
      "inputs": [
        {
          "internalType": "address",
          "name": "addr",
          "type": "address"
        }
      ],
      "name": "removeAdmin",
      "outputs": [],
      "stateMutability": "nonpayable",
      "type": "function"
    }
  ],
  "bytecode": "0x608060405234801561000f575f80fd5b50335f806101000a81548173ffffffffffffffffffffffffffffffffffffffff021916908373ffffffffffffffffffffffffffffffffffffffff1602179055506001805f805f9054906101000a900473ffffffffffffffffffffffffffffffffffffffff1673ffffffffffffffffffffffffffffffffffffffff1673ffffffffffffffffffffffffffffffffffffffff1681526020019081526020015f205f6101000a81548160ff021916908315150217905550600160025f805f9054906101000a900473ffffffffffffffffffffffffffffffffffffffff1673ffffffffffffffffffffffffffffffffffffffff1673ffffffffffffffffffffffffffffffffffffffff1681526020019081526020015f205f6101000a81548160ff021916908315150217905550600160035f805f9054906101000a900473ffffffffffffffffffffffffffffffffffffffff1673ffffffffffffffffffffffffffffffffffffffff1673ffffffffffffffffffffffffffffffffffffffff1681526020019081526020015f205f6101000a81548160ff021916908315150217905550600160045f805f9054906101000a900473ffffffffffffffffffffffffffffffffffffffff1673ffffffffffffffffffffffffffffffffffffffff1673ffffffffffffffffffffffffffffffffffffffff1681526020019081526020015f205f6101000a81548160ff0219169083151502179055505f73cdf98e3f41a0160360884f67bf8fff35d92d4e2f90505f7337b17d21569c2ca6c7a078f2283d06bc222f554c90505f739f8d25e9e3261d328e1bef34cdbadb9310e451fc90505f73ee8fb1e70b2cd462cc0ee0abb12b36db6d0932b290505f73c53762a6d1e4557ab363ee38042828fcfbf064be90505f73b153ede174edc76ea00d706ce678b3af2837988790506001805f8573ffffffffffffffffffffffffffffffffffffffff1673ffffffffffffffffffffffffffffffffffffffff1681526020019081526020015f205f6101000a81548160ff021916908315150217905550600160045f8773ffffffffffffffffffffffffffffffffffffffff1673ffffffffffffffffffffffffffffffffffffffff1681526020019081526020015f205f6101000a81548160ff021916908315150217905550600160045f8373ffffffffffffffffffffffffffffffffffffffff1673ffffffffffffffffffffffffffffffffffffffff1681526020019081526020015f205f6101000a81548160ff021916908315150217905550600160025f8873ffffffffffffffffffffffffffffffffffffffff1673ffffffffffffffffffffffffffffffffffffffff1681526020019081526020015f205f6101000a81548160ff021916908315150217905550600160025f8473ffffffffffffffffffffffffffffffffffffffff1673ffffffffffffffffffffffffffffffffffffffff1681526020019081526020015f205f6101000a81548160ff021916908315150217905550600160025f8373ffffffffffffffffffffffffffffffffffffffff1673ffffffffffffffffffffffffffffffffffffffff1681526020019081526020015f205f6101000a81548160ff021916908315150217905550600160035f8673ffffffffffffffffffffffffffffffffffffffff1673ffffffffffffffffffffffffffffffffffffffff1681526020019081526020015f205f6101000a81548160ff021916908315150217905550505050505050611f84806105175f395ff3fe608060405234801561000f575f80fd5b50600436106100cd575f3560e01c8063704802751161008a578063bdf6c67311610064578063bdf6c673146101f7578063c2b2960714610227578063e5b0c5a714610243578063e826663514610273576100cd565b806370480275146101a3578063a9698906146101bf578063b4210257146101db576100cd565b80630b971338146100d15780631785f53c146101015780631b470bc71461011d57806324d7806c1461013957806329575f6a146101695780632a84b3e414610187575b5f80fd5b6100eb60048036038101906100e69190611698565b61028f565b6040516100f891906116dd565b60405180910390f35b61011b60048036038101906101169190611698565b6102e1565b005b61013760048036038101906101329190611698565b6104c3565b005b610153600480360381019061014e9190611698565b610758565b60405161016091906116dd565b60405180910390f35b6101716107aa565b60405161017e9190611705565b60405180910390f35b6101a1600480360381019061019c9190611698565b6107cd565b005b6101bd60048036038101906101b89190611698565b610af1565b005b6101d960048036038101906101d49190611698565b610e9e565b005b6101f560048036038101906101f09190611698565b611014565b005b610211600480360381019061020c9190611698565b6112a9565b60405161021e91906116dd565b60405180910390f35b610241600480360381019061023c9190611698565b6112fb565b005b61025d60048036038101906102589190611698565b611472565b60405161026a91906116dd565b60405180910390f35b61028d60048036038101906102889190611698565b6114c4565b005b5f60035f8373ffffffffffffffffffffffffffffffffffffffff1673ffffffffffffffffffffffffffffffffffffffff1681526020019081526020015f205f9054906101000a900460ff169050919050565b5f8054906101000a900473ffffffffffffffffffffffffffffffffffffffff1673ffffffffffffffffffffffffffffffffffffffff163373ffffffffffffffffffffffffffffffffffffffff161461036e576040517f08c379a000000000000000000000000000000000000000000000000000000000815260040161036590611778565b60405180910390fd5b6001151560015f8373ffffffffffffffffffffffffffffffffffffffff1673ffffffffffffffffffffffffffffffffffffffff1681526020019081526020015f205f9054906101000a900460ff161515146103fe576040517f08c379a00000000000000000000000000000000000000000000000000000000081526004016103f5906117e0565b60405180910390fd5b3373ffffffffffffffffffffffffffffffffffffffff168173ffffffffffffffffffffffffffffffffffffffff160361046c576040517f08c379a000000000000000000000000000000000000000000000000000000000815260040161046390611848565b60405180910390fd5b5f60015f8373ffffffffffffffffffffffffffffffffffffffff1673ffffffffffffffffffffffffffffffffffffffff1681526020019081526020015f205f6101000a81548160ff02191690831515021790555050565b5f151560045f8373ffffffffffffffffffffffffffffffffffffffff1673ffffffffffffffffffffffffffffffffffffffff1681526020019081526020015f205f9054906101000a900460ff16151514610552576040517f08c379a0000000000000000000000000000000000000000000000000000000008152600401610549906118b0565b60405180910390fd5b5f151560035f8373ffffffffffffffffffffffffffffffffffffffff1673ffffffffffffffffffffffffffffffffffffffff1681526020019081526020015f205f9054906101000a900460ff161515146105e1576040517f08c379a00000000000000000000000000000000000000000000000000000000081526004016105d890611918565b60405180910390fd5b5f151560015f8373ffffffffffffffffffffffffffffffffffffffff1673ffffffffffffffffffffffffffffffffffffffff1681526020019081526020015f205f9054906101000a900460ff16151514610670576040517f08c379a000000000000000000000000000000000000000000000000000000000815260040161066790611980565b60405180910390fd5b6001151560015f3373ffffffffffffffffffffffffffffffffffffffff1673ffffffffffffffffffffffffffffffffffffffff1681526020019081526020015f205f9054906101000a900460ff16151514610700576040517f08c379a00000000000000000000000000000000000000000000000000000000081526004016106f7906119e8565b60405180910390fd5b600160045f8373ffffffffffffffffffffffffffffffffffffffff1673ffffffffffffffffffffffffffffffffffffffff1681526020019081526020015f205f6101000a81548160ff02191690831515021790555050565b5f60015f8373ffffffffffffffffffffffffffffffffffffffff1673ffffffffffffffffffffffffffffffffffffffff1681526020019081526020015f205f9054906101000a900460ff169050919050565b5f8054906101000a900473ffffffffffffffffffffffffffffffffffffffff1681565b5f151560045f8373ffffffffffffffffffffffffffffffffffffffff1673ffffffffffffffffffffffffffffffffffffffff1681526020019081526020015f205f9054906101000a900460ff1615151461085c576040517f08c379a0000000000000000000000000000000000000000000000000000000008152600401610853906118b0565b60405180910390fd5b5f151560035f8373ffffffffffffffffffffffffffffffffffffffff1673ffffffffffffffffffffffffffffffffffffffff1681526020019081526020015f205f9054906101000a900460ff161515146108eb576040517f08c379a00000000000000000000000000000000000000000000000000000000081526004016108e290611a50565b60405180910390fd5b5f151560025f8373ffffffffffffffffffffffffffffffffffffffff1673ffffffffffffffffffffffffffffffffffffffff1681526020019081526020015f205f9054906101000a900460ff1615151461097a576040517f08c379a000000000000000000000000000000000000000000000000000000000815260040161097190611ab8565b60405180910390fd5b5f151560015f8373ffffffffffffffffffffffffffffffffffffffff1673ffffffffffffffffffffffffffffffffffffffff1681526020019081526020015f205f9054906101000a900460ff16151514610a09576040517f08c379a0000000000000000000000000000000000000000000000000000000008152600401610a0090611980565b60405180910390fd5b6001151560015f3373ffffffffffffffffffffffffffffffffffffffff1673ffffffffffffffffffffffffffffffffffffffff1681526020019081526020015f205f9054906101000a900460ff16151514610a99576040517f08c379a0000000000000000000000000000000000000000000000000000000008152600401610a90906119e8565b60405180910390fd5b600160035f8373ffffffffffffffffffffffffffffffffffffffff1673ffffffffffffffffffffffffffffffffffffffff1681526020019081526020015f205f6101000a81548160ff02191690831515021790555050565b5f151560035f8373ffffffffffffffffffffffffffffffffffffffff1673ffffffffffffffffffffffffffffffffffffffff1681526020019081526020015f205f9054906101000a900460ff16151514610b80576040517f08c379a0000000000000000000000000000000000000000000000000000000008152600401610b7790611918565b60405180910390fd5b5f151560045f8373ffffffffffffffffffffffffffffffffffffffff1673ffffffffffffffffffffffffffffffffffffffff1681526020019081526020015f205f9054906101000a900460ff16151514610c0f576040517f08c379a0000000000000000000000000000000000000000000000000000000008152600401610c06906118b0565b60405180910390fd5b5f151560025f8373ffffffffffffffffffffffffffffffffffffffff1673ffffffffffffffffffffffffffffffffffffffff1681526020019081526020015f205f9054906101000a900460ff16151514610c9e576040517f08c379a0000000000000000000000000000000000000000000000000000000008152600401610c9590611ab8565b60405180910390fd5b5f151560015f8373ffffffffffffffffffffffffffffffffffffffff1673ffffffffffffffffffffffffffffffffffffffff1681526020019081526020015f205f9054906101000a900460ff16151514610d2d576040517f08c379a0000000000000000000000000000000000000000000000000000000008152600401610d2490611b20565b60405180910390fd5b5f8054906101000a900473ffffffffffffffffffffffffffffffffffffffff1673ffffffffffffffffffffffffffffffffffffffff168173ffffffffffffffffffffffffffffffffffffffff1603610dba576040517f08c379a0000000000000000000000000000000000000000000000000000000008152600401610db190611b88565b60405180910390fd5b5f8054906101000a900473ffffffffffffffffffffffffffffffffffffffff1673ffffffffffffffffffffffffffffffffffffffff163373ffffffffffffffffffffffffffffffffffffffff1614610e47576040517f08c379a0000000000000000000000000000000000000000000000000000000008152600401610e3e90611bf0565b60405180910390fd5b6001805f8373ffffffffffffffffffffffffffffffffffffffff1673ffffffffffffffffffffffffffffffffffffffff1681526020019081526020015f205f6101000a81548160ff02191690831515021790555050565b6001151560015f3373ffffffffffffffffffffffffffffffffffffffff1673ffffffffffffffffffffffffffffffffffffffff1681526020019081526020015f205f9054906101000a900460ff16151514610f2e576040517f08c379a0000000000000000000000000000000000000000000000000000000008152600401610f2590611c58565b60405180910390fd5b5f151560045f8373ffffffffffffffffffffffffffffffffffffffff1673ffffffffffffffffffffffffffffffffffffffff1681526020019081526020015f205f9054906101000a900460ff16151503610fbd576040517f08c379a0000000000000000000000000000000000000000000000000000000008152600401610fb490611cc0565b60405180910390fd5b5f60045f8373ffffffffffffffffffffffffffffffffffffffff1673ffffffffffffffffffffffffffffffffffffffff1681526020019081526020015f205f6101000a81548160ff02191690831515021790555050565b5f151560035f8373ffffffffffffffffffffffffffffffffffffffff1673ffffffffffffffffffffffffffffffffffffffff1681526020019081526020015f205f9054906101000a900460ff161515146110a3576040517f08c379a000000000000000000000000000000000000000000000000000000000815260040161109a90611d28565b60405180910390fd5b5f151560025f8373ffffffffffffffffffffffffffffffffffffffff1673ffffffffffffffffffffffffffffffffffffffff1681526020019081526020015f205f9054906101000a900460ff16151514611132576040517f08c379a000000000000000000000000000000000000000000000000000000000815260040161112990611d90565b60405180910390fd5b5f151560015f8373ffffffffffffffffffffffffffffffffffffffff1673ffffffffffffffffffffffffffffffffffffffff1681526020019081526020015f205f9054906101000a900460ff161515146111c1576040517f08c379a00000000000000000000000000000000000000000000000000000000081526004016111b890611df8565b60405180910390fd5b6001151560015f3373ffffffffffffffffffffffffffffffffffffffff1673ffffffffffffffffffffffffffffffffffffffff1681526020019081526020015f205f9054906101000a900460ff16151514611251576040517f08c379a000000000000000000000000000000000000000000000000000000000815260040161124890611c58565b60405180910390fd5b600160025f8373ffffffffffffffffffffffffffffffffffffffff1673ffffffffffffffffffffffffffffffffffffffff1681526020019081526020015f205f6101000a81548160ff02191690831515021790555050565b5f60045f8373ffffffffffffffffffffffffffffffffffffffff1673ffffffffffffffffffffffffffffffffffffffff1681526020019081526020015f205f9054906101000a900460ff169050919050565b6001151560015f3373ffffffffffffffffffffffffffffffffffffffff1673ffffffffffffffffffffffffffffffffffffffff1681526020019081526020015f205f9054906101000a900460ff1615151461138b576040517f08c379a000000000000000000000000000000000000000000000000000000000815260040161138290611e60565b60405180910390fd5b6001151560035f8373ffffffffffffffffffffffffffffffffffffffff1673ffffffffffffffffffffffffffffffffffffffff1681526020019081526020015f205f9054906101000a900460ff1615151461141b576040517f08c379a000000000000000000000000000000000000000000000000000000000815260040161141290611ec8565b60405180910390fd5b5f60035f8373ffffffffffffffffffffffffffffffffffffffff1673ffffffffffffffffffffffffffffffffffffffff1681526020019081526020015f205f6101000a81548160ff02191690831515021790555050565b5f60025f8373ffffffffffffffffffffffffffffffffffffffff1673ffffffffffffffffffffffffffffffffffffffff1681526020019081526020015f205f9054906101000a900460ff169050919050565b6001151560015f3373ffffffffffffffffffffffffffffffffffffffff1673ffffffffffffffffffffffffffffffffffffffff1681526020019081526020015f205f9054906101000a900460ff16151514611554576040517f08c379a000000000000000000000000000000000000000000000000000000000815260040161154b90611c58565b60405180910390fd5b5f151560025f8373ffffffffffffffffffffffffffffffffffffffff1673ffffffffffffffffffffffffffffffffffffffff1681526020019081526020015f205f9054906101000a900460ff161515036115e3576040517f08c379a00000000000000000000000000000000000000000000000000000000081526004016115da90611f30565b60405180910390fd5b5f60025f8373ffffffffffffffffffffffffffffffffffffffff1673ffffffffffffffffffffffffffffffffffffffff1681526020019081526020015f205f6101000a81548160ff02191690831515021790555050565b5f80fd5b5f73ffffffffffffffffffffffffffffffffffffffff82169050919050565b5f6116678261163e565b9050919050565b6116778161165d565b8114611681575f80fd5b50565b5f813590506116928161166e565b92915050565b5f602082840312156116ad576116ac61163a565b5b5f6116ba84828501611684565b91505092915050565b5f8115159050919050565b6116d7816116c3565b82525050565b5f6020820190506116f05f8301846116ce565b92915050565b6116ff8161165d565b82525050565b5f6020820190506117185f8301846116f6565b92915050565b5f82825260208201905092915050565b7f53656e646572206d757374206265206120737570657241646d696e00000000005f82015250565b5f611762601b8361171e565b915061176d8261172e565b602082019050919050565b5f6020820190508181035f83015261178f81611756565b9050919050565b7f4e6f7420616e2061646d696e00000000000000000000000000000000000000005f82015250565b5f6117ca600c8361171e565b91506117d582611796565b602082019050919050565b5f6020820190508181035f8301526117f7816117be565b9050919050565b7f43616e6e6f742072656d6f766520796f757273656c662061732061646d696e005f82015250565b5f611832601f8361171e565b915061183d826117fe565b602082019050919050565b5f6020820190508181035f83015261185f81611826565b9050919050565b7f416c726561647920666163696c697479000000000000000000000000000000005f82015250565b5f61189a60108361171e565b91506118a582611866565b602082019050919050565b5f6020820190508181035f8301526118c78161188e565b9050919050565b7f416c7265616479207472616e73706f72740000000000000000000000000000005f82015250565b5f61190260118361171e565b915061190d826118ce565b602082019050919050565b5f6020820190508181035f83015261192f816118f6565b9050919050565b7f416c72656164792061646d696e000000000000000000000000000000000000005f82015250565b5f61196a600d8361171e565b915061197582611936565b602082019050919050565b5f6020820190508181035f8301526119978161195e565b9050919050565b7f53656e646572206d7573742062652061646d696e0000000000000000000000005f82015250565b5f6119d260148361171e565b91506119dd8261199e565b602082019050919050565b5f6020820190508181035f8301526119ff816119c6565b9050919050565b7f416c72656164792061207472616e73706f7274000000000000000000000000005f82015250565b5f611a3a60138361171e565b9150611a4582611a06565b602082019050919050565b5f6020820190508181035f830152611a6781611a2e565b9050919050565b7f416c726561647920696e69746961746f720000000000000000000000000000005f82015250565b5f611aa260118361171e565b9150611aad82611a6e565b602082019050919050565b5f6020820190508181035f830152611acf81611a96565b9050919050565b7f416c726561647920616e2061646d696e000000000000000000000000000000005f82015250565b5f611b0a60108361171e565b9150611b1582611ad6565b602082019050919050565b5f6020820190508181035f830152611b3781611afe565b9050919050565b7f737570657241646d696e20697320616c726561647920616e2061646d696e00005f82015250565b5f611b72601e8361171e565b9150611b7d82611b3e565b602082019050919050565b5f6020820190508181035f830152611b9f81611b66565b9050919050565b7f53656e646572206d75737420626520737570657241646d696e000000000000005f82015250565b5f611bda60198361171e565b9150611be582611ba6565b602082019050919050565b5f6020820190508181035f830152611c0781611bce565b9050919050565b7f53656e646572206d75737420626520616e2061646d696e0000000000000000005f82015250565b5f611c4260178361171e565b9150611c4d82611c0e565b602082019050919050565b5f6020820190508181035f830152611c6f81611c36565b9050919050565b7f4e6f7420616c7265616479206120666163696c697479000000000000000000005f82015250565b5f611caa60168361171e565b9150611cb582611c76565b602082019050919050565b5f6020820190508181035f830152611cd781611c9e565b9050919050565b7f5573657220616c7265616479207472616e73706f7274000000000000000000005f82015250565b5f611d1260168361171e565b9150611d1d82611cde565b602082019050919050565b5f6020820190508181035f830152611d3f81611d06565b9050919050565b7f5573657220616c726561647920696e69746961746f72000000000000000000005f82015250565b5f611d7a60168361171e565b9150611d8582611d46565b602082019050919050565b5f6020820190508181035f830152611da781611d6e565b9050919050565b7f5573657220616c72656164792061646d696e00000000000000000000000000005f82015250565b5f611de260128361171e565b9150611ded82611dae565b602082019050919050565b5f6020820190508181035f830152611e0f81611dd6565b9050919050565b7f4d7573742062652061646d696e000000000000000000000000000000000000005f82015250565b5f611e4a600d8361171e565b9150611e5582611e16565b602082019050919050565b5f6020820190508181035f830152611e7781611e3e565b9050919050565b7f4d7573742062652061207472616e73706f7274000000000000000000000000005f82015250565b5f611eb260138361171e565b9150611ebd82611e7e565b602082019050919050565b5f6020820190508181035f830152611edf81611ea6565b9050919050565b7f4d75737420626520696e697461746f72000000000000000000000000000000005f82015250565b5f611f1a60108361171e565b9150611f2582611ee6565b602082019050919050565b5f6020820190508181035f830152611f4781611f0e565b905091905056fea26469706673582212207a34765466e43c01797aa7a3babe739c57bead496e23b1fdf0a0962952fef95d64736f6c63430008150033",
  "immutableReferences": {},
  "source": "// SPDX-License-Identifier: UNLICENSED \r\npragma solidity ^0.8.0;\r\n\r\ncontract Accounts {\r\n    // super admin who has access to all features\r\n    address public superAdmin;\r\n\r\n    // four user accounts\r\n    mapping(address=> bool) private admins;\r\n    mapping(address => bool) private initiators;\r\n    mapping(address => bool) private ambulances;\r\n    mapping(address => bool) private hospitals;\r\n\r\n    // set the superAdmin and initalize a few accounts\r\n    constructor() {\r\n        // add superAdmin to all account types (for demo purposes only)\r\n        superAdmin = msg.sender;\r\n        admins[superAdmin] = true;\r\n        initiators[superAdmin] = true;\r\n        ambulances[superAdmin] = true;\r\n        hospitals[superAdmin] = true;\r\n\r\n        // setup default accounts\r\n        address emergencyInitiator = 0xcdF98E3f41A0160360884f67BF8FfF35D92d4E2f;\r\n        address hospital = 0x37b17D21569C2cA6c7A078f2283D06BC222F554C;\r\n        address ambulance = 0x9f8d25e9e3261d328e1Bef34CdbadB9310E451Fc;\r\n        address admin = 0xEE8fb1E70B2Cd462cC0eE0ABb12B36db6D0932B2;\r\n        address privateInitiator = 0xC53762A6D1E4557Ab363eE38042828fcfBF064bE;\r\n        address interfacility = 0xb153eDE174EDC76EA00D706ce678b3aF28379887;\r\n\r\n        // allocate accounts\r\n        admins[admin] = true;\r\n        hospitals[hospital] = true;\r\n        hospitals[interfacility] = true;\r\n        initiators[emergencyInitiator] = true;\r\n        initiators[privateInitiator] = true;\r\n        initiators[interfacility] = true;\r\n        ambulances[ambulance] = true;\r\n        \r\n\r\n    }\r\n\r\n     // returns true if address is an ambulance, false if not\r\n    function isAmbulance(address addr) public view returns (bool) {\r\n        return ambulances[addr];\r\n    }\r\n\r\n     // Allows the admin to add verified ambulances\r\n    function addAmbulance(address addr) public {\r\n        // verify account does not already have another role\r\n        require(hospitals[addr] == false, \"Already facility\");\r\n        require(ambulances[addr] == false, \"Already a transport\");\r\n        require(initiators[addr] == false, \"Already initiator\");\r\n        require(admins[addr] == false, \"Already admin\");\r\n\r\n        // verify the sender is an admin\r\n        require(admins[msg.sender] == true, \"Sender must be admin\");\r\n\r\n        // if passes all requires add account to ambulances\r\n        ambulances[addr] = true;\r\n    }\r\n\r\n    // Allows the admin to remove verified ambulances\r\n    function removeAmbulance(address addr) public {\r\n        require(admins[msg.sender] == true, \"Must be admin\");\r\n        require(ambulances[addr] == true, \"Must be a transport\");\r\n        ambulances[addr] = false;\r\n    }\r\n\r\n    // returns true if address is an poice, false if not\r\n    function isInitiator(address addr) public view returns (bool) {\r\n        return initiators[addr];\r\n    }\r\n\r\n    // Allows the admin to add verified police stations\r\n    function addInitiator(address addr) public {\r\n        // verify account does not already have another role\r\n        require(ambulances[addr] == false, \"User already transport\");\r\n        require(initiators[addr] == false, \"User already initiator\");\r\n        require(admins[addr] == false, \"User already admin\");\r\n\r\n        // verify sender is an admin\r\n        require(admins[msg.sender] == true, \"Sender must be an admin\");\r\n\r\n        // if passes all requires add the address as police\r\n        initiators[addr] = true;\r\n    }\r\n\r\n    // Allows the admin to remove verified police stations\r\n    function removeInitiator(address addr) public {\r\n        require(admins[msg.sender] == true, \"Sender must be an admin\");\r\n        require(initiators[addr] != false, \"Must be initator\");\r\n        initiators[addr] = false;\r\n    }\r\n\r\n    // returns true if address is a hospital, false if not\r\n    function isHospital(address addr) public view returns (bool) {\r\n        return hospitals[addr];\r\n    }\r\n\r\n    // Allows the admin to add verified hospitals\r\n    function addHospital(address addr) public {\r\n        // verify account does not already have another role\r\n        require(hospitals[addr] == false, \"Already facility\");\r\n        require(ambulances[addr] == false, \"Already transport\");\r\n        require(admins[addr] == false, \"Already admin\");\r\n\r\n        // verify the sender is an admin\r\n        require(admins[msg.sender] == true, \"Sender must be admin\");\r\n\r\n        // if passes all requires add account to hospitals\r\n        hospitals[addr] = true;\r\n    }\r\n\r\n    // Allows the admin to remove verified hospitals\r\n    function removeHospital(address addr) public {\r\n        require(admins[msg.sender] == true, \"Sender must be an admin\");\r\n        require(hospitals[addr] != false, \"Not already a facility\");\r\n        hospitals[addr] = false;\r\n    }\r\n\r\n    // returns true if address is an admin, false if not\r\n    function isAdmin(address addr) public view returns (bool) {\r\n        return admins[addr];\r\n    }\r\n\r\n    // add a new admin\r\n    function addAdmin(address addr) public {\r\n        require(ambulances[addr] == false, \"Already transport\");\r\n        require(hospitals[addr] == false, \"Already facility\");\r\n        require(initiators[addr] == false, \"Already initiator\");\r\n        require(admins[addr] == false, \"Already an admin\");\r\n        require(addr != superAdmin, \"superAdmin is already an admin\");\r\n        require(msg.sender == superAdmin, \"Sender must be superAdmin\");\r\n        admins[addr] = true;\r\n    }\r\n\r\n    // remove an existing admin\r\n    function removeAdmin(address addr) public {\r\n        require(msg.sender == superAdmin, \"Sender must be a superAdmin\");\r\n        require(admins[addr] == true, \"Not an admin\");\r\n        require(addr != msg.sender, \"Cannot remove yourself as admin\");\r\n        admins[addr] = false;\r\n    }\r\n}",
  "sourcePath": "C:\\Users\\owen1\\Documents\\Coding\\scefsta\\truffle\\contracts\\Accounts.sol",
  "compiler": {
    "name": "solc",
    "version": "0.8.21+commit.d9974bed.Emscripten.clang"
  },
  "schemaVersion": "3.4.14",
  "updatedAt": "2023-08-24T20:03:00.875Z",
  "networkType": "ethereum",
  "devdoc": {
    "kind": "dev",
    "methods": {},
    "version": 1
  },
  "userdoc": {
    "kind": "user",
    "methods": {},
    "version": 1
  }
}