{
  "contractName": "Accounts",
  "abi": [
    {
      "inputs": [],
      "stateMutability": "nonpayable",
      "type": "constructor"
    },
    {
      "inputs": [],
      "name": "superAdmin",
      "outputs": [
        {
          "internalType": "address",
          "name": "",
          "type": "address"
        }
      ],
      "stateMutability": "view",
      "type": "function",
      "constant": true
    },
    {
      "inputs": [
        {
          "internalType": "address",
          "name": "addr",
          "type": "address"
        }
      ],
      "name": "isAmbulance",
      "outputs": [
        {
          "internalType": "bool",
          "name": "",
          "type": "bool"
        }
      ],
      "stateMutability": "view",
      "type": "function",
      "constant": true
    },
    {
      "inputs": [
        {
          "internalType": "address",
          "name": "addr",
          "type": "address"
        }
      ],
      "name": "addAmbulance",
      "outputs": [],
      "stateMutability": "nonpayable",
      "type": "function"
    },
    {
      "inputs": [
        {
          "internalType": "address",
          "name": "addr",
          "type": "address"
        }
      ],
      "name": "removeAmbulance",
      "outputs": [],
      "stateMutability": "nonpayable",
      "type": "function"
    },
    {
      "inputs": [
        {
          "internalType": "address",
          "name": "addr",
          "type": "address"
        }
      ],
      "name": "isInitiator",
      "outputs": [
        {
          "internalType": "bool",
          "name": "",
          "type": "bool"
        }
      ],
      "stateMutability": "view",
      "type": "function",
      "constant": true
    },
    {
      "inputs": [
        {
          "internalType": "address",
          "name": "addr",
          "type": "address"
        }
      ],
      "name": "addInitiator",
      "outputs": [],
      "stateMutability": "nonpayable",
      "type": "function"
    },
    {
      "inputs": [
        {
          "internalType": "address",
          "name": "addr",
          "type": "address"
        }
      ],
      "name": "removeInitiator",
      "outputs": [],
      "stateMutability": "nonpayable",
      "type": "function"
    },
    {
      "inputs": [
        {
          "internalType": "address",
          "name": "addr",
          "type": "address"
        }
      ],
      "name": "isHospital",
      "outputs": [
        {
          "internalType": "bool",
          "name": "",
          "type": "bool"
        }
      ],
      "stateMutability": "view",
      "type": "function",
      "constant": true
    },
    {
      "inputs": [
        {
          "internalType": "address",
          "name": "addr",
          "type": "address"
        }
      ],
      "name": "addHospital",
      "outputs": [],
      "stateMutability": "nonpayable",
      "type": "function"
    },
    {
      "inputs": [
        {
          "internalType": "address",
          "name": "addr",
          "type": "address"
        }
      ],
      "name": "removeHospital",
      "outputs": [],
      "stateMutability": "nonpayable",
      "type": "function"
    },
    {
      "inputs": [
        {
          "internalType": "address",
          "name": "addr",
          "type": "address"
        }
      ],
      "name": "isAdmin",
      "outputs": [
        {
          "internalType": "bool",
          "name": "",
          "type": "bool"
        }
      ],
      "stateMutability": "view",
      "type": "function",
      "constant": true
    },
    {
      "inputs": [
        {
          "internalType": "address",
          "name": "addr",
          "type": "address"
        }
      ],
      "name": "addAdmin",
      "outputs": [],
      "stateMutability": "nonpayable",
      "type": "function"
    },
    {
      "inputs": [
        {
          "internalType": "address",
          "name": "addr",
          "type": "address"
        }
      ],
      "name": "removeAdmin",
      "outputs": [],
      "stateMutability": "nonpayable",
      "type": "function"
    }
  ],
  "bytecode": "0x608060405234801561000f575f80fd5b50335f806101000a81548173ffffffffffffffffffffffffffffffffffffffff021916908373ffffffffffffffffffffffffffffffffffffffff1602179055506001151560015f805f9054906101000a900473ffffffffffffffffffffffffffffffffffffffff1673ffffffffffffffffffffffffffffffffffffffff1673ffffffffffffffffffffffffffffffffffffffff1681526020019081526020015f205f9054906101000a905050506001151560025f805f9054906101000a900473ffffffffffffffffffffffffffffffffffffffff1673ffffffffffffffffffffffffffffffffffffffff1673ffffffffffffffffffffffffffffffffffffffff1681526020019081526020015f205f9054906101000a905050506001151560035f805f9054906101000a900473ffffffffffffffffffffffffffffffffffffffff1673ffffffffffffffffffffffffffffffffffffffff1673ffffffffffffffffffffffffffffffffffffffff1681526020019081526020015f205f9054906101000a905050506001151560045f805f9054906101000a900473ffffffffffffffffffffffffffffffffffffffff1673ffffffffffffffffffffffffffffffffffffffff1673ffffffffffffffffffffffffffffffffffffffff1681526020019081526020015f205f9054906101000a905050506121c9806102105f395ff3fe608060405234801561000f575f80fd5b50600436106100cd575f3560e01c8063704802751161008a578063bdf6c67311610064578063bdf6c673146101f7578063c2b2960714610227578063e5b0c5a714610243578063e826663514610273576100cd565b806370480275146101a3578063a9698906146101bf578063b4210257146101db576100cd565b80630b971338146100d15780631785f53c146101015780631b470bc71461011d57806324d7806c1461013957806329575f6a146101695780632a84b3e414610187575b5f80fd5b6100eb60048036038101906100e6919061177f565b61028f565b6040516100f891906117c4565b60405180910390f35b61011b6004803603810190610116919061177f565b6102e1565b005b6101376004803603810190610132919061177f565b6104c3565b005b610153600480360381019061014e919061177f565b6107e7565b60405161016091906117c4565b60405180910390f35b610171610839565b60405161017e91906117ec565b60405180910390f35b6101a1600480360381019061019c919061177f565b61085c565b005b6101bd60048036038101906101b8919061177f565b610b80565b005b6101d960048036038101906101d4919061177f565b610f2d565b005b6101f560048036038101906101f0919061177f565b6110a3565b005b610211600480360381019061020c919061177f565b611390565b60405161021e91906117c4565b60405180910390f35b610241600480360381019061023c919061177f565b6113e2565b005b61025d6004803603810190610258919061177f565b611559565b60405161026a91906117c4565b60405180910390f35b61028d6004803603810190610288919061177f565b6115ab565b005b5f60035f8373ffffffffffffffffffffffffffffffffffffffff1673ffffffffffffffffffffffffffffffffffffffff1681526020019081526020015f205f9054906101000a900460ff169050919050565b5f8054906101000a900473ffffffffffffffffffffffffffffffffffffffff1673ffffffffffffffffffffffffffffffffffffffff163373ffffffffffffffffffffffffffffffffffffffff161461036e576040517f08c379a00000000000000000000000000000000000000000000000000000000081526004016103659061185f565b60405180910390fd5b6001151560015f8373ffffffffffffffffffffffffffffffffffffffff1673ffffffffffffffffffffffffffffffffffffffff1681526020019081526020015f205f9054906101000a900460ff161515146103fe576040517f08c379a00000000000000000000000000000000000000000000000000000000081526004016103f5906118c7565b60405180910390fd5b3373ffffffffffffffffffffffffffffffffffffffff168173ffffffffffffffffffffffffffffffffffffffff160361046c576040517f08c379a00000000000000000000000000000000000000000000000000000000081526004016104639061192f565b60405180910390fd5b5f60015f8373ffffffffffffffffffffffffffffffffffffffff1673ffffffffffffffffffffffffffffffffffffffff1681526020019081526020015f205f6101000a81548160ff02191690831515021790555050565b5f151560035f8373ffffffffffffffffffffffffffffffffffffffff1673ffffffffffffffffffffffffffffffffffffffff1681526020019081526020015f205f9054906101000a900460ff16151514610552576040517f08c379a000000000000000000000000000000000000000000000000000000000815260040161054990611997565b60405180910390fd5b5f151560045f8373ffffffffffffffffffffffffffffffffffffffff1673ffffffffffffffffffffffffffffffffffffffff1681526020019081526020015f205f9054906101000a900460ff161515146105e1576040517f08c379a00000000000000000000000000000000000000000000000000000000081526004016105d8906119ff565b60405180910390fd5b5f151560025f8373ffffffffffffffffffffffffffffffffffffffff1673ffffffffffffffffffffffffffffffffffffffff1681526020019081526020015f205f9054906101000a900460ff16151514610670576040517f08c379a000000000000000000000000000000000000000000000000000000000815260040161066790611a67565b60405180910390fd5b5f151560015f8373ffffffffffffffffffffffffffffffffffffffff1673ffffffffffffffffffffffffffffffffffffffff1681526020019081526020015f205f9054906101000a900460ff161515146106ff576040517f08c379a00000000000000000000000000000000000000000000000000000000081526004016106f690611acf565b60405180910390fd5b6001151560015f3373ffffffffffffffffffffffffffffffffffffffff1673ffffffffffffffffffffffffffffffffffffffff1681526020019081526020015f205f9054906101000a900460ff1615151461078f576040517f08c379a000000000000000000000000000000000000000000000000000000000815260040161078690611b37565b60405180910390fd5b600160045f8373ffffffffffffffffffffffffffffffffffffffff1673ffffffffffffffffffffffffffffffffffffffff1681526020019081526020015f205f6101000a81548160ff02191690831515021790555050565b5f60015f8373ffffffffffffffffffffffffffffffffffffffff1673ffffffffffffffffffffffffffffffffffffffff1681526020019081526020015f205f9054906101000a900460ff169050919050565b5f8054906101000a900473ffffffffffffffffffffffffffffffffffffffff1681565b5f151560035f8373ffffffffffffffffffffffffffffffffffffffff1673ffffffffffffffffffffffffffffffffffffffff1681526020019081526020015f205f9054906101000a900460ff161515146108eb576040517f08c379a00000000000000000000000000000000000000000000000000000000081526004016108e290611b9f565b60405180910390fd5b5f151560045f8373ffffffffffffffffffffffffffffffffffffffff1673ffffffffffffffffffffffffffffffffffffffff1681526020019081526020015f205f9054906101000a900460ff1615151461097a576040517f08c379a000000000000000000000000000000000000000000000000000000000815260040161097190611c07565b60405180910390fd5b5f151560025f8373ffffffffffffffffffffffffffffffffffffffff1673ffffffffffffffffffffffffffffffffffffffff1681526020019081526020015f205f9054906101000a900460ff16151514610a09576040517f08c379a0000000000000000000000000000000000000000000000000000000008152600401610a0090611c6f565b60405180910390fd5b5f151560015f8373ffffffffffffffffffffffffffffffffffffffff1673ffffffffffffffffffffffffffffffffffffffff1681526020019081526020015f205f9054906101000a900460ff16151514610a98576040517f08c379a0000000000000000000000000000000000000000000000000000000008152600401610a8f90611cd7565b60405180910390fd5b6001151560015f3373ffffffffffffffffffffffffffffffffffffffff1673ffffffffffffffffffffffffffffffffffffffff1681526020019081526020015f205f9054906101000a900460ff16151514610b28576040517f08c379a0000000000000000000000000000000000000000000000000000000008152600401610b1f90611d3f565b60405180910390fd5b600160035f8373ffffffffffffffffffffffffffffffffffffffff1673ffffffffffffffffffffffffffffffffffffffff1681526020019081526020015f205f6101000a81548160ff02191690831515021790555050565b5f151560035f8373ffffffffffffffffffffffffffffffffffffffff1673ffffffffffffffffffffffffffffffffffffffff1681526020019081526020015f205f9054906101000a900460ff16151514610c0f576040517f08c379a0000000000000000000000000000000000000000000000000000000008152600401610c0690611997565b60405180910390fd5b5f151560045f8373ffffffffffffffffffffffffffffffffffffffff1673ffffffffffffffffffffffffffffffffffffffff1681526020019081526020015f205f9054906101000a900460ff16151514610c9e576040517f08c379a0000000000000000000000000000000000000000000000000000000008152600401610c95906119ff565b60405180910390fd5b5f151560025f8373ffffffffffffffffffffffffffffffffffffffff1673ffffffffffffffffffffffffffffffffffffffff1681526020019081526020015f205f9054906101000a900460ff16151514610d2d576040517f08c379a0000000000000000000000000000000000000000000000000000000008152600401610d2490611a67565b60405180910390fd5b5f151560015f8373ffffffffffffffffffffffffffffffffffffffff1673ffffffffffffffffffffffffffffffffffffffff1681526020019081526020015f205f9054906101000a900460ff16151514610dbc576040517f08c379a0000000000000000000000000000000000000000000000000000000008152600401610db390611acf565b60405180910390fd5b5f8054906101000a900473ffffffffffffffffffffffffffffffffffffffff1673ffffffffffffffffffffffffffffffffffffffff168173ffffffffffffffffffffffffffffffffffffffff1603610e49576040517f08c379a0000000000000000000000000000000000000000000000000000000008152600401610e4090611da7565b60405180910390fd5b5f8054906101000a900473ffffffffffffffffffffffffffffffffffffffff1673ffffffffffffffffffffffffffffffffffffffff163373ffffffffffffffffffffffffffffffffffffffff1614610ed6576040517f08c379a0000000000000000000000000000000000000000000000000000000008152600401610ecd9061185f565b60405180910390fd5b6001805f8373ffffffffffffffffffffffffffffffffffffffff1673ffffffffffffffffffffffffffffffffffffffff1681526020019081526020015f205f6101000a81548160ff02191690831515021790555050565b6001151560015f3373ffffffffffffffffffffffffffffffffffffffff1673ffffffffffffffffffffffffffffffffffffffff1681526020019081526020015f205f9054906101000a900460ff16151514610fbd576040517f08c379a0000000000000000000000000000000000000000000000000000000008152600401610fb490611e0f565b60405180910390fd5b5f151560045f8373ffffffffffffffffffffffffffffffffffffffff1673ffffffffffffffffffffffffffffffffffffffff1681526020019081526020015f205f9054906101000a900460ff1615150361104c576040517f08c379a000000000000000000000000000000000000000000000000000000000815260040161104390611e77565b60405180910390fd5b5f60045f8373ffffffffffffffffffffffffffffffffffffffff1673ffffffffffffffffffffffffffffffffffffffff1681526020019081526020015f205f6101000a81548160ff02191690831515021790555050565b5f151560035f8373ffffffffffffffffffffffffffffffffffffffff1673ffffffffffffffffffffffffffffffffffffffff1681526020019081526020015f205f9054906101000a900460ff16151514611132576040517f08c379a000000000000000000000000000000000000000000000000000000000815260040161112990611edf565b60405180910390fd5b5f151560045f8373ffffffffffffffffffffffffffffffffffffffff1673ffffffffffffffffffffffffffffffffffffffff1681526020019081526020015f205f9054906101000a900460ff161515146111c1576040517f08c379a00000000000000000000000000000000000000000000000000000000081526004016111b890611f47565b60405180910390fd5b5f151560025f8373ffffffffffffffffffffffffffffffffffffffff1673ffffffffffffffffffffffffffffffffffffffff1681526020019081526020015f205f9054906101000a900460ff16151514611250576040517f08c379a000000000000000000000000000000000000000000000000000000000815260040161124790611faf565b60405180910390fd5b5f151560015f8373ffffffffffffffffffffffffffffffffffffffff1673ffffffffffffffffffffffffffffffffffffffff1681526020019081526020015f205f9054906101000a900460ff161515146112df576040517f08c379a00000000000000000000000000000000000000000000000000000000081526004016112d690612017565b60405180910390fd5b6001151560015f3373ffffffffffffffffffffffffffffffffffffffff1673ffffffffffffffffffffffffffffffffffffffff1681526020019081526020015f205f9054906101000a900460ff16151514611338575f80fd5b600160025f8373ffffffffffffffffffffffffffffffffffffffff1673ffffffffffffffffffffffffffffffffffffffff1681526020019081526020015f205f6101000a81548160ff02191690831515021790555050565b5f60045f8373ffffffffffffffffffffffffffffffffffffffff1673ffffffffffffffffffffffffffffffffffffffff1681526020019081526020015f205f9054906101000a900460ff169050919050565b6001151560015f3373ffffffffffffffffffffffffffffffffffffffff1673ffffffffffffffffffffffffffffffffffffffff1681526020019081526020015f205f9054906101000a900460ff16151514611472576040517f08c379a000000000000000000000000000000000000000000000000000000000815260040161146990611e0f565b60405180910390fd5b6001151560035f8373ffffffffffffffffffffffffffffffffffffffff1673ffffffffffffffffffffffffffffffffffffffff1681526020019081526020015f205f9054906101000a900460ff16151514611502576040517f08c379a00000000000000000000000000000000000000000000000000000000081526004016114f99061207f565b60405180910390fd5b5f60035f8373ffffffffffffffffffffffffffffffffffffffff1673ffffffffffffffffffffffffffffffffffffffff1681526020019081526020015f205f6101000a81548160ff02191690831515021790555050565b5f60025f8373ffffffffffffffffffffffffffffffffffffffff1673ffffffffffffffffffffffffffffffffffffffff1681526020019081526020015f205f9054906101000a900460ff169050919050565b6001151560015f3373ffffffffffffffffffffffffffffffffffffffff1673ffffffffffffffffffffffffffffffffffffffff1681526020019081526020015f205f9054906101000a900460ff1615151461163b576040517f08c379a0000000000000000000000000000000000000000000000000000000008152600401611632906120e7565b60405180910390fd5b5f151560025f8373ffffffffffffffffffffffffffffffffffffffff1673ffffffffffffffffffffffffffffffffffffffff1681526020019081526020015f205f9054906101000a900460ff161515036116ca576040517f08c379a00000000000000000000000000000000000000000000000000000000081526004016116c190612175565b60405180910390fd5b5f60025f8373ffffffffffffffffffffffffffffffffffffffff1673ffffffffffffffffffffffffffffffffffffffff1681526020019081526020015f205f6101000a81548160ff02191690831515021790555050565b5f80fd5b5f73ffffffffffffffffffffffffffffffffffffffff82169050919050565b5f61174e82611725565b9050919050565b61175e81611744565b8114611768575f80fd5b50565b5f8135905061177981611755565b92915050565b5f6020828403121561179457611793611721565b5b5f6117a18482850161176b565b91505092915050565b5f8115159050919050565b6117be816117aa565b82525050565b5f6020820190506117d75f8301846117b5565b92915050565b6117e681611744565b82525050565b5f6020820190506117ff5f8301846117dd565b92915050565b5f82825260208201905092915050565b7f6d757374206265206120737570657241646d696e0000000000000000000000005f82015250565b5f611849601483611805565b915061185482611815565b602082019050919050565b5f6020820190508181035f8301526118768161183d565b9050919050565b7f6d75737420616c726561647920626520616e2061646d696e00000000000000005f82015250565b5f6118b1601883611805565b91506118bc8261187d565b602082019050919050565b5f6020820190508181035f8301526118de816118a5565b9050919050565b7f63616e6e6f742072656d6f766520796f757273656c662061732061646d696e005f82015250565b5f611919601f83611805565b9150611924826118e5565b602082019050919050565b5f6020820190508181035f8301526119468161190d565b9050919050565b7f616c726561647920616e20616d62756c616e63650000000000000000000000005f82015250565b5f611981601483611805565b915061198c8261194d565b602082019050919050565b5f6020820190508181035f8301526119ae81611975565b9050919050565b7f616c7265616479206120686f73706974616c00000000000000000000000000005f82015250565b5f6119e9601283611805565b91506119f4826119b5565b602082019050919050565b5f6020820190508181035f830152611a16816119dd565b9050919050565b7f616c7265616479206120706f6c696365000000000000000000000000000000005f82015250565b5f611a51601083611805565b9150611a5c82611a1d565b602082019050919050565b5f6020820190508181035f830152611a7e81611a45565b9050919050565b7f616c726561647920616e2061646d696e000000000000000000000000000000005f82015250565b5f611ab9601083611805565b9150611ac482611a85565b602082019050919050565b5f6020820190508181035f830152611ae681611aad565b9050919050565b7f73656e646572206973206e6f7420616e2061646d696e000000000000000000005f82015250565b5f611b21601683611805565b9150611b2c82611aed565b602082019050919050565b5f6020820190508181035f830152611b4e81611b15565b9050919050565b7f73656e64657220697320616c726561647920616d62756c616e636500000000005f82015250565b5f611b89601b83611805565b9150611b9482611b55565b602082019050919050565b5f6020820190508181035f830152611bb681611b7d565b9050919050565b7f73656e64657220697320616c726561647920686f73706974616c0000000000005f82015250565b5f611bf1601a83611805565b9150611bfc82611bbd565b602082019050919050565b5f6020820190508181035f830152611c1e81611be5565b9050919050565b7f73656e64657220697320616c726561647920696e69746961746f7200000000005f82015250565b5f611c59601b83611805565b9150611c6482611c25565b602082019050919050565b5f6020820190508181035f830152611c8681611c4d565b9050919050565b7f73656e64657220697320616c72656164792061646d696e0000000000000000005f82015250565b5f611cc1601783611805565b9150611ccc82611c8d565b602082019050919050565b5f6020820190508181035f830152611cee81611cb5565b9050919050565b7f73656e646572206d7573742062652061646d696e0000000000000000000000005f82015250565b5f611d29601483611805565b9150611d3482611cf5565b602082019050919050565b5f6020820190508181035f830152611d5681611d1d565b9050919050565b7f737570657241646d696e20697320616c726561647920616e2061646d696e00005f82015250565b5f611d91601e83611805565b9150611d9c82611d5d565b602082019050919050565b5f6020820190508181035f830152611dbe81611d85565b9050919050565b7f6d75737420626520616e2061646d696e000000000000000000000000000000005f82015250565b5f611df9601083611805565b9150611e0482611dc5565b602082019050919050565b5f6020820190508181035f830152611e2681611ded565b9050919050565b7f6d75737420616c7265616479206265206120686f73706974616c0000000000005f82015250565b5f611e61601a83611805565b9150611e6c82611e2d565b602082019050919050565b5f6020820190508181035f830152611e8e81611e55565b9050919050565b7f7573657220616c726561647920616d62756c616e6365000000000000000000005f82015250565b5f611ec9601683611805565b9150611ed482611e95565b602082019050919050565b5f6020820190508181035f830152611ef681611ebd565b9050919050565b7f7573657220697320616c726561647920686f73706974616c00000000000000005f82015250565b5f611f31601883611805565b9150611f3c82611efd565b602082019050919050565b5f6020820190508181035f830152611f5e81611f25565b9050919050565b7f7573657220697320616c726561647920696e69746961746f72000000000000005f82015250565b5f611f99601983611805565b9150611fa482611f65565b602082019050919050565b5f6020820190508181035f830152611fc681611f8d565b9050919050565b7f7573657220697320616c72656164792061646d696e00000000000000000000005f82015250565b5f612001601583611805565b915061200c82611fcd565b602082019050919050565b5f6020820190508181035f83015261202e81611ff5565b9050919050565b7f6d75737420616c726561647920626520616e20616d62756c616e6365000000005f82015250565b5f612069601c83611805565b915061207482612035565b602082019050919050565b5f6020820190508181035f8301526120968161205d565b9050919050565b7f73656e646572206d75737420626520616e2061646d696e0000000000000000005f82015250565b5f6120d1601783611805565b91506120dc8261209d565b602082019050919050565b5f6020820190508181035f8301526120fe816120c5565b9050919050565b7f73656e646572206d75737420616c726561647920626520616e20696e697461745f8201527f6f72000000000000000000000000000000000000000000000000000000000000602082015250565b5f61215f602283611805565b915061216a82612105565b604082019050919050565b5f6020820190508181035f83015261218c81612153565b905091905056fea264697066735822122064f1ec4afe52bad7f9cd0540c72b6ea785acec50772c9ba740bed78b167ea13364736f6c63430008140033",
  "immutableReferences": {},
  "source": "// SPDX-License-Identifier: UNLICENSED \npragma solidity ^0.8.0;\n\ncontract Accounts {\n    // super admin who has access to all features\n    address public superAdmin;\n\n    // four user accounts\n    mapping(address=> bool) admins;\n    mapping(address => bool) initiators;\n    mapping(address => bool) ambulances;\n    mapping(address => bool) hospitals;\n\n    // set the superAdmin and initalize a few accounts\n    constructor() {\n        superAdmin = msg.sender;\n        admins[superAdmin] == true;\n        initiators[superAdmin] == true;\n        ambulances[superAdmin] == true;\n        hospitals[superAdmin] == true;\n    }\n\n     // returns true if address is an ambulance, false if not\n    function isAmbulance(address addr) public view returns (bool) {\n        return ambulances[addr];\n    }\n\n     // Allows the admin to add verified ambulances\n    function addAmbulance(address addr) public {\n        // verify account does not already have another role\n        require(ambulances[addr] == false, \"sender is already ambulance\");\n        require(hospitals[addr] == false, \"sender is already hospital\");\n        require(initiators[addr] == false, \"sender is already initiator\");\n        require(admins[addr] == false, \"sender is already admin\");\n\n        // verify the sender is an admin\n        require(admins[msg.sender] == true, \"sender must be admin\");\n\n        // if passes all requires add account to ambulances\n        ambulances[addr] = true;\n    }\n\n    // Allows the admin to remove verified ambulances\n    function removeAmbulance(address addr) public {\n        require(admins[msg.sender] == true, \"must be an admin\");\n        require(ambulances[addr] == true, \"must already be an ambulance\");\n        ambulances[addr] = false;\n    }\n\n    // returns true if address is an poice, false if not\n    function isInitiator(address addr) public view returns (bool) {\n        return initiators[addr];\n    }\n\n    // Allows the admin to add verified police stations\n    function addInitiator(address addr) public {\n        // verify account does not already have another role\n        require(ambulances[addr] == false, \"user already ambulance\");\n        require(hospitals[addr] == false, \"user is already hospital\");\n        require(initiators[addr] == false, \"user is already initiator\");\n        require(admins[addr] == false, \"user is already admin\");\n\n        // verify sender is an admin\n        require(admins[msg.sender] == true);\n\n        // if passes all requires add the address as police\n        initiators[addr] = true;\n    }\n\n    // Allows the admin to remove verified police stations\n    function removeInitiator(address addr) public {\n        require(admins[msg.sender] == true, \"sender must be an admin\");\n        require(initiators[addr] != false, \"sender must already be an initator\");\n        initiators[addr] = false;\n    }\n\n    // returns true if address is a hospital, false if not\n    function isHospital(address addr) public view returns (bool) {\n        return hospitals[addr];\n    }\n\n    // Allows the admin to add verified hospitals\n    function addHospital(address addr) public {\n         // verify account does not already have another role\n        require(ambulances[addr] == false, \"already an ambulance\");\n        require(hospitals[addr] == false, \"already a hospital\");\n        require(initiators[addr] == false, \"already a police\");\n        require(admins[addr] == false, \"already an admin\");\n\n        // verify the sender is an admin\n        require(admins[msg.sender] == true, \"sender is not an admin\");\n\n        // if passes all requires add account to hospitals\n        hospitals[addr] = true;\n    }\n\n    // Allows the admin to remove verified hospitals\n    function removeHospital(address addr) public {\n        require(admins[msg.sender] == true, \"must be an admin\");\n        require(hospitals[addr] != false, \"must already be a hospital\");\n        hospitals[addr] = false;\n    }\n\n    // returns true if address is an admin, false if not\n    function isAdmin(address addr) public view returns (bool) {\n        return admins[addr];\n    }\n\n    // add a new admin\n    function addAdmin(address addr) public {\n        require(ambulances[addr] == false, \"already an ambulance\");\n        require(hospitals[addr] == false, \"already a hospital\");\n        require(initiators[addr] == false, \"already a police\");\n        require(admins[addr] == false, \"already an admin\");\n        require(addr != superAdmin, \"superAdmin is already an admin\");\n        require(msg.sender == superAdmin, \"must be a superAdmin\");\n        admins[addr] = true;\n    }\n\n    // remove an existing admin\n    function removeAdmin(address addr) public {\n        require(msg.sender == superAdmin, \"must be a superAdmin\");\n        require(admins[addr] == true, \"must already be an admin\");\n        require(addr != msg.sender, \"cannot remove yourself as admin\");\n        admins[addr] = false;\n    }\n}",
  "sourcePath": "C:\\Users\\owen1\\Documents\\Coding\\scefsta\\truffle\\contracts\\Accounts.sol",
  "compiler": {
    "name": "solc",
    "version": "0.8.20+commit.a1b79de6.Emscripten.clang"
  },
  "schemaVersion": "3.4.14",
  "updatedAt": "2023-06-14T22:03:42.554Z",
  "networkType": "ethereum",
  "devdoc": {
    "kind": "dev",
    "methods": {},
    "version": 1
  },
  "userdoc": {
    "kind": "user",
    "methods": {},
    "version": 1
  }
}