{
  "contractName": "Auctions",
  "abi": [
    {
      "inputs": [
        {
          "internalType": "address",
          "name": "contractAddress",
          "type": "address"
        }
      ],
      "stateMutability": "nonpayable",
      "type": "constructor"
    },
    {
      "inputs": [
        {
          "internalType": "uint256",
          "name": "",
          "type": "uint256"
        }
      ],
      "name": "tenderIds",
      "outputs": [
        {
          "internalType": "uint256",
          "name": "",
          "type": "uint256"
        }
      ],
      "stateMutability": "view",
      "type": "function",
      "constant": true
    },
    {
      "inputs": [
        {
          "internalType": "uint256",
          "name": "",
          "type": "uint256"
        }
      ],
      "name": "tenderMapping",
      "outputs": [
        {
          "components": [
            {
              "internalType": "address payable",
              "name": "tenderPoster",
              "type": "address"
            },
            {
              "internalType": "address payable",
              "name": "tenderAccepter",
              "type": "address"
            },
            {
              "internalType": "uint256",
              "name": "postDate",
              "type": "uint256"
            },
            {
              "internalType": "uint256",
              "name": "auctionDate",
              "type": "uint256"
            },
            {
              "internalType": "uint256",
              "name": "revealDate",
              "type": "uint256"
            },
            {
              "internalType": "uint256",
              "name": "dueDate",
              "type": "uint256"
            },
            {
              "internalType": "string",
              "name": "addr",
              "type": "string"
            },
            {
              "internalType": "string",
              "name": "city",
              "type": "string"
            },
            {
              "internalType": "string",
              "name": "state",
              "type": "string"
            },
            {
              "internalType": "string",
              "name": "zipcode",
              "type": "string"
            },
            {
              "internalType": "address[]",
              "name": "allowedHospitals",
              "type": "address[]"
            },
            {
              "internalType": "uint256",
              "name": "maxBid",
              "type": "uint256"
            },
            {
              "internalType": "uint256",
              "name": "penalty",
              "type": "uint256"
            },
            {
              "internalType": "address[]",
              "name": "bidders",
              "type": "address[]"
            },
            {
              "internalType": "uint256[]",
              "name": "bidHashArray",
              "type": "uint256[]"
            },
            {
              "internalType": "uint256",
              "name": "finalBid",
              "type": "uint256"
            },
            {
              "internalType": "string",
              "name": "severity",
              "type": "string"
            }
          ],
          "internalType": "struct Auctions.TenderDetails",
          "name": "details",
          "type": "tuple"
        },
        {
          "internalType": "enum Auctions.TenderStatus",
          "name": "status",
          "type": "uint8"
        },
        {
          "internalType": "uint256",
          "name": "tenderId",
          "type": "uint256"
        }
      ],
      "stateMutability": "view",
      "type": "function",
      "constant": true
    },
    {
      "inputs": [
        {
          "internalType": "uint256",
          "name": "",
          "type": "uint256"
        }
      ],
      "name": "tenders",
      "outputs": [
        {
          "components": [
            {
              "internalType": "address payable",
              "name": "tenderPoster",
              "type": "address"
            },
            {
              "internalType": "address payable",
              "name": "tenderAccepter",
              "type": "address"
            },
            {
              "internalType": "uint256",
              "name": "postDate",
              "type": "uint256"
            },
            {
              "internalType": "uint256",
              "name": "auctionDate",
              "type": "uint256"
            },
            {
              "internalType": "uint256",
              "name": "revealDate",
              "type": "uint256"
            },
            {
              "internalType": "uint256",
              "name": "dueDate",
              "type": "uint256"
            },
            {
              "internalType": "string",
              "name": "addr",
              "type": "string"
            },
            {
              "internalType": "string",
              "name": "city",
              "type": "string"
            },
            {
              "internalType": "string",
              "name": "state",
              "type": "string"
            },
            {
              "internalType": "string",
              "name": "zipcode",
              "type": "string"
            },
            {
              "internalType": "address[]",
              "name": "allowedHospitals",
              "type": "address[]"
            },
            {
              "internalType": "uint256",
              "name": "maxBid",
              "type": "uint256"
            },
            {
              "internalType": "uint256",
              "name": "penalty",
              "type": "uint256"
            },
            {
              "internalType": "address[]",
              "name": "bidders",
              "type": "address[]"
            },
            {
              "internalType": "uint256[]",
              "name": "bidHashArray",
              "type": "uint256[]"
            },
            {
              "internalType": "uint256",
              "name": "finalBid",
              "type": "uint256"
            },
            {
              "internalType": "string",
              "name": "severity",
              "type": "string"
            }
          ],
          "internalType": "struct Auctions.TenderDetails",
          "name": "details",
          "type": "tuple"
        },
        {
          "internalType": "enum Auctions.TenderStatus",
          "name": "status",
          "type": "uint8"
        },
        {
          "internalType": "uint256",
          "name": "tenderId",
          "type": "uint256"
        }
      ],
      "stateMutability": "view",
      "type": "function",
      "constant": true
    },
    {
      "inputs": [
        {
          "internalType": "uint256",
          "name": "timeLimit",
          "type": "uint256"
        },
        {
          "internalType": "uint256",
          "name": "deliveryTime",
          "type": "uint256"
        },
        {
          "internalType": "string",
          "name": "addr",
          "type": "string"
        },
        {
          "internalType": "string",
          "name": "city",
          "type": "string"
        },
        {
          "internalType": "string",
          "name": "state",
          "type": "string"
        },
        {
          "internalType": "string",
          "name": "zipcode",
          "type": "string"
        },
        {
          "internalType": "uint256",
          "name": "penalty",
          "type": "uint256"
        },
        {
          "internalType": "string",
          "name": "severity",
          "type": "string"
        },
        {
          "internalType": "address[]",
          "name": "allowedHospitals",
          "type": "address[]"
        }
      ],
      "name": "postTender",
      "outputs": [
        {
          "internalType": "uint256",
          "name": "",
          "type": "uint256"
        }
      ],
      "stateMutability": "payable",
      "type": "function",
      "payable": true
    },
    {
      "inputs": [
        {
          "internalType": "uint256",
          "name": "tenderId",
          "type": "uint256"
        },
        {
          "internalType": "uint256",
          "name": "bidHashedAmount",
          "type": "uint256"
        }
      ],
      "name": "secretBid",
      "outputs": [
        {
          "internalType": "uint256",
          "name": "index",
          "type": "uint256"
        }
      ],
      "stateMutability": "payable",
      "type": "function",
      "payable": true
    },
    {
      "inputs": [
        {
          "internalType": "uint256",
          "name": "tenderId",
          "type": "uint256"
        },
        {
          "internalType": "uint256",
          "name": "bidVal",
          "type": "uint256"
        },
        {
          "internalType": "uint256",
          "name": "salt",
          "type": "uint256"
        },
        {
          "internalType": "uint256",
          "name": "index",
          "type": "uint256"
        }
      ],
      "name": "revealBid",
      "outputs": [],
      "stateMutability": "payable",
      "type": "function",
      "payable": true
    },
    {
      "inputs": [
        {
          "internalType": "uint256",
          "name": "tenderId",
          "type": "uint256"
        }
      ],
      "name": "verifyDelivery",
      "outputs": [],
      "stateMutability": "nonpayable",
      "type": "function"
    },
    {
      "inputs": [],
      "name": "getAllTenders",
      "outputs": [
        {
          "components": [
            {
              "components": [
                {
                  "internalType": "address payable",
                  "name": "tenderPoster",
                  "type": "address"
                },
                {
                  "internalType": "address payable",
                  "name": "tenderAccepter",
                  "type": "address"
                },
                {
                  "internalType": "uint256",
                  "name": "postDate",
                  "type": "uint256"
                },
                {
                  "internalType": "uint256",
                  "name": "auctionDate",
                  "type": "uint256"
                },
                {
                  "internalType": "uint256",
                  "name": "revealDate",
                  "type": "uint256"
                },
                {
                  "internalType": "uint256",
                  "name": "dueDate",
                  "type": "uint256"
                },
                {
                  "internalType": "string",
                  "name": "addr",
                  "type": "string"
                },
                {
                  "internalType": "string",
                  "name": "city",
                  "type": "string"
                },
                {
                  "internalType": "string",
                  "name": "state",
                  "type": "string"
                },
                {
                  "internalType": "string",
                  "name": "zipcode",
                  "type": "string"
                },
                {
                  "internalType": "address[]",
                  "name": "allowedHospitals",
                  "type": "address[]"
                },
                {
                  "internalType": "uint256",
                  "name": "maxBid",
                  "type": "uint256"
                },
                {
                  "internalType": "uint256",
                  "name": "penalty",
                  "type": "uint256"
                },
                {
                  "internalType": "address[]",
                  "name": "bidders",
                  "type": "address[]"
                },
                {
                  "internalType": "uint256[]",
                  "name": "bidHashArray",
                  "type": "uint256[]"
                },
                {
                  "internalType": "uint256",
                  "name": "finalBid",
                  "type": "uint256"
                },
                {
                  "internalType": "string",
                  "name": "severity",
                  "type": "string"
                }
              ],
              "internalType": "struct Auctions.TenderDetails",
              "name": "details",
              "type": "tuple"
            },
            {
              "internalType": "enum Auctions.TenderStatus",
              "name": "status",
              "type": "uint8"
            },
            {
              "internalType": "uint256",
              "name": "tenderId",
              "type": "uint256"
            }
          ],
          "internalType": "struct Auctions.Tender[]",
          "name": "",
          "type": "tuple[]"
        }
      ],
      "stateMutability": "view",
      "type": "function",
      "constant": true
    },
    {
      "inputs": [
        {
          "internalType": "uint256",
          "name": "tenderId",
          "type": "uint256"
        }
      ],
      "name": "getTender",
      "outputs": [
        {
          "components": [
            {
              "components": [
                {
                  "internalType": "address payable",
                  "name": "tenderPoster",
                  "type": "address"
                },
                {
                  "internalType": "address payable",
                  "name": "tenderAccepter",
                  "type": "address"
                },
                {
                  "internalType": "uint256",
                  "name": "postDate",
                  "type": "uint256"
                },
                {
                  "internalType": "uint256",
                  "name": "auctionDate",
                  "type": "uint256"
                },
                {
                  "internalType": "uint256",
                  "name": "revealDate",
                  "type": "uint256"
                },
                {
                  "internalType": "uint256",
                  "name": "dueDate",
                  "type": "uint256"
                },
                {
                  "internalType": "string",
                  "name": "addr",
                  "type": "string"
                },
                {
                  "internalType": "string",
                  "name": "city",
                  "type": "string"
                },
                {
                  "internalType": "string",
                  "name": "state",
                  "type": "string"
                },
                {
                  "internalType": "string",
                  "name": "zipcode",
                  "type": "string"
                },
                {
                  "internalType": "address[]",
                  "name": "allowedHospitals",
                  "type": "address[]"
                },
                {
                  "internalType": "uint256",
                  "name": "maxBid",
                  "type": "uint256"
                },
                {
                  "internalType": "uint256",
                  "name": "penalty",
                  "type": "uint256"
                },
                {
                  "internalType": "address[]",
                  "name": "bidders",
                  "type": "address[]"
                },
                {
                  "internalType": "uint256[]",
                  "name": "bidHashArray",
                  "type": "uint256[]"
                },
                {
                  "internalType": "uint256",
                  "name": "finalBid",
                  "type": "uint256"
                },
                {
                  "internalType": "string",
                  "name": "severity",
                  "type": "string"
                }
              ],
              "internalType": "struct Auctions.TenderDetails",
              "name": "details",
              "type": "tuple"
            },
            {
              "internalType": "enum Auctions.TenderStatus",
              "name": "status",
              "type": "uint8"
            },
            {
              "internalType": "uint256",
              "name": "tenderId",
              "type": "uint256"
            }
          ],
          "internalType": "struct Auctions.Tender",
          "name": "",
          "type": "tuple"
        }
      ],
      "stateMutability": "view",
      "type": "function",
      "constant": true
    },
    {
      "inputs": [
        {
          "internalType": "uint256",
          "name": "tenderId",
          "type": "uint256"
        }
      ],
      "name": "getAuctionWinner",
      "outputs": [
        {
          "internalType": "address",
          "name": "tenderWinner",
          "type": "address"
        }
      ],
      "stateMutability": "view",
      "type": "function",
      "constant": true
    },
    {
      "inputs": [
        {
          "internalType": "uint256",
          "name": "tenderId",
          "type": "uint256"
        }
      ],
      "name": "reclaimTender",
      "outputs": [],
      "stateMutability": "nonpayable",
      "type": "function"
    },
    {
      "inputs": [
        {
          "internalType": "uint256",
          "name": "tenderId",
          "type": "uint256"
        }
      ],
      "name": "retractTender",
      "outputs": [],
      "stateMutability": "nonpayable",
      "type": "function"
    }
  ],
  "bytecode": "0x60806040525f60045534801562000014575f80fd5b50604051620060993803806200609983398181016040528101906200003a9190620000e5565b805f806101000a81548173ffffffffffffffffffffffffffffffffffffffff021916908373ffffffffffffffffffffffffffffffffffffffff1602179055505062000115565b5f80fd5b5f73ffffffffffffffffffffffffffffffffffffffff82169050919050565b5f620000af8262000084565b9050919050565b620000c181620000a3565b8114620000cc575f80fd5b50565b5f81519050620000df81620000b6565b92915050565b5f60208284031215620000fd57620000fc62000080565b5b5f6200010c84828501620000cf565b91505092915050565b615f7680620001235f395ff3fe6080604052600436106100a6575f3560e01c806355079c3f1161006357806355079c3f146101ee5780636a31879b14610216578063713794b214610246578063a198361314610276578063e05917e9146102b4578063e16a2df7146102dc576100a6565b80630585c25e146100aa578063083d353b146100e65780632358c0461461012257806323675c471461014c57806339c776b614610174578063465e1def146101b0575b5f80fd5b3480156100b5575f80fd5b506100d060048036038101906100cb919061417c565b6102f8565b6040516100dd919061464a565b60405180910390f35b3480156100f1575f80fd5b5061010c6004803603810190610107919061417c565b6108a6565b6040516101199190614679565b60405180910390f35b34801561012d575f80fd5b506101366109c3565b604051610143919061479a565b60405180910390f35b348015610157575f80fd5b50610172600480360381019061016d919061417c565b610fa2565b005b34801561017f575f80fd5b5061019a6004803603810190610195919061417c565b61168f565b6040516101a791906147c9565b60405180910390f35b3480156101bb575f80fd5b506101d660048036038101906101d1919061417c565b6116af565b6040516101e59392919061498c565b60405180910390f35b3480156101f9575f80fd5b50610214600480360381019061020f919061417c565b611c26565b005b610230600480360381019061022b91906149c8565b611f38565b60405161023d91906147c9565b60405180910390f35b610260600480360381019061025b9190614c20565b6127de565b60405161026d91906147c9565b60405180910390f35b348015610281575f80fd5b5061029c6004803603810190610297919061417c565b612fc4565b6040516102ab9392919061498c565b60405180910390f35b3480156102bf575f80fd5b506102da60048036038101906102d5919061417c565b61352c565b005b6102f660048036038101906102f19190614d8c565b613722565b005b610300613ed1565b60025f8381526020019081526020015f206040518060600160405290815f8201604051806102200160405290815f82015f9054906101000a900473ffffffffffffffffffffffffffffffffffffffff1673ffffffffffffffffffffffffffffffffffffffff1673ffffffffffffffffffffffffffffffffffffffff168152602001600182015f9054906101000a900473ffffffffffffffffffffffffffffffffffffffff1673ffffffffffffffffffffffffffffffffffffffff1673ffffffffffffffffffffffffffffffffffffffff1681526020016002820154815260200160038201548152602001600482015481526020016005820154815260200160068201805461040d90614e1d565b80601f016020809104026020016040519081016040528092919081815260200182805461043990614e1d565b80156104845780601f1061045b57610100808354040283529160200191610484565b820191905f5260205f20905b81548152906001019060200180831161046757829003601f168201915b5050505050815260200160078201805461049d90614e1d565b80601f01602080910402602001604051908101604052809291908181526020018280546104c990614e1d565b80156105145780601f106104eb57610100808354040283529160200191610514565b820191905f5260205f20905b8154815290600101906020018083116104f757829003601f168201915b5050505050815260200160088201805461052d90614e1d565b80601f016020809104026020016040519081016040528092919081815260200182805461055990614e1d565b80156105a45780601f1061057b576101008083540402835291602001916105a4565b820191905f5260205f20905b81548152906001019060200180831161058757829003601f168201915b505050505081526020016009820180546105bd90614e1d565b80601f01602080910402602001604051908101604052809291908181526020018280546105e990614e1d565b80156106345780601f1061060b57610100808354040283529160200191610634565b820191905f5260205f20905b81548152906001019060200180831161061757829003601f168201915b50505050508152602001600a82018054806020026020016040519081016040528092919081815260200182805480156106bf57602002820191905f5260205f20905b815f9054906101000a900473ffffffffffffffffffffffffffffffffffffffff1673ffffffffffffffffffffffffffffffffffffffff1681526020019060010190808311610676575b50505050508152602001600b8201548152602001600c8201548152602001600d820180548060200260200160405190810160405280929190818152602001828054801561075e57602002820191905f5260205f20905b815f9054906101000a900473ffffffffffffffffffffffffffffffffffffffff1673ffffffffffffffffffffffffffffffffffffffff1681526020019060010190808311610715575b50505050508152602001600e82018054806020026020016040519081016040528092919081815260200182805480156107b457602002820191905f5260205f20905b8154815260200190600101908083116107a0575b50505050508152602001600f82015481526020016010820180546107d790614e1d565b80601f016020809104026020016040519081016040528092919081815260200182805461080390614e1d565b801561084e5780601f106108255761010080835404028352916020019161084e565b820191905f5260205f20905b81548152906001019060200180831161083157829003601f168201915b5050505050815250508152602001601182015f9054906101000a900460ff16600481111561087f5761087e61458a565b5b60048111156108915761089061458a565b5b81526020016012820154815250509050919050565b5f600260048111156108bb576108ba61458a565b5b60025f8481526020019081526020015f206011015f9054906101000a900460ff1660048111156108ee576108ed61458a565b5b0361092e576040517f08c379a000000000000000000000000000000000000000000000000000000000815260040161092590614ea7565b60405180910390fd5b60025f8381526020019081526020015f205f01600401544210610986576040517f08c379a000000000000000000000000000000000000000000000000000000000815260040161097d90614f35565b60405180910390fd5b60025f8381526020019081526020015f205f016001015f9054906101000a900473ffffffffffffffffffffffffffffffffffffffff169050919050565b60606003805480602002602001604051908101604052809291908181526020015f905b82821015610f99578382905f5260205f2090601302016040518060600160405290815f8201604051806102200160405290815f82015f9054906101000a900473ffffffffffffffffffffffffffffffffffffffff1673ffffffffffffffffffffffffffffffffffffffff1673ffffffffffffffffffffffffffffffffffffffff168152602001600182015f9054906101000a900473ffffffffffffffffffffffffffffffffffffffff1673ffffffffffffffffffffffffffffffffffffffff1673ffffffffffffffffffffffffffffffffffffffff16815260200160028201548152602001600382015481526020016004820154815260200160058201548152602001600682018054610af890614e1d565b80601f0160208091040260200160405190810160405280929190818152602001828054610b2490614e1d565b8015610b6f5780601f10610b4657610100808354040283529160200191610b6f565b820191905f5260205f20905b815481529060010190602001808311610b5257829003601f168201915b50505050508152602001600782018054610b8890614e1d565b80601f0160208091040260200160405190810160405280929190818152602001828054610bb490614e1d565b8015610bff5780601f10610bd657610100808354040283529160200191610bff565b820191905f5260205f20905b815481529060010190602001808311610be257829003601f168201915b50505050508152602001600882018054610c1890614e1d565b80601f0160208091040260200160405190810160405280929190818152602001828054610c4490614e1d565b8015610c8f5780601f10610c6657610100808354040283529160200191610c8f565b820191905f5260205f20905b815481529060010190602001808311610c7257829003601f168201915b50505050508152602001600982018054610ca890614e1d565b80601f0160208091040260200160405190810160405280929190818152602001828054610cd490614e1d565b8015610d1f5780601f10610cf657610100808354040283529160200191610d1f565b820191905f5260205f20905b815481529060010190602001808311610d0257829003601f168201915b50505050508152602001600a8201805480602002602001604051908101604052809291908181526020018280548015610daa57602002820191905f5260205f20905b815f9054906101000a900473ffffffffffffffffffffffffffffffffffffffff1673ffffffffffffffffffffffffffffffffffffffff1681526020019060010190808311610d61575b50505050508152602001600b8201548152602001600c8201548152602001600d8201805480602002602001604051908101604052809291908181526020018280548015610e4957602002820191905f5260205f20905b815f9054906101000a900473ffffffffffffffffffffffffffffffffffffffff1673ffffffffffffffffffffffffffffffffffffffff1681526020019060010190808311610e00575b50505050508152602001600e8201805480602002602001604051908101604052809291908181526020018280548015610e9f57602002820191905f5260205f20905b815481526020019060010190808311610e8b575b50505050508152602001600f8201548152602001601082018054610ec290614e1d565b80601f0160208091040260200160405190810160405280929190818152602001828054610eee90614e1d565b8015610f395780601f10610f1057610100808354040283529160200191610f39565b820191905f5260205f20905b815481529060010190602001808311610f1c57829003601f168201915b5050505050815250508152602001601182015f9054906101000a900460ff166004811115610f6a57610f6961458a565b5b6004811115610f7c57610f7b61458a565b5b8152602001601282015481525050815260200190600101906109e6565b50505050905090565b5f8054906101000a900473ffffffffffffffffffffffffffffffffffffffff1673ffffffffffffffffffffffffffffffffffffffff1663bdf6c673336040518263ffffffff1660e01b8152600401610ffa9190614679565b602060405180830381865afa158015611015573d5f803e3d5ffd5b505050506040513d601f19601f820116820180604052508101906110399190614f88565b611078576040517f08c379a000000000000000000000000000000000000000000000000000000000815260040161106f90614ffd565b60405180910390fd5b6001600481111561108c5761108b61458a565b5b60025f8381526020019081526020015f206011015f9054906101000a900460ff1660048111156110bf576110be61458a565b5b146110ff576040517f08c379a00000000000000000000000000000000000000000000000000000000081526004016110f690615065565b60405180910390fd5b60025f8281526020019081526020015f205f01600401544211611157576040517f08c379a000000000000000000000000000000000000000000000000000000000815260040161114e906150f3565b60405180910390fd5b60025f8281526020019081526020015f205f016005015442106111af576040517f08c379a00000000000000000000000000000000000000000000000000000000081526004016111a69061515b565b60405180910390fd5b61125060025f8381526020019081526020015f205f01600a0180548060200260200160405190810160405280929190818152602001828054801561124557602002820191905f5260205f20905b815f9054906101000a900473ffffffffffffffffffffffffffffffffffffffff1673ffffffffffffffffffffffffffffffffffffffff16815260200190600101908083116111fc575b505050505033613e4d565b61128f576040517f08c379a0000000000000000000000000000000000000000000000000000000008152600401611286906151c3565b60405180910390fd5b60025f8281526020019081526020015f205f016001015f9054906101000a900473ffffffffffffffffffffffffffffffffffffffff1673ffffffffffffffffffffffffffffffffffffffff166108fc60025f8481526020019081526020015f205f01600c015460025f8581526020019081526020015f205f01600f0154611316919061520e565b90811502906040515f60405180830381858888f1935050505015801561133e573d5f803e3d5ffd5b505f60025f8381526020019081526020015f205f01600f015460025f8481526020019081526020015f205f01600b01546113789190615241565b111561142e5760025f8281526020019081526020015f205f015f015f9054906101000a900473ffffffffffffffffffffffffffffffffffffffff1673ffffffffffffffffffffffffffffffffffffffff166108fc60025f8481526020019081526020015f205f01600f015460025f8581526020019081526020015f205f01600b01546114049190615241565b90811502906040515f60405180830381858888f1935050505015801561142c573d5f803e3d5ffd5b505b5f60025f8381526020019081526020015f2090505f816011015f6101000a81548160ff021916908360048111156114685761146761458a565b5b02179055508060025f8481526020019081526020015f205f8201815f015f82015f9054906101000a900473ffffffffffffffffffffffffffffffffffffffff16815f015f6101000a81548173ffffffffffffffffffffffffffffffffffffffff021916908373ffffffffffffffffffffffffffffffffffffffff160217905550600182015f9054906101000a900473ffffffffffffffffffffffffffffffffffffffff16816001015f6101000a81548173ffffffffffffffffffffffffffffffffffffffff021916908373ffffffffffffffffffffffffffffffffffffffff16021790555060028201548160020155600382015481600301556004820154816004015560058201548160050155600682018160060190816115899190615426565b506007820181600701908161159e9190615426565b50600882018160080190816115b39190615426565b50600982018160090190816115c89190615426565b50600a820181600a019080546115df929190613f08565b50600b82015481600b0155600c82015481600c0155600d820181600d0190805461160a929190613f08565b50600e820181600e01908054611621929190613f56565b50600f82015481600f0155601082018160100190816116409190615426565b505050601182015f9054906101000a900460ff16816011015f6101000a81548160ff021916908360048111156116795761167861458a565b5b0217905550601282015481601201559050505050565b6001818154811061169e575f80fd5b905f5260205f20015f915090505481565b600381815481106116be575f80fd5b905f5260205f2090601302015f91509050805f01604051806102200160405290815f82015f9054906101000a900473ffffffffffffffffffffffffffffffffffffffff1673ffffffffffffffffffffffffffffffffffffffff1673ffffffffffffffffffffffffffffffffffffffff168152602001600182015f9054906101000a900473ffffffffffffffffffffffffffffffffffffffff1673ffffffffffffffffffffffffffffffffffffffff1673ffffffffffffffffffffffffffffffffffffffff168152602001600282015481526020016003820154815260200160048201548152602001600582015481526020016006820180546117bf90614e1d565b80601f01602080910402602001604051908101604052809291908181526020018280546117eb90614e1d565b80156118365780601f1061180d57610100808354040283529160200191611836565b820191905f5260205f20905b81548152906001019060200180831161181957829003601f168201915b5050505050815260200160078201805461184f90614e1d565b80601f016020809104026020016040519081016040528092919081815260200182805461187b90614e1d565b80156118c65780601f1061189d576101008083540402835291602001916118c6565b820191905f5260205f20905b8154815290600101906020018083116118a957829003601f168201915b505050505081526020016008820180546118df90614e1d565b80601f016020809104026020016040519081016040528092919081815260200182805461190b90614e1d565b80156119565780601f1061192d57610100808354040283529160200191611956565b820191905f5260205f20905b81548152906001019060200180831161193957829003601f168201915b5050505050815260200160098201805461196f90614e1d565b80601f016020809104026020016040519081016040528092919081815260200182805461199b90614e1d565b80156119e65780601f106119bd576101008083540402835291602001916119e6565b820191905f5260205f20905b8154815290600101906020018083116119c957829003601f168201915b50505050508152602001600a8201805480602002602001604051908101604052809291908181526020018280548015611a7157602002820191905f5260205f20905b815f9054906101000a900473ffffffffffffffffffffffffffffffffffffffff1673ffffffffffffffffffffffffffffffffffffffff1681526020019060010190808311611a28575b50505050508152602001600b8201548152602001600c8201548152602001600d8201805480602002602001604051908101604052809291908181526020018280548015611b1057602002820191905f5260205f20905b815f9054906101000a900473ffffffffffffffffffffffffffffffffffffffff1673ffffffffffffffffffffffffffffffffffffffff1681526020019060010190808311611ac7575b50505050508152602001600e8201805480602002602001604051908101604052809291908181526020018280548015611b6657602002820191905f5260205f20905b815481526020019060010190808311611b52575b50505050508152602001600f8201548152602001601082018054611b8990614e1d565b80601f0160208091040260200160405190810160405280929190818152602001828054611bb590614e1d565b8015611c005780601f10611bd757610100808354040283529160200191611c00565b820191905f5260205f20905b815481529060010190602001808311611be357829003601f168201915b50505050508152505090806011015f9054906101000a900460ff16908060120154905083565b3373ffffffffffffffffffffffffffffffffffffffff1660025f8381526020019081526020015f205f015f015f9054906101000a900473ffffffffffffffffffffffffffffffffffffffff1673ffffffffffffffffffffffffffffffffffffffff1614611cc8576040517f08c379a0000000000000000000000000000000000000000000000000000000008152600401611cbf90615555565b60405180910390fd5b60016004811115611cdc57611cdb61458a565b5b60025f8381526020019081526020015f206011015f9054906101000a900460ff166004811115611d0f57611d0e61458a565b5b14611d4f576040517f08c379a0000000000000000000000000000000000000000000000000000000008152600401611d46906155bd565b60405180910390fd5b5f73ffffffffffffffffffffffffffffffffffffffff1660025f8381526020019081526020015f205f016001015f9054906101000a900473ffffffffffffffffffffffffffffffffffffffff1673ffffffffffffffffffffffffffffffffffffffff1603611df2576040517f08c379a0000000000000000000000000000000000000000000000000000000008152600401611de99061564b565b60405180910390fd5b4260025f8381526020019081526020015f205f016005015411611e4a576040517f08c379a0000000000000000000000000000000000000000000000000000000008152600401611e41906156b3565b60405180910390fd5b60025f8281526020019081526020015f205f015f015f9054906101000a900473ffffffffffffffffffffffffffffffffffffffff1673ffffffffffffffffffffffffffffffffffffffff166108fc60025f8481526020019081526020015f205f01600c015460025f8581526020019081526020015f205f01600b0154611ed0919061520e565b90811502906040515f60405180830381858888f19350505050158015611ef8573d5f803e3d5ffd5b50600460025f8381526020019081526020015f206011015f6101000a81548160ff02191690836004811115611f3057611f2f61458a565b5b021790555050565b5f8060025f8581526020019081526020015f206040518060600160405290815f8201604051806102200160405290815f82015f9054906101000a900473ffffffffffffffffffffffffffffffffffffffff1673ffffffffffffffffffffffffffffffffffffffff1673ffffffffffffffffffffffffffffffffffffffff168152602001600182015f9054906101000a900473ffffffffffffffffffffffffffffffffffffffff1673ffffffffffffffffffffffffffffffffffffffff1673ffffffffffffffffffffffffffffffffffffffff1681526020016002820154815260200160038201548152602001600482015481526020016005820154815260200160068201805461204790614e1d565b80601f016020809104026020016040519081016040528092919081815260200182805461207390614e1d565b80156120be5780601f10612095576101008083540402835291602001916120be565b820191905f5260205f20905b8154815290600101906020018083116120a157829003601f168201915b505050505081526020016007820180546120d790614e1d565b80601f016020809104026020016040519081016040528092919081815260200182805461210390614e1d565b801561214e5780601f106121255761010080835404028352916020019161214e565b820191905f5260205f20905b81548152906001019060200180831161213157829003601f168201915b5050505050815260200160088201805461216790614e1d565b80601f016020809104026020016040519081016040528092919081815260200182805461219390614e1d565b80156121de5780601f106121b5576101008083540402835291602001916121de565b820191905f5260205f20905b8154815290600101906020018083116121c157829003601f168201915b505050505081526020016009820180546121f790614e1d565b80601f016020809104026020016040519081016040528092919081815260200182805461222390614e1d565b801561226e5780601f106122455761010080835404028352916020019161226e565b820191905f5260205f20905b81548152906001019060200180831161225157829003601f168201915b50505050508152602001600a82018054806020026020016040519081016040528092919081815260200182805480156122f957602002820191905f5260205f20905b815f9054906101000a900473ffffffffffffffffffffffffffffffffffffffff1673ffffffffffffffffffffffffffffffffffffffff16815260200190600101908083116122b0575b50505050508152602001600b8201548152602001600c8201548152602001600d820180548060200260200160405190810160405280929190818152602001828054801561239857602002820191905f5260205f20905b815f9054906101000a900473ffffffffffffffffffffffffffffffffffffffff1673ffffffffffffffffffffffffffffffffffffffff168152602001906001019080831161234f575b50505050508152602001600e82018054806020026020016040519081016040528092919081815260200182805480156123ee57602002820191905f5260205f20905b8154815260200190600101908083116123da575b50505050508152602001600f820154815260200160108201805461241190614e1d565b80601f016020809104026020016040519081016040528092919081815260200182805461243d90614e1d565b80156124885780601f1061245f57610100808354040283529160200191612488565b820191905f5260205f20905b81548152906001019060200180831161246b57829003601f168201915b5050505050815250508152602001601182015f9054906101000a900460ff1660048111156124b9576124b861458a565b5b60048111156124cb576124ca61458a565b5b815260200160128201548152505090505f8054906101000a900473ffffffffffffffffffffffffffffffffffffffff1673ffffffffffffffffffffffffffffffffffffffff16630b971338336040518263ffffffff1660e01b81526004016125339190614679565b602060405180830381865afa15801561254e573d5f803e3d5ffd5b505050506040513d601f19601f820116820180604052508101906125729190614f88565b6125b1576040517f08c379a00000000000000000000000000000000000000000000000000000000081526004016125a89061571b565b60405180910390fd5b600260048111156125c5576125c461458a565b5b816020015160048111156125dc576125db61458a565b5b1461261c576040517f08c379a000000000000000000000000000000000000000000000000000000000815260040161261390615783565b60405180910390fd5b805f015160a001514210612665576040517f08c379a000000000000000000000000000000000000000000000000000000000815260040161265c906157eb565b60405180910390fd5b805f0151610180015134146126af576040517f08c379a00000000000000000000000000000000000000000000000000000000081526004016126a690615879565b60405180910390fd5b6126c1815f01516101a0015133613e4d565b15612701576040517f08c379a00000000000000000000000000000000000000000000000000000000081526004016126f8906158e1565b60405180910390fd5b60025f8581526020019081526020015f205f01600d0133908060018154018082558091505060019003905f5260205f20015f9091909190916101000a81548173ffffffffffffffffffffffffffffffffffffffff021916908373ffffffffffffffffffffffffffffffffffffffff16021790555060025f8581526020019081526020015f205f01600e0183908060018154018082558091505060019003905f5260205f20015f9091909190915055600160025f8681526020019081526020015f205f01600d01805490506127d59190615241565b91505092915050565b5f805f9054906101000a900473ffffffffffffffffffffffffffffffffffffffff1673ffffffffffffffffffffffffffffffffffffffff1663e5b0c5a7336040518263ffffffff1660e01b81526004016128389190614679565b602060405180830381865afa158015612853573d5f803e3d5ffd5b505050506040513d601f19601f820116820180604052508101906128779190614f88565b6128b6576040517f08c379a00000000000000000000000000000000000000000000000000000000081526004016128ad90615949565b60405180910390fd5b5f34116128f8576040517f08c379a00000000000000000000000000000000000000000000000000000000081526004016128ef906159b1565b60405180910390fd5b5f5b8251811015612a06575f8054906101000a900473ffffffffffffffffffffffffffffffffffffffff1673ffffffffffffffffffffffffffffffffffffffff1663bdf6c673848381518110612951576129506159cf565b5b60200260200101516040518263ffffffff1660e01b81526004016129759190614679565b602060405180830381865afa158015612990573d5f803e3d5ffd5b505050506040513d601f19601f820116820180604052508101906129b49190614f88565b6129f3576040517f08c379a00000000000000000000000000000000000000000000000000000000081526004016129ea90615a46565b60405180910390fd5b80806129fe90615a64565b9150506128fa565b50612a0f613ed1565b60045481604001818152505033815f01515f019073ffffffffffffffffffffffffffffffffffffffff16908173ffffffffffffffffffffffffffffffffffffffff1681525050600281602001906004811115612a6e57612a6d61458a565b5b90816004811115612a8257612a8161458a565b5b8152505042815f015160400181815250508a42612a9f919061520e565b815f0151606001818152505061012c8b42612aba919061520e565b612ac4919061520e565b815f015160800181815250508961012c8c42612ae0919061520e565b612aea919061520e565b612af4919061520e565b815f015160a00181815250507fffffffffffffffffffffffffffffffffffffffffffffffffffffffffffffffff815f01516101e001818152505034815f015161016001818152505084815f015161018001818152505082815f0151610140018190525088815f015160c0018190525087815f015160e0018190525086815f0151610100018190525085815f0151610120018190525083815f01516102000181905250600381908060018154018082558091505060019003905f5260205f2090601302015f909190919091505f820151815f015f820151815f015f6101000a81548173ffffffffffffffffffffffffffffffffffffffff021916908373ffffffffffffffffffffffffffffffffffffffff1602179055506020820151816001015f6101000a81548173ffffffffffffffffffffffffffffffffffffffff021916908373ffffffffffffffffffffffffffffffffffffffff16021790555060408201518160020155606082015181600301556080820151816004015560a0820151816005015560c0820151816006019081612c8d9190615aab565b5060e0820151816007019081612ca39190615aab565b50610100820151816008019081612cba9190615aab565b50610120820151816009019081612cd19190615aab565b5061014082015181600a019080519060200190612cef929190613fa4565b5061016082015181600b015561018082015181600c01556101a082015181600d019080519060200190612d23929190613fa4565b506101c082015181600e019080519060200190612d4192919061402b565b506101e082015181600f0155610200820151816010019081612d639190615aab565b5050506020820151816011015f6101000a81548160ff02191690836004811115612d9057612d8f61458a565b5b02179055506040820151816012015550508060025f60045481526020019081526020015f205f820151815f015f820151815f015f6101000a81548173ffffffffffffffffffffffffffffffffffffffff021916908373ffffffffffffffffffffffffffffffffffffffff1602179055506020820151816001015f6101000a81548173ffffffffffffffffffffffffffffffffffffffff021916908373ffffffffffffffffffffffffffffffffffffffff16021790555060408201518160020155606082015181600301556080820151816004015560a0820151816005015560c0820151816006019081612e839190615aab565b5060e0820151816007019081612e999190615aab565b50610100820151816008019081612eb09190615aab565b50610120820151816009019081612ec79190615aab565b5061014082015181600a019080519060200190612ee5929190613fa4565b5061016082015181600b015561018082015181600c01556101a082015181600d019080519060200190612f19929190613fa4565b506101c082015181600e019080519060200190612f3792919061402b565b506101e082015181600f0155610200820151816010019081612f599190615aab565b5050506020820151816011015f6101000a81548160ff02191690836004811115612f8657612f8561458a565b5b02179055506040820151816012015590505060045f815480929190612faa90615a64565b919050555080604001519150509998505050505050505050565b6002602052805f5260405f205f91509050805f01604051806102200160405290815f82015f9054906101000a900473ffffffffffffffffffffffffffffffffffffffff1673ffffffffffffffffffffffffffffffffffffffff1673ffffffffffffffffffffffffffffffffffffffff168152602001600182015f9054906101000a900473ffffffffffffffffffffffffffffffffffffffff1673ffffffffffffffffffffffffffffffffffffffff1673ffffffffffffffffffffffffffffffffffffffff168152602001600282015481526020016003820154815260200160048201548152602001600582015481526020016006820180546130c590614e1d565b80601f01602080910402602001604051908101604052809291908181526020018280546130f190614e1d565b801561313c5780601f106131135761010080835404028352916020019161313c565b820191905f5260205f20905b81548152906001019060200180831161311f57829003601f168201915b5050505050815260200160078201805461315590614e1d565b80601f016020809104026020016040519081016040528092919081815260200182805461318190614e1d565b80156131cc5780601f106131a3576101008083540402835291602001916131cc565b820191905f5260205f20905b8154815290600101906020018083116131af57829003601f168201915b505050505081526020016008820180546131e590614e1d565b80601f016020809104026020016040519081016040528092919081815260200182805461321190614e1d565b801561325c5780601f106132335761010080835404028352916020019161325c565b820191905f5260205f20905b81548152906001019060200180831161323f57829003601f168201915b5050505050815260200160098201805461327590614e1d565b80601f01602080910402602001604051908101604052809291908181526020018280546132a190614e1d565b80156132ec5780601f106132c3576101008083540402835291602001916132ec565b820191905f5260205f20905b8154815290600101906020018083116132cf57829003601f168201915b50505050508152602001600a820180548060200260200160405190810160405280929190818152602001828054801561337757602002820191905f5260205f20905b815f9054906101000a900473ffffffffffffffffffffffffffffffffffffffff1673ffffffffffffffffffffffffffffffffffffffff168152602001906001019080831161332e575b50505050508152602001600b8201548152602001600c8201548152602001600d820180548060200260200160405190810160405280929190818152602001828054801561341657602002820191905f5260205f20905b815f9054906101000a900473ffffffffffffffffffffffffffffffffffffffff1673ffffffffffffffffffffffffffffffffffffffff16815260200190600101908083116133cd575b50505050508152602001600e820180548060200260200160405190810160405280929190818152602001828054801561346c57602002820191905f5260205f20905b815481526020019060010190808311613458575b50505050508152602001600f820154815260200160108201805461348f90614e1d565b80601f01602080910402602001604051908101604052809291908181526020018280546134bb90614e1d565b80156135065780601f106134dd57610100808354040283529160200191613506565b820191905f5260205f20905b8154815290600101906020018083116134e957829003601f168201915b50505050508152505090806011015f9054906101000a900460ff16908060120154905083565b60025f8281526020019081526020015f205f015f015f9054906101000a900473ffffffffffffffffffffffffffffffffffffffff1673ffffffffffffffffffffffffffffffffffffffff163373ffffffffffffffffffffffffffffffffffffffff16146135ce576040517f08c379a00000000000000000000000000000000000000000000000000000000081526004016135c590615555565b60405180910390fd5b600260048111156135e2576135e161458a565b5b60025f8381526020019081526020015f206011015f9054906101000a900460ff1660048111156136155761361461458a565b5b14613655576040517f08c379a000000000000000000000000000000000000000000000000000000000815260040161364c90615bc4565b60405180910390fd5b60025f8281526020019081526020015f205f015f015f9054906101000a900473ffffffffffffffffffffffffffffffffffffffff1673ffffffffffffffffffffffffffffffffffffffff166108fc60025f8481526020019081526020015f205f01600b015490811502906040515f60405180830381858888f193505050501580156136e2573d5f803e3d5ffd5b50600360025f8381526020019081526020015f206011015f6101000a81548160ff0219169083600481111561371a5761371961458a565b5b021790555050565b5f60025f8681526020019081526020015f2090505f8054906101000a900473ffffffffffffffffffffffffffffffffffffffff1673ffffffffffffffffffffffffffffffffffffffff16630b971338336040518263ffffffff1660e01b815260040161378e9190614679565b602060405180830381865afa1580156137a9573d5f803e3d5ffd5b505050506040513d601f19601f820116820180604052508101906137cd9190614f88565b61380c576040517f08c379a000000000000000000000000000000000000000000000000000000000815260040161380390615c2c565b60405180910390fd5b805f01600301544211613854576040517f08c379a000000000000000000000000000000000000000000000000000000000815260040161384b90615c94565b60405180910390fd5b805f0160040154421061389c576040517f08c379a000000000000000000000000000000000000000000000000000000000815260040161389390615cfc565b60405180910390fd5b600260048111156138b0576138af61458a565b5b816011015f9054906101000a900460ff1660048111156138d3576138d261458a565b5b14613913576040517f08c379a000000000000000000000000000000000000000000000000000000000815260040161390a90615bc4565b60405180910390fd5b805f01600b0154841061395b576040517f08c379a000000000000000000000000000000000000000000000000000000000815260040161395290615d64565b60405180910390fd5b805f01600d018281548110613973576139726159cf565b5b905f5260205f20015f9054906101000a900473ffffffffffffffffffffffffffffffffffffffff1673ffffffffffffffffffffffffffffffffffffffff163373ffffffffffffffffffffffffffffffffffffffff1614613a08576040517f08c379a00000000000000000000000000000000000000000000000000000000081526004016139ff90615dcc565b60405180910390fd5b34815f01600c015414613a50576040517f08c379a0000000000000000000000000000000000000000000000000000000008152600401613a4790615e5a565b60405180910390fd5b8284613a5c919061520e565b604051602001613a6c9190615e98565b604051602081830303815290604052805190602001205f1c815f01600e018381548110613a9c57613a9b6159cf565b5b905f5260205f20015414613ae5576040517f08c379a0000000000000000000000000000000000000000000000000000000008152600401613adc90615f22565b60405180910390fd5b5f73ffffffffffffffffffffffffffffffffffffffff16815f016001015f9054906101000a900473ffffffffffffffffffffffffffffffffffffffff1673ffffffffffffffffffffffffffffffffffffffff1614613bad57805f016001015f9054906101000a900473ffffffffffffffffffffffffffffffffffffffff1673ffffffffffffffffffffffffffffffffffffffff166108fc825f01600c015490811502906040515f60405180830381858888f19350505050158015613bab573d5f803e3d5ffd5b505b6001816011015f6101000a81548160ff02191690836004811115613bd457613bd361458a565b5b021790555033815f016001015f6101000a81548173ffffffffffffffffffffffffffffffffffffffff021916908373ffffffffffffffffffffffffffffffffffffffff16021790555083815f01600f01819055508060025f8781526020019081526020015f205f8201815f015f82015f9054906101000a900473ffffffffffffffffffffffffffffffffffffffff16815f015f6101000a81548173ffffffffffffffffffffffffffffffffffffffff021916908373ffffffffffffffffffffffffffffffffffffffff160217905550600182015f9054906101000a900473ffffffffffffffffffffffffffffffffffffffff16816001015f6101000a81548173ffffffffffffffffffffffffffffffffffffffff021916908373ffffffffffffffffffffffffffffffffffffffff1602179055506002820154816002015560038201548160030155600482015481600401556005820154816005015560068201816006019081613d449190615426565b5060078201816007019081613d599190615426565b5060088201816008019081613d6e9190615426565b5060098201816009019081613d839190615426565b50600a820181600a01908054613d9a929190613f08565b50600b82015481600b0155600c82015481600c0155600d820181600d01908054613dc5929190613f08565b50600e820181600e01908054613ddc929190613f56565b50600f82015481600f015560108201816010019081613dfb9190615426565b505050601182015f9054906101000a900460ff16816011015f6101000a81548160ff02191690836004811115613e3457613e3361458a565b5b0217905550601282015481601201559050505050505050565b5f805f90505b8351811015613ec6578273ffffffffffffffffffffffffffffffffffffffff16848281518110613e8657613e856159cf565b5b602002602001015173ffffffffffffffffffffffffffffffffffffffff1603613eb3576001915050613ecb565b8080613ebe90615a64565b915050613e53565b505f90505b92915050565b6040518060600160405280613ee4614076565b81526020015f6004811115613efc57613efb61458a565b5b81526020015f81525090565b828054828255905f5260205f20908101928215613f45575f5260205f209182015b82811115613f44578254825591600101919060010190613f29565b5b509050613f52919061411d565b5090565b828054828255905f5260205f20908101928215613f93575f5260205f209182015b82811115613f92578254825591600101919060010190613f77565b5b509050613fa0919061411d565b5090565b828054828255905f5260205f2090810192821561401a579160200282015b82811115614019578251825f6101000a81548173ffffffffffffffffffffffffffffffffffffffff021916908373ffffffffffffffffffffffffffffffffffffffff16021790555091602001919060010190613fc2565b5b509050614027919061411d565b5090565b828054828255905f5260205f20908101928215614065579160200282015b82811115614064578251825591602001919060010190614049565b5b509050614072919061411d565b5090565b6040518061022001604052805f73ffffffffffffffffffffffffffffffffffffffff1681526020015f73ffffffffffffffffffffffffffffffffffffffff1681526020015f81526020015f81526020015f81526020015f815260200160608152602001606081526020016060815260200160608152602001606081526020015f81526020015f815260200160608152602001606081526020015f8152602001606081525090565b5b80821115614134575f815f90555060010161411e565b5090565b5f604051905090565b5f80fd5b5f80fd5b5f819050919050565b61415b81614149565b8114614165575f80fd5b50565b5f8135905061417681614152565b92915050565b5f6020828403121561419157614190614141565b5b5f61419e84828501614168565b91505092915050565b5f73ffffffffffffffffffffffffffffffffffffffff82169050919050565b5f6141d0826141a7565b9050919050565b6141e0816141c6565b82525050565b6141ef81614149565b82525050565b5f81519050919050565b5f82825260208201905092915050565b5f5b8381101561422c578082015181840152602081019050614211565b5f8484015250505050565b5f601f19601f8301169050919050565b5f614251826141f5565b61425b81856141ff565b935061426b81856020860161420f565b61427481614237565b840191505092915050565b5f81519050919050565b5f82825260208201905092915050565b5f819050602082019050919050565b5f6142b2826141a7565b9050919050565b6142c2816142a8565b82525050565b5f6142d383836142b9565b60208301905092915050565b5f602082019050919050565b5f6142f58261427f565b6142ff8185614289565b935061430a83614299565b805f5b8381101561433a57815161432188826142c8565b975061432c836142df565b92505060018101905061430d565b5085935050505092915050565b5f81519050919050565b5f82825260208201905092915050565b5f819050602082019050919050565b5f61437b83836141e6565b60208301905092915050565b5f602082019050919050565b5f61439d82614347565b6143a78185614351565b93506143b283614361565b805f5b838110156143e25781516143c98882614370565b97506143d483614387565b9250506001810190506143b5565b5085935050505092915050565b5f61022083015f8301516144055f8601826141d7565b50602083015161441860208601826141d7565b50604083015161442b60408601826141e6565b50606083015161443e60608601826141e6565b50608083015161445160808601826141e6565b5060a083015161446460a08601826141e6565b5060c083015184820360c086015261447c8282614247565b91505060e083015184820360e08601526144968282614247565b9150506101008301518482036101008601526144b28282614247565b9150506101208301518482036101208601526144ce8282614247565b9150506101408301518482036101408601526144ea82826142eb565b9150506101608301516145016101608601826141e6565b506101808301516145166101808601826141e6565b506101a08301518482036101a086015261453082826142eb565b9150506101c08301518482036101c086015261454c8282614393565b9150506101e08301516145636101e08601826141e6565b5061020083015184820361020086015261457d8282614247565b9150508091505092915050565b7f4e487b71000000000000000000000000000000000000000000000000000000005f52602160045260245ffd5b600581106145c8576145c761458a565b5b50565b5f8190506145d8826145b7565b919050565b5f6145e7826145cb565b9050919050565b6145f7816145dd565b82525050565b5f606083015f8301518482035f86015261461782826143ef565b915050602083015161462c60208601826145ee565b50604083015161463f60408601826141e6565b508091505092915050565b5f6020820190508181035f83015261466281846145fd565b905092915050565b614673816142a8565b82525050565b5f60208201905061468c5f83018461466a565b92915050565b5f81519050919050565b5f82825260208201905092915050565b5f819050602082019050919050565b5f606083015f8301518482035f8601526146d582826143ef565b91505060208301516146ea60208601826145ee565b5060408301516146fd60408601826141e6565b508091505092915050565b5f61471383836146bb565b905092915050565b5f602082019050919050565b5f61473182614692565b61473b818561469c565b93508360208202850161474d856146ac565b805f5b8581101561478857848403895281516147698582614708565b94506147748361471b565b925060208a01995050600181019050614750565b50829750879550505050505092915050565b5f6020820190508181035f8301526147b28184614727565b905092915050565b6147c381614149565b82525050565b5f6020820190506147dc5f8301846147ba565b92915050565b5f61022083015f8301516147f85f8601826141d7565b50602083015161480b60208601826141d7565b50604083015161481e60408601826141e6565b50606083015161483160608601826141e6565b50608083015161484460808601826141e6565b5060a083015161485760a08601826141e6565b5060c083015184820360c086015261486f8282614247565b91505060e083015184820360e08601526148898282614247565b9150506101008301518482036101008601526148a58282614247565b9150506101208301518482036101208601526148c18282614247565b9150506101408301518482036101408601526148dd82826142eb565b9150506101608301516148f46101608601826141e6565b506101808301516149096101808601826141e6565b506101a08301518482036101a086015261492382826142eb565b9150506101c08301518482036101c086015261493f8282614393565b9150506101e08301516149566101e08601826141e6565b506102008301518482036102008601526149708282614247565b9150508091505092915050565b614986816145dd565b82525050565b5f6060820190508181035f8301526149a481866147e2565b90506149b3602083018561497d565b6149c060408301846147ba565b949350505050565b5f80604083850312156149de576149dd614141565b5b5f6149eb85828601614168565b92505060206149fc85828601614168565b9150509250929050565b5f80fd5b5f80fd5b7f4e487b71000000000000000000000000000000000000000000000000000000005f52604160045260245ffd5b614a4482614237565b810181811067ffffffffffffffff82111715614a6357614a62614a0e565b5b80604052505050565b5f614a75614138565b9050614a818282614a3b565b919050565b5f67ffffffffffffffff821115614aa057614a9f614a0e565b5b614aa982614237565b9050602081019050919050565b828183375f83830152505050565b5f614ad6614ad184614a86565b614a6c565b905082815260208101848484011115614af257614af1614a0a565b5b614afd848285614ab6565b509392505050565b5f82601f830112614b1957614b18614a06565b5b8135614b29848260208601614ac4565b91505092915050565b5f67ffffffffffffffff821115614b4c57614b4b614a0e565b5b602082029050602081019050919050565b5f80fd5b614b6a816142a8565b8114614b74575f80fd5b50565b5f81359050614b8581614b61565b92915050565b5f614b9d614b9884614b32565b614a6c565b90508083825260208201905060208402830185811115614bc057614bbf614b5d565b5b835b81811015614be95780614bd58882614b77565b845260208401935050602081019050614bc2565b5050509392505050565b5f82601f830112614c0757614c06614a06565b5b8135614c17848260208601614b8b565b91505092915050565b5f805f805f805f805f6101208a8c031215614c3e57614c3d614141565b5b5f614c4b8c828d01614168565b9950506020614c5c8c828d01614168565b98505060408a013567ffffffffffffffff811115614c7d57614c7c614145565b5b614c898c828d01614b05565b97505060608a013567ffffffffffffffff811115614caa57614ca9614145565b5b614cb68c828d01614b05565b96505060808a013567ffffffffffffffff811115614cd757614cd6614145565b5b614ce38c828d01614b05565b95505060a08a013567ffffffffffffffff811115614d0457614d03614145565b5b614d108c828d01614b05565b94505060c0614d218c828d01614168565b93505060e08a013567ffffffffffffffff811115614d4257614d41614145565b5b614d4e8c828d01614b05565b9250506101008a013567ffffffffffffffff811115614d7057614d6f614145565b5b614d7c8c828d01614bf3565b9150509295985092959850929598565b5f805f8060808587031215614da457614da3614141565b5b5f614db187828801614168565b9450506020614dc287828801614168565b9350506040614dd387828801614168565b9250506060614de487828801614168565b91505092959194509250565b7f4e487b71000000000000000000000000000000000000000000000000000000005f52602260045260245ffd5b5f6002820490506001821680614e3457607f821691505b602082108103614e4757614e46614df0565b5b50919050565b5f82825260208201905092915050565b7f6e6f2077696e6e657220666f72206f70656e2074656e646572000000000000005f82015250565b5f614e91601983614e4d565b9150614e9c82614e5d565b602082019050919050565b5f6020820190508181035f830152614ebe81614e85565b9050919050565b7f74656e646572206d75737420626520706173742072657665616c20706572696f5f8201527f6400000000000000000000000000000000000000000000000000000000000000602082015250565b5f614f1f602183614e4d565b9150614f2a82614ec5565b604082019050919050565b5f6020820190508181035f830152614f4c81614f13565b9050919050565b5f8115159050919050565b614f6781614f53565b8114614f71575f80fd5b50565b5f81519050614f8281614f5e565b92915050565b5f60208284031215614f9d57614f9c614141565b5b5f614faa84828501614f74565b91505092915050565b7f53656e646572206d757374206265206120686f73706974616c000000000000005f82015250565b5f614fe7601983614e4d565b9150614ff282614fb3565b602082019050919050565b5f6020820190508181035f83015261501481614fdb565b9050919050565b7f54656e646572206e6f7420696e2070726f6772657373000000000000000000005f82015250565b5f61504f601683614e4d565b915061505a8261501b565b602082019050919050565b5f6020820190508181035f83015261507c81615043565b9050919050565b7f54656e646572206973206e6f7420726561647920746f20626520636c61696d655f8201527f6420796574000000000000000000000000000000000000000000000000000000602082015250565b5f6150dd602583614e4d565b91506150e882615083565b604082019050919050565b5f6020820190508181035f83015261510a816150d1565b9050919050565b7f54656e64657220686173206578706972656400000000000000000000000000005f82015250565b5f615145601283614e4d565b915061515082615111565b602082019050919050565b5f6020820190508181035f83015261517281615139565b9050919050565b7f73656e646572206e6f7420616e20616c6c6f77656420686f73706974616c73005f82015250565b5f6151ad601f83614e4d565b91506151b882615179565b602082019050919050565b5f6020820190508181035f8301526151da816151a1565b9050919050565b7f4e487b71000000000000000000000000000000000000000000000000000000005f52601160045260245ffd5b5f61521882614149565b915061522383614149565b925082820190508082111561523b5761523a6151e1565b5b92915050565b5f61524b82614149565b915061525683614149565b925082820390508181111561526e5761526d6151e1565b5b92915050565b5f8154905061528281614e1d565b9050919050565b5f819050815f5260205f209050919050565b5f6020601f8301049050919050565b5f82821b905092915050565b5f600883026152e57fffffffffffffffffffffffffffffffffffffffffffffffffffffffffffffffff826152aa565b6152ef86836152aa565b95508019841693508086168417925050509392505050565b5f819050919050565b5f61532a61532561532084614149565b615307565b614149565b9050919050565b5f819050919050565b61534383615310565b61535761534f82615331565b8484546152b6565b825550505050565b5f90565b61536b61535f565b61537681848461533a565b505050565b5b818110156153995761538e5f82615363565b60018101905061537c565b5050565b601f8211156153de576153af81615289565b6153b88461529b565b810160208510156153c7578190505b6153db6153d38561529b565b83018261537b565b50505b505050565b5f82821c905092915050565b5f6153fe5f19846008026153e3565b1980831691505092915050565b5f61541683836153ef565b9150826002028217905092915050565b818103615434575050615509565b61543d82615274565b67ffffffffffffffff81111561545657615455614a0e565b5b6154608254614e1d565b61546b82828561539d565b5f601f831160018114615498575f8415615486578287015490505b615490858261540b565b865550615502565b601f1984166154a687615289565b96506154b186615289565b5f5b828110156154d8578489015482556001820191506001850194506020810190506154b3565b868310156154f557848901546154f1601f8916826153ef565b8355505b6001600288020188555050505b5050505050505b565b7f73656e646572206973206e6f74207468652074656e64657220706f73746572005f82015250565b5f61553f601f83614e4d565b915061554a8261550b565b602082019050919050565b5f6020820190508181035f83015261556c81615533565b9050919050565b7f74656e646572206973206e6f7420696e2070726f6772657373000000000000005f82015250565b5f6155a7601983614e4d565b91506155b282615573565b602082019050919050565b5f6020820190508181035f8301526155d48161559b565b9050919050565b7f74656e646572206163636570746572206973206e6f74207468652061646472655f8201527f7373207365740000000000000000000000000000000000000000000000000000602082015250565b5f615635602683614e4d565b9150615640826155db565b604082019050919050565b5f6020820190508181035f83015261566281615629565b9050919050565b7f61756374696f6e20706572696f64206973206f766572000000000000000000005f82015250565b5f61569d601683614e4d565b91506156a882615669565b602082019050919050565b5f6020820190508181035f8301526156ca81615691565b9050919050565b7f73656e646572206d75737420626520616e20616d62756c616e636500000000005f82015250565b5f615705601b83614e4d565b9150615710826156d1565b602082019050919050565b5f6020820190508181035f830152615732816156f9565b9050919050565b7f74656e646572206d757374206265206f70656e000000000000000000000000005f82015250565b5f61576d601383614e4d565b915061577882615739565b602082019050919050565b5f6020820190508181035f83015261579a81615761565b9050919050565b7f61756374696f6e20706572696f642068617320706173736564000000000000005f82015250565b5f6157d5601983614e4d565b91506157e0826157a1565b602082019050919050565b5f6020820190508181035f830152615802816157c9565b9050919050565b7f73656e742070656e616c747920616d6f756e7420646f6573206e6f74206d61745f8201527f63682074656e6465720000000000000000000000000000000000000000000000602082015250565b5f615863602983614e4d565b915061586e82615809565b604082019050919050565b5f6020820190508181035f83015261589081615857565b9050919050565b7f63616e206f6e6c7920626964206f6e63650000000000000000000000000000005f82015250565b5f6158cb601183614e4d565b91506158d682615897565b602082019050919050565b5f6020820190508181035f8301526158f8816158bf565b9050919050565b7f73656e646572206d7573742062652074656e64657220696e69746961746f72005f82015250565b5f615933601f83614e4d565b915061593e826158ff565b602082019050919050565b5f6020820190508181035f83015261596081615927565b9050919050565b7f6d617876616c206d7573742062652067726561746572207468616e20300000005f82015250565b5f61599b601d83614e4d565b91506159a682615967565b602082019050919050565b5f6020820190508181035f8301526159c88161598f565b9050919050565b7f4e487b71000000000000000000000000000000000000000000000000000000005f52603260045260245ffd5b7f676976656e20686f73706974616c206c69737420696e76616c696400000000005f82015250565b5f615a30601b83614e4d565b9150615a3b826159fc565b602082019050919050565b5f6020820190508181035f830152615a5d81615a24565b9050919050565b5f615a6e82614149565b91507fffffffffffffffffffffffffffffffffffffffffffffffffffffffffffffffff8203615aa057615a9f6151e1565b5b600182019050919050565b615ab4826141f5565b67ffffffffffffffff811115615acd57615acc614a0e565b5b615ad78254614e1d565b615ae282828561539d565b5f60209050601f831160018114615b13575f8415615b01578287015190505b615b0b858261540b565b865550615b72565b601f198416615b2186615289565b5f5b82811015615b4857848901518255600182019150602085019450602081019050615b23565b86831015615b655784890151615b61601f8916826153ef565b8355505b6001600288020188555050505b505050505050565b7f74656e646572206973206e6f74206f70656e00000000000000000000000000005f82015250565b5f615bae601283614e4d565b9150615bb982615b7a565b602082019050919050565b5f6020820190508181035f830152615bdb81615ba2565b9050919050565b7f73656e646572206d75737420626520616d62756c616e636500000000000000005f82015250565b5f615c16601883614e4d565b9150615c2182615be2565b602082019050919050565b5f6020820190508181035f830152615c4381615c0a565b9050919050565b7f74656e646572207374696c6c20756e6465722061756374696f6e0000000000005f82015250565b5f615c7e601a83614e4d565b9150615c8982615c4a565b602082019050919050565b5f6020820190508181035f830152615cab81615c72565b9050919050565b7f74656e64657220697320706173742072657665616c20706572696f64000000005f82015250565b5f615ce6601c83614e4d565b9150615cf182615cb2565b602082019050919050565b5f6020820190508181035f830152615d1381615cda565b9050919050565b7f62696420776173206e6f742062656c6f77206d61782062696420616d6f756e745f82015250565b5f615d4e602083614e4d565b9150615d5982615d1a565b602082019050919050565b5f6020820190508181035f830152615d7b81615d42565b9050919050565b7f77726f6e672062696420494400000000000000000000000000000000000000005f82015250565b5f615db6600c83614e4d565b9150615dc182615d82565b602082019050919050565b5f6020820190508181035f830152615de381615daa565b9050919050565b7f646964206e6f742073656e6420636f72726563742070656e616c747920616d6f5f8201527f756e740000000000000000000000000000000000000000000000000000000000602082015250565b5f615e44602383614e4d565b9150615e4f82615dea565b604082019050919050565b5f6020820190508181035f830152615e7181615e38565b9050919050565b5f819050919050565b615e92615e8d82614149565b615e78565b82525050565b5f615ea38284615e81565b60208201915081905092915050565b7f6269642076616c756520646f6573206e6f74206d6174636820686173686564205f8201527f76616c7565000000000000000000000000000000000000000000000000000000602082015250565b5f615f0c602583614e4d565b9150615f1782615eb2565b604082019050919050565b5f6020820190508181035f830152615f3981615f00565b905091905056fea26469706673582212203960a9adf1f7fe6b637ea567500074eb337cc9436af626fa56e7b82dfc540f3264736f6c63430008140033",
  "immutableReferences": {},
  "source": "// SPDX-License-Identifier: UNLICENSED \r\npragma solidity ^0.8.0;\r\n\r\nimport \"./Accounts.sol\";\r\n\r\ncontract Auctions {\r\n    // initialize accounts contract\r\n    Accounts accountsContract;\r\n\r\n    // constants\r\n    uint256 constant MAX_INT = 2**256 - 1;\r\n    uint256 constant REVEAL_PERIOD = 300;\r\n\r\n    // enum for various possible tender status's, closed is default\r\n    enum TenderStatus {\r\n        Closed,\r\n        InProgress,\r\n        Open,\r\n        Retracted,\r\n        Reclaimed\r\n    }\r\n\r\n    // helper struct for tender details\r\n     struct TenderDetails {\r\n        address payable tenderPoster;\r\n        address payable tenderAccepter;\r\n        uint256 postDate;\r\n        uint256 auctionDate;\r\n        uint256 revealDate;\r\n        uint256 dueDate;\r\n        string addr;\r\n        string city;\r\n        string state;\r\n        string zipcode;\r\n        address[] allowedHospitals;\r\n        uint256 maxBid;\r\n        uint256 penalty;\r\n        // Maps an address to its bid. This enforces one bid per address, \r\n        //so that ambulances do not just bid as many prices as they can, \r\n        //and then reveal lower and lower bids during the reveal period.\r\n        // We use 2 arrays because we can't have nested mappings in Solidity.\r\n        address[] bidders;\r\n        uint[] bidHashArray;\r\n        uint256 finalBid;\r\n        string severity;\r\n    }\r\n\r\n    // struct to hold tender information\r\n    struct Tender {\r\n        TenderDetails details;\r\n        TenderStatus status;\r\n        uint256 tenderId;\r\n    }\r\n\r\n    // data members for tenders\r\n    uint256[] public tenderIds; // list of all tenders\r\n    mapping(uint256 => Tender) public tenderMapping; // mapping for faster tender lookup\r\n    Tender[] public tenders;\r\n    uint256 tenderIdCounter = 0;\r\n\r\n    // constructor, references the Accounts contract address\r\n    constructor(address contractAddress) {\r\n        accountsContract = Accounts(contractAddress);\r\n    }\r\n\r\n    /*\r\n    * Function posts new tender from initiator and begins the auction for the tender\r\n    *\r\n    * @param timeLimit - length of the auction period\r\n    * @param deliveryTime - how long the ambulance has to transport the patient after auction and reveal\r\n    * @param addr - address of the tender location\r\n    * @param city - city of the tender location\r\n    * @param state - state of the tender location\r\n    * @param penalty - penalty amount charged for lack of delivery for accepted tender\r\n    * @param severity - severity of the tender patient\r\n    * @param allowedHospitals - list of valid hospitals to be transported to\r\n    * @returns - returns the id of the new tender posted\r\n    * Note: msg.value is the max bid\r\n    */\r\n    function postTender(\r\n        uint256 timeLimit,\r\n        uint256 deliveryTime,\r\n        string memory addr,\r\n        string memory city,\r\n        string memory state,\r\n        string memory zipcode,\r\n        uint256 penalty,\r\n        string memory severity,\r\n        address[] memory allowedHospitals\r\n    ) public payable returns (uint256) {\r\n        require(accountsContract.isInitiator(msg.sender), \"sender must be tender initiator\");\r\n        require(msg.value > 0, \"maxval must be greater than 0\");\r\n\r\n        // validate allowed hospitals given are valid hospitals\r\n        for (uint256 i = 0; i < allowedHospitals.length; i++) {\r\n            require(accountsContract.isHospital(allowedHospitals[i]), \"given hospital list invalid\");\r\n        }\r\n\r\n        // initalize new tender information\r\n        Tender memory newTender;\r\n        newTender.tenderId = tenderIdCounter;\r\n        newTender.details.tenderPoster = payable(msg.sender);\r\n        newTender.status = TenderStatus.Open; // open tender\r\n        \r\n        // set important dates for tender\r\n        newTender.details.postDate = block.timestamp; // set post date to current time\r\n        newTender.details.auctionDate = block.timestamp + timeLimit; // sets auction end date w/ time limit given\r\n        newTender.details.revealDate = block.timestamp + timeLimit + REVEAL_PERIOD; // sets reveal peiod end date\r\n        newTender.details.dueDate = block.timestamp + timeLimit + REVEAL_PERIOD + deliveryTime; // set due date for tender\r\n\r\n        // set tender information\r\n        newTender.details.finalBid = MAX_INT; // set current bid to max possible integer\r\n        newTender.details.maxBid = msg.value; // set maximum bid to msg.value\r\n        newTender.details.penalty = penalty;\r\n        newTender.details.allowedHospitals = allowedHospitals;\r\n\r\n        // patient location and details\r\n        newTender.details.addr = addr;\r\n        newTender.details.city = city;\r\n        newTender.details.state = state;\r\n        newTender.details.zipcode = zipcode;\r\n        newTender.details.severity = severity;\r\n        \r\n        // push new tender and adjust mappings accordingly\r\n        tenders.push(newTender); \r\n        tenderMapping[tenderIdCounter] = newTender;\r\n        tenderIdCounter++;\r\n        return newTender.tenderId;\r\n    }\r\n\r\n    /*\r\n    * Function places a secret bid by an ambulance. Each ambulance receives only 1 bid\r\n    *\r\n    * @param tenderId - the ID of the tender being bid on\r\n    * @param bidHashedAmount - the hash value of the bid being places (bid + random salt value)\r\n    * @returns the ID of the ambulances bid, used for revealing\r\n    */\r\n    function secretBid(uint256 tenderId, uint256 bidHashedAmount) public payable returns(uint256 index) {\r\n        Tender memory tender = tenderMapping[tenderId];\r\n        require(accountsContract.isAmbulance(msg.sender), \"sender must be an ambulance\");\r\n        require(tender.status == TenderStatus.Open, \"tender must be open\");\r\n        require (block.timestamp < tender.details.dueDate, \"auction period has passed\");\r\n        require(msg.value == tender.details.penalty, \"sent penalty amount does not match tender\");\r\n        require(!contains(tender.details.bidders, msg.sender), \"can only bid once\");\r\n\r\n        // add bid to array\r\n        tenderMapping[tenderId].details.bidders.push(msg.sender);\r\n        tenderMapping[tenderId].details.bidHashArray.push(bidHashedAmount);\r\n        return tenderMapping[tenderId].details.bidders.length - 1;\r\n    }\r\n\r\n    /*\r\n    * Function is used to reveal winning bids after the auction period ends\r\n    * \r\n    * @param tenderId - ID of tender being revealed\r\n    * @param bidVal - amount bid by the ambulance\r\n    * @param saltVal - the random salt integer used in secretBid\r\n    * @param index - index of placed secret bid\r\n    */\r\n    function revealBid(\r\n        uint256 tenderId,\r\n        uint256 bidVal,\r\n        uint256 salt,\r\n        uint256 index\r\n    ) public payable {\r\n        Tender storage tender = tenderMapping[tenderId];\r\n        require(accountsContract.isAmbulance(msg.sender), \"sender must be ambulance\");\r\n        require(block.timestamp > tender.details.auctionDate, \"tender still under auction\");\r\n        require(block.timestamp < tender.details.revealDate, \"tender is past reveal period\");\r\n        require(tender.status == TenderStatus.Open, \"tender is not open\");\r\n        //require(bidVal < tender.details.finalBid, \"bid was not below winning bid\");\r\n        require(bidVal < tender.details.maxBid, \"bid was not below max bid amount\");\r\n        require(msg.sender == tender.details.bidders[index], \"wrong bid ID\");\r\n        require(tender.details.penalty == msg.value, \"did not send correct penalty amount\");\r\n        require(tender.details.bidHashArray[index] == uint256(keccak256(abi.encodePacked(bidVal + salt))), \"bid value does not match hashed value\");\r\n\r\n        // if job was already assigned, refund \r\n        if (tender.details.tenderAccepter != address(0)) {\r\n            tender.details.tenderAccepter.transfer(\r\n                tender.details.penalty\r\n            );\r\n        }\r\n        \r\n        // update tender information\r\n        tender.status = TenderStatus.InProgress;\r\n        tender.details.tenderAccepter = payable(msg.sender);\r\n        tender.details.finalBid = bidVal;\r\n\r\n        // set new info to tender mapping\r\n        tenderMapping[tenderId] = tender;\r\n    }\r\n\r\n    /*\r\n    * this function is called upon delivery of a patient where the ambulance is then paid for delivery\r\n    *\r\n    * @param tenderId - id of the tender where delivery is being verified \r\n    */\r\n    function verifyDelivery(uint256 tenderId) public {\r\n        require(accountsContract.isHospital(msg.sender), \"Sender must be a hospital\");\r\n        require(\r\n            tenderMapping[tenderId].status == TenderStatus.InProgress,\r\n            \"Tender not in progress\"\r\n        );\r\n        require(\r\n            block.timestamp >\r\n                tenderMapping[tenderId].details.revealDate,\r\n            \"Tender is not ready to be claimed yet\"\r\n        );\r\n\r\n        /* remove after implementing late charge */\r\n        require(\r\n            block.timestamp < tenderMapping[tenderId].details.dueDate,\r\n            \"Tender has expired\"\r\n        );\r\n        require(contains(tenderMapping[tenderId].details.allowedHospitals, msg.sender), \"sender not an allowed hospitals\");\r\n\r\n        /* potentially add paying without penalty amount if late */ \r\n        // transfer agreed upon funds to the tender accepter\r\n        tenderMapping[tenderId].details.tenderAccepter.transfer(\r\n            tenderMapping[tenderId].details.finalBid + tenderMapping[tenderId].details.penalty\r\n        );\r\n\r\n        // transfer funds back to the tender poster\r\n        if (tenderMapping[tenderId].details.maxBid - tenderMapping[tenderId].details.finalBid > 0) {\r\n            tenderMapping[tenderId].details.tenderPoster.transfer(\r\n                tenderMapping[tenderId].details.maxBid -\r\n                    tenderMapping[tenderId].details.finalBid\r\n            );\r\n        }\r\n        \r\n        // close the tender\r\n        Tender storage referencedTender = tenderMapping[tenderId];\r\n        referencedTender.status = TenderStatus.Closed;\r\n        tenderMapping[tenderId] = referencedTender;\r\n    }\r\n\r\n    /*\r\n     * get all the tenders present in tenders array\r\n     *\r\n     * @returns all tenders on the blockchain\r\n     */\r\n    function getAllTenders() public view returns (Tender[] memory) {\r\n        return tenders;\r\n    }\r\n\r\n    /*\r\n     * Get a tender from a given tenderID\r\n     *\r\n     * @param tenderId - given tenderID\r\n     *\r\n     * @returns a single tender with given tenderId\r\n     */\r\n     function getTender(uint256 tenderId) public view returns (Tender memory) {\r\n        return tenderMapping[tenderId];\r\n     }\r\n\r\n    /*\r\n     * get the winner of an auction\r\n     *\r\n     * @param tenderId - given tender ID\r\n     */\r\n    function getAuctionWinner(uint256 tenderId) public view returns (address tenderWinner) {\r\n        require(\r\n            tenderMapping[tenderId].status != TenderStatus.Open,\r\n            \"no winner for open tender\"\r\n        );\r\n        require(\r\n            block.timestamp <\r\n                tenderMapping[tenderId].details.revealDate,\r\n                \"tender must be past reveal period\"\r\n        );\r\n\r\n        return tenderMapping[tenderId].details.tenderAccepter;\r\n    } \r\n\r\n    /*\r\n     * allows police stations to reclaim their funds + the penalty for failed jobs\r\n     *\r\n     * @param tenderId - ID of tender being retracted\r\n     */\r\n    function reclaimTender(uint256 tenderId) public {\r\n        require(\r\n            tenderMapping[tenderId].details.tenderPoster == msg.sender,\r\n            \"sender is not the tender poster\"\r\n        );\r\n        require(\r\n            tenderMapping[tenderId].status == TenderStatus.InProgress,\r\n            \"tender is not in progress\"\r\n        );\r\n        require(\r\n            tenderMapping[tenderId].details.tenderAccepter != address(0),\r\n            \"tender accepter is not the address set\"\r\n        );\r\n        require(tenderMapping[tenderId].details.dueDate > block.timestamp, \"auction period is over\");\r\n\r\n        tenderMapping[tenderId].details.tenderPoster.transfer(\r\n            tenderMapping[tenderId].details.maxBid + tenderMapping[tenderId].details.penalty\r\n        );\r\n\r\n        // update status of the tender\r\n        tenderMapping[tenderId].status = TenderStatus.Reclaimed;\r\n    }\r\n\r\n    /*\r\n     * remove a tender with auction in progress from auction period \r\n     *\r\n     * @param tenderId - ID of tender being retracted\r\n     */\r\n    function retractTender(uint256 tenderId) public {\r\n        require(\r\n            msg.sender == tenderMapping[tenderId].details.tenderPoster,\r\n            \"sender is not the tender poster\"\r\n        );\r\n        require(\r\n            tenderMapping[tenderId].status == TenderStatus.Open,\r\n            \"tender is not open\"\r\n        );\r\n\r\n        // can only retract a tender if bid period is over (need to add)\r\n        tenderMapping[tenderId].details.tenderPoster.transfer(\r\n            tenderMapping[tenderId].details.maxBid\r\n        );\r\n\r\n        // update status of the tender\r\n        tenderMapping[tenderId].status = TenderStatus.Retracted;\r\n    }\r\n\r\n    // This sucks, but it's one of the consequences of storing everything on the blockchain\r\n    function contains(address[] memory addresses, address addressToFind) private pure returns (bool doesContain) {\r\n        for (uint256 i = 0; i < addresses.length; i++) {\r\n            if (addresses[i] == addressToFind) {\r\n                return true;\r\n            }\r\n        }\r\n        return false;\r\n    }\r\n}",
  "sourcePath": "C:\\Users\\owen1\\Documents\\Coding\\scefsta\\truffle\\contracts\\Auctions.sol",
  "compiler": {
    "name": "solc",
    "version": "0.8.20+commit.a1b79de6.Emscripten.clang"
  },
  "schemaVersion": "3.4.14",
  "updatedAt": "2023-07-18T23:11:02.004Z",
  "networkType": "ethereum",
  "devdoc": {
    "kind": "dev",
    "methods": {},
    "version": 1
  },
  "userdoc": {
    "kind": "user",
    "methods": {},
    "version": 1
  }
}