{
  "contractName": "Auctions",
  "abi": [
    {
      "inputs": [
        {
          "internalType": "address",
          "name": "contractAddress",
          "type": "address"
        }
      ],
      "stateMutability": "nonpayable",
      "type": "constructor"
    },
    {
      "inputs": [
        {
          "internalType": "uint256",
          "name": "",
          "type": "uint256"
        }
      ],
      "name": "tenderIds",
      "outputs": [
        {
          "internalType": "uint256",
          "name": "",
          "type": "uint256"
        }
      ],
      "stateMutability": "view",
      "type": "function",
      "constant": true
    },
    {
      "inputs": [
        {
          "internalType": "uint256",
          "name": "",
          "type": "uint256"
        }
      ],
      "name": "tenderMapping",
      "outputs": [
        {
          "components": [
            {
              "internalType": "address payable",
              "name": "tenderPoster",
              "type": "address"
            },
            {
              "internalType": "address payable",
              "name": "tenderAccepter",
              "type": "address"
            },
            {
              "internalType": "uint256",
              "name": "postDate",
              "type": "uint256"
            },
            {
              "internalType": "uint256",
              "name": "auctionDate",
              "type": "uint256"
            },
            {
              "internalType": "uint256",
              "name": "revealDate",
              "type": "uint256"
            },
            {
              "internalType": "uint256",
              "name": "dueDate",
              "type": "uint256"
            },
            {
              "internalType": "string",
              "name": "addr",
              "type": "string"
            },
            {
              "internalType": "string",
              "name": "city",
              "type": "string"
            },
            {
              "internalType": "string",
              "name": "state",
              "type": "string"
            },
            {
              "internalType": "address[]",
              "name": "allowedHospitals",
              "type": "address[]"
            },
            {
              "internalType": "uint256",
              "name": "maxBid",
              "type": "uint256"
            },
            {
              "internalType": "uint256",
              "name": "penalty",
              "type": "uint256"
            },
            {
              "internalType": "address[]",
              "name": "bidders",
              "type": "address[]"
            },
            {
              "internalType": "uint256[]",
              "name": "bidHashArray",
              "type": "uint256[]"
            },
            {
              "internalType": "uint256",
              "name": "finalBid",
              "type": "uint256"
            },
            {
              "internalType": "string",
              "name": "severity",
              "type": "string"
            }
          ],
          "internalType": "struct Auctions.TenderDetails",
          "name": "details",
          "type": "tuple"
        },
        {
          "internalType": "enum Auctions.TenderStatus",
          "name": "status",
          "type": "uint8"
        },
        {
          "internalType": "uint256",
          "name": "tenderId",
          "type": "uint256"
        }
      ],
      "stateMutability": "view",
      "type": "function",
      "constant": true
    },
    {
      "inputs": [
        {
          "internalType": "uint256",
          "name": "",
          "type": "uint256"
        }
      ],
      "name": "tenders",
      "outputs": [
        {
          "components": [
            {
              "internalType": "address payable",
              "name": "tenderPoster",
              "type": "address"
            },
            {
              "internalType": "address payable",
              "name": "tenderAccepter",
              "type": "address"
            },
            {
              "internalType": "uint256",
              "name": "postDate",
              "type": "uint256"
            },
            {
              "internalType": "uint256",
              "name": "auctionDate",
              "type": "uint256"
            },
            {
              "internalType": "uint256",
              "name": "revealDate",
              "type": "uint256"
            },
            {
              "internalType": "uint256",
              "name": "dueDate",
              "type": "uint256"
            },
            {
              "internalType": "string",
              "name": "addr",
              "type": "string"
            },
            {
              "internalType": "string",
              "name": "city",
              "type": "string"
            },
            {
              "internalType": "string",
              "name": "state",
              "type": "string"
            },
            {
              "internalType": "address[]",
              "name": "allowedHospitals",
              "type": "address[]"
            },
            {
              "internalType": "uint256",
              "name": "maxBid",
              "type": "uint256"
            },
            {
              "internalType": "uint256",
              "name": "penalty",
              "type": "uint256"
            },
            {
              "internalType": "address[]",
              "name": "bidders",
              "type": "address[]"
            },
            {
              "internalType": "uint256[]",
              "name": "bidHashArray",
              "type": "uint256[]"
            },
            {
              "internalType": "uint256",
              "name": "finalBid",
              "type": "uint256"
            },
            {
              "internalType": "string",
              "name": "severity",
              "type": "string"
            }
          ],
          "internalType": "struct Auctions.TenderDetails",
          "name": "details",
          "type": "tuple"
        },
        {
          "internalType": "enum Auctions.TenderStatus",
          "name": "status",
          "type": "uint8"
        },
        {
          "internalType": "uint256",
          "name": "tenderId",
          "type": "uint256"
        }
      ],
      "stateMutability": "view",
      "type": "function",
      "constant": true
    },
    {
      "inputs": [
        {
          "internalType": "uint256",
          "name": "timeLimit",
          "type": "uint256"
        },
        {
          "internalType": "uint256",
          "name": "deliveryTime",
          "type": "uint256"
        },
        {
          "internalType": "string",
          "name": "addr",
          "type": "string"
        },
        {
          "internalType": "string",
          "name": "city",
          "type": "string"
        },
        {
          "internalType": "string",
          "name": "state",
          "type": "string"
        },
        {
          "internalType": "uint256",
          "name": "penalty",
          "type": "uint256"
        },
        {
          "internalType": "string",
          "name": "severity",
          "type": "string"
        },
        {
          "internalType": "address[]",
          "name": "allowedHospitals",
          "type": "address[]"
        }
      ],
      "name": "postTender",
      "outputs": [
        {
          "internalType": "uint256",
          "name": "",
          "type": "uint256"
        }
      ],
      "stateMutability": "payable",
      "type": "function",
      "payable": true
    },
    {
      "inputs": [
        {
          "internalType": "uint256",
          "name": "tenderId",
          "type": "uint256"
        },
        {
          "internalType": "uint256",
          "name": "bidHashedAmount",
          "type": "uint256"
        }
      ],
      "name": "secretBid",
      "outputs": [
        {
          "internalType": "uint256",
          "name": "index",
          "type": "uint256"
        }
      ],
      "stateMutability": "payable",
      "type": "function",
      "payable": true
    },
    {
      "inputs": [
        {
          "internalType": "uint256",
          "name": "tenderId",
          "type": "uint256"
        },
        {
          "internalType": "uint256",
          "name": "bidVal",
          "type": "uint256"
        },
        {
          "internalType": "uint256",
          "name": "salt",
          "type": "uint256"
        },
        {
          "internalType": "uint256",
          "name": "index",
          "type": "uint256"
        }
      ],
      "name": "revealBid",
      "outputs": [],
      "stateMutability": "payable",
      "type": "function",
      "payable": true
    },
    {
      "inputs": [
        {
          "internalType": "uint256",
          "name": "tenderId",
          "type": "uint256"
        }
      ],
      "name": "verifyDelivery",
      "outputs": [],
      "stateMutability": "nonpayable",
      "type": "function"
    },
    {
      "inputs": [],
      "name": "getAllTenders",
      "outputs": [
        {
          "components": [
            {
              "components": [
                {
                  "internalType": "address payable",
                  "name": "tenderPoster",
                  "type": "address"
                },
                {
                  "internalType": "address payable",
                  "name": "tenderAccepter",
                  "type": "address"
                },
                {
                  "internalType": "uint256",
                  "name": "postDate",
                  "type": "uint256"
                },
                {
                  "internalType": "uint256",
                  "name": "auctionDate",
                  "type": "uint256"
                },
                {
                  "internalType": "uint256",
                  "name": "revealDate",
                  "type": "uint256"
                },
                {
                  "internalType": "uint256",
                  "name": "dueDate",
                  "type": "uint256"
                },
                {
                  "internalType": "string",
                  "name": "addr",
                  "type": "string"
                },
                {
                  "internalType": "string",
                  "name": "city",
                  "type": "string"
                },
                {
                  "internalType": "string",
                  "name": "state",
                  "type": "string"
                },
                {
                  "internalType": "address[]",
                  "name": "allowedHospitals",
                  "type": "address[]"
                },
                {
                  "internalType": "uint256",
                  "name": "maxBid",
                  "type": "uint256"
                },
                {
                  "internalType": "uint256",
                  "name": "penalty",
                  "type": "uint256"
                },
                {
                  "internalType": "address[]",
                  "name": "bidders",
                  "type": "address[]"
                },
                {
                  "internalType": "uint256[]",
                  "name": "bidHashArray",
                  "type": "uint256[]"
                },
                {
                  "internalType": "uint256",
                  "name": "finalBid",
                  "type": "uint256"
                },
                {
                  "internalType": "string",
                  "name": "severity",
                  "type": "string"
                }
              ],
              "internalType": "struct Auctions.TenderDetails",
              "name": "details",
              "type": "tuple"
            },
            {
              "internalType": "enum Auctions.TenderStatus",
              "name": "status",
              "type": "uint8"
            },
            {
              "internalType": "uint256",
              "name": "tenderId",
              "type": "uint256"
            }
          ],
          "internalType": "struct Auctions.Tender[]",
          "name": "",
          "type": "tuple[]"
        }
      ],
      "stateMutability": "view",
      "type": "function",
      "constant": true
    },
    {
      "inputs": [
        {
          "internalType": "uint256",
          "name": "tenderId",
          "type": "uint256"
        }
      ],
      "name": "getTender",
      "outputs": [
        {
          "components": [
            {
              "components": [
                {
                  "internalType": "address payable",
                  "name": "tenderPoster",
                  "type": "address"
                },
                {
                  "internalType": "address payable",
                  "name": "tenderAccepter",
                  "type": "address"
                },
                {
                  "internalType": "uint256",
                  "name": "postDate",
                  "type": "uint256"
                },
                {
                  "internalType": "uint256",
                  "name": "auctionDate",
                  "type": "uint256"
                },
                {
                  "internalType": "uint256",
                  "name": "revealDate",
                  "type": "uint256"
                },
                {
                  "internalType": "uint256",
                  "name": "dueDate",
                  "type": "uint256"
                },
                {
                  "internalType": "string",
                  "name": "addr",
                  "type": "string"
                },
                {
                  "internalType": "string",
                  "name": "city",
                  "type": "string"
                },
                {
                  "internalType": "string",
                  "name": "state",
                  "type": "string"
                },
                {
                  "internalType": "address[]",
                  "name": "allowedHospitals",
                  "type": "address[]"
                },
                {
                  "internalType": "uint256",
                  "name": "maxBid",
                  "type": "uint256"
                },
                {
                  "internalType": "uint256",
                  "name": "penalty",
                  "type": "uint256"
                },
                {
                  "internalType": "address[]",
                  "name": "bidders",
                  "type": "address[]"
                },
                {
                  "internalType": "uint256[]",
                  "name": "bidHashArray",
                  "type": "uint256[]"
                },
                {
                  "internalType": "uint256",
                  "name": "finalBid",
                  "type": "uint256"
                },
                {
                  "internalType": "string",
                  "name": "severity",
                  "type": "string"
                }
              ],
              "internalType": "struct Auctions.TenderDetails",
              "name": "details",
              "type": "tuple"
            },
            {
              "internalType": "enum Auctions.TenderStatus",
              "name": "status",
              "type": "uint8"
            },
            {
              "internalType": "uint256",
              "name": "tenderId",
              "type": "uint256"
            }
          ],
          "internalType": "struct Auctions.Tender",
          "name": "",
          "type": "tuple"
        }
      ],
      "stateMutability": "view",
      "type": "function",
      "constant": true
    },
    {
      "inputs": [
        {
          "internalType": "uint256",
          "name": "tenderId",
          "type": "uint256"
        }
      ],
      "name": "getAuctionWinner",
      "outputs": [
        {
          "internalType": "address",
          "name": "tenderWinner",
          "type": "address"
        }
      ],
      "stateMutability": "view",
      "type": "function",
      "constant": true
    },
    {
      "inputs": [
        {
          "internalType": "uint256",
          "name": "tenderId",
          "type": "uint256"
        }
      ],
      "name": "reclaimTender",
      "outputs": [],
      "stateMutability": "nonpayable",
      "type": "function"
    },
    {
      "inputs": [
        {
          "internalType": "uint256",
          "name": "tenderId",
          "type": "uint256"
        }
      ],
      "name": "retractTender",
      "outputs": [],
      "stateMutability": "nonpayable",
      "type": "function"
    }
  ],
  "bytecode": "0x60806040525f60045534801562000014575f80fd5b5060405162005cf538038062005cf583398181016040528101906200003a9190620000e5565b805f806101000a81548173ffffffffffffffffffffffffffffffffffffffff021916908373ffffffffffffffffffffffffffffffffffffffff1602179055505062000115565b5f80fd5b5f73ffffffffffffffffffffffffffffffffffffffff82169050919050565b5f620000af8262000084565b9050919050565b620000c181620000a3565b8114620000cc575f80fd5b50565b5f81519050620000df81620000b6565b92915050565b5f60208284031215620000fd57620000fc62000080565b5b5f6200010c84828501620000cf565b91505092915050565b615bd280620001235f395ff3fe6080604052600436106100a6575f3560e01c80634f2c3716116100635780634f2c3716146101ee57806355079c3f1461021e5780636a31879b14610246578063a198361314610276578063e05917e9146102b4578063e16a2df7146102dc576100a6565b80630585c25e146100aa578063083d353b146100e65780632358c0461461012257806323675c471461014c57806339c776b614610174578063465e1def146101b0575b5f80fd5b3480156100b5575f80fd5b506100d060048036038101906100cb9190613e3f565b6102f8565b6040516100dd91906142f1565b60405180910390f35b3480156100f1575f80fd5b5061010c60048036038101906101079190613e3f565b610816565b6040516101199190614320565b60405180910390f35b34801561012d575f80fd5b50610136610933565b6040516101439190614441565b60405180910390f35b348015610157575f80fd5b50610172600480360381019061016d9190613e3f565b610e82565b005b34801561017f575f80fd5b5061019a60048036038101906101959190613e3f565b61155a565b6040516101a79190614470565b60405180910390f35b3480156101bb575f80fd5b506101d660048036038101906101d19190613e3f565b61157a565b6040516101e593929190614617565b60405180910390f35b6102086004803603810190610203919061486d565b611a61565b6040516102159190614470565b60405180910390f35b348015610229575f80fd5b50610244600480360381019061023f9190613e3f565b61220b565b005b610260600480360381019061025b91906149aa565b61251d565b60405161026d9190614470565b60405180910390f35b348015610281575f80fd5b5061029c60048036038101906102979190613e3f565b612d33565b6040516102ab93929190614617565b60405180910390f35b3480156102bf575f80fd5b506102da60048036038101906102d59190613e3f565b61320b565b005b6102f660048036038101906102f191906149e8565b613401565b005b610300613b9b565b60025f8381526020019081526020015f206040518060600160405290815f8201604051806102000160405290815f82015f9054906101000a900473ffffffffffffffffffffffffffffffffffffffff1673ffffffffffffffffffffffffffffffffffffffff1673ffffffffffffffffffffffffffffffffffffffff168152602001600182015f9054906101000a900473ffffffffffffffffffffffffffffffffffffffff1673ffffffffffffffffffffffffffffffffffffffff1673ffffffffffffffffffffffffffffffffffffffff1681526020016002820154815260200160038201548152602001600482015481526020016005820154815260200160068201805461040d90614a79565b80601f016020809104026020016040519081016040528092919081815260200182805461043990614a79565b80156104845780601f1061045b57610100808354040283529160200191610484565b820191905f5260205f20905b81548152906001019060200180831161046757829003601f168201915b5050505050815260200160078201805461049d90614a79565b80601f01602080910402602001604051908101604052809291908181526020018280546104c990614a79565b80156105145780601f106104eb57610100808354040283529160200191610514565b820191905f5260205f20905b8154815290600101906020018083116104f757829003601f168201915b5050505050815260200160088201805461052d90614a79565b80601f016020809104026020016040519081016040528092919081815260200182805461055990614a79565b80156105a45780601f1061057b576101008083540402835291602001916105a4565b820191905f5260205f20905b81548152906001019060200180831161058757829003601f168201915b505050505081526020016009820180548060200260200160405190810160405280929190818152602001828054801561062f57602002820191905f5260205f20905b815f9054906101000a900473ffffffffffffffffffffffffffffffffffffffff1673ffffffffffffffffffffffffffffffffffffffff16815260200190600101908083116105e6575b50505050508152602001600a8201548152602001600b8201548152602001600c82018054806020026020016040519081016040528092919081815260200182805480156106ce57602002820191905f5260205f20905b815f9054906101000a900473ffffffffffffffffffffffffffffffffffffffff1673ffffffffffffffffffffffffffffffffffffffff1681526020019060010190808311610685575b50505050508152602001600d820180548060200260200160405190810160405280929190818152602001828054801561072457602002820191905f5260205f20905b815481526020019060010190808311610710575b50505050508152602001600e8201548152602001600f8201805461074790614a79565b80601f016020809104026020016040519081016040528092919081815260200182805461077390614a79565b80156107be5780601f10610795576101008083540402835291602001916107be565b820191905f5260205f20905b8154815290600101906020018083116107a157829003601f168201915b5050505050815250508152602001601082015f9054906101000a900460ff1660048111156107ef576107ee614231565b5b600481111561080157610800614231565b5b81526020016011820154815250509050919050565b5f6002600481111561082b5761082a614231565b5b60025f8481526020019081526020015f206010015f9054906101000a900460ff16600481111561085e5761085d614231565b5b0361089e576040517f08c379a000000000000000000000000000000000000000000000000000000000815260040161089590614b03565b60405180910390fd5b60025f8381526020019081526020015f205f016004015442106108f6576040517f08c379a00000000000000000000000000000000000000000000000000000000081526004016108ed90614b91565b60405180910390fd5b60025f8381526020019081526020015f205f016001015f9054906101000a900473ffffffffffffffffffffffffffffffffffffffff169050919050565b60606003805480602002602001604051908101604052809291908181526020015f905b82821015610e79578382905f5260205f2090601202016040518060600160405290815f8201604051806102000160405290815f82015f9054906101000a900473ffffffffffffffffffffffffffffffffffffffff1673ffffffffffffffffffffffffffffffffffffffff1673ffffffffffffffffffffffffffffffffffffffff168152602001600182015f9054906101000a900473ffffffffffffffffffffffffffffffffffffffff1673ffffffffffffffffffffffffffffffffffffffff1673ffffffffffffffffffffffffffffffffffffffff16815260200160028201548152602001600382015481526020016004820154815260200160058201548152602001600682018054610a6890614a79565b80601f0160208091040260200160405190810160405280929190818152602001828054610a9490614a79565b8015610adf5780601f10610ab657610100808354040283529160200191610adf565b820191905f5260205f20905b815481529060010190602001808311610ac257829003601f168201915b50505050508152602001600782018054610af890614a79565b80601f0160208091040260200160405190810160405280929190818152602001828054610b2490614a79565b8015610b6f5780601f10610b4657610100808354040283529160200191610b6f565b820191905f5260205f20905b815481529060010190602001808311610b5257829003601f168201915b50505050508152602001600882018054610b8890614a79565b80601f0160208091040260200160405190810160405280929190818152602001828054610bb490614a79565b8015610bff5780601f10610bd657610100808354040283529160200191610bff565b820191905f5260205f20905b815481529060010190602001808311610be257829003601f168201915b5050505050815260200160098201805480602002602001604051908101604052809291908181526020018280548015610c8a57602002820191905f5260205f20905b815f9054906101000a900473ffffffffffffffffffffffffffffffffffffffff1673ffffffffffffffffffffffffffffffffffffffff1681526020019060010190808311610c41575b50505050508152602001600a8201548152602001600b8201548152602001600c8201805480602002602001604051908101604052809291908181526020018280548015610d2957602002820191905f5260205f20905b815f9054906101000a900473ffffffffffffffffffffffffffffffffffffffff1673ffffffffffffffffffffffffffffffffffffffff1681526020019060010190808311610ce0575b50505050508152602001600d8201805480602002602001604051908101604052809291908181526020018280548015610d7f57602002820191905f5260205f20905b815481526020019060010190808311610d6b575b50505050508152602001600e8201548152602001600f82018054610da290614a79565b80601f0160208091040260200160405190810160405280929190818152602001828054610dce90614a79565b8015610e195780601f10610df057610100808354040283529160200191610e19565b820191905f5260205f20905b815481529060010190602001808311610dfc57829003601f168201915b5050505050815250508152602001601082015f9054906101000a900460ff166004811115610e4a57610e49614231565b5b6004811115610e5c57610e5b614231565b5b815260200160118201548152505081526020019060010190610956565b50505050905090565b5f8054906101000a900473ffffffffffffffffffffffffffffffffffffffff1673ffffffffffffffffffffffffffffffffffffffff1663bdf6c673336040518263ffffffff1660e01b8152600401610eda9190614320565b602060405180830381865afa158015610ef5573d5f803e3d5ffd5b505050506040513d601f19601f82011682018060405250810190610f199190614be4565b610f58576040517f08c379a0000000000000000000000000000000000000000000000000000000008152600401610f4f90614c59565b60405180910390fd5b60016004811115610f6c57610f6b614231565b5b60025f8381526020019081526020015f206010015f9054906101000a900460ff166004811115610f9f57610f9e614231565b5b14610fdf576040517f08c379a0000000000000000000000000000000000000000000000000000000008152600401610fd690614cc1565b60405180910390fd5b60025f8281526020019081526020015f205f01600401544211611037576040517f08c379a000000000000000000000000000000000000000000000000000000000815260040161102e90614d4f565b60405180910390fd5b60025f8281526020019081526020015f205f0160050154421061108f576040517f08c379a000000000000000000000000000000000000000000000000000000000815260040161108690614db7565b60405180910390fd5b61113060025f8381526020019081526020015f205f0160090180548060200260200160405190810160405280929190818152602001828054801561112557602002820191905f5260205f20905b815f9054906101000a900473ffffffffffffffffffffffffffffffffffffffff1673ffffffffffffffffffffffffffffffffffffffff16815260200190600101908083116110dc575b505050505033613b17565b61116f576040517f08c379a000000000000000000000000000000000000000000000000000000000815260040161116690614e1f565b60405180910390fd5b60025f8281526020019081526020015f205f016001015f9054906101000a900473ffffffffffffffffffffffffffffffffffffffff1673ffffffffffffffffffffffffffffffffffffffff166108fc60025f8481526020019081526020015f205f01600b015460025f8581526020019081526020015f205f01600e01546111f69190614e6a565b90811502906040515f60405180830381858888f1935050505015801561121e573d5f803e3d5ffd5b505f60025f8381526020019081526020015f205f01600e015460025f8481526020019081526020015f205f01600a01546112589190614e9d565b111561130e5760025f8281526020019081526020015f205f015f015f9054906101000a900473ffffffffffffffffffffffffffffffffffffffff1673ffffffffffffffffffffffffffffffffffffffff166108fc60025f8481526020019081526020015f205f01600e015460025f8581526020019081526020015f205f01600a01546112e49190614e9d565b90811502906040515f60405180830381858888f1935050505015801561130c573d5f803e3d5ffd5b505b5f60025f8381526020019081526020015f2090505f816010015f6101000a81548160ff0219169083600481111561134857611347614231565b5b02179055508060025f8481526020019081526020015f205f8201815f015f82015f9054906101000a900473ffffffffffffffffffffffffffffffffffffffff16815f015f6101000a81548173ffffffffffffffffffffffffffffffffffffffff021916908373ffffffffffffffffffffffffffffffffffffffff160217905550600182015f9054906101000a900473ffffffffffffffffffffffffffffffffffffffff16816001015f6101000a81548173ffffffffffffffffffffffffffffffffffffffff021916908373ffffffffffffffffffffffffffffffffffffffff16021790555060028201548160020155600382015481600301556004820154816004015560058201548160050155600682018160060190816114699190615082565b506007820181600701908161147e9190615082565b50600882018160080190816114939190615082565b5060098201816009019080546114aa929190613bd2565b50600a82015481600a0155600b82015481600b0155600c820181600c019080546114d5929190613bd2565b50600d820181600d019080546114ec929190613c20565b50600e82015481600e0155600f820181600f01908161150b9190615082565b505050601082015f9054906101000a900460ff16816010015f6101000a81548160ff0219169083600481111561154457611543614231565b5b0217905550601182015481601101559050505050565b60018181548110611569575f80fd5b905f5260205f20015f915090505481565b60038181548110611589575f80fd5b905f5260205f2090601202015f91509050805f01604051806102000160405290815f82015f9054906101000a900473ffffffffffffffffffffffffffffffffffffffff1673ffffffffffffffffffffffffffffffffffffffff1673ffffffffffffffffffffffffffffffffffffffff168152602001600182015f9054906101000a900473ffffffffffffffffffffffffffffffffffffffff1673ffffffffffffffffffffffffffffffffffffffff1673ffffffffffffffffffffffffffffffffffffffff1681526020016002820154815260200160038201548152602001600482015481526020016005820154815260200160068201805461168a90614a79565b80601f01602080910402602001604051908101604052809291908181526020018280546116b690614a79565b80156117015780601f106116d857610100808354040283529160200191611701565b820191905f5260205f20905b8154815290600101906020018083116116e457829003601f168201915b5050505050815260200160078201805461171a90614a79565b80601f016020809104026020016040519081016040528092919081815260200182805461174690614a79565b80156117915780601f1061176857610100808354040283529160200191611791565b820191905f5260205f20905b81548152906001019060200180831161177457829003601f168201915b505050505081526020016008820180546117aa90614a79565b80601f01602080910402602001604051908101604052809291908181526020018280546117d690614a79565b80156118215780601f106117f857610100808354040283529160200191611821565b820191905f5260205f20905b81548152906001019060200180831161180457829003601f168201915b50505050508152602001600982018054806020026020016040519081016040528092919081815260200182805480156118ac57602002820191905f5260205f20905b815f9054906101000a900473ffffffffffffffffffffffffffffffffffffffff1673ffffffffffffffffffffffffffffffffffffffff1681526020019060010190808311611863575b50505050508152602001600a8201548152602001600b8201548152602001600c820180548060200260200160405190810160405280929190818152602001828054801561194b57602002820191905f5260205f20905b815f9054906101000a900473ffffffffffffffffffffffffffffffffffffffff1673ffffffffffffffffffffffffffffffffffffffff1681526020019060010190808311611902575b50505050508152602001600d82018054806020026020016040519081016040528092919081815260200182805480156119a157602002820191905f5260205f20905b81548152602001906001019080831161198d575b50505050508152602001600e8201548152602001600f820180546119c490614a79565b80601f01602080910402602001604051908101604052809291908181526020018280546119f090614a79565b8015611a3b5780601f10611a1257610100808354040283529160200191611a3b565b820191905f5260205f20905b815481529060010190602001808311611a1e57829003601f168201915b50505050508152505090806010015f9054906101000a900460ff16908060110154905083565b5f805f9054906101000a900473ffffffffffffffffffffffffffffffffffffffff1673ffffffffffffffffffffffffffffffffffffffff1663e5b0c5a7336040518263ffffffff1660e01b8152600401611abb9190614320565b602060405180830381865afa158015611ad6573d5f803e3d5ffd5b505050506040513d601f19601f82011682018060405250810190611afa9190614be4565b611b39576040517f08c379a0000000000000000000000000000000000000000000000000000000008152600401611b30906151b1565b60405180910390fd5b5f3411611b7b576040517f08c379a0000000000000000000000000000000000000000000000000000000008152600401611b7290615219565b60405180910390fd5b5f5b8251811015611c89575f8054906101000a900473ffffffffffffffffffffffffffffffffffffffff1673ffffffffffffffffffffffffffffffffffffffff1663bdf6c673848381518110611bd457611bd3615237565b5b60200260200101516040518263ffffffff1660e01b8152600401611bf89190614320565b602060405180830381865afa158015611c13573d5f803e3d5ffd5b505050506040513d601f19601f82011682018060405250810190611c379190614be4565b611c76576040517f08c379a0000000000000000000000000000000000000000000000000000000008152600401611c6d906152ae565b60405180910390fd5b8080611c81906152cc565b915050611b7d565b50611c92613b9b565b60045481604001818152505033815f01515f019073ffffffffffffffffffffffffffffffffffffffff16908173ffffffffffffffffffffffffffffffffffffffff1681525050600281602001906004811115611cf157611cf0614231565b5b90816004811115611d0557611d04614231565b5b8152505042815f015160400181815250508942611d229190614e6a565b815f0151606001818152505061012c8a42611d3d9190614e6a565b611d479190614e6a565b815f015160800181815250508861012c8b42611d639190614e6a565b611d6d9190614e6a565b611d779190614e6a565b815f015160a00181815250507fffffffffffffffffffffffffffffffffffffffffffffffffffffffffffffffff815f01516101c001818152505034815f015161014001818152505084815f015161016001818152505082815f0151610120018190525087815f015160c0018190525086815f015160e0018190525085815f0151610100018190525083815f01516101e00181905250600381908060018154018082558091505060019003905f5260205f2090601202015f909190919091505f820151815f015f820151815f015f6101000a81548173ffffffffffffffffffffffffffffffffffffffff021916908373ffffffffffffffffffffffffffffffffffffffff1602179055506020820151816001015f6101000a81548173ffffffffffffffffffffffffffffffffffffffff021916908373ffffffffffffffffffffffffffffffffffffffff16021790555060408201518160020155606082015181600301556080820151816004015560a0820151816005015560c0820151816006019081611f039190615313565b5060e0820151816007019081611f199190615313565b50610100820151816008019081611f309190615313565b50610120820151816009019080519060200190611f4e929190613c6e565b5061014082015181600a015561016082015181600b015561018082015181600c019080519060200190611f82929190613c6e565b506101a082015181600d019080519060200190611fa0929190613cf5565b506101c082015181600e01556101e082015181600f019081611fc29190615313565b5050506020820151816010015f6101000a81548160ff02191690836004811115611fef57611fee614231565b5b02179055506040820151816011015550508060025f60045481526020019081526020015f205f820151815f015f820151815f015f6101000a81548173ffffffffffffffffffffffffffffffffffffffff021916908373ffffffffffffffffffffffffffffffffffffffff1602179055506020820151816001015f6101000a81548173ffffffffffffffffffffffffffffffffffffffff021916908373ffffffffffffffffffffffffffffffffffffffff16021790555060408201518160020155606082015181600301556080820151816004015560a0820151816005015560c08201518160060190816120e29190615313565b5060e08201518160070190816120f89190615313565b5061010082015181600801908161210f9190615313565b5061012082015181600901908051906020019061212d929190613c6e565b5061014082015181600a015561016082015181600b015561018082015181600c019080519060200190612161929190613c6e565b506101a082015181600d01908051906020019061217f929190613cf5565b506101c082015181600e01556101e082015181600f0190816121a19190615313565b5050506020820151816010015f6101000a81548160ff021916908360048111156121ce576121cd614231565b5b02179055506040820151816011015590505060045f8154809291906121f2906152cc565b9190505550806040015191505098975050505050505050565b3373ffffffffffffffffffffffffffffffffffffffff1660025f8381526020019081526020015f205f015f015f9054906101000a900473ffffffffffffffffffffffffffffffffffffffff1673ffffffffffffffffffffffffffffffffffffffff16146122ad576040517f08c379a00000000000000000000000000000000000000000000000000000000081526004016122a49061542c565b60405180910390fd5b600160048111156122c1576122c0614231565b5b60025f8381526020019081526020015f206010015f9054906101000a900460ff1660048111156122f4576122f3614231565b5b14612334576040517f08c379a000000000000000000000000000000000000000000000000000000000815260040161232b90615494565b60405180910390fd5b5f73ffffffffffffffffffffffffffffffffffffffff1660025f8381526020019081526020015f205f016001015f9054906101000a900473ffffffffffffffffffffffffffffffffffffffff1673ffffffffffffffffffffffffffffffffffffffff16036123d7576040517f08c379a00000000000000000000000000000000000000000000000000000000081526004016123ce90615522565b60405180910390fd5b4260025f8381526020019081526020015f205f01600501541161242f576040517f08c379a00000000000000000000000000000000000000000000000000000000081526004016124269061558a565b60405180910390fd5b60025f8281526020019081526020015f205f015f015f9054906101000a900473ffffffffffffffffffffffffffffffffffffffff1673ffffffffffffffffffffffffffffffffffffffff166108fc60025f8481526020019081526020015f205f01600b015460025f8581526020019081526020015f205f01600a01546124b59190614e6a565b90811502906040515f60405180830381858888f193505050501580156124dd573d5f803e3d5ffd5b50600460025f8381526020019081526020015f206010015f6101000a81548160ff0219169083600481111561251557612514614231565b5b021790555050565b5f8060025f8581526020019081526020015f206040518060600160405290815f8201604051806102000160405290815f82015f9054906101000a900473ffffffffffffffffffffffffffffffffffffffff1673ffffffffffffffffffffffffffffffffffffffff1673ffffffffffffffffffffffffffffffffffffffff168152602001600182015f9054906101000a900473ffffffffffffffffffffffffffffffffffffffff1673ffffffffffffffffffffffffffffffffffffffff1673ffffffffffffffffffffffffffffffffffffffff1681526020016002820154815260200160038201548152602001600482015481526020016005820154815260200160068201805461262c90614a79565b80601f016020809104026020016040519081016040528092919081815260200182805461265890614a79565b80156126a35780601f1061267a576101008083540402835291602001916126a3565b820191905f5260205f20905b81548152906001019060200180831161268657829003601f168201915b505050505081526020016007820180546126bc90614a79565b80601f01602080910402602001604051908101604052809291908181526020018280546126e890614a79565b80156127335780601f1061270a57610100808354040283529160200191612733565b820191905f5260205f20905b81548152906001019060200180831161271657829003601f168201915b5050505050815260200160088201805461274c90614a79565b80601f016020809104026020016040519081016040528092919081815260200182805461277890614a79565b80156127c35780601f1061279a576101008083540402835291602001916127c3565b820191905f5260205f20905b8154815290600101906020018083116127a657829003601f168201915b505050505081526020016009820180548060200260200160405190810160405280929190818152602001828054801561284e57602002820191905f5260205f20905b815f9054906101000a900473ffffffffffffffffffffffffffffffffffffffff1673ffffffffffffffffffffffffffffffffffffffff1681526020019060010190808311612805575b50505050508152602001600a8201548152602001600b8201548152602001600c82018054806020026020016040519081016040528092919081815260200182805480156128ed57602002820191905f5260205f20905b815f9054906101000a900473ffffffffffffffffffffffffffffffffffffffff1673ffffffffffffffffffffffffffffffffffffffff16815260200190600101908083116128a4575b50505050508152602001600d820180548060200260200160405190810160405280929190818152602001828054801561294357602002820191905f5260205f20905b81548152602001906001019080831161292f575b50505050508152602001600e8201548152602001600f8201805461296690614a79565b80601f016020809104026020016040519081016040528092919081815260200182805461299290614a79565b80156129dd5780601f106129b4576101008083540402835291602001916129dd565b820191905f5260205f20905b8154815290600101906020018083116129c057829003601f168201915b5050505050815250508152602001601082015f9054906101000a900460ff166004811115612a0e57612a0d614231565b5b6004811115612a2057612a1f614231565b5b815260200160118201548152505090505f8054906101000a900473ffffffffffffffffffffffffffffffffffffffff1673ffffffffffffffffffffffffffffffffffffffff16630b971338336040518263ffffffff1660e01b8152600401612a889190614320565b602060405180830381865afa158015612aa3573d5f803e3d5ffd5b505050506040513d601f19601f82011682018060405250810190612ac79190614be4565b612b06576040517f08c379a0000000000000000000000000000000000000000000000000000000008152600401612afd906155f2565b60405180910390fd5b60026004811115612b1a57612b19614231565b5b81602001516004811115612b3157612b30614231565b5b14612b71576040517f08c379a0000000000000000000000000000000000000000000000000000000008152600401612b689061565a565b60405180910390fd5b805f015160a001514210612bba576040517f08c379a0000000000000000000000000000000000000000000000000000000008152600401612bb1906156c2565b60405180910390fd5b805f015161016001513414612c04576040517f08c379a0000000000000000000000000000000000000000000000000000000008152600401612bfb90615750565b60405180910390fd5b612c16815f0151610180015133613b17565b15612c56576040517f08c379a0000000000000000000000000000000000000000000000000000000008152600401612c4d906157b8565b60405180910390fd5b60025f8581526020019081526020015f205f01600c0133908060018154018082558091505060019003905f5260205f20015f9091909190916101000a81548173ffffffffffffffffffffffffffffffffffffffff021916908373ffffffffffffffffffffffffffffffffffffffff16021790555060025f8581526020019081526020015f205f01600d0183908060018154018082558091505060019003905f5260205f20015f9091909190915055600160025f8681526020019081526020015f205f01600c0180549050612d2a9190614e9d565b91505092915050565b6002602052805f5260405f205f91509050805f01604051806102000160405290815f82015f9054906101000a900473ffffffffffffffffffffffffffffffffffffffff1673ffffffffffffffffffffffffffffffffffffffff1673ffffffffffffffffffffffffffffffffffffffff168152602001600182015f9054906101000a900473ffffffffffffffffffffffffffffffffffffffff1673ffffffffffffffffffffffffffffffffffffffff1673ffffffffffffffffffffffffffffffffffffffff16815260200160028201548152602001600382015481526020016004820154815260200160058201548152602001600682018054612e3490614a79565b80601f0160208091040260200160405190810160405280929190818152602001828054612e6090614a79565b8015612eab5780601f10612e8257610100808354040283529160200191612eab565b820191905f5260205f20905b815481529060010190602001808311612e8e57829003601f168201915b50505050508152602001600782018054612ec490614a79565b80601f0160208091040260200160405190810160405280929190818152602001828054612ef090614a79565b8015612f3b5780601f10612f1257610100808354040283529160200191612f3b565b820191905f5260205f20905b815481529060010190602001808311612f1e57829003601f168201915b50505050508152602001600882018054612f5490614a79565b80601f0160208091040260200160405190810160405280929190818152602001828054612f8090614a79565b8015612fcb5780601f10612fa257610100808354040283529160200191612fcb565b820191905f5260205f20905b815481529060010190602001808311612fae57829003601f168201915b505050505081526020016009820180548060200260200160405190810160405280929190818152602001828054801561305657602002820191905f5260205f20905b815f9054906101000a900473ffffffffffffffffffffffffffffffffffffffff1673ffffffffffffffffffffffffffffffffffffffff168152602001906001019080831161300d575b50505050508152602001600a8201548152602001600b8201548152602001600c82018054806020026020016040519081016040528092919081815260200182805480156130f557602002820191905f5260205f20905b815f9054906101000a900473ffffffffffffffffffffffffffffffffffffffff1673ffffffffffffffffffffffffffffffffffffffff16815260200190600101908083116130ac575b50505050508152602001600d820180548060200260200160405190810160405280929190818152602001828054801561314b57602002820191905f5260205f20905b815481526020019060010190808311613137575b50505050508152602001600e8201548152602001600f8201805461316e90614a79565b80601f016020809104026020016040519081016040528092919081815260200182805461319a90614a79565b80156131e55780601f106131bc576101008083540402835291602001916131e5565b820191905f5260205f20905b8154815290600101906020018083116131c857829003601f168201915b50505050508152505090806010015f9054906101000a900460ff16908060110154905083565b60025f8281526020019081526020015f205f015f015f9054906101000a900473ffffffffffffffffffffffffffffffffffffffff1673ffffffffffffffffffffffffffffffffffffffff163373ffffffffffffffffffffffffffffffffffffffff16146132ad576040517f08c379a00000000000000000000000000000000000000000000000000000000081526004016132a49061542c565b60405180910390fd5b600260048111156132c1576132c0614231565b5b60025f8381526020019081526020015f206010015f9054906101000a900460ff1660048111156132f4576132f3614231565b5b14613334576040517f08c379a000000000000000000000000000000000000000000000000000000000815260040161332b90615820565b60405180910390fd5b60025f8281526020019081526020015f205f015f015f9054906101000a900473ffffffffffffffffffffffffffffffffffffffff1673ffffffffffffffffffffffffffffffffffffffff166108fc60025f8481526020019081526020015f205f01600a015490811502906040515f60405180830381858888f193505050501580156133c1573d5f803e3d5ffd5b50600360025f8381526020019081526020015f206010015f6101000a81548160ff021916908360048111156133f9576133f8614231565b5b021790555050565b5f60025f8681526020019081526020015f2090505f8054906101000a900473ffffffffffffffffffffffffffffffffffffffff1673ffffffffffffffffffffffffffffffffffffffff16630b971338336040518263ffffffff1660e01b815260040161346d9190614320565b602060405180830381865afa158015613488573d5f803e3d5ffd5b505050506040513d601f19601f820116820180604052508101906134ac9190614be4565b6134eb576040517f08c379a00000000000000000000000000000000000000000000000000000000081526004016134e290615888565b60405180910390fd5b805f01600301544211613533576040517f08c379a000000000000000000000000000000000000000000000000000000000815260040161352a906158f0565b60405180910390fd5b805f0160040154421061357b576040517f08c379a000000000000000000000000000000000000000000000000000000000815260040161357290615958565b60405180910390fd5b6002600481111561358f5761358e614231565b5b816010015f9054906101000a900460ff1660048111156135b2576135b1614231565b5b146135f2576040517f08c379a00000000000000000000000000000000000000000000000000000000081526004016135e990615820565b60405180910390fd5b805f01600a0154841061363a576040517f08c379a0000000000000000000000000000000000000000000000000000000008152600401613631906159c0565b60405180910390fd5b805f01600c01828154811061365257613651615237565b5b905f5260205f20015f9054906101000a900473ffffffffffffffffffffffffffffffffffffffff1673ffffffffffffffffffffffffffffffffffffffff163373ffffffffffffffffffffffffffffffffffffffff16146136e7576040517f08c379a00000000000000000000000000000000000000000000000000000000081526004016136de90615a28565b60405180910390fd5b34815f01600b01541461372f576040517f08c379a000000000000000000000000000000000000000000000000000000000815260040161372690615ab6565b60405180910390fd5b828461373b9190614e6a565b60405160200161374b9190615af4565b604051602081830303815290604052805190602001205f1c815f01600d01838154811061377b5761377a615237565b5b905f5260205f200154146137c4576040517f08c379a00000000000000000000000000000000000000000000000000000000081526004016137bb90615b7e565b60405180910390fd5b5f73ffffffffffffffffffffffffffffffffffffffff16815f016001015f9054906101000a900473ffffffffffffffffffffffffffffffffffffffff1673ffffffffffffffffffffffffffffffffffffffff161461388c57805f016001015f9054906101000a900473ffffffffffffffffffffffffffffffffffffffff1673ffffffffffffffffffffffffffffffffffffffff166108fc825f01600b015490811502906040515f60405180830381858888f1935050505015801561388a573d5f803e3d5ffd5b505b6001816010015f6101000a81548160ff021916908360048111156138b3576138b2614231565b5b021790555033815f016001015f6101000a81548173ffffffffffffffffffffffffffffffffffffffff021916908373ffffffffffffffffffffffffffffffffffffffff16021790555083815f01600e01819055508060025f8781526020019081526020015f205f8201815f015f82015f9054906101000a900473ffffffffffffffffffffffffffffffffffffffff16815f015f6101000a81548173ffffffffffffffffffffffffffffffffffffffff021916908373ffffffffffffffffffffffffffffffffffffffff160217905550600182015f9054906101000a900473ffffffffffffffffffffffffffffffffffffffff16816001015f6101000a81548173ffffffffffffffffffffffffffffffffffffffff021916908373ffffffffffffffffffffffffffffffffffffffff1602179055506002820154816002015560038201548160030155600482015481600401556005820154816005015560068201816006019081613a239190615082565b5060078201816007019081613a389190615082565b5060088201816008019081613a4d9190615082565b506009820181600901908054613a64929190613bd2565b50600a82015481600a0155600b82015481600b0155600c820181600c01908054613a8f929190613bd2565b50600d820181600d01908054613aa6929190613c20565b50600e82015481600e0155600f820181600f019081613ac59190615082565b505050601082015f9054906101000a900460ff16816010015f6101000a81548160ff02191690836004811115613afe57613afd614231565b5b0217905550601182015481601101559050505050505050565b5f805f90505b8351811015613b90578273ffffffffffffffffffffffffffffffffffffffff16848281518110613b5057613b4f615237565b5b602002602001015173ffffffffffffffffffffffffffffffffffffffff1603613b7d576001915050613b95565b8080613b88906152cc565b915050613b1d565b505f90505b92915050565b6040518060600160405280613bae613d40565b81526020015f6004811115613bc657613bc5614231565b5b81526020015f81525090565b828054828255905f5260205f20908101928215613c0f575f5260205f209182015b82811115613c0e578254825591600101919060010190613bf3565b5b509050613c1c9190613de0565b5090565b828054828255905f5260205f20908101928215613c5d575f5260205f209182015b82811115613c5c578254825591600101919060010190613c41565b5b509050613c6a9190613de0565b5090565b828054828255905f5260205f20908101928215613ce4579160200282015b82811115613ce3578251825f6101000a81548173ffffffffffffffffffffffffffffffffffffffff021916908373ffffffffffffffffffffffffffffffffffffffff16021790555091602001919060010190613c8c565b5b509050613cf19190613de0565b5090565b828054828255905f5260205f20908101928215613d2f579160200282015b82811115613d2e578251825591602001919060010190613d13565b5b509050613d3c9190613de0565b5090565b6040518061020001604052805f73ffffffffffffffffffffffffffffffffffffffff1681526020015f73ffffffffffffffffffffffffffffffffffffffff1681526020015f81526020015f81526020015f81526020015f8152602001606081526020016060815260200160608152602001606081526020015f81526020015f815260200160608152602001606081526020015f8152602001606081525090565b5b80821115613df7575f815f905550600101613de1565b5090565b5f604051905090565b5f80fd5b5f80fd5b5f819050919050565b613e1e81613e0c565b8114613e28575f80fd5b50565b5f81359050613e3981613e15565b92915050565b5f60208284031215613e5457613e53613e04565b5b5f613e6184828501613e2b565b91505092915050565b5f73ffffffffffffffffffffffffffffffffffffffff82169050919050565b5f613e9382613e6a565b9050919050565b613ea381613e89565b82525050565b613eb281613e0c565b82525050565b5f81519050919050565b5f82825260208201905092915050565b5f5b83811015613eef578082015181840152602081019050613ed4565b5f8484015250505050565b5f601f19601f8301169050919050565b5f613f1482613eb8565b613f1e8185613ec2565b9350613f2e818560208601613ed2565b613f3781613efa565b840191505092915050565b5f81519050919050565b5f82825260208201905092915050565b5f819050602082019050919050565b5f613f7582613e6a565b9050919050565b613f8581613f6b565b82525050565b5f613f968383613f7c565b60208301905092915050565b5f602082019050919050565b5f613fb882613f42565b613fc28185613f4c565b9350613fcd83613f5c565b805f5b83811015613ffd578151613fe48882613f8b565b9750613fef83613fa2565b925050600181019050613fd0565b5085935050505092915050565b5f81519050919050565b5f82825260208201905092915050565b5f819050602082019050919050565b5f61403e8383613ea9565b60208301905092915050565b5f602082019050919050565b5f6140608261400a565b61406a8185614014565b935061407583614024565b805f5b838110156140a557815161408c8882614033565b97506140978361404a565b925050600181019050614078565b5085935050505092915050565b5f61020083015f8301516140c85f860182613e9a565b5060208301516140db6020860182613e9a565b5060408301516140ee6040860182613ea9565b5060608301516141016060860182613ea9565b5060808301516141146080860182613ea9565b5060a083015161412760a0860182613ea9565b5060c083015184820360c086015261413f8282613f0a565b91505060e083015184820360e08601526141598282613f0a565b9150506101008301518482036101008601526141758282613f0a565b9150506101208301518482036101208601526141918282613fae565b9150506101408301516141a8610140860182613ea9565b506101608301516141bd610160860182613ea9565b506101808301518482036101808601526141d78282613fae565b9150506101a08301518482036101a08601526141f38282614056565b9150506101c083015161420a6101c0860182613ea9565b506101e08301518482036101e08601526142248282613f0a565b9150508091505092915050565b7f4e487b71000000000000000000000000000000000000000000000000000000005f52602160045260245ffd5b6005811061426f5761426e614231565b5b50565b5f81905061427f8261425e565b919050565b5f61428e82614272565b9050919050565b61429e81614284565b82525050565b5f606083015f8301518482035f8601526142be82826140b2565b91505060208301516142d36020860182614295565b5060408301516142e66040860182613ea9565b508091505092915050565b5f6020820190508181035f83015261430981846142a4565b905092915050565b61431a81613f6b565b82525050565b5f6020820190506143335f830184614311565b92915050565b5f81519050919050565b5f82825260208201905092915050565b5f819050602082019050919050565b5f606083015f8301518482035f86015261437c82826140b2565b91505060208301516143916020860182614295565b5060408301516143a46040860182613ea9565b508091505092915050565b5f6143ba8383614362565b905092915050565b5f602082019050919050565b5f6143d882614339565b6143e28185614343565b9350836020820285016143f485614353565b805f5b8581101561442f578484038952815161441085826143af565b945061441b836143c2565b925060208a019950506001810190506143f7565b50829750879550505050505092915050565b5f6020820190508181035f83015261445981846143ce565b905092915050565b61446a81613e0c565b82525050565b5f6020820190506144835f830184614461565b92915050565b5f61020083015f83015161449f5f860182613e9a565b5060208301516144b26020860182613e9a565b5060408301516144c56040860182613ea9565b5060608301516144d86060860182613ea9565b5060808301516144eb6080860182613ea9565b5060a08301516144fe60a0860182613ea9565b5060c083015184820360c08601526145168282613f0a565b91505060e083015184820360e08601526145308282613f0a565b91505061010083015184820361010086015261454c8282613f0a565b9150506101208301518482036101208601526145688282613fae565b91505061014083015161457f610140860182613ea9565b50610160830151614594610160860182613ea9565b506101808301518482036101808601526145ae8282613fae565b9150506101a08301518482036101a08601526145ca8282614056565b9150506101c08301516145e16101c0860182613ea9565b506101e08301518482036101e08601526145fb8282613f0a565b9150508091505092915050565b61461181614284565b82525050565b5f6060820190508181035f83015261462f8186614489565b905061463e6020830185614608565b61464b6040830184614461565b949350505050565b5f80fd5b5f80fd5b7f4e487b71000000000000000000000000000000000000000000000000000000005f52604160045260245ffd5b61469182613efa565b810181811067ffffffffffffffff821117156146b0576146af61465b565b5b80604052505050565b5f6146c2613dfb565b90506146ce8282614688565b919050565b5f67ffffffffffffffff8211156146ed576146ec61465b565b5b6146f682613efa565b9050602081019050919050565b828183375f83830152505050565b5f61472361471e846146d3565b6146b9565b90508281526020810184848401111561473f5761473e614657565b5b61474a848285614703565b509392505050565b5f82601f83011261476657614765614653565b5b8135614776848260208601614711565b91505092915050565b5f67ffffffffffffffff8211156147995761479861465b565b5b602082029050602081019050919050565b5f80fd5b6147b781613f6b565b81146147c1575f80fd5b50565b5f813590506147d2816147ae565b92915050565b5f6147ea6147e58461477f565b6146b9565b9050808382526020820190506020840283018581111561480d5761480c6147aa565b5b835b81811015614836578061482288826147c4565b84526020840193505060208101905061480f565b5050509392505050565b5f82601f83011261485457614853614653565b5b81356148648482602086016147d8565b91505092915050565b5f805f805f805f80610100898b03121561488a57614889613e04565b5b5f6148978b828c01613e2b565b98505060206148a88b828c01613e2b565b975050604089013567ffffffffffffffff8111156148c9576148c8613e08565b5b6148d58b828c01614752565b965050606089013567ffffffffffffffff8111156148f6576148f5613e08565b5b6149028b828c01614752565b955050608089013567ffffffffffffffff81111561492357614922613e08565b5b61492f8b828c01614752565b94505060a06149408b828c01613e2b565b93505060c089013567ffffffffffffffff81111561496157614960613e08565b5b61496d8b828c01614752565b92505060e089013567ffffffffffffffff81111561498e5761498d613e08565b5b61499a8b828c01614840565b9150509295985092959890939650565b5f80604083850312156149c0576149bf613e04565b5b5f6149cd85828601613e2b565b92505060206149de85828601613e2b565b9150509250929050565b5f805f8060808587031215614a00576149ff613e04565b5b5f614a0d87828801613e2b565b9450506020614a1e87828801613e2b565b9350506040614a2f87828801613e2b565b9250506060614a4087828801613e2b565b91505092959194509250565b7f4e487b71000000000000000000000000000000000000000000000000000000005f52602260045260245ffd5b5f6002820490506001821680614a9057607f821691505b602082108103614aa357614aa2614a4c565b5b50919050565b5f82825260208201905092915050565b7f6e6f2077696e6e657220666f72206f70656e2074656e646572000000000000005f82015250565b5f614aed601983614aa9565b9150614af882614ab9565b602082019050919050565b5f6020820190508181035f830152614b1a81614ae1565b9050919050565b7f74656e646572206d75737420626520706173742072657665616c20706572696f5f8201527f6400000000000000000000000000000000000000000000000000000000000000602082015250565b5f614b7b602183614aa9565b9150614b8682614b21565b604082019050919050565b5f6020820190508181035f830152614ba881614b6f565b9050919050565b5f8115159050919050565b614bc381614baf565b8114614bcd575f80fd5b50565b5f81519050614bde81614bba565b92915050565b5f60208284031215614bf957614bf8613e04565b5b5f614c0684828501614bd0565b91505092915050565b7f53656e646572206d757374206265206120686f73706974616c000000000000005f82015250565b5f614c43601983614aa9565b9150614c4e82614c0f565b602082019050919050565b5f6020820190508181035f830152614c7081614c37565b9050919050565b7f54656e646572206e6f7420696e2070726f6772657373000000000000000000005f82015250565b5f614cab601683614aa9565b9150614cb682614c77565b602082019050919050565b5f6020820190508181035f830152614cd881614c9f565b9050919050565b7f54656e646572206973206e6f7420726561647920746f20626520636c61696d655f8201527f6420796574000000000000000000000000000000000000000000000000000000602082015250565b5f614d39602583614aa9565b9150614d4482614cdf565b604082019050919050565b5f6020820190508181035f830152614d6681614d2d565b9050919050565b7f54656e64657220686173206578706972656400000000000000000000000000005f82015250565b5f614da1601283614aa9565b9150614dac82614d6d565b602082019050919050565b5f6020820190508181035f830152614dce81614d95565b9050919050565b7f73656e646572206e6f7420616e20616c6c6f77656420686f73706974616c73005f82015250565b5f614e09601f83614aa9565b9150614e1482614dd5565b602082019050919050565b5f6020820190508181035f830152614e3681614dfd565b9050919050565b7f4e487b71000000000000000000000000000000000000000000000000000000005f52601160045260245ffd5b5f614e7482613e0c565b9150614e7f83613e0c565b9250828201905080821115614e9757614e96614e3d565b5b92915050565b5f614ea782613e0c565b9150614eb283613e0c565b9250828203905081811115614eca57614ec9614e3d565b5b92915050565b5f81549050614ede81614a79565b9050919050565b5f819050815f5260205f209050919050565b5f6020601f8301049050919050565b5f82821b905092915050565b5f60088302614f417fffffffffffffffffffffffffffffffffffffffffffffffffffffffffffffffff82614f06565b614f4b8683614f06565b95508019841693508086168417925050509392505050565b5f819050919050565b5f614f86614f81614f7c84613e0c565b614f63565b613e0c565b9050919050565b5f819050919050565b614f9f83614f6c565b614fb3614fab82614f8d565b848454614f12565b825550505050565b5f90565b614fc7614fbb565b614fd2818484614f96565b505050565b5b81811015614ff557614fea5f82614fbf565b600181019050614fd8565b5050565b601f82111561503a5761500b81614ee5565b61501484614ef7565b81016020851015615023578190505b61503761502f85614ef7565b830182614fd7565b50505b505050565b5f82821c905092915050565b5f61505a5f198460080261503f565b1980831691505092915050565b5f615072838361504b565b9150826002028217905092915050565b818103615090575050615165565b61509982614ed0565b67ffffffffffffffff8111156150b2576150b161465b565b5b6150bc8254614a79565b6150c7828285614ff9565b5f601f8311600181146150f4575f84156150e2578287015490505b6150ec8582615067565b86555061515e565b601f19841661510287614ee5565b965061510d86614ee5565b5f5b828110156151345784890154825560018201915060018501945060208101905061510f565b86831015615151578489015461514d601f89168261504b565b8355505b6001600288020188555050505b5050505050505b565b7f73656e646572206d7573742062652074656e64657220696e69746961746f72005f82015250565b5f61519b601f83614aa9565b91506151a682615167565b602082019050919050565b5f6020820190508181035f8301526151c88161518f565b9050919050565b7f6d617876616c206d7573742062652067726561746572207468616e20300000005f82015250565b5f615203601d83614aa9565b915061520e826151cf565b602082019050919050565b5f6020820190508181035f830152615230816151f7565b9050919050565b7f4e487b71000000000000000000000000000000000000000000000000000000005f52603260045260245ffd5b7f676976656e20686f73706974616c206c69737420696e76616c696400000000005f82015250565b5f615298601b83614aa9565b91506152a382615264565b602082019050919050565b5f6020820190508181035f8301526152c58161528c565b9050919050565b5f6152d682613e0c565b91507fffffffffffffffffffffffffffffffffffffffffffffffffffffffffffffffff820361530857615307614e3d565b5b600182019050919050565b61531c82613eb8565b67ffffffffffffffff8111156153355761533461465b565b5b61533f8254614a79565b61534a828285614ff9565b5f60209050601f83116001811461537b575f8415615369578287015190505b6153738582615067565b8655506153da565b601f19841661538986614ee5565b5f5b828110156153b05784890151825560018201915060208501945060208101905061538b565b868310156153cd57848901516153c9601f89168261504b565b8355505b6001600288020188555050505b505050505050565b7f73656e646572206973206e6f74207468652074656e64657220706f73746572005f82015250565b5f615416601f83614aa9565b9150615421826153e2565b602082019050919050565b5f6020820190508181035f8301526154438161540a565b9050919050565b7f74656e646572206973206e6f7420696e2070726f6772657373000000000000005f82015250565b5f61547e601983614aa9565b91506154898261544a565b602082019050919050565b5f6020820190508181035f8301526154ab81615472565b9050919050565b7f74656e646572206163636570746572206973206e6f74207468652061646472655f8201527f7373207365740000000000000000000000000000000000000000000000000000602082015250565b5f61550c602683614aa9565b9150615517826154b2565b604082019050919050565b5f6020820190508181035f83015261553981615500565b9050919050565b7f61756374696f6e20706572696f64206973206f766572000000000000000000005f82015250565b5f615574601683614aa9565b915061557f82615540565b602082019050919050565b5f6020820190508181035f8301526155a181615568565b9050919050565b7f73656e646572206d75737420626520616e20616d62756c616e636500000000005f82015250565b5f6155dc601b83614aa9565b91506155e7826155a8565b602082019050919050565b5f6020820190508181035f830152615609816155d0565b9050919050565b7f74656e646572206d757374206265206f70656e000000000000000000000000005f82015250565b5f615644601383614aa9565b915061564f82615610565b602082019050919050565b5f6020820190508181035f83015261567181615638565b9050919050565b7f61756374696f6e20706572696f642068617320706173736564000000000000005f82015250565b5f6156ac601983614aa9565b91506156b782615678565b602082019050919050565b5f6020820190508181035f8301526156d9816156a0565b9050919050565b7f73656e742070656e616c747920616d6f756e7420646f6573206e6f74206d61745f8201527f63682074656e6465720000000000000000000000000000000000000000000000602082015250565b5f61573a602983614aa9565b9150615745826156e0565b604082019050919050565b5f6020820190508181035f8301526157678161572e565b9050919050565b7f63616e206f6e6c7920626964206f6e63650000000000000000000000000000005f82015250565b5f6157a2601183614aa9565b91506157ad8261576e565b602082019050919050565b5f6020820190508181035f8301526157cf81615796565b9050919050565b7f74656e646572206973206e6f74206f70656e00000000000000000000000000005f82015250565b5f61580a601283614aa9565b9150615815826157d6565b602082019050919050565b5f6020820190508181035f830152615837816157fe565b9050919050565b7f73656e646572206d75737420626520616d62756c616e636500000000000000005f82015250565b5f615872601883614aa9565b915061587d8261583e565b602082019050919050565b5f6020820190508181035f83015261589f81615866565b9050919050565b7f74656e646572207374696c6c20756e6465722061756374696f6e0000000000005f82015250565b5f6158da601a83614aa9565b91506158e5826158a6565b602082019050919050565b5f6020820190508181035f830152615907816158ce565b9050919050565b7f74656e64657220697320706173742072657665616c20706572696f64000000005f82015250565b5f615942601c83614aa9565b915061594d8261590e565b602082019050919050565b5f6020820190508181035f83015261596f81615936565b9050919050565b7f62696420776173206e6f742062656c6f77206d61782062696420616d6f756e745f82015250565b5f6159aa602083614aa9565b91506159b582615976565b602082019050919050565b5f6020820190508181035f8301526159d78161599e565b9050919050565b7f77726f6e672062696420494400000000000000000000000000000000000000005f82015250565b5f615a12600c83614aa9565b9150615a1d826159de565b602082019050919050565b5f6020820190508181035f830152615a3f81615a06565b9050919050565b7f646964206e6f742073656e6420636f72726563742070656e616c747920616d6f5f8201527f756e740000000000000000000000000000000000000000000000000000000000602082015250565b5f615aa0602383614aa9565b9150615aab82615a46565b604082019050919050565b5f6020820190508181035f830152615acd81615a94565b9050919050565b5f819050919050565b615aee615ae982613e0c565b615ad4565b82525050565b5f615aff8284615add565b60208201915081905092915050565b7f6269642076616c756520646f6573206e6f74206d6174636820686173686564205f8201527f76616c7565000000000000000000000000000000000000000000000000000000602082015250565b5f615b68602583614aa9565b9150615b7382615b0e565b604082019050919050565b5f6020820190508181035f830152615b9581615b5c565b905091905056fea2646970667358221220c6899173ca569b5b719fb0fd8dc39d1dcdd247c132bc41eda0d886f2f3b55f2064736f6c63430008140033",
  "immutableReferences": {},
  "source": "// SPDX-License-Identifier: UNLICENSED \r\npragma solidity ^0.8.0;\r\n\r\nimport \"./Accounts.sol\";\r\n\r\ncontract Auctions {\r\n    // initialize accounts contract\r\n    Accounts accountsContract;\r\n\r\n    // constants\r\n    uint256 constant MAX_INT = 2**256 - 1;\r\n    uint256 constant REVEAL_PERIOD = 300;\r\n\r\n    // enum for various possible tender status's, closed is default\r\n    enum TenderStatus {\r\n        Closed,\r\n        InProgress,\r\n        Open,\r\n        Retracted,\r\n        Reclaimed\r\n    }\r\n\r\n    // helper struct for tender details\r\n     struct TenderDetails {\r\n        address payable tenderPoster;\r\n        address payable tenderAccepter;\r\n        uint256 postDate;\r\n        uint256 auctionDate;\r\n        uint256 revealDate;\r\n        uint256 dueDate;\r\n        string addr;\r\n        string city;\r\n        string state;\r\n        address[] allowedHospitals;\r\n        uint256 maxBid;\r\n        uint256 penalty;\r\n        // Maps an address to its bid. This enforces one bid per address, \r\n        //so that ambulances do not just bid as many prices as they can, \r\n        //and then reveal lower and lower bids during the reveal period.\r\n        // We use 2 arrays because we can't have nested mappings in Solidity.\r\n        address[] bidders;\r\n        uint[] bidHashArray;\r\n        uint256 finalBid;\r\n        string severity;\r\n    }\r\n\r\n    // struct to hold tender information\r\n    struct Tender {\r\n        TenderDetails details;\r\n        TenderStatus status;\r\n        uint256 tenderId;\r\n    }\r\n\r\n    // data members for tenders\r\n    uint256[] public tenderIds; // list of all tenders\r\n    mapping(uint256 => Tender) public tenderMapping; // mapping for faster tender lookup\r\n    Tender[] public tenders;\r\n    uint256 tenderIdCounter = 0;\r\n\r\n    // constructor, references the Accounts contract address\r\n    constructor(address contractAddress) {\r\n        accountsContract = Accounts(contractAddress);\r\n    }\r\n\r\n    /*\r\n    * Function posts new tender from initiator and begins the auction for the tender\r\n    *\r\n    * @param timeLimit - length of the auction period\r\n    * @param deliveryTime - how long the ambulance has to transport the patient after auction and reveal\r\n    * @param addr - address of the tender location\r\n    * @param city - city of the tender location\r\n    * @param state - state of the tender location\r\n    * @param penalty - penalty amount charged for lack of delivery for accepted tender\r\n    * @param severity - severity of the tender patient\r\n    * @param allowedHospitals - list of valid hospitals to be transported to\r\n    * @returns - returns the id of the new tender posted\r\n    * Note: msg.value is the max bid\r\n    */\r\n    function postTender(\r\n        uint256 timeLimit,\r\n        uint256 deliveryTime,\r\n        string memory addr,\r\n        string memory city,\r\n        string memory state,\r\n        uint256 penalty,\r\n        string memory severity,\r\n        address[] memory allowedHospitals\r\n    ) public payable returns (uint256) {\r\n        require(accountsContract.isInitiator(msg.sender), \"sender must be tender initiator\");\r\n        require(msg.value > 0, \"maxval must be greater than 0\");\r\n\r\n        // validate allowed hospitals given are valid hospitals\r\n        for (uint256 i = 0; i < allowedHospitals.length; i++) {\r\n            require(accountsContract.isHospital(allowedHospitals[i]), \"given hospital list invalid\");\r\n        }\r\n\r\n        // initalize new tender information\r\n        Tender memory newTender;\r\n        newTender.tenderId = tenderIdCounter;\r\n        newTender.details.tenderPoster = payable(msg.sender);\r\n        newTender.status = TenderStatus.Open; // open tender\r\n        \r\n        // set important dates for tender\r\n        newTender.details.postDate = block.timestamp; // set post date to current time\r\n        newTender.details.auctionDate = block.timestamp + timeLimit; // sets auction end date w/ time limit given\r\n        newTender.details.revealDate = block.timestamp + timeLimit + REVEAL_PERIOD; // sets reveal peiod end date\r\n        newTender.details.dueDate = block.timestamp + timeLimit + REVEAL_PERIOD + deliveryTime; // set due date for tender\r\n\r\n        // set tender information\r\n        newTender.details.finalBid = MAX_INT; // set current bid to max possible integer\r\n        newTender.details.maxBid = msg.value; // set maximum bid to msg.value\r\n        newTender.details.penalty = penalty;\r\n        newTender.details.allowedHospitals = allowedHospitals;\r\n\r\n        // patient location and details\r\n        newTender.details.addr = addr;\r\n        newTender.details.city = city;\r\n        newTender.details.state = state;\r\n        newTender.details.severity = severity;\r\n        \r\n        // push new tender and adjust mappings accordingly\r\n        tenders.push(newTender); \r\n        tenderMapping[tenderIdCounter] = newTender;\r\n        tenderIdCounter++;\r\n        return newTender.tenderId;\r\n    }\r\n\r\n    /*\r\n    * Function places a secret bid by an ambulance. Each ambulance receives only 1 bid\r\n    *\r\n    * @param tenderId - the ID of the tender being bid on\r\n    * @param bidHashedAmount - the hash value of the bid being places (bid + random salt value)\r\n    * @returns the ID of the ambulances bid, used for revealing\r\n    */\r\n    function secretBid(uint256 tenderId, uint256 bidHashedAmount) public payable returns(uint256 index) {\r\n        Tender memory tender = tenderMapping[tenderId];\r\n        require(accountsContract.isAmbulance(msg.sender), \"sender must be an ambulance\");\r\n        require(tender.status == TenderStatus.Open, \"tender must be open\");\r\n        require (block.timestamp < tender.details.dueDate, \"auction period has passed\");\r\n        require(msg.value == tender.details.penalty, \"sent penalty amount does not match tender\");\r\n        require(!contains(tender.details.bidders, msg.sender), \"can only bid once\");\r\n\r\n        // add bid to array\r\n        tenderMapping[tenderId].details.bidders.push(msg.sender);\r\n        tenderMapping[tenderId].details.bidHashArray.push(bidHashedAmount);\r\n        return tenderMapping[tenderId].details.bidders.length - 1;\r\n    }\r\n\r\n    /*\r\n    * Function is used to reveal winning bids after the auction period ends\r\n    * \r\n    * @param tenderId - ID of tender being revealed\r\n    * @param bidVal - amount bid by the ambulance\r\n    * @param saltVal - the random salt integer used in secretBid\r\n    * @param index - index of placed secret bid\r\n    */\r\n    function revealBid(\r\n        uint256 tenderId,\r\n        uint256 bidVal,\r\n        uint256 salt,\r\n        uint256 index\r\n    ) public payable {\r\n        Tender storage tender = tenderMapping[tenderId];\r\n        require(accountsContract.isAmbulance(msg.sender), \"sender must be ambulance\");\r\n        require(block.timestamp > tender.details.auctionDate, \"tender still under auction\");\r\n        require(block.timestamp < tender.details.revealDate, \"tender is past reveal period\");\r\n        require(tender.status == TenderStatus.Open, \"tender is not open\");\r\n        //require(bidVal < tender.details.finalBid, \"bid was not below winning bid\");\r\n        require(bidVal < tender.details.maxBid, \"bid was not below max bid amount\");\r\n        require(msg.sender == tender.details.bidders[index], \"wrong bid ID\");\r\n        require(tender.details.penalty == msg.value, \"did not send correct penalty amount\");\r\n        require(tender.details.bidHashArray[index] == uint256(keccak256(abi.encodePacked(bidVal + salt))), \"bid value does not match hashed value\");\r\n\r\n        // if job was already assigned, refund \r\n        if (tender.details.tenderAccepter != address(0)) {\r\n            tender.details.tenderAccepter.transfer(\r\n                tender.details.penalty\r\n            );\r\n        }\r\n        \r\n        // update tender information\r\n        tender.status = TenderStatus.InProgress;\r\n        tender.details.tenderAccepter = payable(msg.sender);\r\n        tender.details.finalBid = bidVal;\r\n\r\n        // set new info to tender mapping\r\n        tenderMapping[tenderId] = tender;\r\n    }\r\n\r\n    /*\r\n    * this function is called upon delivery of a patient where the ambulance is then paid for delivery\r\n    *\r\n    * @param tenderId - id of the tender where delivery is being verified \r\n    */\r\n    function verifyDelivery(uint256 tenderId) public {\r\n        require(accountsContract.isHospital(msg.sender), \"Sender must be a hospital\");\r\n        require(\r\n            tenderMapping[tenderId].status == TenderStatus.InProgress,\r\n            \"Tender not in progress\"\r\n        );\r\n        require(\r\n            block.timestamp >\r\n                tenderMapping[tenderId].details.revealDate,\r\n            \"Tender is not ready to be claimed yet\"\r\n        );\r\n\r\n        /* remove after implementing late charge */\r\n        require(\r\n            block.timestamp < tenderMapping[tenderId].details.dueDate,\r\n            \"Tender has expired\"\r\n        );\r\n        require(contains(tenderMapping[tenderId].details.allowedHospitals, msg.sender), \"sender not an allowed hospitals\");\r\n\r\n        /* potentially add paying without penalty amount if late */ \r\n        // transfer agreed upon funds to the tender accepter\r\n        tenderMapping[tenderId].details.tenderAccepter.transfer(\r\n            tenderMapping[tenderId].details.finalBid + tenderMapping[tenderId].details.penalty\r\n        );\r\n\r\n        // transfer funds back to the tender poster\r\n        if (tenderMapping[tenderId].details.maxBid - tenderMapping[tenderId].details.finalBid > 0) {\r\n            tenderMapping[tenderId].details.tenderPoster.transfer(\r\n                tenderMapping[tenderId].details.maxBid -\r\n                    tenderMapping[tenderId].details.finalBid\r\n            );\r\n        }\r\n        \r\n        // close the tender\r\n        Tender storage referencedTender = tenderMapping[tenderId];\r\n        referencedTender.status = TenderStatus.Closed;\r\n        tenderMapping[tenderId] = referencedTender;\r\n    }\r\n\r\n    /*\r\n     * get all the tenders present in tenders array\r\n     *\r\n     * @returns all tenders on the blockchain\r\n     */\r\n    function getAllTenders() public view returns (Tender[] memory) {\r\n        return tenders;\r\n    }\r\n\r\n    /*\r\n     * Get a tender from a given tenderID\r\n     *\r\n     * @param tenderId - given tenderID\r\n     *\r\n     * @returns a single tender with given tenderId\r\n     */\r\n     function getTender(uint256 tenderId) public view returns (Tender memory) {\r\n        return tenderMapping[tenderId];\r\n     }\r\n\r\n    /*\r\n     * get the winner of an auction\r\n     *\r\n     * @param tenderId - given tender ID\r\n     */\r\n    function getAuctionWinner(uint256 tenderId) public view returns (address tenderWinner) {\r\n        require(\r\n            tenderMapping[tenderId].status != TenderStatus.Open,\r\n            \"no winner for open tender\"\r\n        );\r\n        require(\r\n            block.timestamp <\r\n                tenderMapping[tenderId].details.revealDate,\r\n                \"tender must be past reveal period\"\r\n        );\r\n\r\n        return tenderMapping[tenderId].details.tenderAccepter;\r\n    } \r\n\r\n    /*\r\n     * allows police stations to reclaim their funds + the penalty for failed jobs\r\n     *\r\n     * @param tenderId - ID of tender being retracted\r\n     */\r\n    function reclaimTender(uint256 tenderId) public {\r\n        require(\r\n            tenderMapping[tenderId].details.tenderPoster == msg.sender,\r\n            \"sender is not the tender poster\"\r\n        );\r\n        require(\r\n            tenderMapping[tenderId].status == TenderStatus.InProgress,\r\n            \"tender is not in progress\"\r\n        );\r\n        require(\r\n            tenderMapping[tenderId].details.tenderAccepter != address(0),\r\n            \"tender accepter is not the address set\"\r\n        );\r\n        require(tenderMapping[tenderId].details.dueDate > block.timestamp, \"auction period is over\");\r\n\r\n        tenderMapping[tenderId].details.tenderPoster.transfer(\r\n            tenderMapping[tenderId].details.maxBid + tenderMapping[tenderId].details.penalty\r\n        );\r\n\r\n        // update status of the tender\r\n        tenderMapping[tenderId].status = TenderStatus.Reclaimed;\r\n    }\r\n\r\n    /*\r\n     * remove a tender with auction in progress from auction period \r\n     *\r\n     * @param tenderId - ID of tender being retracted\r\n     */\r\n    function retractTender(uint256 tenderId) public {\r\n        require(\r\n            msg.sender == tenderMapping[tenderId].details.tenderPoster,\r\n            \"sender is not the tender poster\"\r\n        );\r\n        require(\r\n            tenderMapping[tenderId].status == TenderStatus.Open,\r\n            \"tender is not open\"\r\n        );\r\n\r\n        // can only retract a tender if bid period is over (need to add)\r\n        tenderMapping[tenderId].details.tenderPoster.transfer(\r\n            tenderMapping[tenderId].details.maxBid\r\n        );\r\n\r\n        // update status of the tender\r\n        tenderMapping[tenderId].status = TenderStatus.Retracted;\r\n    }\r\n\r\n    // This sucks, but it's one of the consequences of storing everything on the blockchain\r\n    function contains(address[] memory addresses, address addressToFind) private pure returns (bool doesContain) {\r\n        for (uint256 i = 0; i < addresses.length; i++) {\r\n            if (addresses[i] == addressToFind) {\r\n                return true;\r\n            }\r\n        }\r\n        return false;\r\n    }\r\n}",
  "sourcePath": "C:\\Users\\owen1\\Documents\\Coding\\scefsta\\truffle\\contracts\\Auctions.sol",
  "compiler": {
    "name": "solc",
    "version": "0.8.20+commit.a1b79de6.Emscripten.clang"
  },
  "schemaVersion": "3.4.14",
  "updatedAt": "2023-07-03T23:32:03.185Z",
  "networkType": "ethereum",
  "devdoc": {
    "kind": "dev",
    "methods": {},
    "version": 1
  },
  "userdoc": {
    "kind": "user",
    "methods": {},
    "version": 1
  }
}