{
  "contractName": "Auctions",
  "abi": [
    {
      "inputs": [
        {
          "internalType": "address",
          "name": "contractAddress",
          "type": "address"
        }
      ],
      "stateMutability": "nonpayable",
      "type": "constructor"
    },
    {
      "anonymous": false,
      "inputs": [
        {
          "indexed": false,
          "internalType": "uint256",
          "name": "tenderId",
          "type": "uint256"
        },
        {
          "indexed": false,
          "internalType": "uint256",
          "name": "bidId",
          "type": "uint256"
        }
      ],
      "name": "BidPlaced",
      "type": "event"
    },
    {
      "inputs": [
        {
          "internalType": "uint256",
          "name": "",
          "type": "uint256"
        }
      ],
      "name": "tenderIds",
      "outputs": [
        {
          "internalType": "uint256",
          "name": "",
          "type": "uint256"
        }
      ],
      "stateMutability": "view",
      "type": "function",
      "constant": true
    },
    {
      "inputs": [
        {
          "internalType": "uint256",
          "name": "",
          "type": "uint256"
        }
      ],
      "name": "tenderMapping",
      "outputs": [
        {
          "components": [
            {
              "internalType": "address payable",
              "name": "tenderPoster",
              "type": "address"
            },
            {
              "internalType": "address payable",
              "name": "tenderAccepter",
              "type": "address"
            },
            {
              "internalType": "uint256",
              "name": "postDate",
              "type": "uint256"
            },
            {
              "internalType": "uint256",
              "name": "auctionDate",
              "type": "uint256"
            },
            {
              "internalType": "uint256",
              "name": "revealDate",
              "type": "uint256"
            },
            {
              "internalType": "uint256",
              "name": "dueDate",
              "type": "uint256"
            },
            {
              "internalType": "string",
              "name": "addr",
              "type": "string"
            },
            {
              "internalType": "string",
              "name": "city",
              "type": "string"
            },
            {
              "internalType": "string",
              "name": "state",
              "type": "string"
            },
            {
              "internalType": "string",
              "name": "zipcode",
              "type": "string"
            },
            {
              "internalType": "address[]",
              "name": "allowedHospitals",
              "type": "address[]"
            },
            {
              "internalType": "uint256",
              "name": "maxBid",
              "type": "uint256"
            },
            {
              "internalType": "uint256",
              "name": "penalty",
              "type": "uint256"
            },
            {
              "internalType": "address[]",
              "name": "bidders",
              "type": "address[]"
            },
            {
              "internalType": "uint256[]",
              "name": "bidHashArray",
              "type": "uint256[]"
            },
            {
              "internalType": "uint256",
              "name": "finalBid",
              "type": "uint256"
            },
            {
              "internalType": "string",
              "name": "severity",
              "type": "string"
            }
          ],
          "internalType": "struct Auctions.TenderDetails",
          "name": "details",
          "type": "tuple"
        },
        {
          "internalType": "enum Auctions.TenderStatus",
          "name": "status",
          "type": "uint8"
        },
        {
          "internalType": "uint256",
          "name": "tenderId",
          "type": "uint256"
        }
      ],
      "stateMutability": "view",
      "type": "function",
      "constant": true
    },
    {
      "inputs": [
        {
          "internalType": "uint256",
          "name": "",
          "type": "uint256"
        }
      ],
      "name": "tenders",
      "outputs": [
        {
          "components": [
            {
              "internalType": "address payable",
              "name": "tenderPoster",
              "type": "address"
            },
            {
              "internalType": "address payable",
              "name": "tenderAccepter",
              "type": "address"
            },
            {
              "internalType": "uint256",
              "name": "postDate",
              "type": "uint256"
            },
            {
              "internalType": "uint256",
              "name": "auctionDate",
              "type": "uint256"
            },
            {
              "internalType": "uint256",
              "name": "revealDate",
              "type": "uint256"
            },
            {
              "internalType": "uint256",
              "name": "dueDate",
              "type": "uint256"
            },
            {
              "internalType": "string",
              "name": "addr",
              "type": "string"
            },
            {
              "internalType": "string",
              "name": "city",
              "type": "string"
            },
            {
              "internalType": "string",
              "name": "state",
              "type": "string"
            },
            {
              "internalType": "string",
              "name": "zipcode",
              "type": "string"
            },
            {
              "internalType": "address[]",
              "name": "allowedHospitals",
              "type": "address[]"
            },
            {
              "internalType": "uint256",
              "name": "maxBid",
              "type": "uint256"
            },
            {
              "internalType": "uint256",
              "name": "penalty",
              "type": "uint256"
            },
            {
              "internalType": "address[]",
              "name": "bidders",
              "type": "address[]"
            },
            {
              "internalType": "uint256[]",
              "name": "bidHashArray",
              "type": "uint256[]"
            },
            {
              "internalType": "uint256",
              "name": "finalBid",
              "type": "uint256"
            },
            {
              "internalType": "string",
              "name": "severity",
              "type": "string"
            }
          ],
          "internalType": "struct Auctions.TenderDetails",
          "name": "details",
          "type": "tuple"
        },
        {
          "internalType": "enum Auctions.TenderStatus",
          "name": "status",
          "type": "uint8"
        },
        {
          "internalType": "uint256",
          "name": "tenderId",
          "type": "uint256"
        }
      ],
      "stateMutability": "view",
      "type": "function",
      "constant": true
    },
    {
      "inputs": [
        {
          "internalType": "uint256",
          "name": "timeLimit",
          "type": "uint256"
        },
        {
          "internalType": "uint256",
          "name": "deliveryTime",
          "type": "uint256"
        },
        {
          "internalType": "string",
          "name": "addr",
          "type": "string"
        },
        {
          "internalType": "string",
          "name": "city",
          "type": "string"
        },
        {
          "internalType": "string",
          "name": "state",
          "type": "string"
        },
        {
          "internalType": "string",
          "name": "zipcode",
          "type": "string"
        },
        {
          "internalType": "uint256",
          "name": "penalty",
          "type": "uint256"
        },
        {
          "internalType": "string",
          "name": "severity",
          "type": "string"
        },
        {
          "internalType": "address[]",
          "name": "allowedHospitals",
          "type": "address[]"
        }
      ],
      "name": "postTender",
      "outputs": [
        {
          "internalType": "uint256",
          "name": "",
          "type": "uint256"
        }
      ],
      "stateMutability": "payable",
      "type": "function",
      "payable": true
    },
    {
      "inputs": [
        {
          "internalType": "uint256",
          "name": "tenderId",
          "type": "uint256"
        },
        {
          "internalType": "uint256",
          "name": "bidHashedAmount",
          "type": "uint256"
        }
      ],
      "name": "secretBid",
      "outputs": [
        {
          "internalType": "uint256",
          "name": "index",
          "type": "uint256"
        }
      ],
      "stateMutability": "payable",
      "type": "function",
      "payable": true
    },
    {
      "inputs": [
        {
          "internalType": "uint256",
          "name": "tenderId",
          "type": "uint256"
        },
        {
          "internalType": "uint256",
          "name": "bidVal",
          "type": "uint256"
        },
        {
          "internalType": "uint256",
          "name": "salt",
          "type": "uint256"
        },
        {
          "internalType": "uint256",
          "name": "index",
          "type": "uint256"
        }
      ],
      "name": "revealBid",
      "outputs": [],
      "stateMutability": "payable",
      "type": "function",
      "payable": true
    },
    {
      "inputs": [
        {
          "internalType": "uint256",
          "name": "tenderId",
          "type": "uint256"
        }
      ],
      "name": "getAuctionWinner",
      "outputs": [
        {
          "internalType": "address",
          "name": "tenderWinner",
          "type": "address"
        }
      ],
      "stateMutability": "view",
      "type": "function",
      "constant": true
    },
    {
      "inputs": [
        {
          "internalType": "uint256",
          "name": "tenderId",
          "type": "uint256"
        }
      ],
      "name": "verifyDelivery",
      "outputs": [],
      "stateMutability": "nonpayable",
      "type": "function"
    },
    {
      "inputs": [],
      "name": "getAllTenders",
      "outputs": [
        {
          "components": [
            {
              "components": [
                {
                  "internalType": "address payable",
                  "name": "tenderPoster",
                  "type": "address"
                },
                {
                  "internalType": "address payable",
                  "name": "tenderAccepter",
                  "type": "address"
                },
                {
                  "internalType": "uint256",
                  "name": "postDate",
                  "type": "uint256"
                },
                {
                  "internalType": "uint256",
                  "name": "auctionDate",
                  "type": "uint256"
                },
                {
                  "internalType": "uint256",
                  "name": "revealDate",
                  "type": "uint256"
                },
                {
                  "internalType": "uint256",
                  "name": "dueDate",
                  "type": "uint256"
                },
                {
                  "internalType": "string",
                  "name": "addr",
                  "type": "string"
                },
                {
                  "internalType": "string",
                  "name": "city",
                  "type": "string"
                },
                {
                  "internalType": "string",
                  "name": "state",
                  "type": "string"
                },
                {
                  "internalType": "string",
                  "name": "zipcode",
                  "type": "string"
                },
                {
                  "internalType": "address[]",
                  "name": "allowedHospitals",
                  "type": "address[]"
                },
                {
                  "internalType": "uint256",
                  "name": "maxBid",
                  "type": "uint256"
                },
                {
                  "internalType": "uint256",
                  "name": "penalty",
                  "type": "uint256"
                },
                {
                  "internalType": "address[]",
                  "name": "bidders",
                  "type": "address[]"
                },
                {
                  "internalType": "uint256[]",
                  "name": "bidHashArray",
                  "type": "uint256[]"
                },
                {
                  "internalType": "uint256",
                  "name": "finalBid",
                  "type": "uint256"
                },
                {
                  "internalType": "string",
                  "name": "severity",
                  "type": "string"
                }
              ],
              "internalType": "struct Auctions.TenderDetails",
              "name": "details",
              "type": "tuple"
            },
            {
              "internalType": "enum Auctions.TenderStatus",
              "name": "status",
              "type": "uint8"
            },
            {
              "internalType": "uint256",
              "name": "tenderId",
              "type": "uint256"
            }
          ],
          "internalType": "struct Auctions.Tender[]",
          "name": "",
          "type": "tuple[]"
        }
      ],
      "stateMutability": "view",
      "type": "function",
      "constant": true
    },
    {
      "inputs": [
        {
          "internalType": "uint256",
          "name": "tenderId",
          "type": "uint256"
        }
      ],
      "name": "reclaimTender",
      "outputs": [],
      "stateMutability": "nonpayable",
      "type": "function"
    },
    {
      "inputs": [
        {
          "internalType": "uint256",
          "name": "tenderId",
          "type": "uint256"
        }
      ],
      "name": "retractTender",
      "outputs": [],
      "stateMutability": "nonpayable",
      "type": "function"
    }
  ],
  "bytecode": "0x60806040525f60045534801562000014575f80fd5b5060405162005da638038062005da683398181016040528101906200003a9190620000e5565b805f806101000a81548173ffffffffffffffffffffffffffffffffffffffff021916908373ffffffffffffffffffffffffffffffffffffffff1602179055505062000115565b5f80fd5b5f73ffffffffffffffffffffffffffffffffffffffff82169050919050565b5f620000af8262000084565b9050919050565b620000c181620000a3565b8114620000cc575f80fd5b50565b5f81519050620000df81620000b6565b92915050565b5f60208284031215620000fd57620000fc62000080565b5b5f6200010c84828501620000cf565b91505092915050565b615c8380620001235f395ff3fe60806040526004361061009b575f3560e01c806355079c3f1161006357806355079c3f146101a75780636a31879b146101cf578063713794b2146101ff578063a19836131461022f578063e05917e91461026d578063e16a2df7146102955761009b565b8063083d353b1461009f5780632358c046146100db57806323675c471461010557806339c776b61461012d578063465e1def14610169575b5f80fd5b3480156100aa575f80fd5b506100c560048036038101906100c0919061412d565b6102b1565b6040516100d29190614197565b60405180910390f35b3480156100e6575f80fd5b506100ef6103ce565b6040516100fc91906146de565b60405180910390f35b348015610110575f80fd5b5061012b6004803603810190610126919061412d565b6109ad565b005b348015610138575f80fd5b50610153600480360381019061014e919061412d565b611322565b604051610160919061470d565b60405180910390f35b348015610174575f80fd5b5061018f600480360381019061018a919061412d565b611342565b60405161019e939291906148d0565b60405180910390f35b3480156101b2575f80fd5b506101cd60048036038101906101c8919061412d565b6118b9565b005b6101e960048036038101906101e4919061490c565b611c16565b6040516101f6919061470d565b60405180910390f35b61021960048036038101906102149190614b64565b61251a565b604051610226919061470d565b60405180910390f35b34801561023a575f80fd5b506102556004803603810190610250919061412d565b612cfe565b604051610264939291906148d0565b60405180910390f35b348015610278575f80fd5b50610293600480360381019061028e919061412d565b613266565b005b6102af60048036038101906102aa9190614cd0565b6134a6565b005b5f60025f8381526020019081526020015f205f0160040154421161030a576040517f08c379a000000000000000000000000000000000000000000000000000000000815260040161030190614d8e565b60405180910390fd5b6002600481111561031e5761031d61458c565b5b60025f8481526020019081526020015f206011015f9054906101000a900460ff1660048111156103515761035061458c565b5b03610391576040517f08c379a000000000000000000000000000000000000000000000000000000000815260040161038890614df6565b60405180910390fd5b60025f8381526020019081526020015f205f016001015f9054906101000a900473ffffffffffffffffffffffffffffffffffffffff169050919050565b60606003805480602002602001604051908101604052809291908181526020015f905b828210156109a4578382905f5260205f2090601302016040518060600160405290815f8201604051806102200160405290815f82015f9054906101000a900473ffffffffffffffffffffffffffffffffffffffff1673ffffffffffffffffffffffffffffffffffffffff1673ffffffffffffffffffffffffffffffffffffffff168152602001600182015f9054906101000a900473ffffffffffffffffffffffffffffffffffffffff1673ffffffffffffffffffffffffffffffffffffffff1673ffffffffffffffffffffffffffffffffffffffff1681526020016002820154815260200160038201548152602001600482015481526020016005820154815260200160068201805461050390614e41565b80601f016020809104026020016040519081016040528092919081815260200182805461052f90614e41565b801561057a5780601f106105515761010080835404028352916020019161057a565b820191905f5260205f20905b81548152906001019060200180831161055d57829003601f168201915b5050505050815260200160078201805461059390614e41565b80601f01602080910402602001604051908101604052809291908181526020018280546105bf90614e41565b801561060a5780601f106105e15761010080835404028352916020019161060a565b820191905f5260205f20905b8154815290600101906020018083116105ed57829003601f168201915b5050505050815260200160088201805461062390614e41565b80601f016020809104026020016040519081016040528092919081815260200182805461064f90614e41565b801561069a5780601f106106715761010080835404028352916020019161069a565b820191905f5260205f20905b81548152906001019060200180831161067d57829003601f168201915b505050505081526020016009820180546106b390614e41565b80601f01602080910402602001604051908101604052809291908181526020018280546106df90614e41565b801561072a5780601f106107015761010080835404028352916020019161072a565b820191905f5260205f20905b81548152906001019060200180831161070d57829003601f168201915b50505050508152602001600a82018054806020026020016040519081016040528092919081815260200182805480156107b557602002820191905f5260205f20905b815f9054906101000a900473ffffffffffffffffffffffffffffffffffffffff1673ffffffffffffffffffffffffffffffffffffffff168152602001906001019080831161076c575b50505050508152602001600b8201548152602001600c8201548152602001600d820180548060200260200160405190810160405280929190818152602001828054801561085457602002820191905f5260205f20905b815f9054906101000a900473ffffffffffffffffffffffffffffffffffffffff1673ffffffffffffffffffffffffffffffffffffffff168152602001906001019080831161080b575b50505050508152602001600e82018054806020026020016040519081016040528092919081815260200182805480156108aa57602002820191905f5260205f20905b815481526020019060010190808311610896575b50505050508152602001600f82015481526020016010820180546108cd90614e41565b80601f01602080910402602001604051908101604052809291908181526020018280546108f990614e41565b80156109445780601f1061091b57610100808354040283529160200191610944565b820191905f5260205f20905b81548152906001019060200180831161092757829003601f168201915b5050505050815250508152602001601182015f9054906101000a900460ff1660048111156109755761097461458c565b5b60048111156109875761098661458c565b5b8152602001601282015481525050815260200190600101906103f1565b50505050905090565b5f8054906101000a900473ffffffffffffffffffffffffffffffffffffffff1673ffffffffffffffffffffffffffffffffffffffff1663bdf6c673336040518263ffffffff1660e01b8152600401610a059190614197565b602060405180830381865afa158015610a20573d5f803e3d5ffd5b505050506040513d601f19601f82011682018060405250810190610a449190614ea6565b610a83576040517f08c379a0000000000000000000000000000000000000000000000000000000008152600401610a7a90614f1b565b60405180910390fd5b60016004811115610a9757610a9661458c565b5b60025f8381526020019081526020015f206011015f9054906101000a900460ff166004811115610aca57610ac961458c565b5b14610b0a576040517f08c379a0000000000000000000000000000000000000000000000000000000008152600401610b0190614f83565b60405180910390fd5b60025f8281526020019081526020015f205f01600401544211610b62576040517f08c379a0000000000000000000000000000000000000000000000000000000008152600401610b5990614feb565b60405180910390fd5b610c0360025f8381526020019081526020015f205f01600a01805480602002602001604051908101604052809291908181526020018280548015610bf857602002820191905f5260205f20905b815f9054906101000a900473ffffffffffffffffffffffffffffffffffffffff1673ffffffffffffffffffffffffffffffffffffffff1681526020019060010190808311610baf575b505050505033613dfe565b610c42576040517f08c379a0000000000000000000000000000000000000000000000000000000008152600401610c3990615053565b60405180910390fd5b60025f8281526020019081526020015f205f0160050154421015610cf45760025f8281526020019081526020015f205f016001015f9054906101000a900473ffffffffffffffffffffffffffffffffffffffff1673ffffffffffffffffffffffffffffffffffffffff166108fc60025f8481526020019081526020015f205f01600f015490811502906040515f60405180830381858888f19350505050158015610cee573d5f803e3d5ffd5b50610da5565b60025f8281526020019081526020015f205f016001015f9054906101000a900473ffffffffffffffffffffffffffffffffffffffff1673ffffffffffffffffffffffffffffffffffffffff166108fc60025f8481526020019081526020015f205f01600c015460025f8581526020019081526020015f205f01600f0154610d7b919061509e565b90811502906040515f60405180830381858888f19350505050158015610da3573d5f803e3d5ffd5b505b5f60025f8381526020019081526020015f205f01600f015460025f8481526020019081526020015f205f01600b0154610dde91906150d1565b1115610e945760025f8281526020019081526020015f205f015f015f9054906101000a900473ffffffffffffffffffffffffffffffffffffffff1673ffffffffffffffffffffffffffffffffffffffff166108fc60025f8481526020019081526020015f205f01600f015460025f8581526020019081526020015f205f01600b0154610e6a91906150d1565b90811502906040515f60405180830381858888f19350505050158015610e92573d5f803e3d5ffd5b505b5f60025f8381526020019081526020015f2090505f816011015f6101000a81548160ff02191690836004811115610ece57610ecd61458c565b5b02179055508060025f8481526020019081526020015f205f8201815f015f82015f9054906101000a900473ffffffffffffffffffffffffffffffffffffffff16815f015f6101000a81548173ffffffffffffffffffffffffffffffffffffffff021916908373ffffffffffffffffffffffffffffffffffffffff160217905550600182015f9054906101000a900473ffffffffffffffffffffffffffffffffffffffff16816001015f6101000a81548173ffffffffffffffffffffffffffffffffffffffff021916908373ffffffffffffffffffffffffffffffffffffffff1602179055506002820154816002015560038201548160030155600482015481600401556005820154816005015560068201816006019081610fef91906152b6565b506007820181600701908161100491906152b6565b506008820181600801908161101991906152b6565b506009820181600901908161102e91906152b6565b50600a820181600a01908054611045929190613e82565b50600b82015481600b0155600c82015481600c0155600d820181600d01908054611070929190613e82565b50600e820181600e01908054611087929190613ed0565b50600f82015481600f0155601082018160100190816110a691906152b6565b505050601182015f9054906101000a900460ff16816011015f6101000a81548160ff021916908360048111156110df576110de61458c565b5b02179055506012820154816012015590505080600383815481106111065761110561539b565b5b905f5260205f2090601302015f8201815f015f82015f9054906101000a900473ffffffffffffffffffffffffffffffffffffffff16815f015f6101000a81548173ffffffffffffffffffffffffffffffffffffffff021916908373ffffffffffffffffffffffffffffffffffffffff160217905550600182015f9054906101000a900473ffffffffffffffffffffffffffffffffffffffff16816001015f6101000a81548173ffffffffffffffffffffffffffffffffffffffff021916908373ffffffffffffffffffffffffffffffffffffffff160217905550600282015481600201556003820154816003015560048201548160040155600582015481600501556006820181600601908161121c91906152b6565b506007820181600701908161123191906152b6565b506008820181600801908161124691906152b6565b506009820181600901908161125b91906152b6565b50600a820181600a01908054611272929190613e82565b50600b82015481600b0155600c82015481600c0155600d820181600d0190805461129d929190613e82565b50600e820181600e019080546112b4929190613ed0565b50600f82015481600f0155601082018160100190816112d391906152b6565b505050601182015f9054906101000a900460ff16816011015f6101000a81548160ff0219169083600481111561130c5761130b61458c565b5b0217905550601282015481601201559050505050565b60018181548110611331575f80fd5b905f5260205f20015f915090505481565b60038181548110611351575f80fd5b905f5260205f2090601302015f91509050805f01604051806102200160405290815f82015f9054906101000a900473ffffffffffffffffffffffffffffffffffffffff1673ffffffffffffffffffffffffffffffffffffffff1673ffffffffffffffffffffffffffffffffffffffff168152602001600182015f9054906101000a900473ffffffffffffffffffffffffffffffffffffffff1673ffffffffffffffffffffffffffffffffffffffff1673ffffffffffffffffffffffffffffffffffffffff1681526020016002820154815260200160038201548152602001600482015481526020016005820154815260200160068201805461145290614e41565b80601f016020809104026020016040519081016040528092919081815260200182805461147e90614e41565b80156114c95780601f106114a0576101008083540402835291602001916114c9565b820191905f5260205f20905b8154815290600101906020018083116114ac57829003601f168201915b505050505081526020016007820180546114e290614e41565b80601f016020809104026020016040519081016040528092919081815260200182805461150e90614e41565b80156115595780601f1061153057610100808354040283529160200191611559565b820191905f5260205f20905b81548152906001019060200180831161153c57829003601f168201915b5050505050815260200160088201805461157290614e41565b80601f016020809104026020016040519081016040528092919081815260200182805461159e90614e41565b80156115e95780601f106115c0576101008083540402835291602001916115e9565b820191905f5260205f20905b8154815290600101906020018083116115cc57829003601f168201915b5050505050815260200160098201805461160290614e41565b80601f016020809104026020016040519081016040528092919081815260200182805461162e90614e41565b80156116795780601f1061165057610100808354040283529160200191611679565b820191905f5260205f20905b81548152906001019060200180831161165c57829003601f168201915b50505050508152602001600a820180548060200260200160405190810160405280929190818152602001828054801561170457602002820191905f5260205f20905b815f9054906101000a900473ffffffffffffffffffffffffffffffffffffffff1673ffffffffffffffffffffffffffffffffffffffff16815260200190600101908083116116bb575b50505050508152602001600b8201548152602001600c8201548152602001600d82018054806020026020016040519081016040528092919081815260200182805480156117a357602002820191905f5260205f20905b815f9054906101000a900473ffffffffffffffffffffffffffffffffffffffff1673ffffffffffffffffffffffffffffffffffffffff168152602001906001019080831161175a575b50505050508152602001600e82018054806020026020016040519081016040528092919081815260200182805480156117f957602002820191905f5260205f20905b8154815260200190600101908083116117e5575b50505050508152602001600f820154815260200160108201805461181c90614e41565b80601f016020809104026020016040519081016040528092919081815260200182805461184890614e41565b80156118935780601f1061186a57610100808354040283529160200191611893565b820191905f5260205f20905b81548152906001019060200180831161187657829003601f168201915b50505050508152505090806011015f9054906101000a900460ff16908060120154905083565b3373ffffffffffffffffffffffffffffffffffffffff1660025f8381526020019081526020015f205f015f015f9054906101000a900473ffffffffffffffffffffffffffffffffffffffff1673ffffffffffffffffffffffffffffffffffffffff161461195b576040517f08c379a000000000000000000000000000000000000000000000000000000000815260040161195290615412565b60405180910390fd5b6001600481111561196f5761196e61458c565b5b60025f8381526020019081526020015f206011015f9054906101000a900460ff1660048111156119a2576119a161458c565b5b146119e2576040517f08c379a00000000000000000000000000000000000000000000000000000000081526004016119d990614f83565b60405180910390fd5b5f73ffffffffffffffffffffffffffffffffffffffff1660025f8381526020019081526020015f205f016001015f9054906101000a900473ffffffffffffffffffffffffffffffffffffffff1673ffffffffffffffffffffffffffffffffffffffff1603611a85576040517f08c379a0000000000000000000000000000000000000000000000000000000008152600401611a7c906154a0565b60405180910390fd5b60025f8281526020019081526020015f205f01600501544210611add576040517f08c379a0000000000000000000000000000000000000000000000000000000008152600401611ad490615508565b60405180910390fd5b60025f8281526020019081526020015f205f015f015f9054906101000a900473ffffffffffffffffffffffffffffffffffffffff1673ffffffffffffffffffffffffffffffffffffffff166108fc60025f8481526020019081526020015f205f01600c015460025f8581526020019081526020015f205f01600b0154611b63919061509e565b90811502906040515f60405180830381858888f19350505050158015611b8b573d5f803e3d5ffd5b50600460025f8381526020019081526020015f206011015f6101000a81548160ff02191690836004811115611bc357611bc261458c565b5b0217905550600460038281548110611bde57611bdd61539b565b5b905f5260205f2090601302016011015f6101000a81548160ff02191690836004811115611c0e57611c0d61458c565b5b021790555050565b5f8060025f8581526020019081526020015f206040518060600160405290815f8201604051806102200160405290815f82015f9054906101000a900473ffffffffffffffffffffffffffffffffffffffff1673ffffffffffffffffffffffffffffffffffffffff1673ffffffffffffffffffffffffffffffffffffffff168152602001600182015f9054906101000a900473ffffffffffffffffffffffffffffffffffffffff1673ffffffffffffffffffffffffffffffffffffffff1673ffffffffffffffffffffffffffffffffffffffff16815260200160028201548152602001600382015481526020016004820154815260200160058201548152602001600682018054611d2590614e41565b80601f0160208091040260200160405190810160405280929190818152602001828054611d5190614e41565b8015611d9c5780601f10611d7357610100808354040283529160200191611d9c565b820191905f5260205f20905b815481529060010190602001808311611d7f57829003601f168201915b50505050508152602001600782018054611db590614e41565b80601f0160208091040260200160405190810160405280929190818152602001828054611de190614e41565b8015611e2c5780601f10611e0357610100808354040283529160200191611e2c565b820191905f5260205f20905b815481529060010190602001808311611e0f57829003601f168201915b50505050508152602001600882018054611e4590614e41565b80601f0160208091040260200160405190810160405280929190818152602001828054611e7190614e41565b8015611ebc5780601f10611e9357610100808354040283529160200191611ebc565b820191905f5260205f20905b815481529060010190602001808311611e9f57829003601f168201915b50505050508152602001600982018054611ed590614e41565b80601f0160208091040260200160405190810160405280929190818152602001828054611f0190614e41565b8015611f4c5780601f10611f2357610100808354040283529160200191611f4c565b820191905f5260205f20905b815481529060010190602001808311611f2f57829003601f168201915b50505050508152602001600a8201805480602002602001604051908101604052809291908181526020018280548015611fd757602002820191905f5260205f20905b815f9054906101000a900473ffffffffffffffffffffffffffffffffffffffff1673ffffffffffffffffffffffffffffffffffffffff1681526020019060010190808311611f8e575b50505050508152602001600b8201548152602001600c8201548152602001600d820180548060200260200160405190810160405280929190818152602001828054801561207657602002820191905f5260205f20905b815f9054906101000a900473ffffffffffffffffffffffffffffffffffffffff1673ffffffffffffffffffffffffffffffffffffffff168152602001906001019080831161202d575b50505050508152602001600e82018054806020026020016040519081016040528092919081815260200182805480156120cc57602002820191905f5260205f20905b8154815260200190600101908083116120b8575b50505050508152602001600f82015481526020016010820180546120ef90614e41565b80601f016020809104026020016040519081016040528092919081815260200182805461211b90614e41565b80156121665780601f1061213d57610100808354040283529160200191612166565b820191905f5260205f20905b81548152906001019060200180831161214957829003601f168201915b5050505050815250508152602001601182015f9054906101000a900460ff1660048111156121975761219661458c565b5b60048111156121a9576121a861458c565b5b815260200160128201548152505090505f8054906101000a900473ffffffffffffffffffffffffffffffffffffffff1673ffffffffffffffffffffffffffffffffffffffff16630b971338336040518263ffffffff1660e01b81526004016122119190614197565b602060405180830381865afa15801561222c573d5f803e3d5ffd5b505050506040513d601f19601f820116820180604052508101906122509190614ea6565b61228f576040517f08c379a000000000000000000000000000000000000000000000000000000000815260040161228690615570565b60405180910390fd5b600260048111156122a3576122a261458c565b5b816020015160048111156122ba576122b961458c565b5b146122fa576040517f08c379a00000000000000000000000000000000000000000000000000000000081526004016122f1906155d8565b60405180910390fd5b805f0151606001514210612343576040517f08c379a000000000000000000000000000000000000000000000000000000000815260040161233a90615640565b60405180910390fd5b805f01516101800151341461238d576040517f08c379a0000000000000000000000000000000000000000000000000000000008152600401612384906156a8565b60405180910390fd5b61239f815f01516101a0015133613dfe565b156123df576040517f08c379a00000000000000000000000000000000000000000000000000000000081526004016123d690615710565b60405180910390fd5b60025f8581526020019081526020015f205f01600d0133908060018154018082558091505060019003905f5260205f20015f9091909190916101000a81548173ffffffffffffffffffffffffffffffffffffffff021916908373ffffffffffffffffffffffffffffffffffffffff16021790555060025f8581526020019081526020015f205f01600e0183908060018154018082558091505060019003905f5260205f20015f90919091909150557f0fc69407039e8ba8cdd517e2a4cae9dd19697b0a500ff37a2425c59ebc649b3184600160025f8881526020019081526020015f205f01600d01805490506124d591906150d1565b6040516124e392919061572e565b60405180910390a1600160025f8681526020019081526020015f205f01600d018054905061251191906150d1565b91505092915050565b5f805f9054906101000a900473ffffffffffffffffffffffffffffffffffffffff1673ffffffffffffffffffffffffffffffffffffffff1663e5b0c5a7336040518263ffffffff1660e01b81526004016125749190614197565b602060405180830381865afa15801561258f573d5f803e3d5ffd5b505050506040513d601f19601f820116820180604052508101906125b39190614ea6565b6125f2576040517f08c379a00000000000000000000000000000000000000000000000000000000081526004016125e99061579f565b60405180910390fd5b5f3411612634576040517f08c379a000000000000000000000000000000000000000000000000000000000815260040161262b90615807565b60405180910390fd5b5f5b8251811015612742575f8054906101000a900473ffffffffffffffffffffffffffffffffffffffff1673ffffffffffffffffffffffffffffffffffffffff1663bdf6c67384838151811061268d5761268c61539b565b5b60200260200101516040518263ffffffff1660e01b81526004016126b19190614197565b602060405180830381865afa1580156126cc573d5f803e3d5ffd5b505050506040513d601f19601f820116820180604052508101906126f09190614ea6565b61272f576040517f08c379a00000000000000000000000000000000000000000000000000000000081526004016127269061586f565b60405180910390fd5b808061273a9061588d565b915050612636565b5061274b613f1e565b60045481604001818152505033815f01515f019073ffffffffffffffffffffffffffffffffffffffff16908173ffffffffffffffffffffffffffffffffffffffff16815250506002816020019060048111156127aa576127a961458c565b5b908160048111156127be576127bd61458c565b5b8152505042815f015160400181815250508a426127db919061509e565b815f01516060018181525050603c8b426127f5919061509e565b6127ff919061509e565b815f0151608001818152505089603c8c4261281a919061509e565b612824919061509e565b61282e919061509e565b815f015160a00181815250507fffffffffffffffffffffffffffffffffffffffffffffffffffffffffffffffff815f01516101e001818152505034815f015161016001818152505084815f015161018001818152505082815f0151610140018190525088815f015160c0018190525087815f015160e0018190525086815f0151610100018190525085815f0151610120018190525083815f01516102000181905250600381908060018154018082558091505060019003905f5260205f2090601302015f909190919091505f820151815f015f820151815f015f6101000a81548173ffffffffffffffffffffffffffffffffffffffff021916908373ffffffffffffffffffffffffffffffffffffffff1602179055506020820151816001015f6101000a81548173ffffffffffffffffffffffffffffffffffffffff021916908373ffffffffffffffffffffffffffffffffffffffff16021790555060408201518160020155606082015181600301556080820151816004015560a0820151816005015560c08201518160060190816129c791906158d4565b5060e08201518160070190816129dd91906158d4565b506101008201518160080190816129f491906158d4565b50610120820151816009019081612a0b91906158d4565b5061014082015181600a019080519060200190612a29929190613f55565b5061016082015181600b015561018082015181600c01556101a082015181600d019080519060200190612a5d929190613f55565b506101c082015181600e019080519060200190612a7b929190613fdc565b506101e082015181600f0155610200820151816010019081612a9d91906158d4565b5050506020820151816011015f6101000a81548160ff02191690836004811115612aca57612ac961458c565b5b02179055506040820151816012015550508060025f60045481526020019081526020015f205f820151815f015f820151815f015f6101000a81548173ffffffffffffffffffffffffffffffffffffffff021916908373ffffffffffffffffffffffffffffffffffffffff1602179055506020820151816001015f6101000a81548173ffffffffffffffffffffffffffffffffffffffff021916908373ffffffffffffffffffffffffffffffffffffffff16021790555060408201518160020155606082015181600301556080820151816004015560a0820151816005015560c0820151816006019081612bbd91906158d4565b5060e0820151816007019081612bd391906158d4565b50610100820151816008019081612bea91906158d4565b50610120820151816009019081612c0191906158d4565b5061014082015181600a019080519060200190612c1f929190613f55565b5061016082015181600b015561018082015181600c01556101a082015181600d019080519060200190612c53929190613f55565b506101c082015181600e019080519060200190612c71929190613fdc565b506101e082015181600f0155610200820151816010019081612c9391906158d4565b5050506020820151816011015f6101000a81548160ff02191690836004811115612cc057612cbf61458c565b5b02179055506040820151816012015590505060045f815480929190612ce49061588d565b919050555080604001519150509998505050505050505050565b6002602052805f5260405f205f91509050805f01604051806102200160405290815f82015f9054906101000a900473ffffffffffffffffffffffffffffffffffffffff1673ffffffffffffffffffffffffffffffffffffffff1673ffffffffffffffffffffffffffffffffffffffff168152602001600182015f9054906101000a900473ffffffffffffffffffffffffffffffffffffffff1673ffffffffffffffffffffffffffffffffffffffff1673ffffffffffffffffffffffffffffffffffffffff16815260200160028201548152602001600382015481526020016004820154815260200160058201548152602001600682018054612dff90614e41565b80601f0160208091040260200160405190810160405280929190818152602001828054612e2b90614e41565b8015612e765780601f10612e4d57610100808354040283529160200191612e76565b820191905f5260205f20905b815481529060010190602001808311612e5957829003601f168201915b50505050508152602001600782018054612e8f90614e41565b80601f0160208091040260200160405190810160405280929190818152602001828054612ebb90614e41565b8015612f065780601f10612edd57610100808354040283529160200191612f06565b820191905f5260205f20905b815481529060010190602001808311612ee957829003601f168201915b50505050508152602001600882018054612f1f90614e41565b80601f0160208091040260200160405190810160405280929190818152602001828054612f4b90614e41565b8015612f965780601f10612f6d57610100808354040283529160200191612f96565b820191905f5260205f20905b815481529060010190602001808311612f7957829003601f168201915b50505050508152602001600982018054612faf90614e41565b80601f0160208091040260200160405190810160405280929190818152602001828054612fdb90614e41565b80156130265780601f10612ffd57610100808354040283529160200191613026565b820191905f5260205f20905b81548152906001019060200180831161300957829003601f168201915b50505050508152602001600a82018054806020026020016040519081016040528092919081815260200182805480156130b157602002820191905f5260205f20905b815f9054906101000a900473ffffffffffffffffffffffffffffffffffffffff1673ffffffffffffffffffffffffffffffffffffffff1681526020019060010190808311613068575b50505050508152602001600b8201548152602001600c8201548152602001600d820180548060200260200160405190810160405280929190818152602001828054801561315057602002820191905f5260205f20905b815f9054906101000a900473ffffffffffffffffffffffffffffffffffffffff1673ffffffffffffffffffffffffffffffffffffffff1681526020019060010190808311613107575b50505050508152602001600e82018054806020026020016040519081016040528092919081815260200182805480156131a657602002820191905f5260205f20905b815481526020019060010190808311613192575b50505050508152602001600f82015481526020016010820180546131c990614e41565b80601f01602080910402602001604051908101604052809291908181526020018280546131f590614e41565b80156132405780601f1061321757610100808354040283529160200191613240565b820191905f5260205f20905b81548152906001019060200180831161322357829003601f168201915b50505050508152505090806011015f9054906101000a900460ff16908060120154905083565b60025f8281526020019081526020015f205f015f015f9054906101000a900473ffffffffffffffffffffffffffffffffffffffff1673ffffffffffffffffffffffffffffffffffffffff163373ffffffffffffffffffffffffffffffffffffffff1614613308576040517f08c379a00000000000000000000000000000000000000000000000000000000081526004016132ff90615412565b60405180910390fd5b6002600481111561331c5761331b61458c565b5b60025f8381526020019081526020015f206011015f9054906101000a900460ff16600481111561334f5761334e61458c565b5b1461338f576040517f08c379a0000000000000000000000000000000000000000000000000000000008152600401613386906155d8565b60405180910390fd5b60025f8281526020019081526020015f205f015f015f9054906101000a900473ffffffffffffffffffffffffffffffffffffffff1673ffffffffffffffffffffffffffffffffffffffff166108fc60025f8481526020019081526020015f205f01600b015490811502906040515f60405180830381858888f1935050505015801561341c573d5f803e3d5ffd5b50600360025f8381526020019081526020015f206011015f6101000a81548160ff021916908360048111156134545761345361458c565b5b0217905550600380828154811061346e5761346d61539b565b5b905f5260205f2090601302016011015f6101000a81548160ff0219169083600481111561349e5761349d61458c565b5b021790555050565b5f60025f8681526020019081526020015f2090505f8054906101000a900473ffffffffffffffffffffffffffffffffffffffff1673ffffffffffffffffffffffffffffffffffffffff16630b971338336040518263ffffffff1660e01b81526004016135129190614197565b602060405180830381865afa15801561352d573d5f803e3d5ffd5b505050506040513d601f19601f820116820180604052508101906135519190614ea6565b613590576040517f08c379a0000000000000000000000000000000000000000000000000000000008152600401613587906159ed565b60405180910390fd5b805f016003015442116135d8576040517f08c379a00000000000000000000000000000000000000000000000000000000081526004016135cf90615a55565b60405180910390fd5b805f01600401544210613620576040517f08c379a000000000000000000000000000000000000000000000000000000000815260040161361790615abd565b60405180910390fd5b600260048111156136345761363361458c565b5b816011015f9054906101000a900460ff1660048111156136575761365661458c565b5b14613697576040517f08c379a000000000000000000000000000000000000000000000000000000000815260040161368e906155d8565b60405180910390fd5b805f01600b015484106136df576040517f08c379a00000000000000000000000000000000000000000000000000000000081526004016136d690615b25565b60405180910390fd5b805f01600d0182815481106136f7576136f661539b565b5b905f5260205f20015f9054906101000a900473ffffffffffffffffffffffffffffffffffffffff1673ffffffffffffffffffffffffffffffffffffffff163373ffffffffffffffffffffffffffffffffffffffff161461378c576040517f08c379a000000000000000000000000000000000000000000000000000000000815260040161378390615b8d565b60405180910390fd5b34815f01600c0154146137d4576040517f08c379a00000000000000000000000000000000000000000000000000000000081526004016137cb906156a8565b60405180910390fd5b82846137e0919061509e565b6040516020016137f09190615bcb565b604051602081830303815290604052805190602001205f1c815f01600e0183815481106138205761381f61539b565b5b905f5260205f20015414613869576040517f08c379a000000000000000000000000000000000000000000000000000000000815260040161386090615c2f565b60405180910390fd5b5f73ffffffffffffffffffffffffffffffffffffffff16815f016001015f9054906101000a900473ffffffffffffffffffffffffffffffffffffffff1673ffffffffffffffffffffffffffffffffffffffff161461393157805f016001015f9054906101000a900473ffffffffffffffffffffffffffffffffffffffff1673ffffffffffffffffffffffffffffffffffffffff166108fc825f01600c015490811502906040515f60405180830381858888f1935050505015801561392f573d5f803e3d5ffd5b505b6001816011015f6101000a81548160ff021916908360048111156139585761395761458c565b5b021790555033815f016001015f6101000a81548173ffffffffffffffffffffffffffffffffffffffff021916908373ffffffffffffffffffffffffffffffffffffffff16021790555083815f01600f01819055508060025f8781526020019081526020015f205f8201815f015f82015f9054906101000a900473ffffffffffffffffffffffffffffffffffffffff16815f015f6101000a81548173ffffffffffffffffffffffffffffffffffffffff021916908373ffffffffffffffffffffffffffffffffffffffff160217905550600182015f9054906101000a900473ffffffffffffffffffffffffffffffffffffffff16816001015f6101000a81548173ffffffffffffffffffffffffffffffffffffffff021916908373ffffffffffffffffffffffffffffffffffffffff1602179055506002820154816002015560038201548160030155600482015481600401556005820154816005015560068201816006019081613ac891906152b6565b5060078201816007019081613add91906152b6565b5060088201816008019081613af291906152b6565b5060098201816009019081613b0791906152b6565b50600a820181600a01908054613b1e929190613e82565b50600b82015481600b0155600c82015481600c0155600d820181600d01908054613b49929190613e82565b50600e820181600e01908054613b60929190613ed0565b50600f82015481600f015560108201816010019081613b7f91906152b6565b505050601182015f9054906101000a900460ff16816011015f6101000a81548160ff02191690836004811115613bb857613bb761458c565b5b0217905550601282015481601201559050508060038681548110613bdf57613bde61539b565b5b905f5260205f2090601302015f8201815f015f82015f9054906101000a900473ffffffffffffffffffffffffffffffffffffffff16815f015f6101000a81548173ffffffffffffffffffffffffffffffffffffffff021916908373ffffffffffffffffffffffffffffffffffffffff160217905550600182015f9054906101000a900473ffffffffffffffffffffffffffffffffffffffff16816001015f6101000a81548173ffffffffffffffffffffffffffffffffffffffff021916908373ffffffffffffffffffffffffffffffffffffffff1602179055506002820154816002015560038201548160030155600482015481600401556005820154816005015560068201816006019081613cf591906152b6565b5060078201816007019081613d0a91906152b6565b5060088201816008019081613d1f91906152b6565b5060098201816009019081613d3491906152b6565b50600a820181600a01908054613d4b929190613e82565b50600b82015481600b0155600c82015481600c0155600d820181600d01908054613d76929190613e82565b50600e820181600e01908054613d8d929190613ed0565b50600f82015481600f015560108201816010019081613dac91906152b6565b505050601182015f9054906101000a900460ff16816011015f6101000a81548160ff02191690836004811115613de557613de461458c565b5b0217905550601282015481601201559050505050505050565b5f805f90505b8351811015613e77578273ffffffffffffffffffffffffffffffffffffffff16848281518110613e3757613e3661539b565b5b602002602001015173ffffffffffffffffffffffffffffffffffffffff1603613e64576001915050613e7c565b8080613e6f9061588d565b915050613e04565b505f90505b92915050565b828054828255905f5260205f20908101928215613ebf575f5260205f209182015b82811115613ebe578254825591600101919060010190613ea3565b5b509050613ecc9190614027565b5090565b828054828255905f5260205f20908101928215613f0d575f5260205f209182015b82811115613f0c578254825591600101919060010190613ef1565b5b509050613f1a9190614027565b5090565b6040518060600160405280613f31614042565b81526020015f6004811115613f4957613f4861458c565b5b81526020015f81525090565b828054828255905f5260205f20908101928215613fcb579160200282015b82811115613fca578251825f6101000a81548173ffffffffffffffffffffffffffffffffffffffff021916908373ffffffffffffffffffffffffffffffffffffffff16021790555091602001919060010190613f73565b5b509050613fd89190614027565b5090565b828054828255905f5260205f20908101928215614016579160200282015b82811115614015578251825591602001919060010190613ffa565b5b5090506140239190614027565b5090565b5b8082111561403e575f815f905550600101614028565b5090565b6040518061022001604052805f73ffffffffffffffffffffffffffffffffffffffff1681526020015f73ffffffffffffffffffffffffffffffffffffffff1681526020015f81526020015f81526020015f81526020015f815260200160608152602001606081526020016060815260200160608152602001606081526020015f81526020015f815260200160608152602001606081526020015f8152602001606081525090565b5f604051905090565b5f80fd5b5f80fd5b5f819050919050565b61410c816140fa565b8114614116575f80fd5b50565b5f8135905061412781614103565b92915050565b5f60208284031215614142576141416140f2565b5b5f61414f84828501614119565b91505092915050565b5f73ffffffffffffffffffffffffffffffffffffffff82169050919050565b5f61418182614158565b9050919050565b61419181614177565b82525050565b5f6020820190506141aa5f830184614188565b92915050565b5f81519050919050565b5f82825260208201905092915050565b5f819050602082019050919050565b5f6141e382614158565b9050919050565b6141f3816141d9565b82525050565b614202816140fa565b82525050565b5f81519050919050565b5f82825260208201905092915050565b5f5b8381101561423f578082015181840152602081019050614224565b5f8484015250505050565b5f601f19601f8301169050919050565b5f61426482614208565b61426e8185614212565b935061427e818560208601614222565b6142878161424a565b840191505092915050565b5f81519050919050565b5f82825260208201905092915050565b5f819050602082019050919050565b6142c481614177565b82525050565b5f6142d583836142bb565b60208301905092915050565b5f602082019050919050565b5f6142f782614292565b614301818561429c565b935061430c836142ac565b805f5b8381101561433c57815161432388826142ca565b975061432e836142e1565b92505060018101905061430f565b5085935050505092915050565b5f81519050919050565b5f82825260208201905092915050565b5f819050602082019050919050565b5f61437d83836141f9565b60208301905092915050565b5f602082019050919050565b5f61439f82614349565b6143a98185614353565b93506143b483614363565b805f5b838110156143e45781516143cb8882614372565b97506143d683614389565b9250506001810190506143b7565b5085935050505092915050565b5f61022083015f8301516144075f8601826141ea565b50602083015161441a60208601826141ea565b50604083015161442d60408601826141f9565b50606083015161444060608601826141f9565b50608083015161445360808601826141f9565b5060a083015161446660a08601826141f9565b5060c083015184820360c086015261447e828261425a565b91505060e083015184820360e0860152614498828261425a565b9150506101008301518482036101008601526144b4828261425a565b9150506101208301518482036101208601526144d0828261425a565b9150506101408301518482036101408601526144ec82826142ed565b9150506101608301516145036101608601826141f9565b506101808301516145186101808601826141f9565b506101a08301518482036101a086015261453282826142ed565b9150506101c08301518482036101c086015261454e8282614395565b9150506101e08301516145656101e08601826141f9565b5061020083015184820361020086015261457f828261425a565b9150508091505092915050565b7f4e487b71000000000000000000000000000000000000000000000000000000005f52602160045260245ffd5b600581106145ca576145c961458c565b5b50565b5f8190506145da826145b9565b919050565b5f6145e9826145cd565b9050919050565b6145f9816145df565b82525050565b5f606083015f8301518482035f86015261461982826143f1565b915050602083015161462e60208601826145f0565b50604083015161464160408601826141f9565b508091505092915050565b5f61465783836145ff565b905092915050565b5f602082019050919050565b5f614675826141b0565b61467f81856141ba565b935083602082028501614691856141ca565b805f5b858110156146cc57848403895281516146ad858261464c565b94506146b88361465f565b925060208a01995050600181019050614694565b50829750879550505050505092915050565b5f6020820190508181035f8301526146f6818461466b565b905092915050565b614707816140fa565b82525050565b5f6020820190506147205f8301846146fe565b92915050565b5f61022083015f83015161473c5f8601826141ea565b50602083015161474f60208601826141ea565b50604083015161476260408601826141f9565b50606083015161477560608601826141f9565b50608083015161478860808601826141f9565b5060a083015161479b60a08601826141f9565b5060c083015184820360c08601526147b3828261425a565b91505060e083015184820360e08601526147cd828261425a565b9150506101008301518482036101008601526147e9828261425a565b915050610120830151848203610120860152614805828261425a565b91505061014083015184820361014086015261482182826142ed565b9150506101608301516148386101608601826141f9565b5061018083015161484d6101808601826141f9565b506101a08301518482036101a086015261486782826142ed565b9150506101c08301518482036101c08601526148838282614395565b9150506101e083015161489a6101e08601826141f9565b506102008301518482036102008601526148b4828261425a565b9150508091505092915050565b6148ca816145df565b82525050565b5f6060820190508181035f8301526148e88186614726565b90506148f760208301856148c1565b61490460408301846146fe565b949350505050565b5f8060408385031215614922576149216140f2565b5b5f61492f85828601614119565b925050602061494085828601614119565b9150509250929050565b5f80fd5b5f80fd5b7f4e487b71000000000000000000000000000000000000000000000000000000005f52604160045260245ffd5b6149888261424a565b810181811067ffffffffffffffff821117156149a7576149a6614952565b5b80604052505050565b5f6149b96140e9565b90506149c5828261497f565b919050565b5f67ffffffffffffffff8211156149e4576149e3614952565b5b6149ed8261424a565b9050602081019050919050565b828183375f83830152505050565b5f614a1a614a15846149ca565b6149b0565b905082815260208101848484011115614a3657614a3561494e565b5b614a418482856149fa565b509392505050565b5f82601f830112614a5d57614a5c61494a565b5b8135614a6d848260208601614a08565b91505092915050565b5f67ffffffffffffffff821115614a9057614a8f614952565b5b602082029050602081019050919050565b5f80fd5b614aae81614177565b8114614ab8575f80fd5b50565b5f81359050614ac981614aa5565b92915050565b5f614ae1614adc84614a76565b6149b0565b90508083825260208201905060208402830185811115614b0457614b03614aa1565b5b835b81811015614b2d5780614b198882614abb565b845260208401935050602081019050614b06565b5050509392505050565b5f82601f830112614b4b57614b4a61494a565b5b8135614b5b848260208601614acf565b91505092915050565b5f805f805f805f805f6101208a8c031215614b8257614b816140f2565b5b5f614b8f8c828d01614119565b9950506020614ba08c828d01614119565b98505060408a013567ffffffffffffffff811115614bc157614bc06140f6565b5b614bcd8c828d01614a49565b97505060608a013567ffffffffffffffff811115614bee57614bed6140f6565b5b614bfa8c828d01614a49565b96505060808a013567ffffffffffffffff811115614c1b57614c1a6140f6565b5b614c278c828d01614a49565b95505060a08a013567ffffffffffffffff811115614c4857614c476140f6565b5b614c548c828d01614a49565b94505060c0614c658c828d01614119565b93505060e08a013567ffffffffffffffff811115614c8657614c856140f6565b5b614c928c828d01614a49565b9250506101008a013567ffffffffffffffff811115614cb457614cb36140f6565b5b614cc08c828d01614b37565b9150509295985092959850929598565b5f805f8060808587031215614ce857614ce76140f2565b5b5f614cf587828801614119565b9450506020614d0687828801614119565b9350506040614d1787828801614119565b9250506060614d2887828801614119565b91505092959194509250565b5f82825260208201905092915050565b7f54656e646572206e6f7420706173742052657665616c000000000000000000005f82015250565b5f614d78601683614d34565b9150614d8382614d44565b602082019050919050565b5f6020820190508181035f830152614da581614d6c565b9050919050565b7f54656e646572206973206f70656e0000000000000000000000000000000000005f82015250565b5f614de0600e83614d34565b9150614deb82614dac565b602082019050919050565b5f6020820190508181035f830152614e0d81614dd4565b9050919050565b7f4e487b71000000000000000000000000000000000000000000000000000000005f52602260045260245ffd5b5f6002820490506001821680614e5857607f821691505b602082108103614e6b57614e6a614e14565b5b50919050565b5f8115159050919050565b614e8581614e71565b8114614e8f575f80fd5b50565b5f81519050614ea081614e7c565b92915050565b5f60208284031215614ebb57614eba6140f2565b5b5f614ec884828501614e92565b91505092915050565b7f53656e646572206d75737420626520686f73706974616c0000000000000000005f82015250565b5f614f05601783614d34565b9150614f1082614ed1565b602082019050919050565b5f6020820190508181035f830152614f3281614ef9565b9050919050565b7f54656e646572206e6f7420696e2070726f6772657373000000000000000000005f82015250565b5f614f6d601683614d34565b9150614f7882614f39565b602082019050919050565b5f6020820190508181035f830152614f9a81614f61565b9050919050565b7f54656e646572206973206e6f7420706173742072657665616c206461746500005f82015250565b5f614fd5601e83614d34565b9150614fe082614fa1565b602082019050919050565b5f6020820190508181035f83015261500281614fc9565b9050919050565b7f53656e6465722076616c696420686f73706974616c00000000000000000000005f82015250565b5f61503d601583614d34565b915061504882615009565b602082019050919050565b5f6020820190508181035f83015261506a81615031565b9050919050565b7f4e487b71000000000000000000000000000000000000000000000000000000005f52601160045260245ffd5b5f6150a8826140fa565b91506150b3836140fa565b92508282019050808211156150cb576150ca615071565b5b92915050565b5f6150db826140fa565b91506150e6836140fa565b92508282039050818111156150fe576150fd615071565b5b92915050565b5f8154905061511281614e41565b9050919050565b5f819050815f5260205f209050919050565b5f6020601f8301049050919050565b5f82821b905092915050565b5f600883026151757fffffffffffffffffffffffffffffffffffffffffffffffffffffffffffffffff8261513a565b61517f868361513a565b95508019841693508086168417925050509392505050565b5f819050919050565b5f6151ba6151b56151b0846140fa565b615197565b6140fa565b9050919050565b5f819050919050565b6151d3836151a0565b6151e76151df826151c1565b848454615146565b825550505050565b5f90565b6151fb6151ef565b6152068184846151ca565b505050565b5b818110156152295761521e5f826151f3565b60018101905061520c565b5050565b601f82111561526e5761523f81615119565b6152488461512b565b81016020851015615257578190505b61526b6152638561512b565b83018261520b565b50505b505050565b5f82821c905092915050565b5f61528e5f1984600802615273565b1980831691505092915050565b5f6152a6838361527f565b9150826002028217905092915050565b8181036152c4575050615399565b6152cd82615104565b67ffffffffffffffff8111156152e6576152e5614952565b5b6152f08254614e41565b6152fb82828561522d565b5f601f831160018114615328575f8415615316578287015490505b615320858261529b565b865550615392565b601f19841661533687615119565b965061534186615119565b5f5b8281101561536857848901548255600182019150600185019450602081019050615343565b868310156153855784890154615381601f89168261527f565b8355505b6001600288020188555050505b5050505050505b565b7f4e487b71000000000000000000000000000000000000000000000000000000005f52603260045260245ffd5b7f53656e646572206973206e6f74207468652074656e64657220706f73746572005f82015250565b5f6153fc601f83614d34565b9150615407826153c8565b602082019050919050565b5f6020820190508181035f830152615429816153f0565b9050919050565b7f54656e646572206163636570746572206973206e6f74207468652061646472655f8201527f7373207365740000000000000000000000000000000000000000000000000000602082015250565b5f61548a602683614d34565b915061549582615430565b604082019050919050565b5f6020820190508181035f8301526154b78161547e565b9050919050565b7f41756374696f6e206973206f76657200000000000000000000000000000000005f82015250565b5f6154f2600f83614d34565b91506154fd826154be565b602082019050919050565b5f6020820190508181035f83015261551f816154e6565b9050919050565b7f53656e646572206d75737420626520616e20616d62756c616e636500000000005f82015250565b5f61555a601b83614d34565b915061556582615526565b602082019050919050565b5f6020820190508181035f8301526155878161554e565b9050919050565b7f54656e646572206e6f74206f70656e00000000000000000000000000000000005f82015250565b5f6155c2600f83614d34565b91506155cd8261558e565b602082019050919050565b5f6020820190508181035f8301526155ef816155b6565b9050919050565b7f41756374696f6e206861732070617373656400000000000000000000000000005f82015250565b5f61562a601283614d34565b9150615635826155f6565b602082019050919050565b5f6020820190508181035f8301526156578161561e565b9050919050565b7f496e636f72726563742070656e616c747920616d6f756e7400000000000000005f82015250565b5f615692601883614d34565b915061569d8261565e565b602082019050919050565b5f6020820190508181035f8301526156bf81615686565b9050919050565b7f43616e206f6e6c7920626964206f6e63650000000000000000000000000000005f82015250565b5f6156fa601183614d34565b9150615705826156c6565b602082019050919050565b5f6020820190508181035f830152615727816156ee565b9050919050565b5f6040820190506157415f8301856146fe565b61574e60208301846146fe565b9392505050565b7f53656e646572206e6f7420696e69746961746f720000000000000000000000005f82015250565b5f615789601483614d34565b915061579482615755565b602082019050919050565b5f6020820190508181035f8301526157b68161577d565b9050919050565b7f4d61782056616c7565203c2030000000000000000000000000000000000000005f82015250565b5f6157f1600d83614d34565b91506157fc826157bd565b602082019050919050565b5f6020820190508181035f83015261581e816157e5565b9050919050565b7f486f73706974616c28732920696e76616c6964000000000000000000000000005f82015250565b5f615859601383614d34565b915061586482615825565b602082019050919050565b5f6020820190508181035f8301526158868161584d565b9050919050565b5f615897826140fa565b91507fffffffffffffffffffffffffffffffffffffffffffffffffffffffffffffffff82036158c9576158c8615071565b5b600182019050919050565b6158dd82614208565b67ffffffffffffffff8111156158f6576158f5614952565b5b6159008254614e41565b61590b82828561522d565b5f60209050601f83116001811461593c575f841561592a578287015190505b615934858261529b565b86555061599b565b601f19841661594a86615119565b5f5b828110156159715784890151825560018201915060208501945060208101905061594c565b8683101561598e578489015161598a601f89168261527f565b8355505b6001600288020188555050505b505050505050565b7f53656e646572206d75737420626520616d62756c616e636500000000000000005f82015250565b5f6159d7601883614d34565b91506159e2826159a3565b602082019050919050565b5f6020820190508181035f830152615a04816159cb565b9050919050565b7f54656e64657220756e6465722061756374696f6e0000000000000000000000005f82015250565b5f615a3f601483614d34565b9150615a4a82615a0b565b602082019050919050565b5f6020820190508181035f830152615a6c81615a33565b9050919050565b7f54656e64657220706173742072657665616c20706572696f64000000000000005f82015250565b5f615aa7601983614d34565b9150615ab282615a73565b602082019050919050565b5f6020820190508181035f830152615ad481615a9b565b9050919050565b7f42696420776173206e6f742062656c6f77206d61782062696420616d6f756e745f82015250565b5f615b0f602083614d34565b9150615b1a82615adb565b602082019050919050565b5f6020820190508181035f830152615b3c81615b03565b9050919050565b7f57726f6e672062696420494400000000000000000000000000000000000000005f82015250565b5f615b77600c83614d34565b9150615b8282615b43565b602082019050919050565b5f6020820190508181035f830152615ba481615b6b565b9050919050565b5f819050919050565b615bc5615bc0826140fa565b615bab565b82525050565b5f615bd68284615bb4565b60208201915081905092915050565b7f4269642076616c756520213d20486173682056616c75650000000000000000005f82015250565b5f615c19601783614d34565b9150615c2482615be5565b602082019050919050565b5f6020820190508181035f830152615c4681615c0d565b905091905056fea264697066735822122011d4be36dd1e28702befd9696d4d388dc63fc05ccf8071e0f370cfbfd4eb5f5e64736f6c63430008150033",
  "immutableReferences": {},
  "source": "// SPDX-License-Identifier: UNLICENSED \npragma solidity ^0.8.0;\n\nimport \"./Accounts.sol\";\n\ncontract Auctions {\n    // initialize accounts contract\n    Accounts accountsContract;\n\n    // constants\n    uint256 constant MAX_INT = 2**256 - 1;\n    uint256 constant REVEAL_PERIOD = 60;\n\n    // enum for various possible tender status's, closed is default\n    enum TenderStatus {\n        Closed,\n        InProgress,\n        Open,\n        Retracted,\n        Reclaimed\n    }\n\n    // helper struct for tender details\n     struct TenderDetails {\n        address payable tenderPoster;\n        address payable tenderAccepter;\n        uint256 postDate;\n        uint256 auctionDate;\n        uint256 revealDate;\n        uint256 dueDate;\n        string addr;\n        string city;\n        string state;\n        string zipcode;\n        address[] allowedHospitals;\n        uint256 maxBid;\n        uint256 penalty;\n        // Maps an address to its bid. This enforces one bid per address, \n        //so that ambulances do not just bid as many prices as they can, \n        //and then reveal lower and lower bids during the reveal period.\n        // We use 2 arrays because we can't have nested mappings in Solidity.\n        address[] bidders;\n        uint[] bidHashArray;\n        uint256 finalBid;\n        string severity;\n    }\n\n    // struct to hold tender information\n    struct Tender {\n        TenderDetails details;\n        TenderStatus status;\n        uint256 tenderId;\n    }\n\n    // data members for tenders\n    uint256[] public tenderIds; // list of all tenders\n    mapping(uint256 => Tender) public tenderMapping; // mapping for faster tender lookup\n    Tender[] public tenders;\n    uint256 tenderIdCounter = 0;\n\n    // constructor, references the Accounts contract address\n    constructor(address contractAddress) {\n        accountsContract = Accounts(contractAddress);\n    }\n\n    /*\n    * Function posts new tender from initiator and begins the auction for the tender\n    *\n    * @param timeLimit - length of the auction period\n    * @param deliveryTime - how long the ambulance has to transport the patient after auction and reveal\n    * @param addr - address of the tender location\n    * @param city - city of the tender location\n    * @param state - state of the tender location\n    * @param penalty - penalty amount charged for lack of delivery for accepted tender\n    * @param severity - severity of the tender patient\n    * @param allowedHospitals - list of valid hospitals to be transported to\n    * @returns - returns the id of the new tender posted\n    * Note: msg.value is the max bid\n    */\n    function postTender(\n        uint256 timeLimit,\n        uint256 deliveryTime,\n        string memory addr,\n        string memory city,\n        string memory state,\n        string memory zipcode,\n        uint256 penalty,\n        string memory severity,\n        address[] memory allowedHospitals\n    ) public payable returns (uint256) {\n        require(accountsContract.isInitiator(msg.sender), \"Sender not initiator\");\n        require(msg.value > 0, \"Max Value < 0\");\n\n        // validate allowed hospitals given are valid hospitals\n        for (uint256 i = 0; i < allowedHospitals.length; i++) {\n            require(accountsContract.isHospital(allowedHospitals[i]), \"Hospital(s) invalid\");\n        }\n\n        // initalize new tender information\n        Tender memory tender;\n        tender.tenderId = tenderIdCounter;\n        tender.details.tenderPoster = payable(msg.sender);\n        tender.status = TenderStatus.Open; // open tender\n        \n        // set important dates for tender\n        tender.details.postDate = block.timestamp; // set post date to current time\n        tender.details.auctionDate = block.timestamp + timeLimit; // sets auction end date w/ time limit given\n        tender.details.revealDate = block.timestamp + timeLimit + REVEAL_PERIOD; // sets reveal peiod end date\n        tender.details.dueDate = block.timestamp + timeLimit + REVEAL_PERIOD + deliveryTime; // set due date for tender\n\n        // set tender information\n        tender.details.finalBid = MAX_INT; // set current bid to max possible integer\n        tender.details.maxBid = msg.value; // set maximum bid to msg.value\n        tender.details.penalty = penalty;\n        tender.details.allowedHospitals = allowedHospitals;\n\n        // patient location and details\n        tender.details.addr = addr;\n        tender.details.city = city;\n        tender.details.state = state;\n        tender.details.zipcode = zipcode;\n        tender.details.severity = severity;\n        \n        // push new tender and adjust mappings accordingly\n        tenders.push(tender); \n        tenderMapping[tenderIdCounter] = tender;\n        tenderIdCounter++;\n        return tender.tenderId;\n    }\n\n    event BidPlaced(uint256 tenderId, uint256 bidId);\n\n    /*\n    * Function places a secret bid by an ambulance. Each ambulance receives only 1 bid\n    *\n    * @param tenderId - the ID of the tender being bid on\n    * @param bidHashedAmount - the hash value of the bid being places (bid + random salt value)\n    * @returns the ID of the ambulances bid, used for revealing\n    */\n    function secretBid(uint256 tenderId, uint256 bidHashedAmount) public payable returns(uint256 index) {\n        Tender memory tender = tenderMapping[tenderId];\n        require(accountsContract.isAmbulance(msg.sender), \"Sender must be an ambulance\");\n        require(tender.status == TenderStatus.Open, \"Tender not open\");\n        require (block.timestamp < tender.details.auctionDate, \"Auction has passed\");\n        require(msg.value == tender.details.penalty, \"Incorrect penalty amount\");\n        require(!contains(tender.details.bidders, msg.sender), \"Can only bid once\");\n\n        // add bid to array\n        tenderMapping[tenderId].details.bidders.push(msg.sender);\n        tenderMapping[tenderId].details.bidHashArray.push(bidHashedAmount);\n        emit BidPlaced(tenderId, tenderMapping[tenderId].details.bidders.length - 1);\n        return tenderMapping[tenderId].details.bidders.length - 1;\n    }\n\n    /*\n    * Function is used to reveal winning bids after the auction period ends\n    * \n    * @param tenderId - ID of tender being revealed\n    * @param bidVal - amount bid by the ambulance\n    * @param saltVal - the random salt integer used in secretBid\n    * @param index - index of placed secret bid\n    */\n    function revealBid(\n        uint256 tenderId,\n        uint256 bidVal,\n        uint256 salt,\n        uint256 index\n    ) public payable {\n        Tender storage tender = tenderMapping[tenderId];\n        require(accountsContract.isAmbulance(msg.sender), \"Sender must be ambulance\");\n        require(block.timestamp > tender.details.auctionDate, \"Tender under auction\");\n        require(block.timestamp < tender.details.revealDate, \"Tender past reveal period\");\n        require(tender.status == TenderStatus.Open, \"Tender not open\");\n        require(bidVal < tender.details.maxBid, \"Bid was not below max bid amount\");\n        require(msg.sender == tender.details.bidders[index], \"Wrong bid ID\");\n        require(tender.details.penalty == msg.value, \"Incorrect penalty amount\");\n        require(tender.details.bidHashArray[index] == uint256(keccak256(abi.encodePacked(bidVal + salt))), \"Bid value != Hash Value\");\n\n        // if job was already assigned, refund \n        if (tender.details.tenderAccepter != address(0)) {\n            tender.details.tenderAccepter.transfer(\n                tender.details.penalty\n            );\n        }\n        \n        // update tender information\n        tender.status = TenderStatus.InProgress;\n        tender.details.tenderAccepter = payable(msg.sender);\n        tender.details.finalBid = bidVal;\n\n        // set new info to tender mapping\n        tenderMapping[tenderId] = tender;\n        tenders[tenderId] = tender;\n    }\n    \n    /*\n     * get the winner of an auction\n     *\n     * @param tenderId - given tender ID\n     */\n    function getAuctionWinner(uint256 tenderId) public view returns (address tenderWinner) {\n        require(\n            block.timestamp >\n                tenderMapping[tenderId].details.revealDate,\n                \"Tender not past Reveal\"\n        );\n\n        require(\n            tenderMapping[tenderId].status != TenderStatus.Open, \"Tender is open\"\n        );\n\n        return tenderMapping[tenderId].details.tenderAccepter;\n    } \n\n    /*\n    * this function is called upon delivery of a patient where the ambulance is then paid for delivery\n    *\n    * @param tenderId - id of the tender where delivery is being verified \n    */\n    function verifyDelivery(uint256 tenderId) public {\n        require(accountsContract.isHospital(msg.sender), \"Sender must be hospital\");\n        require(\n            tenderMapping[tenderId].status == TenderStatus.InProgress,\n            \"Tender not in progress\"\n        );\n        require(\n            block.timestamp >\n                tenderMapping[tenderId].details.revealDate,\n            \"Tender is not past reveal date\"\n        );\n\n        require(contains(tenderMapping[tenderId].details.allowedHospitals, msg.sender), \"Sender valid hospital\");\n\n        // if the tender was not delivered on time, do not send penalty amount back, else return all funds\n        if ( block.timestamp < tenderMapping[tenderId].details.dueDate) {\n            tenderMapping[tenderId].details.tenderAccepter.transfer(\n            tenderMapping[tenderId].details.finalBid);\n        } else {\n            // transfer agreed upon funds to the tender accepter\n            tenderMapping[tenderId].details.tenderAccepter.transfer(\n            tenderMapping[tenderId].details.finalBid + tenderMapping[tenderId].details.penalty\n            );\n        }        \n\n        // transfer funds back to the tender poster\n        if (tenderMapping[tenderId].details.maxBid - tenderMapping[tenderId].details.finalBid > 0) {\n            tenderMapping[tenderId].details.tenderPoster.transfer(\n                tenderMapping[tenderId].details.maxBid -\n                    tenderMapping[tenderId].details.finalBid\n            );\n        }\n        \n        // close the tender\n        Tender storage referencedTender = tenderMapping[tenderId];\n        referencedTender.status = TenderStatus.Closed;\n        tenderMapping[tenderId] = referencedTender;\n        tenders[tenderId] = referencedTender;\n    }\n\n    /*\n     * get all the tenders present in tenders array\n     *\n     * @returns all tenders on the blockchain\n     */\n    function getAllTenders() public view returns (Tender[] memory) {\n        return tenders;\n    }\n\n    // /*\n    //  * Get a tender from a given tenderID\n    //  *\n    //  * @param tenderId - given tenderID\n    //  *\n    //  * @returns a single tender with given tenderId\n    //  */\n    //  function getTender(uint256 tenderId) public view returns (Tender memory) {\n    //     return tenderMapping[tenderId];\n    //  }\n\n    /*\n     * allows police stations to reclaim their funds + the penalty for failed jobs\n     *\n     * @param tenderId - ID of tender being retracted\n     */\n    function reclaimTender(uint256 tenderId) public {\n        require(\n            tenderMapping[tenderId].details.tenderPoster == msg.sender,\n            \"Sender is not the tender poster\"\n        );\n        require(\n            tenderMapping[tenderId].status == TenderStatus.InProgress,\n            \"Tender not in progress\"\n        );\n        require(\n            tenderMapping[tenderId].details.tenderAccepter != address(0),\n            \"Tender accepter is not the address set\"\n        );\n        require(block.timestamp < tenderMapping[tenderId].details.dueDate, \"Auction is over\");\n\n        tenderMapping[tenderId].details.tenderPoster.transfer(\n            tenderMapping[tenderId].details.maxBid + tenderMapping[tenderId].details.penalty\n        );\n\n        // update status of the tender\n        tenderMapping[tenderId].status = TenderStatus.Reclaimed;\n        tenders[tenderId].status = TenderStatus.Reclaimed;\n    }\n\n    /*\n     * remove a tender with auction in progress from auction period \n     *\n     * @param tenderId - ID of tender being retracted\n     */\n    function retractTender(uint256 tenderId) public {\n        require(\n            msg.sender == tenderMapping[tenderId].details.tenderPoster,\n            \"Sender is not the tender poster\"\n        );\n        require(\n            tenderMapping[tenderId].status == TenderStatus.Open,\n            \"Tender not open\"\n        );\n\n        // can only retract a tender if bid period is over (need to add)\n        tenderMapping[tenderId].details.tenderPoster.transfer(\n            tenderMapping[tenderId].details.maxBid\n        );\n\n        // update status of the tender\n        tenderMapping[tenderId].status = TenderStatus.Retracted;\n        tenders[tenderId].status = TenderStatus.Retracted;\n    }\n\n    // This sucks, but it's one of the consequences of storing everything on the blockchain\n    function contains(address[] memory addresses, address addressToFind) private pure returns (bool doesContain) {\n        for (uint256 i = 0; i < addresses.length; i++) {\n            if (addresses[i] == addressToFind) {\n                return true;\n            }\n        }\n        return false;\n    }\n}",
  "sourcePath": "/Users/owencampbell/Coding/scefsta/truffle/contracts/Auctions.sol",
  "compiler": {
    "name": "solc",
    "version": "0.8.21+commit.d9974bed.Emscripten.clang"
  },
  "schemaVersion": "3.4.14",
  "updatedAt": "2023-10-22T03:30:01.287Z",
  "networkType": "ethereum",
  "devdoc": {
    "kind": "dev",
    "methods": {},
    "version": 1
  },
  "userdoc": {
    "kind": "user",
    "methods": {},
    "version": 1
  }
}